:020000040800F2
:1000000000000220019D00087D9800087D980008EE
:100010007D9800087D9800087D980008B2F1000FD7
:10002000B0F9003018BF4FEA0103A0F80030704764
:100030002DE9F04F40F2190EF8C9B2E8001FD3FACB
:1000400048F3D4FA49F4D5FA4AF5D6FA4BF6D7FA7A
:100050004CF7F8C0BEF1010E7FF4EEAF38C9B2E83C
:100060000007D3FA48F3D4FA49F4D5FA4AF538C070
:10007000BDE8F08F2DE9F04F40F2190EF8C9B2E853
:10008000001F93FA48F394FA49F495FA4AF596FA60
:100090004BF697FA4CF7F8C0BEF1010E7FF4EEAFC5
:1000A00038C9B2E8000793FA48F394FA49F495FA8C
:1000B0004AF538C0BDE8F08F2DE9F04F40F2400E10
:1000C00051F8044B52F8046B51F8045B52F8047B6E
:1000D000D3F804B053F808CB2CFB06FC40F804CB53
:1000E00024FB16FC40F804CB2BFB07FC40F804CBA8
:1000F00025FB17FC40F804CBBEF1010E7FF4E0AF06
:10010000BDE8F08F2DE9F04F40F2400E51F8044B5E
:1001100052F8046BD0F8005053F804CBD0F80470B8
:100120002CFB065C40F804CB24FB167B40F804BB98
:1001300051F8044B52F8046BD0F8005053F804CB3C
:10014000D0F804702CFB065C40F804CB24FB167B33
:1001500040F804BBBEF1010E7FF4D8AFBDE8F08FCC
:100160002DE9F04F46F60809C0F601584FF2013A62
:10017000C6F6A83ADDF824B040F2400E51F8044B20
:1001800052F8046B5BF8045B53F804CB5BF8047B18
:100190002CFB065505FB0AF515FB389524FB167755
:1001A00007FB0AF717FB3897C7EA254540F8045BB9
:1001B00051F8044B52F8046B5BF8045B53F804CB22
:1001C0005BF8047B2CFB065505FB0AF515FB3895FF
:1001D00024FB167707FB0AF717FB3897C7EA254574
:1001E00040F8045BBEF1010E7FF4C8AFBDE8F08FAC
:1001F0002DE9F04F2DED088AC0F6015CB1EC0F4AF5
:1002000000F5007E04EE10EA0BEE900AD0F82020F4
:10021000D0F82430D0F82840D0F82C50D0F83060F6
:10022000D0F83470D0F83880D0F83C9046F608000A
:1002300092FA03FED2FA03F394FA05FBD4FA05F519
:1002400096FA07F2D6FA07F798FA09F4D8FA09F9F4
:100250009EFA0BF8DEFA0BFB92FA04F6D2FA04F4DB
:1002600015EE10AA3AFB05FE3AFB15F51EFB1C0E17
:1002700015FB1C05C5EA2E4ED3FA4EF593FA4EF344
:100280003AFB09FE3AFB19F91EFB1C0E19FB1C096F
:10029000C9EA2E4ED7FA4EF997FA4EF798FA06F2B7
:1002A000D8FA06F616EE10AA3AFB07FE3AFB17F745
:1002B0001EFB1C0E17FB1C07C7EA2E4ED3FA4EF787
:1002C00093FA4EF316EE90AA3AFB04FE3AFB14F4AE
:1002D0001EFB1C0E14FB1C04C4EA2E4EDBFA0EF8A7
:1002E0009BFA0EF417EE10AA3AFB09FE3AFB19F935
:1002F0001EFB1C0E19FB1C09C9EA2E4ED5FA4EF93D
:1003000095FA4EF518EE10BA3BFB03FE3BFB13F3D8
:100310001EFB1C0E13FB1C03C3EA2E4318EE90AA0F
:1003200019EE10BA3AFB04FE3AFB14F41EFB1C0E45
:1003300014FB1C04C4EA2E443BFB05FE3BFB15F5F5
:100340001EFB1C0E15FB1C05C5EA2E4519EE90AAD6
:100350001AEE10BA3AFB06FE3AFB16F61EFB1C0E0E
:1003600016FB1C06C6EA2E463BFB07FE3BFB17F7B7
:100370001EFB1C0E17FB1C07C7EA2E471AEE90AA9D
:100380001BEE10BA3AFB08FE3AFB18F81EFB1C0ED7
:1003900018FB1C08C8EA2E483BFB09FE3BFB19F979
:1003A0001EFB1C0E19FB1C09C9EA2E4900EE102A7F
:1003B00000EE903A01EE104A01EE905A02EE106AF9
:1003C00002EE907A03EE108A03EE909A1BEE900AEA
:1003D000D0F80020D0F80430D0F80840D0F80C5005
:1003E000D0F81060D0F81470D0F81880D0F81C90B5
:1003F00046F6080092FA03FED2FA03F394FA05FBDC
:10040000D4FA05F596FA07F2D6FA07F798FA09F43E
:10041000D8FA09F99EFA0BF8DEFA0BFB92FA04F609
:10042000D2FA04F415EE10AA3AFB05FE3AFB15F5D4
:100430001EFB1C0E15FB1C05C5EA2E4ED3FA4EF50D
:1004400093FA4EF33AFB09FE3AFB19F91EFB1C0E18
:1004500019FB1C09C9EA2E4ED7FA4EF997FA4EF746
:1004600098FA06F2D8FA06F616EE10AA3AFB07FE3C
:100470003AFB17F71EFB1C0E17FB1C07C7EA2E4E94
:10048000D3FA4EF793FA4EF316EE90AA3AFB04FE17
:100490003AFB14F41EFB1C0E14FB1C04C4EA2E4E83
:1004A000DBFA0EF89BFA0EF417EE10AA3AFB09FEDF
:1004B0003AFB19F91EFB1C0E19FB1C09C9EA2E4E4A
:1004C000D5FA4EF995FA4EF51BEE900A10EE90BA59
:1004D00093FA4BFED3FA4BF3C0F804E0C0F8243093
:1004E00011EE90BA95FA4BFED5FA4BF5C0F80CE038
:1004F000C0F82C5012EE90BA97FA4BFED7FA4BF791
:10050000C0F814E0C0F8347013EE90BA99FA4BFEBC
:10051000D9FA4BF9C0F81CE0C0F83C9011EE105A23
:1005200094FA45FED4FA45FBC0F808E0C0F828B0BC
:1005300012EE107A96FA47FED6FA47FBC0F810E0A2
:10054000C0F830B013EE109A98FA49FED8FA49FB79
:10055000C0F818E0C0F838B010EE103A92FA43FE36
:10056000D2FA43FBC0F820B040F840EB14EE10EA9A
:10057000B0EB0E0F7FF448AEA0F5007003EE100A4A
:10058000D0F80020D0F84030D0F88040D0F8C050EB
:10059000D0F80061D0F84071D0F88081D0F8C091D7
:1005A000B1EC060A46F608004AF6B87AC0F2130A19
:1005B0003AFB02FE3AFB12F21EFB1C0E12FB1C025F
:1005C000C2EA2E423AFB03FE3AFB13F31EFB1C0E5B
:1005D00013FB1C03C3EA2E433AFB04FE3AFB14F45C
:1005E0001EFB1C0E14FB1C04C4EA2E443AFB05FE41
:1005F0003AFB15F51EFB1C0E15FB1C05C5EA2E4526
:100600003AFB06FE3AFB16F61EFB1C0E16FB1C06FA
:10061000C6EA2E463AFB07FE3AFB17F71EFB1C0EF6
:1006200017FB1C07C7EA2E473AFB08FE3AFB18F8EF
:100630001EFB1C0E18FB1C08C8EA2E483AFB09FEDC
:100640003AFB19F91EFB1C0E19FB1C09C9EA2E49BD
:1006500092FA03FED2FA03F394FA05FBD4FA05F5F5
:1006600096FA07F2D6FA07F798FA09F4D8FA09F9D0
:100670009EFA0BF8DEFA0BFB92FA04F6D2FA04F4B7
:1006800010EE90AA3AFB05FE3AFB15F51EFB1C0E78
:1006900015FB1C05C5EA2E4ED3FA4EF593FA4EF320
:1006A0003AFB09FE3AFB19F91EFB1C0E19FB1C094B
:1006B000C9EA2E4ED7FA4EF997FA4EF798FA06F293
:1006C000D8FA06F611EE90AA3AFB07FE3AFB17F7A6
:1006D0001EFB1C0E17FB1C07C7EA2E4ED3FA4EF763
:1006E00093FA4EF312EE10AA3AFB04FE3AFB14F40E
:1006F0001EFB1C0E14FB1C04C4EA2E4EDBFA0EF883
:100700009BFA0EF412EE90AA3AFB09FE3AFB19F995
:100710001EFB1C0E19FB1C09C9EA2E4ED5FA4EF918
:1007200095FA4EF5F1E802AB3AFB02FE3AFB12F203
:100730001EFB1C0E12FB1C02C2EA2E423BFB03FEF8
:100740003BFB13F31EFB1C0E13FB1C03C3EA2E43DF
:10075000F1E802AB3AFB04FE3AFB14F41EFB1C0E5C
:1007600014FB1C04C4EA2E443BFB05FE3BFB15F5C1
:100770001EFB1C0E15FB1C05C5EA2E45F1E802AB5D
:100780003AFB06FE3AFB16F61EFB1C0E16FB1C0679
:10079000C6EA2E463BFB07FE3BFB17F71EFB1C0E73
:1007A00017FB1C07C7EA2E47F1E802AB3AFB08FE2D
:1007B0003AFB18F81EFB1C0E18FB1C08C8EA2E4852
:1007C0003BFB09FE3BFB19F91EFB1C0E19FB1C0928
:1007D000C9EA2E4913EE100AC0F80061C0F8407152
:1007E000C0F88081C0F8C091C0F84030C0F88040A7
:1007F000C0F8C05040F8042B00F13C0E07EE10EAA0
:1008000003EE100AD0F80020D0F84030D0F8804035
:10081000D0F8C050D0F80061D0F84071D0F8808195
:10082000D0F8C09146F6080051F804AB3AFB03FE3D
:100830003AFB13F31EFB1C0E13FB1C03C3EA2E4EE4
:10084000D2FA4EF392FA4EF23AFB05FE3AFB15F558
:100850001EFB1C0E15FB1C05C5EA2E4ED4FA4EF5E8
:1008600094FA4EF43AFB07FE3AFB17F71EFB1C0EF8
:1008700017FB1C07C7EA2E4ED6FA4EF796FA4EF62D
:100880003AFB09FE3AFB19F91EFB1C0E19FB1C0969
:10089000C9EA2E4ED8FA4EF998FA4EF8F1E802ABB2
:1008A0003AFB04FE3AFB14F41EFB1C0E14FB1C0462
:1008B000C4EA2E4ED2FA4EF492FA4EF23BFB05FEFB
:1008C0003BFB15F51EFB1C0E15FB1C05C5EA2E4E49
:1008D000D3FA4EF593FA4EF33AFB08FE3AFB18F8BA
:1008E0001EFB1C0E18FB1C08C8EA2E4ED6FA4EF84A
:1008F00096FA4EF63BFB09FE3BFB19F91EFB1C0E5C
:1009000019FB1C09C9EA2E4ED7FA4EF997FA4EF791
:10091000F1E802AB3AFB06FE3AFB16F61EFB1C0E94
:1009200016FB1C06C6EA2E4ED2FA4EF692FA4EF28C
:100930003BFB07FE3BFB17F71EFB1C0E17FB1C07C0
:10094000C7EA2E4ED3FA4EF793FA4EF3F1E802AB14
:100950003AFB08FE3AFB18F81EFB1C0E18FB1C089D
:10096000C8EA2E4ED4FA4EF894FA4EF43BFB09FE38
:100970003BFB19F91EFB1C0E19FB1C09C9EA2E4E84
:10098000D5FA4EF995FA4EF5F1E802AB3AFB02FEC4
:100990003AFB12F21EFB1C0E12FB1C02C2EA2E4294
:1009A0003BFB03FE3BFB13F31EFB1C0E13FB1C0364
:1009B000C3EA2E43F1E802AB3AFB04FE3AFB14F41F
:1009C0001EFB1C0E14FB1C04C4EA2E443BFB05FE5C
:1009D0003BFB15F51EFB1C0E15FB1C05C5EA2E4541
:1009E000F1E802AB3AFB06FE3AFB16F61EFB1C0EC4
:1009F00016FB1C06C6EA2E463BFB07FE3BFB17F721
:100A00001EFB1C0E17FB1C07C7EA2E47F1E802ABC2
:100A10003AFB08FE3AFB18F81EFB1C0E18FB1C08DC
:100A2000C8EA2E483BFB09FE3BFB19F91EFB1C0ED6
:100A300019FB1C09C9EA2E4913EE100AC0F800611F
:100A4000C0F84071C0F88081C0F8C091C0F8403053
:100A5000C0F88040C0F8C05040F8042B17EE10EAF0
:100A6000B0EB0E0F7FF4CCAEBDEC088ABDE8F08F82
:100A70002DE9F04F2DED098AC0F6015CB1EC0F4A6B
:100A800000F1200E0CEE10EA0BEE900AD0F82020B8
:100A9000D0F86030D0F8A040D0F8E050D0F8206115
:100AA000D0F86071D0F8A081D0F8E09146F6080047
:100AB00014EE10AA3AFB06FE3AFB16F61EFB1C0EBD
:100AC00016FB1C06C6EA2E4ED2FA4EF692FA4EF2EB
:100AD0003AFB07FE3AFB17F71EFB1C0E17FB1C0721
:100AE000C7EA2E4ED3FA4EF793FA4EF33AFB08FEBE
:100AF0003AFB18F81EFB1C0E18FB1C08C8EA2E4E09
:100B0000D4FA4EF894FA4EF43AFB09FE3AFB19F97E
:100B10001EFB1C0E19FB1C09C9EA2E4ED5FA4EF914
:100B200095FA4EF514EE90AA15EE10BA3AFB04FEB3
:100B30003AFB14F41EFB1C0E14FB1C04C4EA2E4EDC
:100B4000D2FA4EF492FA4EF23AFB05FE3AFB15F554
:100B50001EFB1C0E15FB1C05C5EA2E4ED3FA4EF5E6
:100B600093FA4EF33BFB08FE3BFB18F81EFB1C0EF2
:100B700018FB1C08C8EA2E4ED6FA4EF896FA4EF626
:100B80003BFB09FE3BFB19F91EFB1C0E19FB1C0964
:100B9000C9EA2E4ED7FA4EF997FA4EF715EE90AAFB
:100BA00016EE10BA3AFB03FE3AFB13F31EFB1C0EC3
:100BB00013FB1C03C3EA2E4ED2FA4EF392FA4EF206
:100BC0003BFB05FE3BFB15F51EFB1C0E15FB1C0538
:100BD000C5EA2E4ED4FA4EF594FA4EF416EE90AACB
:100BE00017EE10BA3AFB07FE3AFB17F71EFB1C0E76
:100BF00017FB1C07C7EA2E4ED6FA4EF796FA4EF6AA
:100C00003BFB09FE3BFB19F91EFB1C0E19FB1C09E3
:100C1000C9EA2E4ED8FA4EF998FA4EF817EE90AA75
:100C200018EE10BA3AFB02FE3AFB12F21EFB1C0E43
:100C300012FB1C02C2EA2E423BFB03FE3BFB13F3FA
:100C40001EFB1C0E13FB1C03C3EA2E4318EE90AAD6
:100C500019EE10BA3AFB04FE3AFB14F41EFB1C0E0C
:100C600014FB1C04C4EA2E443BFB05FE3BFB15F5BC
:100C70001EFB1C0E15FB1C05C5EA2E4519EE90AA9D
:100C80001AEE10BA3AFB06FE3AFB16F61EFB1C0ED5
:100C900016FB1C06C6EA2E463BFB07FE3BFB17F77E
:100CA0001EFB1C0E17FB1C07C7EA2E471AEE90AA64
:100CB0001BEE10BA3AFB08FE3AFB18F81EFB1C0E9E
:100CC00018FB1C08C8EA2E483BFB09FE3BFB19F940
:100CD0001EFB1C0E19FB1C09C9EA2E4900EE102A46
:100CE00000EE903A01EE104A01EE905A02EE106AC0
:100CF00002EE907A03EE108A03EE909A1BEE900AB1
:100D0000D0F80020D0F84030D0F88040D0F8C05063
:100D1000D0F80061D0F84071D0F88081D0F8C0914F
:100D200046F6080014EE10AA3AFB06FE3AFB16F649
:100D30001EFB1C0E16FB1C06C6EA2E4ED2FA4EF601
:100D400092FA4EF23AFB07FE3AFB17F71EFB1C0E17
:100D500017FB1C07C7EA2E4ED3FA4EF793FA4EF351
:100D60003AFB08FE3AFB18F81EFB1C0E18FB1C0889
:100D7000C8EA2E4ED4FA4EF894FA4EF43AFB09FE25
:100D80003AFB19F91EFB1C0E19FB1C09C9EA2E4E71
:100D9000D5FA4EF995FA4EF514EE90AA15EE10BA62
:100DA0003AFB04FE3AFB14F41EFB1C0E14FB1C045D
:100DB000C4EA2E4ED2FA4EF492FA4EF23AFB05FEF7
:100DC0003AFB15F51EFB1C0E15FB1C05C5EA2E4E45
:100DD000D3FA4EF593FA4EF33BFB08FE3BFB18F8B3
:100DE0001EFB1C0E18FB1C08C8EA2E4ED6FA4EF845
:100DF00096FA4EF63BFB09FE3BFB19F91EFB1C0E57
:100E000019FB1C09C9EA2E4ED7FA4EF997FA4EF78C
:100E100015EE90AA16EE10BA3AFB03FE3AFB13F356
:100E20001EFB1C0E13FB1C03C3EA2E4ED2FA4EF31C
:100E300092FA4EF23BFB05FE3BFB15F51EFB1C0E2A
:100E400015FB1C05C5EA2E4ED4FA4EF594FA4EF465
:100E500016EE90AA17EE10BA3AFB07FE3AFB17F708
:100E60001EFB1C0E17FB1C07C7EA2E4ED6FA4EF7C8
:100E700096FA4EF63BFB09FE3BFB19F91EFB1C0ED6
:100E800019FB1C09C9EA2E4ED8FA4EF998FA4EF809
:100E90001BEE900A10EE90AA93FA4AFED3FA4AF398
:100EA000C0F840E0C0F8603011EE90AA95FA4AFE12
:100EB000D5FA4AF5C0F8C0E0C0F8E05012EE90AAAA
:100EC00097FA4AFED7FA4AF7C0F840E1C0F86071D5
:100ED00013EE90AA99FA4AFED9FA4AF9C0F8C0E18D
:100EE000C0F8E09111EE105A94FA45FED4FA45FA92
:100EF000C0F880E0C0F8A0A012EE107A96FA47FE83
:100F0000D6FA47FAC0F800E1C0F820A113EE109A13
:100F100098FA49FED8FA49FAC0F880E1C0F8A0A1D1
:100F200010EE103A92FA43FED2FA43FAC0F820A02B
:100F300040F804EB1CEE10EAB0EB0E0F7FF4A4AD0A
:100F4000A0F1200000F5007E06EE90EA0BEE900A7C
:100F5000D0F80020D0F80430D0F80840D0F80C5079
:100F6000D0F81060D0F81470D0F81880D0F81C9029
:100F700046F6080051F804AB3AFB06FE3AFB16F6BB
:100F80001EFB1C0E16FB1C06C6EA2E4ED2FA4EF6AF
:100F900092FA4EF23AFB07FE3AFB17F71EFB1C0EC5
:100FA00017FB1C07C7EA2E4ED3FA4EF793FA4EF3FF
:100FB0003AFB08FE3AFB18F81EFB1C0E18FB1C0837
:100FC000C8EA2E4ED4FA4EF894FA4EF43AFB09FED3
:100FD0003AFB19F91EFB1C0E19FB1C09C9EA2E4E1F
:100FE000D5FA4EF995FA4EF5F1E802AB3AFB04FE5C
:100FF0003AFB14F41EFB1C0E14FB1C04C4EA2E4E18
:10100000D2FA4EF492FA4EF23AFB05FE3AFB15F58F
:101010001EFB1C0E15FB1C05C5EA2E4ED3FA4EF521
:1010200093FA4EF33BFB08FE3BFB18F81EFB1C0E2D
:1010300018FB1C08C8EA2E4ED6FA4EF896FA4EF661
:101040003BFB09FE3BFB19F91EFB1C0E19FB1C099F
:10105000C9EA2E4ED7FA4EF997FA4EF7F1E802ABED
:101060003AFB03FE3AFB13F31EFB1C0E13FB1C039F
:10107000C3EA2E4ED2FA4EF392FA4EF23BFB05FE35
:101080003BFB15F51EFB1C0E15FB1C05C5EA2E4E81
:10109000D4FA4EF594FA4EF4F1E802AB3AFB07FEAF
:1010A0003AFB17F71EFB1C0E17FB1C07C7EA2E4E58
:1010B000D6FA4EF796FA4EF63BFB09FE3BFB19F9C2
:1010C0001EFB1C0E19FB1C09C9EA2E4ED8FA4EF95C
:1010D00098FA4EF81BEE900AC0F81060C0F8147031
:1010E000C0F81880C0F81C90C0F80430C0F8084060
:1010F000C0F80C5040F8202B16EE90EAB0EB0E0F23
:101100007FF424AFBDEC098ABDE8F08F2DE9FF4FD5
:1011100046F6080B40F6015A4FF2013CC6F6A83CD1
:1011200040F20009DDF83440DDF838700DEE107A39
:10113000DDF83C700DEE907A40F2000E08EE903A29
:1011400033F8025B13F8016BC5F3033747EA061661
:10115000C5F30B05C6F30B06B5EB0A0F80F04E8006
:1011600022F8025B09F10109B9F1040F40F0468051
:10117000A2F1080209EE103A09EE90EA0AEE106AAE
:101180001DEE908A51F8043BD2F8009054F804EB1D
:101190003EFB13F515FB0AB5C3EA050548F8045BE9
:1011A00015FB39F613FB096623FB19F5C0F804504B
:1011B00040F8086BCEF1000E51F8043BD2F80490D1
:1011C0003EFB13F515FB0AB5C3EA050548F8045BB9
:1011D00015FB39F613FB096623FB19F5C0F804501B
:1011E00040F8086B0DEE908A19EE103A19EE90EA6D
:1011F0001AEE106A0EF1010E40F20009B6EB0A0F6A
:1012000080F04E80BEF1400F80F24A8022F8026BDF
:1012100009F10109B9F1040F40F04280A2F108027E
:1012200009EE103A09EE90EA1DEE908A51F8043B5F
:10123000D2F8009054F804EB3EFB13F515FB0AB509
:10124000C3EA050548F8045B15FB39F613FB09668C
:1012500023FB19F5C0F8045040F8086BCEF1000EDE
:1012600051F8043BD2F804903EFB13F515FB0AB588
:10127000C3EA050548F8045B15FB39F613FB09665C
:1012800023FB19F5C0F8045040F8086B0DEE908A66
:1012900019EE103A19EE90EA0EF1010E40F2000933
:1012A00018EE907A07F1A80703F10308B8EB070FCF
:1012B00040F32380BEF1400F80F21F8018EE903A79
:1012C00008EE10CA09EE100A09EE901A0AEE102A6A
:1012D0000AEE90EA184640F201011DEE102A0AF0CB
:1012E0007BF818EE10CA19EE100A19EE901A1AEED1
:1012F000102A1AEE90EA18EE903ABEF1400FFFF66F
:101300001FAFBDE8FF8F00BF2DE9FF4F46F6080B6A
:1013100040F6015A4FF2013CC6F6A83C40F20009E3
:10132000DDF83440DDF838700DEE107ADDF83C70F1
:101330000DEE907A40F2000E08EE903A33F8025B20
:1013400013F8016BC5F3033747EA0616C5F30B051F
:10135000C6F30B06B5EB0A0F80F0548022F8025B4F
:1013600009F10109B9F1040F40F04C80A2F1080223
:1013700009EE103A09EE90EA0AEE106A1DEE908A24
:1013800051F8043BD2F80090076854F804EB3EFB98
:1013900013F515FB0AB5C3EA050548F8045B15FB10
:1013A000397513FB095740F8047BD0F8007023FB14
:1013B000197740F8047BCEF1000E51F8043BD2F8C7
:1013C000049007683EFB13F515FB0AB5C3EA050553
:1013D00048F8045B15FB397513FB095740F8047B8B
:1013E000D0F8007023FB197740F8047B0DEE908A4B
:1013F00019EE103A19EE90EA1AEE106A0EF1010E8B
:1014000040F20009B6EB0A0F80F05480BEF1400FA5
:1014100080F2508022F8026B09F10109B9F1040F42
:1014200040F04880A2F1080209EE103A09EE90EA75
:101430001DEE908A51F8043BD2F80090076854F8EA
:1014400004EB3EFB13F515FB0AB5C3EA050548F8A6
:10145000045B15FB397513FB095740F8047BD0F882
:10146000007023FB197740F8047BCEF1000E51F891
:10147000043BD2F8049007683EFB13F515FB0AB550
:10148000C3EA050548F8045B15FB397513FB0957DA
:1014900040F8047BD0F8007023FB197740F8047BF8
:1014A0000DEE908A19EE103A19EE90EA0EF1010E47
:1014B00040F2000918EE907A07F1A80703F103083B
:1014C000B8EB070F40F32380BEF1400F80F21F807E
:1014D00018EE903A08EE10CA09EE100A09EE901ABA
:1014E0000AEE102A0AEE90EA184640F201011DEEBB
:1014F000102A09F071FF18EE10CA19EE100A19EE41
:10150000901A1AEE102A1AEE90EA18EE903ABEF1EE
:10151000400FFFF613AFBDE8FF8F00BF2DE9FF4F6F
:1015200046F6080B40F6015A4FF2013CC6F6A83CBD
:1015300040F20009DDF83440DDF838700DEE107A25
:10154000DDF83C700DEE907A0EEE100A0EEE900A69
:10155000DDF8400040F2000E08EE903A33F8025BEE
:1015600013F8016BC5F3033747EA0616C5F30B05FD
:10157000C6F30B06B5EB0A0F80F06A8022F8025B17
:1015800009F10109B9F1040F40F06280A2F10802EB
:1015900009EE103A09EE90EA0AEE106A1DEE908A02
:1015A00051F8043BD2F8009050F8047B54F804EB57
:1015B0003EFB13F515FB0AB5C3EA050548F8045BC5
:1015C00015FB397513FB095606FB0CF616FB2AB6FC
:1015D00050F8045B23FB195505FB0CF515FB2AB5E8
:1015E000C5EA26471EEE106A46F8047BCEF1000ECF
:1015F00051F8043BD2F804903EFB13F515FB0AB5F5
:10160000C3EA050550F8047B48F8045B15FB3975FF
:1016100013FB095505FB0CF515FB2AB550F8047BA7
:1016200023FB197707FB0CF717FB2AB7C7EA2547F7
:1016300046F8047B0EEE106A0DEE908A19EE103A11
:1016400019EE90EA1AEE106A0EF1010E40F200094E
:10165000B6EB0A0F80F06A80BEF1400F80F2668020
:1016600022F8026B09F10109B9F1040F40F05E8024
:10167000A2F1080209EE103A09EE90EA1DEE908AF6
:1016800051F8043BD2F8009050F8047B54F804EB76
:101690003EFB13F515FB0AB5C3EA050548F8045BE4
:1016A00015FB397513FB095606FB0CF616FB2AB61B
:1016B00050F8045B23FB195505FB0CF515FB2AB507
:1016C000C5EA26471EEE106A46F8047BCEF1000EEE
:1016D00051F8043BD2F804903EFB13F515FB0AB514
:1016E000C3EA050550F8047B48F8045B15FB39751F
:1016F00013FB095505FB0CF515FB2AB550F8047BC7
:1017000023FB197707FB0CF717FB2AB7C7EA254716
:1017100046F8047B0EEE106A0DEE908A19EE103A30
:1017200019EE90EA0EF1010E40F2000918EE907ADF
:1017300007F1A80703F10308B8EB070F40F3238074
:10174000BEF1400F80F21F8018EE903A08EE10CAEA
:1017500009EE100A09EE901A0AEE102A0AEE90EA33
:10176000184640F201011DEE102A09F035FE18EE70
:1017700010CA19EE100A19EE901A1AEE102A1AEE73
:1017800090EA18EE903ABEF1400FFFF6E7AE1EEE7B
:10179000900ABDE8FF8F00BF2DE9FF4F46F6080B0A
:1017A00040F6015A4FF2013CC6F6A83C40F200094F
:1017B000DDF834700DEE107ADDF838700DEE907AA9
:1017C00040F2000E08EE903A33F8025B13F8016B1A
:1017D000C5F3033747EA0616C5F30B05C6F30B0638
:1017E000B5EB0A0F80F03A8022F8025B09F101099B
:1017F000B9F1040F40F03280A2F1080209EE103A6C
:1018000009EE90EA0AEE106A1DEE908A51F8043B48
:10181000D2F8009051F8045BD2F8046058F804EB59
:101820002EFB09F723FB19F440F8047B40F8044B26
:1018300058F8047B27FB06FE25FB16F440F804EB62
:1018400040F8044B0DEE908A19EE103A19EE90EA2A
:101850001AEE106A0EF1010E40F20009B6EB0A0F03
:1018600080F03A80BEF1400F80F2368022F8026BA1
:1018700009F10109B9F1040F40F02E80A2F108022C
:1018800009EE103A09EE90EA1DEE908A51F8043BF9
:10189000D2F8009051F8045BD2F8046058F804EBD9
:1018A0002EFB09F723FB19F440F8047B40F8044BA6
:1018B00058F8047B27FB06FE25FB16F440F804EBE2
:1018C00040F8044B0DEE908A19EE103A19EE90EAAA
:1018D0000EF1010E40F2000918EE907A07F1A80708
:1018E00003F10308B8EB070F40F32380BEF1400F6C
:1018F00080F21F8018EE903A08EE10CA09EE100A26
:1019000009EE901A0AEE102A0AEE90EA184640F202
:1019100001011DEE102A09F05FFD18EE10CA19EE44
:10192000100A19EE901A1AEE102A1AEE90EA18EE22
:10193000903ABEF1400FFFF647AFBDE8FF8F00BF02
:101940002DE9FF4F46F6080B40F6015A4FF2013CD5
:10195000C6F6A83C40F20009DDF834700DEE107AAE
:10196000DDF838700DEE907A40F2000E08EE903AF5
:1019700033F8025B13F8016BC5F3033747EA061629
:10198000C5F30B05C6F30B06B5EB0A0F80F04180DB
:1019900022F8025B09F10109B9F1040F40F0398026
:1019A000A2F1080209EE103A09EE90EA0AEE106A76
:1019B0001DEE908A51F8043BD2F8009051F8045B78
:1019C000D2F80460D0F80070D0F804E058F8044B66
:1019D00024FB097723FB19EEC0F804E040F8087BEC
:1019E00058F8044B0768D0F804E024FB067725FB81
:1019F00016EEC0F804E040F8087B0DEE908A19EE70
:101A0000103A19EE90EA1AEE106A0EF1010E40F249
:101A10000009B6EB0A0F80F04180BEF1400F80F262
:101A20003D8022F8026B09F10109B9F1040F40F081
:101A30003580A2F1080209EE103A09EE90EA1DEE97
:101A4000908A51F8043BD2F8009051F8045BD2F828
:101A50000460D0F80070D0F804E058F8044B24FB80
:101A6000097723FB19EEC0F804E040F8087B58F82A
:101A7000044B0768D0F804E024FB067725FB16EE3C
:101A8000C0F804E040F8087B0DEE908A19EE103A99
:101A900019EE90EA0EF1010E40F2000918EE907A6C
:101AA00007F1A80703F10308B8EB070F40F3238001
:101AB000BEF1400F80F21F8018EE903A08EE10CA77
:101AC00009EE100A09EE901A0AEE102A0AEE90EAC0
:101AD000184640F201011DEE102A09F07DFC18EEB7
:101AE00010CA19EE100A19EE901A1AEE102A1AEE00
:101AF00090EA18EE903ABEF1400FFFF639AFBDE81C
:101B0000FF8F00BF2DE9FF4F46F6080B40F6015A44
:101B10004FF2013CC6F6A83C40F20009DDF83470F3
:101B20000DEE107ADDF838700DEE907A0EEE100A98
:101B30000EEE900ADDF83C0040F2000E08EE903AFE
:101B400033F8025B13F8016BC5F3033747EA061657
:101B5000C5F30B05C6F30B06B5EB0A0F80F05680F4
:101B600022F8025B09F10109B9F1040F40F04E803F
:101B7000A2F1080209EE103A09EE90EA0AEE106AA4
:101B80001DEE908A51F8043BD2F8009051F8045BA6
:101B9000D2F80460D0F804E050F8087B58F8044B01
:101BA00024FB097707FB0CF717FB2AB723FB19EE79
:101BB0000EFB0CFE1EFB2ABECEEA27471EEE103A95
:101BC00043F8047B58F8044BD0F804E050F8087B45
:101BD00024FB067707FB0CF717FB2AB725FB16EE4D
:101BE0000EFB0CFE1EFB2ABECEEA274743F8047B01
:101BF0000EEE103A0DEE908A19EE103A19EE90EAB8
:101C00001AEE106A0EF1010E40F20009B6EB0A0F4F
:101C100080F05680BEF1400F80F2528022F8026BB5
:101C200009F10109B9F1040F40F04A80A2F108025C
:101C300009EE103A09EE90EA1DEE908A51F8043B45
:101C4000D2F8009051F8045BD2F80460D0F804E0B8
:101C500050F8087B58F8044B24FB097707FB0CF776
:101C600017FB2AB723FB19EE0EFB0CFE1EFB2ABE48
:101C7000CEEA27471EEE103A43F8047B58F8044B8F
:101C8000D0F804E050F8087B24FB067707FB0CF73C
:101C900017FB2AB725FB16EE0EFB0CFE1EFB2ABE19
:101CA000CEEA274743F8047B0EEE103A0DEE908AF9
:101CB00019EE103A19EE90EA0EF1010E40F2000909
:101CC00018EE907A07F1A80703F10308B8EB070FA5
:101CD00040F32380BEF1400F80F21F8018EE903A4F
:101CE00008EE10CA09EE100A09EE901A0AEE102A40
:101CF0000AEE90EA184640F201011DEE102A09F0A2
:101D00006BFB18EE10CA19EE100A19EE901A1AEEB3
:101D1000102A1AEE90EA18EE903ABEF1400FFFF644
:101D20000FAF1EEE900ABDE8FF8F00BF2DE9F04F08
:101D300046F6080AC0F601594FF2013BC6F6A83B29
:101D400000F5806E53F804CB92F80260B2F803708D
:101D500092F8058032F8064BC4F30335C4F30B0444
:101D600045EA061544EA0544C7F30335C7F30B06F5
:101D700045EA081546EA054551F8046B51F8047B1D
:101D80003CFB14F818FB19A816FB38F816FB04885E
:101D900040F8048B26FB14F840F8048BCCF1000CBF
:101DA0003CFB15F818FB19A817FB38F817FB05883A
:101DB00040F8048B27FB15F840F8048BB0EB0E0FAE
:101DC0007FF4C0AFBDE8F08F2DE9F04F46F6080A6A
:101DD000C0F601594FF2013BC6F6A83B00F5806EF4
:101DE00053F804CB92F80260B2F8037092F80580C1
:101DF00032F8064BC4F30335C4F30B0445EA061569
:101E000044EA0544C7F30335C7F30B0645EA081552
:101E100046EA054551F8048B06683CFB14F717FBAE
:101E200019A718FB376718FB047740F8047B06688E
:101E300028FB146740F8047BCCF1000C51F8048BAC
:101E400006683CFB15F717FB19A718FB376718FB4B
:101E5000057740F8047B066828FB156740F8047B8B
:101E6000B0EB0E0F7FF4BCAFBDE8F08F2DE9F04F63
:101E700046F6080AC0F601594FF2013BC6F6A83BE8
:101E8000DDF8246000EE906A06F5806E53F804CB0E
:101E900092F80260B2F8037092F8058032F8064BAF
:101EA000C4F30335C4F30B0445EA061544EA0544BC
:101EB000C7F30335C7F30B0645EA081546EA05459F
:101EC00001EE103A10EE903A51F8048B53F8046B7F
:101ED0003CFB14F717FB19A718FB376718FB0477AF
:101EE00007FB0BF717FB39A753F8046B28FB1466A5
:101EF00006FB0BF616FB39A6C6EA274640F8046B2C
:101F0000CCF1000C51F8048B53F8046B3CFB15F733
:101F100017FB19A718FB376718FB057707FB0BF7AB
:101F200017FB39A753F8046B28FB156606FB0BF665
:101F300016FB39A6C6EA274640F8046B00EE903A35
:101F4000B3EB0E0F11EE103A7FF4A0AFBDE8F08FA7
:101F50002DE9F04F44F6BF6A40F6015B40F21009EC
:101F600090E8FE0111FB0AFC11FB2AFE4FEAAC6C63
:101F70004FEAAE6E1CFB0BFC1EFB0BFECCEA0E4CBC
:101F8000D1FA4CF112FB0AFC12FB2AFE4FEAAC6CB0
:101F90004FEAAE6E1CFB0BFC1EFB0BFECCEA0E4C9C
:101FA000D2FA4CF213FB0AFC13FB2AFE4FEAAC6C8C
:101FB0004FEAAE6E1CFB0BFC1EFB0BFECCEA0E4C7C
:101FC000D3FA4CF314FB0AFC14FB2AFE4FEAAC6C68
:101FD0004FEAAE6E1CFB0BFC1EFB0BFECCEA0E4C5C
:101FE000D4FA4CF415FB0AFC15FB2AFE4FEAAC6C44
:101FF0004FEAAE6E1CFB0BFC1EFB0BFECCEA0E4C3C
:10200000D5FA4CF516FB0AFC16FB2AFE4FEAAC6C1F
:102010004FEAAE6E1CFB0BFC1EFB0BFECCEA0E4C1B
:10202000D6FA4CF617FB0AFC17FB2AFE4FEAAC6CFB
:102030004FEAAE6E1CFB0BFC1EFB0BFECCEA0E4CFB
:10204000D7FA4CF718FB0AFC18FB2AFE4FEAAC6CD7
:102050004FEAAE6E1CFB0BFC1EFB0BFECCEA0E4CDB
:10206000D8FA4CF8A0E8FE01B9F101097FF478AF85
:10207000BDE8F08F2DE9F04F46F6080CC0F6015B85
:1020800044F6AC7AC9F2F47A40F2100990E8FE0105
:102090003AFB01FE3AFB11F11EFB1BCE11FB1BC1EB
:1020A000C1EA2E413AFB02FE3AFB12F21EFB1BCEA6
:1020B00012FB1BC2C2EA2E423AFB03FE3AFB13F3A9
:1020C0001EFB1BCE13FB1BC3C3EA2E433AFB04FECD
:1020D0003AFB14F41EFB1BCE14FB1BC4C4EA2E44B3
:1020E0003AFB05FE3AFB15F51EFB1BCE15FB1BC587
:1020F000C5EA2E453AFB06FE3AFB16F61EFB1BCE42
:1021000016FB1BC6C6EA2E463AFB07FE3AFB17F73C
:102110001EFB1BCE17FB1BC7C7EA2E473AFB08FE68
:102120003AFB18F81EFB1BCE18FB1BC8C8EA2E484A
:10213000A0E8FE01B9F101097FF4A8AFBDE8F08F76
:10214000000000000000000000000000000000008F
:10215000000000000000000000000000000000007F
:10216000000000000000000000000000000000006F
:10217000000000000000000000000000000000005F
:10218000000000000000000000000000000000004F
:10219000000000000000000000000000000000003F
:1021A000000000000000000000000000000000002F
:1021B000000000000000000000000000000000001F
:1021C000000000000000000000000000000000000F
:1021D00000000000000000000000000000000000FF
:1021E00000000000000000000000000000000000EF
:1021F00000000000000000000000000000000000DF
:10220000704700BFAFF30080AFF30080AFF30080F2
:10221000AFF30080AFF30080AFF30080AFF3008036
:10222000AFF30080AFF30080AFF30080AFF3008026
:10223000AFF30080AFF30080AFF30080AFF3008016
:10224000AFF30080AFF30080AFF30080AFF3008006
:10225000AFF30080AFF30080AFF30080AFF30080F6
:10226000AFF30080AFF30080AFF30080AFF30080E6
:10227000AFF30080AFF30080AFF30080AFF30080D6
:10228000AFF30080AFF30080AFF30080AFF30080C6
:10229000AFF30080AFF30080AFF30080AFF30080B6
:1022A000AFF30080AFF30080AFF30080AFF30080A6
:1022B000AFF30080AFF30080AFF30080AFF3008096
:1022C000AFF30080AFF30080AFF30080AFF3008086
:1022D000AFF30080AFF30080AFF30080AFF3008076
:1022E000AFF30080AFF30080AFF30080AFF3008066
:1022F000AFF30080AFF30080AFF30080AFF3008056
:1023000003B32DE9F04122F00704001912F007028F
:102310000BD01C00C2F10805AC4200DD2C00A3EB81
:102320000408230000F0ECF84346DA0804D098468D
:1023300000F066F808F0070313B1002200F0E0F89F
:10234000BDE8F081704700BFAFF30080AFF30080BD
:10235000AFF30080AFF30080AFF30080AFF30080F5
:10236000AFF30080AFF30080AFF30080AFF30080E5
:10237000AFF30080AFF30080AFF30080AFF30080D5
:10238000AFF30080AFF30080AFF30080AFF30080C5
:10239000AFF30080AFF30080AFF30080AFF30080B5
:1023A000AFF30080AFF30080AFF30080AFF30080A5
:1023B000AFF30080AFF30080AFF30080AFF3008095
:1023C000AFF30080AFF30080AFF30080AFF3008085
:1023D000AFF30080AFF30080AFF30080AFF3008075
:1023E000AFF30080AFF30080AFF30080AFF3008065
:1023F000AFF30080AFF30080AFF30080AFF3008055
:1024000051F8044B51F8045BD0E9006704F05533F0
:1024100043EA530303F0333343EA930303F00F33E8
:1024200043EA131303F0FF1363F30F2386EA132623
:1024300005F0553343EA530303F0333343EA930380
:1024400003F00F3343EA131303F0FF1343EA13239C
:1024500086EA034604F0AA3343EA430303F0CC338D
:1024600043EA830303F0F03343EA031303F0FF234B
:1024700043EA032387EA134705F0AA3343EA4303F9
:1024800003F0CC3343EA830303F0F03343EA03134E
:1024900003F0FF2343EA03236FF30F035F40E0E8F9
:1024A0000267013AACD17047AFF30080AFF3008010
:1024B000AFF30080AFF30080AFF30080AFF3008094
:1024C000AFF30080AFF30080AFF30080AFF3008084
:1024D000AFF30080AFF30080AFF30080AFF3008074
:1024E000AFF30080AFF30080AFF30080AFF3008064
:1024F000AFF30080AFF30080AFF30080AFF3008054
:102500000024002530B46A4411F8015B02F8015B35
:10251000013BF9D130BCD0E9006704F0553343EA00
:10252000530303F0333343EA930303F00F3343EAD7
:10253000131303F0FF1363F30F2386EA132605F04A
:10254000553343EA530303F0333343EA930303F071
:102550000F3343EA131303F0FF1343EA132386EA0E
:10256000034604F0AA3343EA430303F0CC3343EABF
:10257000830303F0F03343EA031303F0FF2343EA3A
:10258000032387EA134705F0AA3343EA430303F022
:10259000CC3343EA830303F0F03343EA031303F03D
:1025A000FF2343EA03236FF30F035F40E0E8026772
:1025B000704700BFAFF30080AFF30080AFF300803F
:1025C000AFF30080AFF30080AFF30080AFF3008083
:1025D000AFF30080AFF30080AFF30080AFF3008073
:1025E000AFF30080AFF30080AFF30080AFF3008063
:1025F000AFF30080AFF30080AFF30080AFF3008053
:1026000003B32DE9F04122F00704001912F007028C
:102610000BD01C00C2F10805AC4200DD2C00A3EB7E
:102620000408230000F0ECF84346DA0804D098468A
:1026300000F066F808F0070313B1002200F0E0F89C
:10264000BDE8F081704700BFAFF30080AFF30080BA
:10265000AFF30080AFF30080AFF30080AFF30080F2
:10266000AFF30080AFF30080AFF30080AFF30080E2
:10267000AFF30080AFF30080AFF30080AFF30080D2
:10268000AFF30080AFF30080AFF30080AFF30080C2
:10269000AFF30080AFF30080AFF30080AFF30080B2
:1026A000AFF30080AFF30080AFF30080AFF30080A2
:1026B000AFF30080AFF30080AFF30080AFF3008092
:1026C000AFF30080AFF30080AFF30080AFF3008082
:1026D000AFF30080AFF30080AFF30080AFF3008072
:1026E000AFF30080AFF30080AFF30080AFF3008062
:1026F000AFF30080AFF30080AFF30080AFF3008052
:10270000F0E80245230065F31F446FF30F0545EA27
:10271000134584EA142303F47F435C4084EA0324D2
:1027200084EA141303F0F0135C4084EA031484EA8F
:10273000940303F00C335C4084EA830484EA54037A
:1027400003F022335C4084EA430485EA152303F452
:102750007F435D4085EA032585EA151303F0F013F6
:102760005D4085EA031585EA950303F00C335D406F
:1027700085EA830585EA550303F022335D4085EA47
:10278000430541F8044B013A41F8045BB8D1704766
:10279000AFF30080AFF30080AFF30080AFF30080B1
:1027A000AFF30080AFF30080AFF30080AFF30080A1
:1027B000AFF30080AFF30080AFF30080AFF3008091
:1027C000AFF30080AFF30080AFF30080AFF3008081
:1027D000AFF30080AFF30080AFF30080AFF3008071
:1027E000AFF30080AFF30080AFF30080AFF3008061
:1027F000AFF30080AFF30080AFF30080AFF3008051
:10280000F0E80245260065F31F446FF30F0545EA23
:10281000164584EA142606F47F46744084EA0624AA
:1028200084EA141606F0F016744084EA061484EA6A
:10283000940606F00C36744084EA860484EA540652
:1028400006F02236744084EA460485EA152606F42A
:102850007F46754085EA062585EA151606F0F016CE
:10286000754085EA061585EA950606F00C36754032
:1028700085EA860585EA550606F02236754085EA22
:10288000460530B46A4412F8014B013B01F8014B94
:10289000F9D102B0704700BFAFF30080AFF3008002
:1028A000AFF30080AFF30080AFF30080AFF30080A0
:1028B000AFF30080AFF30080AFF30080AFF3008090
:1028C000AFF30080AFF30080AFF30080AFF3008080
:1028D000AFF30080AFF30080AFF30080AFF3008070
:1028E000AFF30080AFF30080AFF30080AFF3008060
:1028F000AFF30080AFF30080AFF30080AFF3008050
:10290000010000000000000000000000890000003D
:10291000000000008B00008000000000808000802C
:10292000010000008B00000001000000008000009A
:10293000010000008880008001000000820000800B
:10294000000000000B000000000000000A00000072
:1029500001000000828000000000000003800000F1
:10296000010000008B800000010000000B000080CF
:10297000010000008A00008001000000810000804A
:1029800000000000810000800000000008000080BE
:1029900000000000830000000000000003800080B1
:1029A0000100000088800080000000008800008096
:1029B0000100000000800000000000008280008014
:1029C000FF000000AFF30080AFF30080AFF30080A2
:1029D000AFF30080AFF30080AFF30080AFF300806F
:1029E000AFF30080AFF30080AFF30080AFF300805F
:1029F000AFF30080AFF30080AFF30080AFF300804F
:102A0000AFF204112DE9F05F86B00591D0F82030C7
:102A1000D0F84810D0F87050D0F898B0D0F8C0C0B6
:102A200083EA010383EA050383EA0B0383EA0C03C9
:102A3000D0F80C70D0F83410D0F85C50D0F884B0D6
:102A4000D0F8ACC087EA010787EA050787EA0B07D9
:102A500087EA0C0783EAF776D0F81440D0F83C10E8
:102A6000D0F86450D0F88CB0D0F8B4C0CDF8006085
:102A700084EA010484EA050484EA0B0484EA0C0471
:102A800083EA0406D0F81830D0F84010D0F8685027
:102A9000D0F890B0D0F8B8C0CDF80C6083EA01034C
:102AA00083EA050383EA0B0383EA0C0387EA030244
:102AB000D0F80070D0F82810D0F85050D0F878B086
:102AC000D0F8A0C087EA010787EA050787EA0B0765
:102AD00087EA0C0787EAF47AD0F81C40D0F8441053
:102AE000D0F86C50D0F894B0D0F8BCC084EA01049F
:102AF00084EA050484EA0B0484EA0C0484EA070EE1
:102B0000D0F80870D0F83010D0F85850D0F880B015
:102B1000D0F8A8C087EA010787EA050787EA0B070C
:102B200087EA0C0787EAF476D0F82440D0F84C10F6
:102B3000D0F87450D0F89CB0D0F8C4C0CDF8106074
:102B400084EA010484EA050484EA0B0484EA0C04A0
:102B500084EA0708D0F81070D0F83810D0F8605028
:102B6000D0F888B0D0F8B0C0CDF8048087EA01076B
:102B700087EA050787EA0B0787EA0C0787EAF479F3
:102B8000D0F80440D0F82C10D0F85450D0F87CB0D5
:102B9000D0F8A4C0CDF8089084EA010484EA0504C2
:102BA00084EA0B0484EA0C0484EA070B83EAF47CCD
:102BB000D0F81830D0F84840D0F85450D0F884609D
:102BC000D0F8B470C0F8541089EA03038CEA040406
:102BD00088EA05058BEA060682EA070725EA3461DA
:102BE00081EA3351C0F8541026EA755181EA7431F4
:102BF000C0F8841027EA362181EA7571C0F8B41054
:102C000023EAF73181EAF651C0F8181024EA33714B
:102C100081EAF721D0F80830D0F83C40D0F868506D
:102C2000D0F89C60D0F8A470C0F848108AEA03037A
:102C300082EA040489EA05058EEA060688EA07079F
:102C400025EA742181EA3331C0F8A41026EA3561FF
:102C500081EA7401C0F8081027EA761181EA7571DB
:102C6000C0F83C1023EAF75181EA3671C0F86810C9
:102C700024EAF30181EAB761DDF80080D0F824305E
:102C8000D0F82840D0F85850D0F88C60D0F8B87000
:102C9000C0F89C108EEA030388EA04048AEA05055A
:102CA00082EA060689EA070725EAF44181EAF35138
:102CB000C0F8281026EAF50181EAB451C0F858108E
:102CC00027EA365181EAF551C0F88C1023EAB74162
:102CD00081EAB611C0F8B81024EA331181EAB7517D
:102CE000D0F81430D0F84040D0F87050D0F8786068
:102CF000D0F8AC70C0F8241082EA030389EA040417
:102D00008CEA050588EA06068BEA070725EA34619E
:102D100081EA3351C0F8781026EA750181EA7461BE
:102D2000C0F8AC1027EA763181EAB531C0F814104A
:102D300023EAB77181EAF621C0F8401024EA337122
:102D400081EAB761DDF80C90D0F80030046B456E75
:102D5000D0F89460D0F8C070C0F8701088EA03030F
:102D60008AEA040482EA050589EA06068CEA07076E
:102D700026EA755181EA7451C0F8301027EA36719D
:102D800081EA7541C0F8641023EA776181EA7651DF
:102D9000C0F8941024EAB35181EAF731C0F8C010AA
:102DA00025EA040505990C6883EAB52384EA030142
:102DB000DDF81020D0F81C30D0F84C40D0F850503E
:102DC000D0F88060D0F8B070C0F8001089EA030332
:102DD0008EEA040488EA05058AEA060682EA0707FD
:102DE00025EAF45181EAF341C0F8501026EA755102
:102DF00081EA3431C0F8801027EA362181EA757102
:102E0000C0F8B01023EA374181EA3661C0F81C10DF
:102E100024EA337181EA3731D0F80C30D0F83840E9
:102E2000D0F86C50D0F89860D0F8A070C0F84C1072
:102E30008BEA030382EA040489EA05058CEA0606A4
:102E400088EA070725EAB42181EA3331C0F8A010E7
:102E500026EAF55181EA7401C0F80C1027EA7611D0
:102E600081EA3571C0F8381023EA376181EA76715A
:102E7000C0F86C1024EAB30181EAB761DDF8048080
:102E8000D0F82030D0F82C40D0F85C50D0F88860D2
:102E9000D0F8BC70C0F898108CEA030388EA0404E8
:102EA0008BEA050582EA060689EA070725EAF44166
:102EB00081EA3361C0F82C1026EAB50181EA745129
:102EC000C0F85C1027EA765181EAF551C0F8881005
:102ED00023EA774181EAB611C0F8BC1024EA7311E5
:102EE00081EAB751D0F81030D0F84440D0F874508F
:102EF000D0F87C60D0F8A870C0F8201082EA0303F4
:102F000089EA04048EEA050588EA06068AEA0707C4
:102F100025EA346181EA7351C0F87C1026EA750114
:102F200081EA7461C0F8A81027EA363181EA753168
:102F3000C0F8101023EAB77181EAB621C0F8441036
:102F400024EA737181EAF761DDF80890D0F8043063
:102F5000446B056ED0F89060D0F8C470C0F874105F
:102F600088EA03038BEA040482EA050589EA060677
:102F70008EEA070726EA755181EA3451C0F8341009
:102F800027EA767181EAB541C0F8601023EA7761DB
:102F900081EAB651C0F8901024EAB35181EAF731C2
:102FA000C0F8C41025EAF47505994C6883EAF52346
:102FB00084EA030ED0F8C030D0F84810D0F898500A
:102FC000D0F824B0D0F874C0C0F804E083EA3133FC
:102FD00083EAF54383EA3B1383EABC63D0F8347099
:102FE000D0F88010D0F80850D0F85CB0D0F8ACC061
:102FF00087EA315787EAB51787EAFB0787EABC57A4
:103000004FEAB32383EA7756D0F86040D0F8B01087
:10301000D0F83C50D0F888B0D0F814C0CDF800609B
:1030200084EA712484EAB57484EAFB2484EABC143B
:1030300083EA7466D0F89430D0F81810D0F86C5049
:10304000D0F8B8B0D0F844C0CDF80C6083EAB143F2
:1030500083EAF57383EABB4383EA7C0383EAB752CE
:10306000D0F80070D0F85410D0F8A050D0F828B0A4
:10307000D0F87CC087EAB17787EAF54787EAFB6733
:1030800087EA3C3787EA346AD0F89040D0F81C10C1
:10309000D0F86850D0F8BCB0D0F840C084EAB14451
:1030A00084EA050484EAFB4484EA7C0484EA070E8B
:1030B000D0F83070D0F88410D0F80C50D0F858B058
:1030C000D0F8A8C087EA315787EAF51787EAFB07E7
:1030D00087EABC574FEA775787EAF476D0F8C440BE
:1030E000D0F84C10D0F89C50D0F820B0D0F870C078
:1030F000CDF8106084EA313484EAF54484EA3B1464
:1031000084EAFC6487EAB428D0F86470D0F8B4107C
:10311000D0F83850D0F88CB0D0F810C0CDF804807A
:1031200087EA312787EAB57787EAFB2787EABC1762
:103130004FEA776787EA7429D0F80440D0F8501036
:10314000D0F8A450D0F82CB0D0F878C0CDF80890C2
:1031500084EAF17484EA355484EAFB6484EA7C34BA
:1031600084EA070B83EAF47CD0F89430D0F8484026
:10317000D0F8A450D0F85C60D0F81470C0F8A41057
:1031800089EA03038CEAB45488EA35558BEA7666FB
:1031900082EAF77725EA346181EA3351C0F8A41056
:1031A00026EA755181EA7431C0F85C1027EA3621AD
:1031B00081EA7571C0F8141023EAF73181EAF651FB
:1031C000C0F8941024EA337181EAF721D0F8303046
:1031D000D0F8B040D0F86C50D0F82060D0F87870BB
:1031E000C0F848108AEA735382EAB40489EAF57594
:1031F0008EEAB63688EA773725EA742181EA3331D8
:10320000C0F8781026EA356181EA7401C0F8301000
:1032100027EA761181EA7571C0F8B01023EAF751F8
:1032200081EA3671C0F86C1024EAF30181EAB761D3
:10323000DDF80080D0F8C430D0F85440D0F80C50FD
:10324000D0F88860D0F84470C0F820108EEAB3231C
:1032500088EAB4748AEA357582EA361689EA77070D
:1032600025EAF44181EAF351C0F8541026EAF50149
:1032700081EAB451C0F80C1027EA365181EAF551C1
:10328000C0F8881023EAB74181EAB611C0F84410AB
:1032900024EA331181EAB751D0F86030D0F81840F1
:1032A000D0F89850D0F82860D0F8AC70C0F8C410AE
:1032B00082EA736389EAB4448CEA757588EAF66633
:1032C0008BEA373725EA346181EA3351C0F8281098
:1032D00026EA750181EA7461C0F8AC1027EA7631FC
:1032E00081EAB531C0F8601023EAB77181EAF621AE
:1032F000C0F8181024EA337181EAB761DDF80C9048
:10330000D0F80030D0F88440C56BD0F8BC60476F6F
:10331000C0F8981088EA03038AEA742482EAF55513
:1033200089EAF6468CEA371726EA755181EA745124
:10333000C0F8841027EA367181EA7541C0F83C1064
:1033400023EA776181EA7651C0F8BC1024EAB351D0
:1033500081EAF731C0F8741025EA040505998C68F4
:1033600083EAB52384EA0301DDF81020D0F8903019
:10337000D0F84C40D0F8A050D0F85860D0F8107079
:10338000C0F8001089EA03038EEAB45488EAF545D0
:103390008AEA366682EAF77725EAF45181EAF34150
:1033A000C0F8A01026EA755181EA3431C0F85810EF
:1033B00027EA362181EA7571C0F8101023EA3741F7
:1033C00081EA3661C0F8901024EA337181EA37311E
:1033D000D0F83430D0F8B440D0F86850D0F8246039
:1033E000D0F87C70C0F84C108BEAB35382EA7404B6
:1033F00089EA05058CEAB63688EA373725EAB4212A
:1034000081EA3331C0F87C1026EAF55181EA740173
:10341000C0F8341027EA761181EA3571C0F8B4108B
:1034200023EA376181EA7671C0F8681024EAB301B3
:1034300081EAB761DDF80480D0F8C030D0F85040A0
:10344000D0F80850D0F88C60D0F84070C0F8241044
:103450008CEAB32388EAF4748BEA357582EA36166F
:1034600089EA770725EAF44181EA3361C0F8501010
:1034700026EAB50181EA7451C0F8081027EA7651AE
:1034800081EAF551C0F88C1023EA774181EAB61140
:10349000C0F8401024EA731181EAB751D0F86430C3
:1034A000D0F81C40D0F89C50D0F82C60D0F8A87010
:1034B000C0F8C01082EA736389EAB4448EEA757575
:1034C00088EAF6668AEAF72725EA346181EA7351C9
:1034D000C0F82C1026EA750181EA7461C0F8A810C2
:1034E00027EA363181EA7531C0F8641023EAB771F2
:1034F00081EAB621C0F81C1024EA737181EAF761F1
:10350000DDF80890D0F80430D0F88040856BD0F812
:10351000B860076FC0F89C1088EA03038BEAB424F4
:1035200082EAF55589EAB6468EEA771726EA75519A
:1035300081EA3451C0F8801027EA767181EAB541FA
:10354000C0F8381023EA776181EAB651C0F8B810A4
:1035500024EAB35181EAF731C0F8701025EAF47516
:103560000599CC6883EAF52384EA030ED0F8743019
:10357000D0F84810D0F82450D0F8C4B0D0F89CC08F
:10358000C0F804E083EA313383EAF54383EA3B136E
:1035900083EABC63D0F88070D0F85810D0F830506F
:1035A000D0F808B0D0F8ACC087EA315787EAB51731
:1035B00087EAFB0787EABC574FEAB32383EA7756CB
:1035C000D0F83840D0F81010D0F8B050D0F88CB007
:1035D000D0F860C0CDF8006084EA712484EAB57444
:1035E00084EAFB2484EABC1483EA7466D0F8BC3015
:1035F000D0F89410D0F86850D0F844B0D0F81CC07F
:10360000CDF80C6083EAB14383EAF57383EABB43E8
:1036100083EA7C0383EAB752D0F80070D0F8A41094
:10362000D0F87C50D0F854B0D0F82CC087EAB177ED
:1036300087EAF54787EAFB6787EA3C3787EA346A17
:10364000D0F8B840D0F89010D0F86C50D0F840B016
:10365000D0F818C084EAB14484EA050484EAFB4443
:1036600084EA7C0484EA070ED0F88470D0F85C10F9
:10367000D0F83450D0F80CB0D0F8A8C087EA315751
:1036800087EAF51787EAFB0787EABC574FEA7757BF
:1036900087EAF476D0F87040D0F84C10D0F820507B
:1036A000D0F8C0B0D0F898C0CDF8106084EA3134BA
:1036B00084EAF54484EA3B1484EAFC6487EAB4288B
:1036C000D0F83C70D0F81410D0F8B450D0F888B0CE
:1036D000D0F864C0CDF8048087EA312787EAB5774F
:1036E00087EAFB2787EABC174FEA776787EA7429DE
:1036F000D0F80440D0F8A010D0F87850D0F850B0EE
:10370000D0F828C0CDF8089084EAF17484EA3554E2
:1037100084EAFB6484EA7C3484EA070B83EAF47C61
:10372000D0F8BC30D0F84840D0F87850D0F80860D5
:10373000D0F86070C0F8781089EA03038CEAB454BA
:1037400088EA35558BEA766682EAF77725EA3461AE
:1037500081EA3351C0F8781026EA755181EA743154
:10376000C0F8081027EA362181EA7571C0F86010A8
:1037700023EAF73181EAF651C0F8BC1024EA33712C
:1037800081EAF721D0F88430D0F81040D0F86850A2
:10379000D0F8C060D0F82870C0F848108AEA735397
:1037A00082EAB40489EAF5758EEAB63688EA773794
:1037B00025EA742181EA3331C0F8281026EA356100
:1037C00081EA7401C0F8841027EA761181EA7571E4
:1037D000C0F8101023EAF75181EA3671C0F868107A
:1037E00024EAF30181EAB761DDF80080D0F8703097
:1037F000D0F8A440D0F83450D0F88C60D0F81C70C9
:10380000C0F8C0108EEAB32388EAB4748AEA35752A
:1038100082EA361689EA770725EAF44181EAF3510C
:10382000C0F8A41026EAF50181EAB451C0F83410BA
:1038300027EA365181EAF551C0F88C1023EAB741E6
:1038400081EAB611C0F81C1024EA331181EAB7519D
:10385000D0F83830D0F89440D0F82450D0F85460E4
:10386000D0F8AC70C0F8701082EA736389EAB4448F
:103870008CEA757588EAF6668BEA373725EA346193
:1038800081EA3351C0F8541026EA750181EA746167
:10389000C0F8AC1027EA763181EAB531C0F83810AB
:1038A00023EAB77181EAF621C0F8941024EA337153
:1038B00081EAB761DDF80C90D0F80030C46DD0F823
:1038C000B050066CD0F89C70C0F8241088EA03034E
:1038D0008AEA742482EAF55589EAF6468CEA3717B3
:1038E00026EA755181EA7451C0F85C1027EA3671F6
:1038F00081EA7541C0F8B01023EA776181EA765118
:10390000C0F8401024EAB35181EAF731C0F89C10A6
:1039100025EA040505990C6983EAB52384EA0301C5
:10392000DDF81020D0F8B830D0F84C40D0F87C50FA
:10393000D0F80C60D0F86470C0F8001089EA030376
:103940008EEAB45488EAF5458AEA366682EAF77761
:1039500025EAF45181EAF341C0F87C1026EA75515A
:1039600081EA3431C0F80C1027EA362181EA7571FA
:10397000C0F8641023EA374181EA3661C0F8B81014
:1039800024EA337181EA3731D0F88030D0F814401E
:10399000D0F86C50D0F8C460D0F82C70C0F84C103F
:1039A0008BEAB35382EA740489EA05058CEAB636D9
:1039B00088EA373725EAB42181EA3331C0F82C1080
:1039C00026EAF55181EA7401C0F8801027EA7611E1
:1039D00081EA3571C0F8141023EA376181EA767103
:1039E000C0F86C1024EAB30181EAB761DDF8048005
:1039F000D0F87430D0F8A040D0F83050D0F88860BB
:103A0000D0F81870C0F8C4108CEAB32388EAF474B4
:103A10008BEA357582EA361689EA770725EAF4419A
:103A200081EA3361C0F8A01026EAB50181EA745139
:103A3000C0F8301027EA765181EAF551C0F88810B5
:103A400023EA774181EAB611C0F8181024EA73110D
:103A500081EAB751D0F83C30D0F89040D0F82050EF
:103A6000D0F85060D0F8A870C0F8741082EA736380
:103A700089EAB4448EEA757588EAF6668AEAF72719
:103A800025EA346181EA7351C0F8501026EA7501C5
:103A900081EA7461C0F8A81027EA363181EA7531ED
:103AA000C0F83C1023EAB77181EAB621C0F8901043
:103AB00024EA737181EAF761DDF80890D0F80430E8
:103AC000846DD0F8B450466CD0F89870C0F82010CF
:103AD00088EA03038BEAB42482EAF55589EAB646FC
:103AE0008EEA771726EA755181EA3451C0F85810EA
:103AF00027EA767181EAB541C0F8B41023EA77610C
:103B000081EAB651C0F8441024EAB35181EAF73192
:103B1000C0F8981025EAF47505994C6983EAF523F5
:103B200084EA030ED0F89C30D0F84810D0F8C45086
:103B3000D0F870B0D0F820C0C0F804E083EA313388
:103B400083EAF54383EA3B1383EABC63D0F85870F9
:103B5000D0F80C10D0F88450D0F830B0D0F8ACC009
:103B600087EA315787EAB51787EAFB0787EABC5728
:103B70004FEAB32383EA7756D0F8B440D0F8641004
:103B8000D0F81050D0F888B0D0F838C0CDF8006028
:103B900084EA712484EAB57484EAFB2484EABC14C0
:103BA00083EA7466D0F84030D0F8BC10D0F86C507E
:103BB000D0F81CB0D0F890C0CDF80C6083EAB143C7
:103BC00083EAF57383EABB4383EA7C0383EAB75253
:103BD000D0F80070D0F87810D0F82C50D0F8A4B0FD
:103BE000D0F850C087EAB17787EAF54787EAFB67E4
:103BF00087EA3C3787EA346AD0F84440D0F8B810F6
:103C0000D0F86850D0F818B0D0F894C084EAB14425
:103C100084EA050484EAFB4484EA7C0484EA070E0F
:103C2000D0F85C70D0F80810D0F88050D0F834B0DC
:103C3000D0F8A8C087EA315787EAF51787EAFB076B
:103C400087EABC574FEA775787EAF476D0F898406E
:103C5000D0F84C10D0F8C050D0F874B0D0F824C0D0
:103C6000CDF8106084EA313484EAF54484EA3B14E8
:103C700084EAFC6487EAB428D0F8B070D0F8601009
:103C8000D0F81450D0F88CB0D0F83CC0CDF80480F7
:103C900087EA312787EAB57787EAFB2787EABC17E7
:103CA0004FEA776787EA7429D0F80440D0F87C108F
:103CB000D0F82850D0F8A0B0D0F854C0CDF8089073
:103CC00084EAF17484EA355484EAFB6484EA7C343F
:103CD00084EA070B83EAF47CD0F84030D0F84840FF
:103CE000D0F82850D0F83060D0F83870C0F82810DC
:103CF00089EA03038CEAB45488EA35558BEA766680
:103D000082EAF77725EA346181EA33514FEAB171EB
:103D1000C0F8281026EA755181EA74314FEA712102
:103D2000C0F8301027EA362181EA75714FEA710137
:103D3000C0F8381023EAF73181EAF6514FEAB14171
:103D4000C0F8401024EA337181EAF7214FEAB151FB
:103D5000D0F85C30D0F86440D0F86C50D0F8746083
:103D6000D0F85470C0F848108AEA735382EAB40459
:103D700089EAF5758EEAB63688EA773725EA74213E
:103D800081EA33314FEA3151C0F8541026EA3561E7
:103D900081EA74014FEA3171C0F85C1027EA7611AC
:103DA00081EA75714FEAF151C0F8641023EAF751C6
:103DB00081EA3671C0F86C1024EAF30181EAB76138
:103DC0004FEA7171DDF80080D0F89830D0F8784073
:103DD000D0F88050D0F88860D0F89070C0F8741097
:103DE0008EEAB32388EAB4748AEA357582EA361615
:103DF00089EA770725EAF44181EAF3514FEAF16154
:103E0000C0F8781026EAF50181EAB4514FEA316131
:103E1000C0F8801027EA365181EAF5514FEA311196
:103E2000C0F8881023EAB74181EAB6114FEAB141E0
:103E3000C0F8901024EA331181EAB7514FEAB1314A
:103E4000D0F8B430D0F8BC40D0F8C450D0F8A4605A
:103E5000D0F8AC70C0F8981082EA736389EAB44471
:103E60008CEA757588EAF6668BEA373725EA34619D
:103E700081EA33514FEA7131C0F8A41026EA750186
:103E800081EA74614FEA3131C0F8AC1027EA76312B
:103E900081EAB5314FEAF171C0F8B41023EAB77185
:103EA00081EAF6214FEA7101C0F8BC1024EA3371AF
:103EB00081EAB7614FEA7111DDF80C90D0F800305B
:103EC000846805698669076AC0F8C41088EA030334
:103ED0008AEA742482EAF55589EAF6468CEA3717AD
:103EE00026EA755181EA74514FEA7151C0F8081001
:103EF00027EA367181EA75414FEA7161C0F8101006
:103F000023EA776181EA7651C0F8181024EAB351A8
:103F100081EAF7314FEAB121C0F8201025EA040503
:103F200005998C6983EAB52384EA0301DDF8102042
:103F3000D0F84430D0F84C40D0F82C50D0F8346051
:103F4000D0F83C70C0F8001089EA03038EEAB4543C
:103F500088EAF5458AEA366682EAF77725EAF45177
:103F600081EAF3414FEAF171C0F82C1026EA75514D
:103F700081EA34314FEAB121C0F8341027EA362102
:103F800081EA75714FEAB101C0F83C1023EA37416C
:103F900081EA36614FEAB141C0F8441024EA337136
:103FA00081EA37314FEAB151D0F85830D0F860404B
:103FB000D0F86850D0F87060D0F85070C0F84C104D
:103FC0008BEAB35382EA740489EA05058CEAB636B3
:103FD00088EA373725EAB42181EA33314FEAF141E3
:103FE000C0F8501026EAF55181EA74014FEA3171A8
:103FF000C0F8581027EA761181EA35714FEAF1517D
:10400000C0F8601023EA376181EA76714FEAF171F6
:10401000C0F8681024EAB30181EAB7614FEA717110
:10402000DDF80480D0F89C30D0F87C40D0F8845083
:10403000D0F88C60D0F89470C0F870108CEAB3237C
:1040400088EAF4748BEA357582EA361689EA7707CE
:1040500025EAF44181EA33614FEAF161C0F87C104E
:1040600026EAB50181EA74514FEA7161C0F8841003
:1040700027EA765181EAF5514FEA3111C0F88C10E8
:1040800023EA774181EAB6114FEAF141C0F8941072
:1040900024EA731181EAB7514FEAB131D0F8B03058
:1040A000D0F8B840D0F8C050D0F8A060D0F8A870D0
:1040B000C0F89C1082EA736389EAB4448EEA75758D
:1040C00088EAF6668AEAF72725EA346181EA7351BD
:1040D0004FEA3131C0F8A01026EA750181EA746117
:1040E0004FEAF121C0F8A81027EA363181EA75318C
:1040F0004FEAF171C0F8B01023EAB77181EAB62136
:104100004FEA7101C0F8B81024EA737181EAF761CF
:104110004FEA3111DDF80890D0F80430C4684569E1
:10412000C669476AC0F8C01088EA03038BEAB42462
:1041300082EAF55589EAB6468EEA771726EA75517E
:1041400081EA34514FEAB151C0F80C1027EA767178
:1041500081EAB5414FEA7161C0F8141023EA776132
:1041600081EAB651C0F81C1024EAB35181EAF73154
:104170004FEAB121C0F8241025EAF4750599CC69FD
:1041800051F8207F0591FF2F83EAF52384EA03018C
:10419000C0F804107EF43AAC06B0BDE8F09F00BF52
:1041A0002DE9F007036847688468D0F80C8005693A
:1041B000D0F814908669D0F81CA045F26212CBF2B8
:1041C000E172574003EBF77387EA3367534003EB21
:1041D000774387EA73475340DB1987EAF377534005
:1041E00003EB376387EA3347534045F68002CBF64B
:1041F000717204EBF87488EA3468544004EB784434
:1042000088EA74485440444488EAF478544004EB03
:10421000386488EA344854404DF65622C3F6B40256
:1042200005EBF97589EA3569554005EB794589EA69
:10423000754955404D4489EAF579554005EB396596
:1042400089EA3549554047F23872C3F24E2206EBEF
:10425000FA768AEA366A564006EB7A468AEA764A5F
:10426000564056448AEAF67A564006EB3A668AEA9F
:10427000364A564083EA040287EA080C82EA024280
:104280008CEA0C4C89EA324985EA3C458AEA32429A
:1042900086EA3C4C89EA07095D4088EA020A84EA1A
:1042A0000C0645F68002CBF671728AEA020A89F0A2
:1042B000010905EBF97589EA3569554005EB794542
:1042C00089EA754955404D4489EAF579554005EB31
:1042D000396589EA3549554045F26212CBF2E172FF
:1042E00006EBFA768AEA366A564006EB7A468AEA9E
:1042F000764A564056448AEAF67A564006EB3A66C3
:104300008AEA364A56404DF65622C3F6B40203EB0B
:10431000F77387EA3367534003EB774387EA7347C2
:104320005340DB1987EAF377534003EB376387EA9F
:104330003347534047F23872C3F24E2204EBF8740D
:1043400088EA3468544004EB784488EA744854405E
:10435000444488EAF478544004EB386488EA3448EA
:10436000544086EA05028AEA090C82EA02428CEA93
:104370000C4C87EA324783EA3C4388EA324284EABB
:104380003C4C87EA0A07734089EA020885EA0C0474
:104390004DF65622C3F6B40288EA020887F00207F7
:1043A00006EBFA768AEA366A564006EB7A468AEADD
:1043B000764A564056448AEAF67A564006EB3A6602
:1043C0008AEA364A564045F26212CBF2E17204EBB9
:1043D000F87488EA3468544004EB784488EA7448F6
:1043E0005440444488EAF478544004EB386488EA42
:1043F0003448544045F68002CBF6717203EBF773F4
:1044000087EA3367534003EB774387EA73475340A8
:10441000DB1987EAF377534003EB376387EA3347C7
:10442000534047F23872C3F24E2205EBF97589EA20
:104430003569554005EB794589EA754955404D4444
:1044400089EAF579554005EB396589EA35495540E2
:1044500084EA030288EA070C82EA02428CEA0C4CE6
:104460008AEA324A86EA3C4689EA324285EA3C4C8C
:104470008AEA080A664087EA020983EA0C0547F2DD
:104480003872C3F24E2289EA02098AF0030A03EB6A
:10449000F77387EA3367534003EB774387EA734741
:1044A0005340DB1987EAF377534003EB376387EA1E
:1044B0003347534045F26212CBF2E17205EBF975D6
:1044C00089EA3569554005EB794589EA75495540D2
:1044D0004D4489EAF579554005EB396589EA354956
:1044E000554045F68002CBF6717206EBFA768AEA01
:1044F000366A564006EB7A468AEA764A5640564471
:104500008AEAF67A564006EB3A668AEA364A564016
:104510004DF65622C3F6B40204EBF87488EA346808
:10452000544004EB784488EA74485440444488EA90
:10453000F478544004EB386488EA3448544085EAFF
:10454000060289EA0A0C82EA02428CEA0C4C88EAEA
:10455000324884EA3C4487EA324283EA3C4C88EAA7
:1045600009086C408AEA020786EA0C0348F2EB521B
:10457000CBF61132574088F0040845F26212CBF2B4
:10458000E17203EBF77387EA3367534003EB77433A
:1045900087EA73475340DB1987EAF377534003EB0D
:1045A000376387EA3347534045F68002CBF6717292
:1045B00004EBF87488EA3468544004EB784488EAE1
:1045C00074485440444488EAF478544004EB386416
:1045D00088EA344854404DF65622C3F6B40205EB3F
:1045E000F97589EA3569554005EB794589EA7549D8
:1045F00055404D4489EAF579554005EB396589EA1E
:104600003549554047F23872C3F24E2206EBFA762E
:104610008AEA366A564006EB7A468AEA764A564075
:1046200056448AEAF67A564006EB3A668AEA364AF1
:10463000564083EA040287EA080C82EA02428CEAC6
:104640000C4C89EA324985EA3C458AEA324286EADC
:104650003C4C89EA07095D4088EA020A84EA0C06B4
:1046600047F65732C4F67C728AEA020A89F00509D5
:1046700045F26212CBF2E17206EBFA768AEA366A0A
:10468000564006EB7A468AEA764A564056448AEA0B
:10469000F67A564006EB3A668AEA364A564045F6BE
:1046A0008002CBF6717205EBF97589EA35695540E0
:1046B00005EB794589EA754955404D4489EAF57914
:1046C000554005EB396589EA354955404DF6562286
:1046D000C3F6B40203EBF77387EA3367534003EB87
:1046E000774387EA73475340DB1987EAF3775340F0
:1046F00003EB376387EA3347534047F23872C3F21C
:104700004E2204EBF87488EA3468544004EB784491
:1047100088EA74485440444488EAF478544004EBEE
:10472000386488EA3448544086EA05028AEA090C6B
:1047300082EA02428CEA0C4C87EA324783EA3C4325
:1047400088EA324284EA3C4C87EA0A07734089EAE5
:10475000020885EA0C044AF2C812CCF6BF7288EA55
:10476000020887F0060745F26212CBF2E17204EB11
:10477000F87488EA3468544004EB784488EA744852
:104780005440444488EAF478544004EB386488EA9E
:104790003448544045F68002CBF6717203EBF77350
:1047A00087EA3367534003EB774387EA7347534005
:1047B000DB1987EAF377534003EB376387EA334724
:1047C00053404DF65622C3F6B40206EBFA768AEA57
:1047D000366A564006EB7A468AEA764A564056448E
:1047E0008AEAF67A564006EB3A668AEA364A564034
:1047F00047F23872C3F24E2205EBF97589EA356942
:10480000554005EB794589EA754955404D4489EA9B
:10481000F579554005EB396589EA3549554084EA13
:10482000030288EA070C82EA02428CEA0C4C8AEA0C
:10483000324A86EA3C4689EA324285EA3C4C8AEAB8
:10484000080A664087EA020983EA0C0507290BD1AA
:104850000560C0F804908660C0F80CA00461C0F840
:1048600014808361C76172E142F63D12CCF2B3223B
:1048700089EA02098AF0070A45F26212CBF2E17274
:1048800005EBF97589EA3569554005EB794589EA03
:10489000754955404D4489EAF579554005EB396530
:1048A00089EA3549554045F68002CBF6717206EB30
:1048B000FA768AEA366A564006EB7A468AEA764AF9
:1048C000564056448AEAF67A564006EB3A668AEA39
:1048D000364A56404DF65622C3F6B40204EBF8743D
:1048E00088EA3468544004EB784488EA74485440B9
:1048F000444488EAF478544004EB386488EA344845
:10490000544047F23872C3F24E2203EBF77387EA42
:104910003367534003EB774387EA73475340DB1910
:1049200087EAF377534003EB376387EA3347534013
:1049300085EA060289EA0A0C82EA02428CEA0C4CF9
:1049400088EA324884EA3C4487EA324283EA3C4CB3
:1049500088EA09086C408AEA020786EA0C0345F2F5
:104960006212CBF2E172574088F0080803EBF7734C
:1049700087EA3367534003EB774387EA7347534033
:10498000DB1987EAF377534003EB376387EA334752
:10499000534045F68002CBF6717204EBF87488EA56
:1049A0003468544004EB784488EA744854404444E2
:1049B00088EAF478544004EB386488EA3448544078
:1049C0004DF65622C3F6B40205EBF97589EA35694E
:1049D000554005EB794589EA754955404D4489EACA
:1049E000F579554005EB396589EA3549554047F277
:1049F0003872C3F24E2206EBFA768AEA366A5640DD
:104A000006EB7A468AEA764A564056448AEAF67AAD
:104A1000564006EB3A668AEA364A564083EA040272
:104A200087EA080C82EA02428CEA0C4C89EA324995
:104A300085EA3C458AEA324286EA3C4C89EA070923
:104A40005D4088EA020A84EA0C0645F68002CBF64D
:104A500071728AEA020A89F0090905EBF97589EA97
:104A60003569554005EB794589EA754955404D440E
:104A700089EAF579554005EB396589EA35495540AC
:104A800045F26212CBF2E17206EBFA768AEA366AF6
:104A9000564006EB7A468AEA764A564056448AEAF7
:104AA000F67A564006EB3A668AEA364A56404DF6A2
:104AB0005622C3F6B40203EBF77387EA3367534019
:104AC00003EB774387EA73475340DB1987EAF377B1
:104AD000534003EB376387EA3347534047F238725A
:104AE000C3F24E2204EBF87488EA3468544004EBB5
:104AF000784488EA74485440444488EAF47854403E
:104B000004EB386488EA3448544086EA05028AEAAD
:104B1000090C82EA02428CEA0C4C87EA324783EAAB
:104B20003C4388EA324284EA3C4C87EA0A077340F5
:104B300089EA020885EA0C040460C0F804808360F6
:104B4000C7600661C0F814A08561C0F81C90BDE87C
:104B5000F00770472DE9F04F01B402B40368D0F8B4
:104B600004908468D0F80CA00569D0F814B0866968
:104B7000D0F81CE0076A426AD0F82880C16A45F282
:104B80006210CBF2E17089EA000903EBF97389EA5C
:104B90003369434003EB794389EA734943404B440B
:104BA00089EAF379434003EB396389EA33494340A7
:104BB00045F68000CBF6717004EBFA748AEA346A29
:104BC000444004EB7A448AEA744A444054448AEAF2
:104BD000F47A444004EB3A648AEA344A44404DF69D
:104BE0005620C3F6B40005EBFB758BEA356B4540E8
:104BF00005EB7B458BEA754B45405D448BEAF57BC5
:104C0000454005EB3B658BEA354B454047F2387034
:104C1000C3F24E2006EBFE768EEA366E464006EB79
:104C20007E468EEA764E464076448EEAF67E4640D2
:104C300006EB3E668EEA364E464048F2EB50CBF627
:104C4000113007EBF27782EA3762474007EB724791
:104C500082EA77424740BF1882EAF772474007EB83
:104C6000326782EA3742474047F65730C4F67C70D5
:104C700008EBF17881EA386188EA000808EB7148AE
:104C800081EA784188EA0008884481EAF87188EA74
:104C9000000808EB316881EA384188EA000883EAB5
:104CA000040089EA0A0C68408CEA0B0C80EA004098
:104CB0008CEA0C4C8EEA304E82EA304286EA3C4660
:104CC00087EA3C4781EA304088EA3C4C8EEA090E8C
:104CD0005E4082EA0A0267408BEA000185EA0C081E
:104CE00045F68000CBF67170424081F0010108EB7F
:104CF000F17881EA386188EA000808EB714881EAB6
:104D0000784188EA0008884481EAF87188EA000856
:104D100008EB316881EA384188EA000845F2621000
:104D2000CBF2E17007EBF27782EA3762474007EB9C
:104D3000724782EA77424740BF1882EAF7724740DB
:104D400007EB326782EA374247404DF65620C3F6FA
:104D5000B40006EBFE768EEA366E464006EB7E46E3
:104D60008EEA764E464076448EEAF67E464006EB64
:104D70003E668EEA364E464047F23870C3F24E2009
:104D800003EBF97389EA3369434003EB794389EA1A
:104D9000734943404B4489EAF379434003EB396359
:104DA00089EA3349434048F2EB50CBF6113004EB2B
:104DB000FA748AEA346A444004EB7A448AEA744A10
:104DC000444054448AEAF47A444004EB3A648AEA60
:104DD000344A444047F65730C4F67C7005EBFB7507
:104DE0008BEA356B454005EB7B458BEA754B4540BF
:104DF0005D448BEAF57B454005EB3B658BEA354B23
:104E0000454087EA080082EA010C70408CEA0E0CEB
:104E100080EA00408CEA0C4C89EA30498AEA304A40
:104E200083EA3C4384EA3C448BEA304085EA3C4CCC
:104E300089EA02097B408AEA010A84EA08048EEAC8
:104E4000000B86EA0C054DF65620C3F6B4008AEA3C
:104E5000000A8BF0020B03EBF97389EA33694340D4
:104E600003EB794389EA734943404B4489EAF37978
:104E7000434003EB396389EA3349434045F262100A
:104E8000CBF2E17004EBFA748AEA346A444004EB32
:104E90007A448AEA744A444054448AEAF47A4440A0
:104EA00004EB3A648AEA344A444045F68000CBF683
:104EB000717005EBFB758BEA356B454005EB7B4567
:104EC0008BEA754B45405D448BEAF57B454005EB2D
:104ED0003B658BEA354B454047F23870C3F24E20B4
:104EE00007EBF27782EA3762474007EB724782EAC4
:104EF00077424740BF1882EAF772474007EB3267B4
:104F000082EA3742474048F2EB50CBF6113008EBCB
:104F1000F17881EA386188EA000808EB714881EA93
:104F2000784188EA0008884481EAF87188EA000834
:104F300008EB316881EA384188EA000847F65730C3
:104F4000C4F67C7006EBFE768EEA366E464006EBC3
:104F50007E468EEA764E464076448EEAF67E46409F
:104F600006EB3E668EEA364E464084EA05008AEA43
:104F70000B0C58408CEA090C80EA00408CEA0C4C7F
:104F800082EA304281EA304187EA3C4788EA3C487D
:104F90008EEA304086EA3C4C82EA0A02674081EAA7
:104FA0000B0188EA050889EA000E83EA0C0647F23D
:104FB0003870C3F24E2041408EF0030E04EBFA74B9
:104FC0008AEA346A444004EB7A448AEA744A4440E8
:104FD00054448AEAF47A444004EB3A648AEA344A54
:104FE000444045F26210CBF2E17008EBF17881EABF
:104FF000386188EA000808EB714881EA784188EA5C
:105000000008884481EAF87188EA000808EB3168F2
:1050100081EA384188EA000845F68000CBF67170D5
:1050200006EBFE768EEA366E464006EB7E468EEA4C
:10503000764E464076448EEAF67E464006EB3E6665
:105040008EEA364E46404DF65620C3F6B40007EBC6
:10505000F27782EA3762474007EB724782EA77428B
:105060004740BF1882EAF772474007EB326782EA8F
:105070003742474048F2EB50CBF6113005EBFB7559
:105080008BEA356B454005EB7B458BEA754B45401C
:105090005D448BEAF57B454005EB3B658BEA354B80
:1050A000454047F65730C4F67C7003EBF97389EA44
:1050B0003369434003EB794389EA734943404B44E6
:1050C00089EAF379434003EB396389EA3349434082
:1050D00088EA060081EA0E0C78408CEA020C80EA2D
:1050E00000408CEA0C4C8AEA304A8BEA304B84EA66
:1050F0003C4485EA3C4589EA304083EA3C4C8AEAF4
:10510000010A84EA08048BEA0E0B754082EA000962
:1051100087EA0C0348F2EB50CBF611308BEA000B18
:1051200089F0040906EBFE768EEA366E464006EB01
:105130007E468EEA764E464076448EEAF67E4640BD
:1051400006EB3E668EEA364E464045F26210CBF2E2
:10515000E17005EBFB758BEA356B454005EB7B4554
:105160008BEA754B45405D448BEAF57B454005EB8A
:105170003B658BEA354B454045F68000CBF67170B8
:1051800003EBF97389EA3369434003EB794389EA16
:10519000734943404B4489EAF379434003EB396355
:1051A00089EA334943404DF65620C3F6B40004EB78
:1051B000FA748AEA346A444004EB7A448AEA744A0C
:1051C000444054448AEAF47A444004EB3A648AEA5C
:1051D000344A444047F23870C3F24E2008EBF1786D
:1051E00081EA386188EA000808EB714881EA784171
:1051F00088EA0008884481EAF87188EA000808EB28
:10520000316881EA384188EA000847F65730C4F629
:105210007C7007EBF27782EA3762474007EB724710
:1052200082EA77424740BF1882EAF772474007EBAD
:10523000326782EA3742474085EA03008BEA090C6D
:1052400060408CEA0A0C80EA00408CEA0C4C81EA4F
:1052500030418EEA304E88EA3C4886EA3C4682EA93
:10526000304087EA3C4C81EA0B0188EA05088EEA67
:10527000090E5E408AEA000284EA0C0747F65730BE
:10528000C4F67C708EEA000E82F0050204EBFA741C
:105290008AEA346A444004EB7A448AEA744A444015
:1052A00054448AEAF47A444004EB3A648AEA344A81
:1052B000444045F26210CBF2E17006EBFE768EEAD6
:1052C000366E464006EB7E468EEA764E4640764483
:1052D0008EEAF67E464006EB3E668EEA364E464045
:1052E00045F68000CBF6717007EBF27782EA376201
:1052F000474007EB724782EA77424740BF1882EA8D
:10530000F772474007EB326782EA374247404DF673
:105310005620C3F6B40008EBF17881EA386188EAD8
:10532000000808EB714881EA784188EA000888445F
:1053300081EAF87188EA000808EB316881EA3841AF
:1053400088EA000847F23870C3F24E2005EBFB757F
:105350008BEA356B454005EB7B458BEA754B454049
:105360005D448BEAF57B454005EB3B658BEA354BAD
:10537000454048F2EB50CBF6113003EBF97389EA64
:105380003369434003EB794389EA734943404B4413
:1053900089EAF379434003EB396389EA33494340AF
:1053A00086EA07008EEA020C80EA08008CEA010C0B
:1053B00080EA00408CEA0C4C8BEA304B89EA304999
:1053C00085EA3C4583EA3C438AEA304084EA3C4C27
:1053D0008BEA0E0B754089EA02097B4081EA000ADC
:1053E00088EA0C044AF2C810CCF6BF7089EA0009BA
:1053F0008AF0060A45F26210CBF2E17003EBF97312
:1054000089EA3369434003EB794389EA73494340AE
:105410004B4489EAF379434003EB396389EA334922
:10542000434045F68000CBF6717004EBFA748AEACB
:10543000346A444004EB7A448AEA744A444054444F
:105440008AEAF47A444004EB3A648AEA344A4440F3
:105450004DF65620C3F6B40005EBFB758BEA356BB1
:10546000454005EB7B458BEA754B45405D448BEA37
:10547000F57B454005EB3B658BEA354B454047F2F4
:105480003870C3F24E2006EBFE768EEA366E46404A
:1054900006EB7E468EEA764E464076448EEAF67EEF
:1054A000464006EB3E668EEA364E464048F2EB50EA
:1054B000CBF6113007EBF27782EA3762474007EB11
:1054C000724782EA77424740BF1882EAF772474044
:1054D00007EB326782EA3742474047F65730C4F657
:1054E0007C7008EBF17881EA386188EA000808EB03
:1054F000714881EA784188EA0008884481EAF871B5
:1055000088EA000808EB316881EA384188EA000837
:1055100083EA040089EA0A0C68408CEA0B0C80EAF2
:1055200000408CEA0C4C8EEA304E82EA304286EA29
:105530003C4687EA3C4781EA304088EA3C4C8EEAA8
:10554000090E5E4082EA0A0267408BEA000185EAA2
:105550000C0801BC072812D101BC07604260C0F8EA
:105560000880C1600661C0F814E08361C0F81C9037
:105570000462C0F824A08562C0F82CB0E3E242F6D1
:105580003D10CCF2B320424081F0070145F2621099
:10559000CBF2E17007EBF27782EA3762474007EB24
:1055A000724782EA77424740BF1882EAF772474063
:1055B00007EB326782EA3742474045F68000CBF678
:1055C000717008EBF17881EA386188EA000808EB2D
:1055D000714881EA784188EA0008884481EAF871D4
:1055E00088EA000808EB316881EA384188EA000857
:1055F0004DF65620C3F6B40006EBFE768EEA366E04
:10560000464006EB7E468EEA764E464076448EEA6B
:10561000F67E464006EB3E668EEA364E464047F240
:105620003870C3F24E2003EBF97389EA33694340C3
:1056300003EB794389EA734943404B4489EAF379A0
:10564000434003EB396389EA3349434048F2EB5066
:10565000CBF6113004EBFA748AEA346A444004EB66
:105660007A448AEA744A444054448AEAF47A4440C8
:1056700004EB3A648AEA344A444047F65730C4F6A9
:105680007C7005EBFB758BEA356B454005EB7B4584
:105690008BEA754B45405D448BEAF57B454005EB55
:1056A0003B658BEA354B454087EA080082EA010CEE
:1056B00070408CEA0E0C80EA00408CEA0C4C89EABF
:1056C00030498AEA304A83EA3C4384EA3C448BEA24
:1056D000304085EA3C4C89EA02097B408AEA010AAB
:1056E00084EA08048EEA000B86EA0C0545F2621093
:1056F000CBF2E1708AEA000A8BF0080B04EBFA7433
:105700008AEA346A444004EB7A448AEA744A4440A0
:1057100054448AEAF47A444004EB3A648AEA344A0C
:10572000444045F68000CBF6717005EBFB758BEAC3
:10573000356B454005EB7B458BEA754B45405D4439
:105740008BEAF57B454005EB3B658BEA354B4540E5
:105750004DF65620C3F6B40003EBF97389EA3369BA
:10576000434003EB794389EA734943404B4489EA58
:10577000F379434003EB396389EA3349434047F205
:105780003870C3F24E2007EBF27782EA3762474067
:1057900007EB724782EA77424740BF1882EAF77206
:1057A000474007EB326782EA3742474048F2EB5006
:1057B000CBF6113008EBF17881EA386188EA00080D
:1057C00008EB714881EA784188EA0008884481EA58
:1057D000F87188EA000808EB316881EA384188EA04
:1057E000000847F65730C4F67C7006EBFE768EEA6A
:1057F000366E464006EB7E468EEA764E464076444E
:105800008EEAF67E464006EB3E668EEA364E46400F
:1058100084EA05008AEA0B0C58408CEA090C80EAFD
:1058200000408CEA0C4C82EA304281EA304187EA3F
:105830003C4788EA3C488EEA304086EA3C4C82EAA3
:105840000A02674081EA0B0188EA050889EA000E2E
:1058500083EA0C0645F68000CBF6717041408EF06D
:10586000090E06EBFE768EEA366E464006EB7E4665
:105870008EEA764E464076448EEAF67E464006EB49
:105880003E668EEA364E464045F26210CBF2E1703B
:1058900008EBF17881EA386188EA000808EB714882
:1058A00081EA784188EA0008884481EAF87188EA48
:1058B000000808EB316881EA384188EA00084DF6B3
:1058C0005620C3F6B40007EBF27782EA376247400E
:1058D00007EB724782EA77424740BF1882EAF772C5
:1058E000474007EB326782EA3742474047F2387059
:1058F000C3F24E2004EBFA748AEA346A444004EBA3
:105900007A448AEA744A444054448AEAF47A444025
:1059100004EB3A648AEA344A444048F2EB50CBF64E
:10592000113005EBFB758BEA356B454005EB7B458C
:105930008BEA754B45405D448BEAF57B454005EBB2
:105940003B658BEA354B454047F65730C4F67C70D3
:1059500003EBF97389EA3369434003EB794389EA3E
:10596000734943404B4489EAF379434003EB39637D
:1059700089EA3349434088EA060081EA0E0C784000
:105980008CEA020C80EA00408CEA0C4C8AEA304A2D
:105990008BEA304B84EA3C4485EA3C4589EA304056
:1059A00083EA3C4C8AEA010A84EA08048BEA0E0B7B
:1059B000754082EA000987EA0C034DF65620C3F6CB
:1059C000B4008BEA000B89F00A0904EBFA748AEA46
:1059D000346A444004EB7A448AEA744A44405444AA
:1059E0008AEAF47A444004EB3A648AEA344A44404E
:1059F00045F26210CBF2E17005EBFB758BEA356B7B
:105A0000454005EB7B458BEA754B45405D448BEA91
:105A1000F57B454005EB3B658BEA354B454045F64C
:105A20008000CBF6717003EBF97389EA3369434068
:105A300003EB794389EA734943404B4489EAF3799C
:105A4000434003EB396389EA3349434047F23870F6
:105A5000C3F24E2008EBF17881EA386188EA000849
:105A600008EB714881EA784188EA0008884481EAB5
:105A7000F87188EA000808EB316881EA384188EA61
:105A8000000848F2EB50CBF6113006EBFE768EEABA
:105A9000366E464006EB7E468EEA764E46407644AB
:105AA0008EEAF67E464006EB3E668EEA364E46406D
:105AB00047F65730C4F67C7007EBF27782EA37621C
:105AC000474007EB724782EA77424740BF1882EAB5
:105AD000F772474007EB326782EA3742474085EA70
