:020000040800F2
:100000000000022095160008591100085911000837
:100010005911000859110008591100082DE9F04F35
:10002000016842688368C468056946698769D0F8D1
:100030001C80D0F82090D0F824A0D0F828B0D0F8B8
:100040002CE001B484EA080081EA050C80EA0E0085
:100050008CEA090C4FEAB0404FEABC4C80EA7020B1
:100060008CEA7C2C4140454089EA000982EA06007E
:1000700080EA0A004FEAB04080EA702082EA0C026F
:1000800086EA0C068AEA0C0A83EA070C8CEA0B0C57
:100090004FEABC4C8CEA7C2C434047408BEA000B77
:1000A00084EA0C0488EA0C088EEA0C0E4FEA7959AF
:1000B0004FEA7A5A4FEA7B5B4FEA7E5E81F0580145
:1000C00029EA0800414021EA090C88EA0C0828EADC
:1000D000010089EA00092AEA050C82EA0C0222EAF8
:1000E0000A00454025EA020C8AEA0C0A2BEA0600BF
:1000F000434023EA0B0C86EA0C0626EA03008BEA4F
:10010000000B2EEA070C84EA0C0424EA0E00474098
:1001100027EA040C8EEA0C0E4FEAF8784FEAF575E0
:100120004FEAF6764FEAF7774FEA39694FEA3A6ACB
:100130004FEA3B6B4FEA3E6E84EA070081EA080C07
:1001400080EA0A008CEA0B0C4FEAB0404FEABC4C44
:1001500080EA70208CEA7C2C414088EA00088BEA17
:10016000000B82EA050080EA0E004FEAB04080EA08
:10017000702082EA0C0285EA0C058EEA0C0E83EAF6
:10018000060C8CEA090C4FEABC4C8CEA7C2C4340F0
:10019000464089EA000984EA0C0487EA0C078AEAE7
:1001A0000C0A4FEA7B5B4FEA7E5E4FEA79594FEAD1
:1001B0007A5A81F038012BEA0700414021EA0B0C02
:1001C00087EA0C0727EA01008BEA000B2EEA080CED
:1001D00082EA0C0222EA0E0088EA000828EA020CF1
:1001E0008EEA0C0E29EA0500434023EA090C85EA51
:1001F0000C0525EA030089EA00092AEA060C84EACC
:100200000C0424EA0A00464026EA040C8AEA0C0A96
:100210004FEAF7774FEAF8784FEAF5754FEAF67646
:100220004FEA3B6B4FEA3E6E4FEA39694FEA3A6A52
:1002300084EA060081EA070C80EA0E008CEA090CC9
:100240004FEAB0404FEABC4C80EA70208CEA7C2C2C
:100250004140474089EA000982EA080080EA0A0032
:100260004FEAB04080EA702082EA0C0288EA0C086B
:100270008AEA0C0A83EA050C8CEA0B0C4FEABC4CA8
:100280008CEA7C2C434045408BEA000B84EA0C044A
:1002900086EA0C068EEA0C0E4FEA79594FEA7A5A32
:1002A0004FEA7B5B4FEA7E5E81F4707129EA0600BB
:1002B000414021EA090C86EA0C0626EA010089EA97
:1002C00000092AEA070C82EA0C0222EA0A004740E7
:1002D00027EA020C8AEA0C0A2BEA0800434023EAC8
:1002E0000B0C88EA0C0828EA03008BEA000B2EEAC4
:1002F000050C84EA0C0424EA0E00454025EA040CAF
:100300008EEA0C0E4FEAF6764FEAF7774FEAF87866
:100310004FEAF5754FEA39694FEA3A6A4FEA3B6BA3
:100320004FEA3E6E84EA050081EA060C80EA0A0084
:100330008CEA0B0C4FEAB0404FEABC4C80EA7020CC
:100340008CEA7C2C414046408BEA000B82EA070095
:1003500080EA0E004FEAB04080EA702082EA0C0288
:1003600087EA0C078EEA0C0E83EA080C8CEA090C6B
:100370004FEABC4C8CEA7C2C434088EA000889EAAE
:10038000000984EA0C0485EA0C058AEA0C0A4FEAA3
:100390007B5B4FEA7E5E4FEA79594FEA7A5A81F0E9
:1003A000D0012BEA0500414021EA0B0C85EA0C053F
:1003B00025EA01008BEA000B2EEA060C82EA0C0209
:1003C00022EA0E00464026EA020C8EEA0C0E29EACA
:1003D0000700434023EA090C87EA0C0727EA0300D9
:1003E00089EA00092AEA080C84EA0C0424EA0A00D3
:1003F00088EA000828EA040C8AEA0C0A4FEAF57534
:100400004FEAF6764FEAF7774FEAF8784FEA3B6B18
:100410004FEA3E6E4FEA39694FEA3A6A84EA0800C9
:1004200081EA050C80EA0E008CEA090C4FEAB04024
:100430004FEABC4C80EA70208CEA7C2C414045405D
:1004400089EA000982EA060080EA0A004FEAB04021
:1004500080EA702082EA0C0286EA0C068AEA0C0A1C
:1004600083EA070C8CEA0B0C4FEABC4C8CEA7C2C20
:10047000434047408BEA000B84EA0C0488EA0C08EE
:100480008EEA0C0E4FEA79594FEA7A5A4FEA7B5BB3
:100490004FEA7E5E81F4907129EA0800414021EA2A
:1004A000090C88EA0C0828EA010089EA00092AEA0E
:1004B000050C82EA0C0222EA0A00454025EA020CF9
:1004C0008AEA0C0A2BEA0600434023EA0B0C86EA70
:1004D0000C0626EA03008BEA000B2EEA070C84EADE
:1004E0000C0424EA0E00474027EA040C8EEA0C0EA6
:1004F0004FEAF8784FEAF5754FEAF6764FEAF77764
:100500004FEA39694FEA3A6A4FEA3B6B4FEA3E6E6F
:1005100084EA070081EA080C80EA0A008CEA0B0CE6
:100520004FEAB0404FEABC4C80EA70208CEA7C2C49
:10053000414088EA00088BEA000B82EA050080EA65
:100540000E004FEAB04080EA702082EA0C0285EA91
:100550000C058EEA0C0E83EA060C8CEA090C4FEAB5
:10056000BC4C8CEA7C2C4340464089EA000984EA72
:100570000C0487EA0C078AEA0C0A4FEA7B5B4FEA15
:100580007E5E4FEA79594FEA7A5A81F014012BEADC
:100590000700414021EA0B0C87EA0C0727EA01001B
:1005A0008BEA000B2EEA080C82EA0C0222EA0E000B
:1005B00088EA000828EA020C8EEA0C0E29EA0500F7
:1005C000434023EA090C85EA0C0525EA030089EA81
:1005D00000092AEA060C84EA0C0424EA0A004640D0
:1005E00026EA040C8AEA0C0A4FEAF7774FEAF87811
:1005F0004FEAF5754FEAF6764FEA3B6B4FEA3E6EEF
:100600004FEA39694FEA3A6A84EA060081EA070C40
:1006100080EA0E008CEA090C4FEAB0404FEABC4C6D
:1006200080EA70208CEA7C2C4140474089EA00092E
:1006300082EA080080EA0A004FEAB04080EA7020AF
:1006400082EA0C0288EA0C088AEA0C0A83EA050CA2
:100650008CEA0B0C4FEABC4C8CEA7C2C43404540A6
:100660008BEA000B84EA0C0486EA0C068EEA0C0E78
:100670004FEA79594FEA7A5A4FEA7B5B4FEA7E5E3E
:1006800081F0600129EA0600414021EA090C86EA6E
:100690000C0626EA010089EA00092AEA070C82EA28
:1006A0000C0222EA0A00474027EA020C8AEA0C0AF6
:1006B0002BEA0800434023EA0B0C88EA0C0828EADE
:1006C00003008BEA000B2EEA050C84EA0C0424EAF2
:1006D0000E00454025EA040C8EEA0C0E4FEAF67631
:1006E0004FEAF7774FEAF8784FEAF5754FEA39693C
:1006F0004FEA3A6A4FEA3B6B4FEA3E6E84EA0500E6
:1007000081EA060C80EA0A008CEA0B0C4FEAB04042
:100710004FEABC4C80EA70208CEA7C2C4140464079
:100720008BEA000B82EA070080EA0E004FEAB04035
:1007300080EA702082EA0C0287EA0C078EEA0C0E2F
:1007400083EA080C8CEA090C4FEABC4C8CEA7C2C3E
:10075000434088EA000889EA000984EA0C0485EA33
:100760000C058AEA0C0A4FEA7B5B4FEA7E5E4FEA91
:1007700079594FEA7A5A81F02C012BEA0500414061
:1007800021EA0B0C85EA0C0525EA01008BEA000B37
:100790002EEA060C82EA0C0222EA0E00464026EA05
:1007A000020C8EEA0C0E29EA0700434023EA090CEA
:1007B00087EA0C0727EA030089EA00092AEA080CFD
:1007C00084EA0C0424EA0A0088EA000828EA040CF7
:1007D0008AEA0C0A4FEAF5754FEAF6764FEAF777A0
:1007E0004FEAF8784FEA3B6B4FEA3E6E4FEA3969C1
:1007F0004FEA3A6A84EA080081EA050C80EA0E00B2
:100800008CEA090C4FEAB0404FEABC4C80EA7020F9
:100810008CEA7C2C4140454089EA000982EA0600C6
:1008200080EA0A004FEAB04080EA702082EA0C02B7
:1008300086EA0C068AEA0C0A83EA070C8CEA0B0C9F
:100840004FEABC4C8CEA7C2C434047408BEA000BBF
:1008500084EA0C0488EA0C088EEA0C0E4FEA7959F7
:100860004FEA7A5A4FEA7B5B4FEA7E5E81F4607111
:1008700029EA0800414021EA090C88EA0C0828EA24
:10088000010089EA00092AEA050C82EA0C0222EA40
:100890000A00454025EA020C8AEA0C0A2BEA060007
:1008A000434023EA0B0C86EA0C0626EA03008BEA97
:1008B000000B2EEA070C84EA0C0424EA0E004740E1
:1008C00027EA040C8EEA0C0E4FEAF8784FEAF57529
:1008D0004FEAF6764FEAF7774FEA39694FEA3A6A14
:1008E0004FEA3B6B4FEA3E6E84EA070081EA080C50
:1008F00080EA0A008CEA0B0C4FEAB0404FEABC4C8D
:1009000080EA70208CEA7C2C414088EA00088BEA5F
:10091000000B82EA050080EA0E004FEAB04080EA50
:10092000702082EA0C0285EA0C058EEA0C0E83EA3E
:10093000060C8CEA090C4FEABC4C8CEA7C2C434038
:10094000464089EA000984EA0C0487EA0C078AEA2F
:100950000C0A4FEA7B5B4FEA7E5E4FEA79594FEA19
:100960007A5A81F0F0012BEA0700414021EA0B0C92
:1009700087EA0C0727EA01008BEA000B2EEA080C35
:1009800082EA0C0222EA0E0088EA000828EA020C39
:100990008EEA0C0E29EA0500434023EA090C85EA99
:1009A0000C0525EA030089EA00092AEA060C84EA14
:1009B0000C0424EA0A00464026EA040C8AEA0C0ADF
:1009C0004FEAF7774FEAF8784FEAF5754FEAF6768F
:1009D0004FEA3B6B4FEA3E6E4FEA39694FEA3A6A9B
:1009E00084EA060081EA070C80EA0E008CEA090C12
:1009F0004FEAB0404FEABC4C80EA70208CEA7C2C75
:100A00004140474089EA000982EA080080EA0A007A
:100A10004FEAB04080EA702082EA0C0288EA0C08B3
:100A20008AEA0C0A83EA050C8CEA0B0C4FEABC4CF0
:100A30008CEA7C2C434045408BEA000B84EA0C0492
:100A400086EA0C068EEA0C0E4FEA79594FEA7A5A7A
:100A50004FEA7B5B4FEA7E5E81F4D07129EA0600A3
:100A6000414021EA090C86EA0C0626EA010089EADF
:100A700000092AEA070C82EA0C0222EA0A0047402F
:100A800027EA020C8AEA0C0A2BEA0800434023EA10
:100A90000B0C88EA0C0828EA03008BEA000B2EEA0C
:100AA000050C84EA0C0424EA0E00454025EA040CF7
:100AB0008EEA0C0E4FEAF6764FEAF7774FEAF878AF
:100AC0004FEAF5754FEA39694FEA3A6A4FEA3B6BEC
:100AD0004FEA3E6E84EA050081EA060C80EA0A00CD
:100AE0008CEA0B0C4FEAB0404FEABC4C80EA702015
:100AF0008CEA7C2C414046408BEA000B82EA0700DE
:100B000080EA0E004FEAB04080EA702082EA0C02D0
:100B100087EA0C078EEA0C0E83EA080C8CEA090CB3
:100B20004FEABC4C8CEA7C2C434088EA000889EAF6
:100B3000000984EA0C0485EA0C058AEA0C0A4FEAEB
:100B40007B5B4FEA7E5E4FEA79594FEA7A5A81F031
:100B500012012BEA0500414021EA0B0C85EA0C0545
:100B600025EA01008BEA000B2EEA060C82EA0C0251
:100B700022EA0E00464026EA020C8EEA0C0E29EA12
:100B80000700434023EA090C87EA0C0727EA030021
:100B900089EA00092AEA080C84EA0C0424EA0A001B
:100BA00088EA000828EA040C8AEA0C0A4FEAF5757C
:100BB0004FEAF6764FEAF7774FEAF8784FEA3B6B61
:100BC0004FEA3E6E4FEA39694FEA3A6A01BC01606A
:100BD00042608360C460056146618761C0F81C8023
:100BE000C0F82090C0F824A0C0F828B0C0F82CE0CD
:100BF000BDE8F08F08B500F085FA00F0EDF800F0E0
:100C00007BFA00F06BFA00F079FABDE8084000F0DA
:100C100077BA00BF074A13682BB10748074A036039
:100C20000021116070470649064B074813600860B1
:100C3000F3E700BF0C0000200400002000000020AB
:100C40000800002010000020104000201D4AD2F8AB
:100C500000C010B50346BCF1000F1CD0DFF878E0EF
:100C6000194ADEF800001168073323F00703C218A1
:100C70008A4224D8CEF800202BB10346002103F885
:100C8000011B9A42FBD1114B1968A2EB0C02914255
:100C900000D21A6010BD0E4C0B480E491460073389
:100CA0000A4A016023F007032046C2F800C0DFF8BB
:100CB00028E0C2188A42A446CEF80040DAD90020C3
:100CC00010BD00BF0C000020080000200000002024
:100CD000100000201040002004000020014B186884
:100CE000704700BF00000020094A13681BB1094A81
:100CF0001068C01A704710B407491160074A0848C5
:100D0000044C1160074A20601360401A10BC704701
:100D10000C0000200800002010000020040000202B
:100D20001040002000000020014B0248C01A70470C
:100D30001C000008741E0008084B094A93420BD29D
:100D4000013AD21A22F00302043206481A44194624
:100D5000043393420860FAD1704700BF104000206E
:100D600000000220EFBEADDE82B06B460193019918
:100D7000054B994205D905481A460433994210603B
:100D8000FAD802B0704700BF10400020EFBEADDEC1
:100D90000648074A904207D2064902E004309042D2
:100DA00002D203688B42F9D0101A7047104000201D
:100DB00000000220EFBEADDE014B0248C01A7047B2
:100DC0000000002010000020014B0248C01A7047AC
:100DD0001040002000000220704700BF2DE9F04FB6
:100DE0008DB00446FFF7C0FFFFF714FFA34B1B783D
:100DF000A34205D0A2480DB0BDE8F04F00F0BEB947
:100E00009E4C237AE068002B4FF040024FF0140311
:100E10000B934FF480610CBF01230523CDE907023A
:100E2000102298480593CDE9091200F0A7F96068EF
:100E300000F0A4F9944800F0A1F96020FFF706FF44
:100E40000290002800F01781421E002302F8013FA3
:100E50000133602BFAD1DDF81C8007AB4FF0000B9B
:100E600040460393CDF810B0FFF7F0FE814600280E
:100E700000F0B280814B00241D69322627466FF0B6
:100E80007F4A00F0AFFA029A834660234146484603
:100E9000A847019000F0A6FA00EB0A038345A0EBF7
:100EA0000B02A3EB0B0378D8121947F10007013EA0
:100EB0001446E6D1019B002B79D1049B002B00F056
:100EC0008F80230D43EA0733C3F31302C4F31303E4
:100ED0001344C7F3132213446C4A03EB1773A2FBAA
:100EE0000312D20802EB820202EB82029B1AE41A7E
:100EF000674B684A67F1000703FB04F302FB073303
:100F0000A4FB02421344640844EAC374049B012B0B
:100F100000F0AF80022B00F0AA80032B00F0948039
:100F20005D4800F02BF9204600F036F95B4800F0F0
:100F300025F9322000F030F9594800F01FF95948DE
:100F400000F01CF9584800F019F9FFF7C7FE00F04F
:100F500023F9564800F012F9554800F00FF9FFF751
:100F600017FF00F019F9514800F008F9514800F056
:100F700005F9FFF721FF00F00FF94C4800F0FEF8EB
:100F80004D4800F0FBF8FFF7CFFE00F005F94B48A5
:100F90000DB0BDE8F04F00F0F1B81B1947F10007A4
:100FA000013E1C467FF46DAF019B002B85D0444869
:100FB00000F0E4F8049B059A01339A420493BED0F2
:100FC000039BD3F80480043340460393FFF73EFEAF
:100FD000814600287FF44EAF3A4800F0CFF8E9E7A9
:100FE000394800F0CBF8230D43EA0733C3F313006D
:100FF000C4F313030344C7F313200344234A2449CF
:1010000003EB1773A2FB0302D20802EB820202EB8E
:1010100082029B1AE31A1F4A01FB03F067F10007E3
:1010200002FB0700A3FB023210445B0843EAC070D6
:1010300000F0B2F8194800F0A1F8322000F0ACF846
:10104000174800F09BF8B5E7204800F097F82046D5
:1010500000F0A2F8114800F091F8322000F09CF85E
:101060000F4800F08BF8049B01330493A8E718485D
:10107000EBE71848E9E71848BDE600BF381E00084E
:10108000301B0008501B0008541B00081F85EB5143
:10109000F5285C8F295C8FC2D81B0008C01B000894
:1010A000D01B0008441C0008541C0008641C0008E5
:1010B000681C0008781C0008881C0008981C0008A0
:1010C000281C0008881B0008AC1B0008141C000822
:1010D000001C0008EC1B0008641B000808B504484D
:1010E00000F04CF8034B1878BDE80840FFF776BED7
:1010F000A01C0008381E0008704700BF704700BFE2
:10110000704700BF704700BFF8B170B50E4690B091
:101110000546ABB1E2B102AC2046CDE9002300F0B8
:1011200069FBDDE900120023204600F06DFB20463C
:1011300032460023294600F0ADFC002010B070BDFF
:1011400002AC204600F056FBF1E74FF0FF3070474D
:101150004FF0FF30F2E700BF0649074A0A2001F1CD
:101160001F0C13681B06FCD5506011F8010F614578
:10117000F7D1FEE7C41C000800100140017841B11E
:10118000044A13681B06FCD5516010F8011F0029A2
:10119000F7D170470010014000B585B000238DF8ED
:1011A0000E30002800F0A380624BA3FB0012D2088F
:1011B00002EB8201A0EB41013031C9B209288DF860
:1011C0000D1040F29F80A3FB021C4FEADC0C0CEBDD
:1011D0008C01A2EB41023032D1B263288DF80C10A1
:1011E00040F29380A3FB0C2E4FEADE0E0EEB8E0234
:1011F000ACEB42023032D1B2B0F57A7F8DF80B10F1
:10120000C0F08680A3FB0E2C4FEADC0C0CEB8C02AA
:10121000AEEB42023032D1B242F20F7290428DF800
:101220000A1078D9A3FB0C2E4FEADE0E0EEB8E02CD
:10123000ACEB4202DFF808C13032D1B260458DF824
:1012400009105CD9A3FB0E2C4FEADC0C0CEB8C02D2
:10125000AEEB4202DFF8ECE03032D1B270458DF8EF
:1012600008105BD9A3FB0C2E4FEADE0E0EEB8E02AC
:10127000ACEB4202DFF8D0C03032D1B260458DF81D
:1012800007104ED3A3FB0E2C4FEADC0C0CEB8C02A8
:10129000AEEB4202DFF8B4E03032D1B270458DF8E7
:1012A000061041D9A3FB0C23DB0803EB8303224A7E
:1012B000ACEB43033033D9B290428DF8051036D9E8
:1012C0001C4BA3FB0C23DB0803F130014FF0000E95
:1012D0008DF8041001A8194A704413681B06FCD548
:1012E000516010F8011F0029F7D105B000BD134A65
:1012F00013681906FCD53023536005B000BD4FF0CC
:10130000050EE7E74FF0090EE4E74FF0080EE1E7BE
:101310004FF0070EDEE74FF0060EDBE74FF0040E4E
:10132000D8E74FF0030ED5E74FF0020ED2E74FF0AB
:10133000010ECFE7CDCCCCCCFFC99A3B00100140C9
:101340009F8601003F420F0080969800FFE0F50560
:10135000224B010FC0F3036200B513F801E09A5C61
:1013600000216EF30701C0F3035C62F30F21C0F3A9
:10137000034213F80CE013F802C000F00F0285B02E
:101380009A5C8DF80D206EF31741C0F303226CF3C5
:101390001F61C0F3031CC0F303309A5C13F80CC048
:1013A0008DF80B201B5C0E4ACDF8061047F6300076
:1013B0004FF0000EADF804008DF80EE08DF80CC073
:1013C0008DF80A30302101A813681B06FCD5516046
:1013D00010F8011F0029F7D105B000BD601E0008FC
:1013E000001001404FF0E0239869C04320F07F4097
:1013F000704700BF08B54FF0E0239249D3F8882D1D
:10140000914C42F47002C3F8882DD1F8442842F080
:101410001002C1F8442842F2080000226FF07F4118
:1014200040F28365A560E0601A61596105219A6107
:101430001961FFF7EFFBFFF77FFC844A0A2102F1F5
:101440002B0023681B06FCD5616012F8011F824245
:10145000F7D17F497C4A202001F12B0413681E0636
:10146000FCD5506011F8010FA142F7D17949764AB5
:101470003D2001F12B0413681D06FCD5506011F8C6
:10148000010FA142F7D1FFF7C5FBFFF755FCFFF7AE
:101490002BFC0546FFF798FC0446FFF78DFC6E49D0
:1014A000694A064601F10D0C5B2013681B06FCD54A
:1014B000506011F8010F6145F7D16849624A202058
:1014C00001F10A0C13681B06FCD5506011F8010FDE
:1014D0006145F7D14FF00060FFF73AFF60495A4A83
:1014E000202001F1160C13681B06FCD5506011F882
:1014F000010F6145F7D15B49534A202001F10A0CE5
:1015000013681B06FCD5506011F8010F6145F7D137
:101510004FF00050FFF71CFF53494B4A202001F1C8
:10152000150C13681B06FCD5506011F8010F6145BE
:10153000F7D14E49444A202001F1140C13681B06D0
:10154000FCD5506011F8010F6145F7D13046FFF727
:1015500023FE47493C4A2020CE1C13681B06FCD5BD
:10156000506011F8010FB142F7D14249364A2020AC
:1015700001F10A0613681B06FCD5506011F8010F33
:10158000B142F7D13C48FFF7E3FE3C492E4A202008
:10159000CE1C13681B06FCD5506011F8010FB14238
:1015A000F7D12846FFF7F8FD3549274A202001F1F9
:1015B000140513681B06FCD5506011F8010FA942F1
:1015C000F7D13049204A202001F10A0513681B0693
:1015D000FCD5506011F8010FA942F7D12A48FFF756
:1015E000B7FE2649184A202013681B06FCD5506018
:1015F00011F8010FB142F7D12046FFF7CDFD234985
:10160000114A202001F1140413681D06FCD5506016
:1016100011F8010FA142F7D10B4A13681906FCD546
:101620000A235360FFF7E6FA1949074A532001F1EC
:10163000100413681B06FCD5506011F8010FA1427D
:10164000F7D1FEE70030024000100140E41C000822
:10165000101D00083C1D0008681D0008781D0008CA
:10166000841D00089C1D0008A81D0008C01D00085E
:10167000641C0008D81D000810000020E41D0008AC
:10168000E81D0008001E0008104000200C1E000885
:10169000241E000838B5244C244B9C4221D2013B27
:1016A0001B1B032B22463BD99B08214D03F1010C48
:1016B0004FEA5C0E2B4605EBCE0ED3E90001083352
:1016C0009E45C2E9000102F10802F6D11CF0010FAB
:1016D00007D02CF0010C04EB8C0405EB8C052B6877
:1016E0002360144C14498C4218D20139091B032978
:1016F000234617D989080131480804EBC0000022AD
:10170000C3E9002208338342FAD1CB0706D521F082
:10171000010104EB810C0023CCF80030FFF76AFED6
:10172000034DDCE7A446F6E700000020000000209F
:10173000741E0008000000201000002030B5044690
:1017400012B3501E0228C9B220D94FF0000C61F329
:10175000070C61F30F2C61F3174C22F0030561F3C2
:101760001F6C234604EB050E43F804CB9E45FBD1CA
:10177000AA4209D0401B8EF8001028B101288EF82B
:10178000011018BF8EF80210204630BDA646F2E7C1
:1017900072B3F0B5541E052C164620D9451A013DEA
:1017A000022D84460B461AD922F0030597086A18C1
:1017B00053F804EB4CF804EB9342F9D1AE420DD050
:1017C00011F8272000F82720641B00EB050205D044
:1017D00059785170012C01D09B789370F0BD441E54
:1017E0008B1911F8012B04F8012F8B42F9D1F0BDB0
:1017F000704700BF10B5382204460021FFF79EFF56
:10180000002384F8313010BDF8B590F83130022B48
:1018100004460D46164600F03681B3FA83F14909B5
:10182000002E00F0988094F830300F2B3DD8C3F193
:101830001000B04228BF3046421E032A04EB030CBE
:101840004DD9ACEB0502013A022A40F28580E258FC
:101850002F684FEA900E7A40BEF1010FE25074D02B
:101860006B68DCF80420BEF1020F83EA0203CCF8B7
:10187000043049D0AB68DCF80820BEF1040F83EADD
:101880000203CCF808303FD1DCF80C30EA68534052
:10189000CCF80C3094F830300344DBB2361A84F8BC
:1018A000303058D00F2B0544C1D9227C94F82F300A
:1018B00082F001024B40227484F82F302046FEF75C
:1018C000ADFB102E304628BF10204FF4807300214E
:1018D000421E2386032A0B4604EB030CB1D8E75CB7
:1018E00095F800E087EA0E07E754002AD2D06B781B
:1018F0009CF80120022883EA02038CF80130C9D049
:10190000AA1C0CF1020338E020F00303820705EB68
:10191000030E00F003076344BCD09EF8002093F848
:1019200000C0012F82EA0C021A70B3D09EF8012089
:1019300093F801C0022F82EA0C025A70AAD09EF8D6
:1019400002209F787A409A70A4E7071F0CF10403E5
:1019500005F1040EE1E7F8BD2A469CF8003012F8C4
:10196000027B5F40634603F8027B9CF8017095F8A8
:1019700001E087EA0E078CF8017012781F780328BF
:1019800082EA07021A7085D0EB789CF803200428BD
:1019900083EA02038CF803303FF47CAF2B799CF888
:1019A0000420052883EA02038CF804303FF472AF68
:1019B0006B799CF80520062883EA02038CF8053031
:1019C0003FF468AFAB799CF80620072883EA02034E
:1019D0008CF806303FF45EAFEB799CF807200828BE
:1019E00083EA02038CF807303FF454AF2B7A9CF85B
:1019F0000820092883EA02038CF808303FF44AAF34
:101A00006B7A9CF809200A2883EA02038CF80930D3
:101A10003FF440AFAB7A9CF80A200B2883EA02031C
:101A20008CF80A303FF436AFEB7A9CF80B200C2888
:101A300083EA02038CF80B303FF42CAF2B7B9CF82D
:101A40000C200D2883EA02038CF80C303FF422AFFF
:101A50006B7B9CF80D200E2883EA02038CF80D3076
:101A60003FF418AFAB7B9CF80E200F2883EA0203EB
:101A70008CF80E303FF40EAF9CF80F30EA7B5340E9
:101A80008CF80F3006E7FEF7C9FA00230121238600
:101A9000C6E600BF2DE9F04190F83130022B044634
:101AA0000F4615462FD165B394F8303000260FE06D
:101AB000A84528BFA8464246FFF76AFE94F8303092
:101AC0004344DBB2B5EB0805474484F8303018D006
:101AD0000F2BC3F1100804EB03013846E8D9237833
:101AE00083F0010320462370FEF798FA102DA846D4
:101AF00028BF4FF0100884F830604246214638462F
:101B0000DAE7BDE8F08190F83010425C82F0010223
:101B1000425490F82F20002B08BF82F0010280F879
:101B20002F20FEF77BFA4FF400732386BBE700BF3C
:101B3000212120556E726567697374657265642032
:101B4000486173682F584F462021210A0000000089
:101B50002D3E20000A2020205B54696D696E675D70
:101B60000A00000021212048656170204F4F4D2060
:101B7000616C6C6F636174696E6720696E707574F7
:101B80002021210A000000002121204865617020E9
:101B90004F4F4D20616C6C6F636174696E67206F8D
:101BA00075747075742021210A00000020202044E3
:101BB000656661756C742F3332423A200000000074
:101BC0002063792028617667206F76657220000097
:101BD0002072756E73290A0020202053717A2032FA
:101BE00030423A20202020200000000020202053F6
:101BF000717565657A65203634423A200000000030
:101C000020202053717A2031303234423A20202073
:101C10000000000020202053717A203136423A2003
:101C200020202020000000002020205B4572726FE1
:101C30007220657865637574696E67206861736882
:101C40005D0A00002020205B4D656D6F72795D0A92
:101C50000000000020202048656170205065616B05
:101C60003A20200020420A00202020537461636B38
:101C70002048574D3A202000202020537461746979
:101C800063204253533A2000202020466C61736841
:101C900020436F64653A200020420A0A00000000D9
:101CA0005B48617368202F20584F465D0A00000092
:101CB000584F4F4459414B2D4841534820286C7789
:101CC000632900000A2121212048415244574152F2
:101CD00045204641554C5420434155474854202106
:101CE00021210A000A3D3D3D3D3D3D3D3D3D3D3DFF
:101CF0003D3D3D3D3D3D3D3D3D3D3D3D3D3D3D3D14
:101D00003D3D3D3D3D3D3D3D3D3D3D3D3D3D0A0073
:101D100020204D756C74692D416C676F7269746811
:101D20006D2048657465726F67656E656F757320A9
:101D30004672616D65776F726B200A003D3D3D3DD7
:101D40003D3D3D3D3D3D3D3D3D3D3D3D3D3D3D3DC3
:101D50003D3D3D3D3D3D3D3D3D3D3D3D3D3D3D3DB3
:101D60003D3D3D3D3D0A0A005B4D656D6F7279203A
:101D70004D61705D0A0000002020466C6173683A76
:101D800020200000202031303438353736204220E2
:101D90002831303234204B42290A000020205241A1
:101DA0004D3A2020202000002020203133313037D0
:101DB0003220422028313238204B42290A000000CC
:101DC00020204253533A2020202020202020202071
:101DD00020202020000000002020486561703A206B
:101DE00020200000202020002042202862756D70F5
:101DF00020616C6C6F6361746F72290A00000000CF
:101E00002020537461636B3A202000002042202878
:101E100067726F777320646F776E77617264290AD7
:101E200000000000537569746520636F6D706C6508
:101E300074652E0A000000001A000000B01C0008A3
:101E4000010000002000000009110008000000004F
:101E50000000000000000000000000000000000082
:101E600030313233343536373839414243444546D0
:041E7000000000006E
:0400000508000000EF
:00000001FF
