:020000040800F2
:1000000000000220652C0008312700083127000875
:1000100031270008312700083127000898B103B1C3
:100020008AB100B585B094460A460021CDE9023177
:10003000CDF800C00B4602F09BFE003818BF01202F
:10004000404205B000BD4FF0FF3070470400000093
:100050005834000801000000200000001D000008C6
:100060000000000000000000000000000000000090
:100070000000000020B108B503F018F9002008BD09
:100080004FF0FF30704700BF28B121B108B503F031
:1000900009F9002008BD4FF0FF30704798B192B1C8
:1000A00030B583B0144605461046019103F088F838
:1000B00001992246284603F0AFF8204603F0F6F8EF
:1000C000002003B030BD4FF0FF30704730B102B1B7
:1000D00021B108B503F038F8002008BD4FF0FF301B
:1000E000704700BF20B108B503F01AF8002008BD22
:1000F0004FF0FF30704700BFE8B103B1DAB1F0B59F
:10010000B5B01F461646044668460D4603F008F88B
:100110003A463146684603F017F8684603F050F84F
:100120006A462946204603F077F8684603F0BEF891
:10013000002035B0F0BD4FF0FF30704715000000D3
:10014000783400080100000020000000F9000008D9
:10015000E5000008CD0000089D00000889000008A7
:100160007500000800000000000000000000000012
:10017000000000000000000000000000000000007F
:10018000000000000000000000000000000000006F
:10019000000000000000000000000000000000005F
:1001A000000000000000000000000000000000004F
:1001B000000000000000000000000000000000003F
:1001C000000000000000000000000000000000002F
:1001D000000000000000000000000000000000001F
:1001E000000000000000000000000000000000000F
:1001F00000000000000000000000000000000000FF
:10020000704700BFAFF30080AFF30080AFF3008012
:10021000AFF30080AFF30080AFF30080AFF3008056
:10022000AFF30080AFF30080AFF30080AFF3008046
:10023000AFF30080AFF30080AFF30080AFF3008036
:10024000AFF30080AFF30080AFF30080AFF3008026
:10025000AFF30080AFF30080AFF30080AFF3008016
:10026000AFF30080AFF30080AFF30080AFF3008006
:10027000AFF30080AFF30080AFF30080AFF30080F6
:10028000AFF30080AFF30080AFF30080AFF30080E6
:10029000AFF30080AFF30080AFF30080AFF30080D6
:1002A000AFF30080AFF30080AFF30080AFF30080C6
:1002B000AFF30080AFF30080AFF30080AFF30080B6
:1002C000AFF30080AFF30080AFF30080AFF30080A6
:1002D000AFF30080AFF30080AFF30080AFF3008096
:1002E000AFF30080AFF30080AFF30080AFF3008086
:1002F000AFF30080AFF30080AFF30080AFF3008076
:1003000003B32DE9F04122F00704001912F00702AF
:100310000BD01C00C2F10805AC4200DD2C00A3EBA1
:100320000408230000F0ECF84346DA0804D09846AD
:1003300000F066F808F0070313B1002200F0E0F8BF
:10034000BDE8F081704700BFAFF30080AFF30080DD
:10035000AFF30080AFF30080AFF30080AFF3008015
:10036000AFF30080AFF30080AFF30080AFF3008005
:10037000AFF30080AFF30080AFF30080AFF30080F5
:10038000AFF30080AFF30080AFF30080AFF30080E5
:10039000AFF30080AFF30080AFF30080AFF30080D5
:1003A000AFF30080AFF30080AFF30080AFF30080C5
:1003B000AFF30080AFF30080AFF30080AFF30080B5
:1003C000AFF30080AFF30080AFF30080AFF30080A5
:1003D000AFF30080AFF30080AFF30080AFF3008095
:1003E000AFF30080AFF30080AFF30080AFF3008085
:1003F000AFF30080AFF30080AFF30080AFF3008075
:1004000051F8044B51F8045BD0E9006704F0553310
:1004100043EA530303F0333343EA930303F00F3308
:1004200043EA131303F0FF1363F30F2386EA132643
:1004300005F0553343EA530303F0333343EA9303A0
:1004400003F00F3343EA131303F0FF1343EA1323BC
:1004500086EA034604F0AA3343EA430303F0CC33AD
:1004600043EA830303F0F03343EA031303F0FF236B
:1004700043EA032387EA134705F0AA3343EA430319
:1004800003F0CC3343EA830303F0F03343EA03136E
:1004900003F0FF2343EA03236FF30F035F40E0E819
:1004A0000267013AACD17047AFF30080AFF3008030
:1004B000AFF30080AFF30080AFF30080AFF30080B4
:1004C000AFF30080AFF30080AFF30080AFF30080A4
:1004D000AFF30080AFF30080AFF30080AFF3008094
:1004E000AFF30080AFF30080AFF30080AFF3008084
:1004F000AFF30080AFF30080AFF30080AFF3008074
:100500000024002530B46A4411F8015B02F8015B55
:10051000013BF9D130BCD0E9006704F0553343EA20
:10052000530303F0333343EA930303F00F3343EAF7
:10053000131303F0FF1363F30F2386EA132605F06A
:10054000553343EA530303F0333343EA930303F091
:100550000F3343EA131303F0FF1343EA132386EA2E
:10056000034604F0AA3343EA430303F0CC3343EADF
:10057000830303F0F03343EA031303F0FF2343EA5A
:10058000032387EA134705F0AA3343EA430303F042
:10059000CC3343EA830303F0F03343EA031303F05D
:1005A000FF2343EA03236FF30F035F40E0E8026792
:1005B000704700BFAFF30080AFF30080AFF300805F
:1005C000AFF30080AFF30080AFF30080AFF30080A3
:1005D000AFF30080AFF30080AFF30080AFF3008093
:1005E000AFF30080AFF30080AFF30080AFF3008083
:1005F000AFF30080AFF30080AFF30080AFF3008073
:1006000003B32DE9F04122F00704001912F00702AC
:100610000BD01C00C2F10805AC4200DD2C00A3EB9E
:100620000408230000F0ECF84346DA0804D09846AA
:1006300000F066F808F0070313B1002200F0E0F8BC
:10064000BDE8F081704700BFAFF30080AFF30080DA
:10065000AFF30080AFF30080AFF30080AFF3008012
:10066000AFF30080AFF30080AFF30080AFF3008002
:10067000AFF30080AFF30080AFF30080AFF30080F2
:10068000AFF30080AFF30080AFF30080AFF30080E2
:10069000AFF30080AFF30080AFF30080AFF30080D2
:1006A000AFF30080AFF30080AFF30080AFF30080C2
:1006B000AFF30080AFF30080AFF30080AFF30080B2
:1006C000AFF30080AFF30080AFF30080AFF30080A2
:1006D000AFF30080AFF30080AFF30080AFF3008092
:1006E000AFF30080AFF30080AFF30080AFF3008082
:1006F000AFF30080AFF30080AFF30080AFF3008072
:10070000F0E80245230065F31F446FF30F0545EA47
:10071000134584EA142303F47F435C4084EA0324F2
:1007200084EA141303F0F0135C4084EA031484EAAF
:10073000940303F00C335C4084EA830484EA54039A
:1007400003F022335C4084EA430485EA152303F472
:100750007F435D4085EA032585EA151303F0F01316
:100760005D4085EA031585EA950303F00C335D408F
:1007700085EA830585EA550303F022335D4085EA67
:10078000430541F8044B013A41F8045BB8D1704786
:10079000AFF30080AFF30080AFF30080AFF30080D1
:1007A000AFF30080AFF30080AFF30080AFF30080C1
:1007B000AFF30080AFF30080AFF30080AFF30080B1
:1007C000AFF30080AFF30080AFF30080AFF30080A1
:1007D000AFF30080AFF30080AFF30080AFF3008091
:1007E000AFF30080AFF30080AFF30080AFF3008081
:1007F000AFF30080AFF30080AFF30080AFF3008071
:10080000F0E80245260065F31F446FF30F0545EA43
:10081000164584EA142606F47F46744084EA0624CA
:1008200084EA141606F0F016744084EA061484EA8A
:10083000940606F00C36744084EA860484EA540672
:1008400006F02236744084EA460485EA152606F44A
:100850007F46754085EA062585EA151606F0F016EE
:10086000754085EA061585EA950606F00C36754052
:1008700085EA860585EA550606F02236754085EA42
:10088000460530B46A4412F8014B013B01F8014BB4
:10089000F9D102B0704700BFAFF30080AFF3008022
:1008A000AFF30080AFF30080AFF30080AFF30080C0
:1008B000AFF30080AFF30080AFF30080AFF30080B0
:1008C000AFF30080AFF30080AFF30080AFF30080A0
:1008D000AFF30080AFF30080AFF30080AFF3008090
:1008E000AFF30080AFF30080AFF30080AFF3008080
:1008F000AFF30080AFF30080AFF30080AFF3008070
:10090000010000000000000000000000890000005D
:10091000000000008B00008000000000808000804C
:10092000010000008B0000000100000000800000BA
:10093000010000008880008001000000820000802B
:10094000000000000B000000000000000A00000092
:100950000100000082800000000000000380000011
:10096000010000008B800000010000000B000080EF
:10097000010000008A00008001000000810000806A
:1009800000000000810000800000000008000080DE
:1009900000000000830000000000000003800080D1
:1009A00001000000888000800000000088000080B6
:1009B0000100000000800000000000008280008034
:1009C000FF000000AFF30080AFF30080AFF30080C2
:1009D000AFF30080AFF30080AFF30080AFF300808F
:1009E000AFF30080AFF30080AFF30080AFF300807F
:1009F000AFF30080AFF30080AFF30080AFF300806F
:100A0000AFF204112DE9F05F86B00591D0F82030E7
:100A1000D0F84810D0F87050D0F898B0D0F8C0C0D6
:100A200083EA010383EA050383EA0B0383EA0C03E9
:100A3000D0F80C70D0F83410D0F85C50D0F884B0F6
:100A4000D0F8ACC087EA010787EA050787EA0B07F9
:100A500087EA0C0783EAF776D0F81440D0F83C1008
:100A6000D0F86450D0F88CB0D0F8B4C0CDF80060A5
:100A700084EA010484EA050484EA0B0484EA0C0491
:100A800083EA0406D0F81830D0F84010D0F8685047
:100A9000D0F890B0D0F8B8C0CDF80C6083EA01036C
:100AA00083EA050383EA0B0383EA0C0387EA030264
:100AB000D0F80070D0F82810D0F85050D0F878B0A6
:100AC000D0F8A0C087EA010787EA050787EA0B0785
:100AD00087EA0C0787EAF47AD0F81C40D0F8441073
:100AE000D0F86C50D0F894B0D0F8BCC084EA0104BF
:100AF00084EA050484EA0B0484EA0C0484EA070E01
:100B0000D0F80870D0F83010D0F85850D0F880B035
:100B1000D0F8A8C087EA010787EA050787EA0B072C
:100B200087EA0C0787EAF476D0F82440D0F84C1016
:100B3000D0F87450D0F89CB0D0F8C4C0CDF8106094
:100B400084EA010484EA050484EA0B0484EA0C04C0
:100B500084EA0708D0F81070D0F83810D0F8605048
:100B6000D0F888B0D0F8B0C0CDF8048087EA01078B
:100B700087EA050787EA0B0787EA0C0787EAF47913
:100B8000D0F80440D0F82C10D0F85450D0F87CB0F5
:100B9000D0F8A4C0CDF8089084EA010484EA0504E2
:100BA00084EA0B0484EA0C0484EA070B83EAF47CED
:100BB000D0F81830D0F84840D0F85450D0F88460BD
:100BC000D0F8B470C0F8541089EA03038CEA040426
:100BD00088EA05058BEA060682EA070725EA3461FA
:100BE00081EA3351C0F8541026EA755181EA743114
:100BF000C0F8841027EA362181EA7571C0F8B41074
:100C000023EAF73181EAF651C0F8181024EA33716B
:100C100081EAF721D0F80830D0F83C40D0F868508D
:100C2000D0F89C60D0F8A470C0F848108AEA03039A
:100C300082EA040489EA05058EEA060688EA0707BF
:100C400025EA742181EA3331C0F8A41026EA35611F
:100C500081EA7401C0F8081027EA761181EA7571FB
:100C6000C0F83C1023EAF75181EA3671C0F86810E9
:100C700024EAF30181EAB761DDF80080D0F824307E
:100C8000D0F82840D0F85850D0F88C60D0F8B87020
:100C9000C0F89C108EEA030388EA04048AEA05057A
:100CA00082EA060689EA070725EAF44181EAF35158
:100CB000C0F8281026EAF50181EAB451C0F85810AE
:100CC00027EA365181EAF551C0F88C1023EAB74182
:100CD00081EAB611C0F8B81024EA331181EAB7519D
:100CE000D0F81430D0F84040D0F87050D0F8786088
:100CF000D0F8AC70C0F8241082EA030389EA040437
:100D00008CEA050588EA06068BEA070725EA3461BE
:100D100081EA3351C0F8781026EA750181EA7461DE
:100D2000C0F8AC1027EA763181EAB531C0F814106A
:100D300023EAB77181EAF621C0F8401024EA337142
:100D400081EAB761DDF80C90D0F80030046B456E95
:100D5000D0F89460D0F8C070C0F8701088EA03032F
:100D60008AEA040482EA050589EA06068CEA07078E
:100D700026EA755181EA7451C0F8301027EA3671BD
:100D800081EA7541C0F8641023EA776181EA7651FF
:100D9000C0F8941024EAB35181EAF731C0F8C010CA
:100DA00025EA040505990C6883EAB52384EA030162
:100DB000DDF81020D0F81C30D0F84C40D0F850505E
:100DC000D0F88060D0F8B070C0F8001089EA030352
:100DD0008EEA040488EA05058AEA060682EA07071D
:100DE00025EAF45181EAF341C0F8501026EA755122
:100DF00081EA3431C0F8801027EA362181EA757122
:100E0000C0F8B01023EA374181EA3661C0F81C10FF
:100E100024EA337181EA3731D0F80C30D0F8384009
:100E2000D0F86C50D0F89860D0F8A070C0F84C1092
:100E30008BEA030382EA040489EA05058CEA0606C4
:100E400088EA070725EAB42181EA3331C0F8A01007
:100E500026EAF55181EA7401C0F80C1027EA7611F0
:100E600081EA3571C0F8381023EA376181EA76717A
:100E7000C0F86C1024EAB30181EAB761DDF80480A0
:100E8000D0F82030D0F82C40D0F85C50D0F88860F2
:100E9000D0F8BC70C0F898108CEA030388EA040408
:100EA0008BEA050582EA060689EA070725EAF44186
:100EB00081EA3361C0F82C1026EAB50181EA745149
:100EC000C0F85C1027EA765181EAF551C0F8881025
:100ED00023EA774181EAB611C0F8BC1024EA731105
:100EE00081EAB751D0F81030D0F84440D0F87450AF
:100EF000D0F87C60D0F8A870C0F8201082EA030314
:100F000089EA04048EEA050588EA06068AEA0707E4
:100F100025EA346181EA7351C0F87C1026EA750134
:100F200081EA7461C0F8A81027EA363181EA753188
:100F3000C0F8101023EAB77181EAB621C0F8441056
:100F400024EA737181EAF761DDF80890D0F8043083
:100F5000446B056ED0F89060D0F8C470C0F874107F
:100F600088EA03038BEA040482EA050589EA060697
:100F70008EEA070726EA755181EA3451C0F8341029
:100F800027EA767181EAB541C0F8601023EA7761FB
:100F900081EAB651C0F8901024EAB35181EAF731E2
:100FA000C0F8C41025EAF47505994C6883EAF52366
:100FB00084EA030ED0F8C030D0F84810D0F898502A
:100FC000D0F824B0D0F874C0C0F804E083EA31331C
:100FD00083EAF54383EA3B1383EABC63D0F83470B9
:100FE000D0F88010D0F80850D0F85CB0D0F8ACC081
:100FF00087EA315787EAB51787EAFB0787EABC57C4
:101000004FEAB32383EA7756D0F86040D0F8B010A7
:10101000D0F83C50D0F888B0D0F814C0CDF80060BB
:1010200084EA712484EAB57484EAFB2484EABC145B
:1010300083EA7466D0F89430D0F81810D0F86C5069
:10104000D0F8B8B0D0F844C0CDF80C6083EAB14312
:1010500083EAF57383EABB4383EA7C0383EAB752EE
:10106000D0F80070D0F85410D0F8A050D0F828B0C4
:10107000D0F87CC087EAB17787EAF54787EAFB6753
:1010800087EA3C3787EA346AD0F89040D0F81C10E1
:10109000D0F86850D0F8BCB0D0F840C084EAB14471
:1010A00084EA050484EAFB4484EA7C0484EA070EAB
:1010B000D0F83070D0F88410D0F80C50D0F858B078
:1010C000D0F8A8C087EA315787EAF51787EAFB0707
:1010D00087EABC574FEA775787EAF476D0F8C440DE
:1010E000D0F84C10D0F89C50D0F820B0D0F870C098
:1010F000CDF8106084EA313484EAF54484EA3B1484
:1011000084EAFC6487EAB428D0F86470D0F8B4109C
:10111000D0F83850D0F88CB0D0F810C0CDF804809A
:1011200087EA312787EAB57787EAFB2787EABC1782
:101130004FEA776787EA7429D0F80440D0F8501056
:10114000D0F8A450D0F82CB0D0F878C0CDF80890E2
:1011500084EAF17484EA355484EAFB6484EA7C34DA
:1011600084EA070B83EAF47CD0F89430D0F8484046
:10117000D0F8A450D0F85C60D0F81470C0F8A41077
:1011800089EA03038CEAB45488EA35558BEA76661B
:1011900082EAF77725EA346181EA3351C0F8A41076
:1011A00026EA755181EA7431C0F85C1027EA3621CD
:1011B00081EA7571C0F8141023EAF73181EAF6511B
:1011C000C0F8941024EA337181EAF721D0F8303066
:1011D000D0F8B040D0F86C50D0F82060D0F87870DB
:1011E000C0F848108AEA735382EAB40489EAF575B4
:1011F0008EEAB63688EA773725EA742181EA3331F8
:10120000C0F8781026EA356181EA7401C0F8301020
:1012100027EA761181EA7571C0F8B01023EAF75118
:1012200081EA3671C0F86C1024EAF30181EAB761F3
:10123000DDF80080D0F8C430D0F85440D0F80C501D
:10124000D0F88860D0F84470C0F820108EEAB3233C
:1012500088EAB4748AEA357582EA361689EA77072D
:1012600025EAF44181EAF351C0F8541026EAF50169
:1012700081EAB451C0F80C1027EA365181EAF551E1
:10128000C0F8881023EAB74181EAB611C0F84410CB
:1012900024EA331181EAB751D0F86030D0F8184011
:1012A000D0F89850D0F82860D0F8AC70C0F8C410CE
:1012B00082EA736389EAB4448CEA757588EAF66653
:1012C0008BEA373725EA346181EA3351C0F82810B8
:1012D00026EA750181EA7461C0F8AC1027EA76311C
:1012E00081EAB531C0F8601023EAB77181EAF621CE
:1012F000C0F8181024EA337181EAB761DDF80C9068
:10130000D0F80030D0F88440C56BD0F8BC60476F8F
:10131000C0F8981088EA03038AEA742482EAF55533
:1013200089EAF6468CEA371726EA755181EA745144
:10133000C0F8841027EA367181EA7541C0F83C1084
:1013400023EA776181EA7651C0F8BC1024EAB351F0
:1013500081EAF731C0F8741025EA040505998C6814
:1013600083EAB52384EA0301DDF81020D0F8903039
:10137000D0F84C40D0F8A050D0F85860D0F8107099
:10138000C0F8001089EA03038EEAB45488EAF545F0
:101390008AEA366682EAF77725EAF45181EAF34170
:1013A000C0F8A01026EA755181EA3431C0F858100F
:1013B00027EA362181EA7571C0F8101023EA374117
:1013C00081EA3661C0F8901024EA337181EA37313E
:1013D000D0F83430D0F8B440D0F86850D0F8246059
:1013E000D0F87C70C0F84C108BEAB35382EA7404D6
:1013F00089EA05058CEAB63688EA373725EAB4214A
:1014000081EA3331C0F87C1026EAF55181EA740193
:10141000C0F8341027EA761181EA3571C0F8B410AB
:1014200023EA376181EA7671C0F8681024EAB301D3
:1014300081EAB761DDF80480D0F8C030D0F85040C0
:10144000D0F80850D0F88C60D0F84070C0F8241064
:101450008CEAB32388EAF4748BEA357582EA36168F
:1014600089EA770725EAF44181EA3361C0F8501030
:1014700026EAB50181EA7451C0F8081027EA7651CE
:1014800081EAF551C0F88C1023EA774181EAB61160
:10149000C0F8401024EA731181EAB751D0F86430E3
:1014A000D0F81C40D0F89C50D0F82C60D0F8A87030
:1014B000C0F8C01082EA736389EAB4448EEA757595
:1014C00088EAF6668AEAF72725EA346181EA7351E9
:1014D000C0F82C1026EA750181EA7461C0F8A810E2
:1014E00027EA363181EA7531C0F8641023EAB77112
:1014F00081EAB621C0F81C1024EA737181EAF76111
:10150000DDF80890D0F80430D0F88040856BD0F832
:10151000B860076FC0F89C1088EA03038BEAB42414
:1015200082EAF55589EAB6468EEA771726EA7551BA
:1015300081EA3451C0F8801027EA767181EAB5411A
:10154000C0F8381023EA776181EAB651C0F8B810C4
:1015500024EAB35181EAF731C0F8701025EAF47536
:101560000599CC6883EAF52384EA030ED0F8743039
:10157000D0F84810D0F82450D0F8C4B0D0F89CC0AF
:10158000C0F804E083EA313383EAF54383EA3B138E
:1015900083EABC63D0F88070D0F85810D0F830508F
:1015A000D0F808B0D0F8ACC087EA315787EAB51751
:1015B00087EAFB0787EABC574FEAB32383EA7756EB
:1015C000D0F83840D0F81010D0F8B050D0F88CB027
:1015D000D0F860C0CDF8006084EA712484EAB57464
:1015E00084EAFB2484EABC1483EA7466D0F8BC3035
:1015F000D0F89410D0F86850D0F844B0D0F81CC09F
:10160000CDF80C6083EAB14383EAF57383EABB4308
:1016100083EA7C0383EAB752D0F80070D0F8A410B4
:10162000D0F87C50D0F854B0D0F82CC087EAB1770D
:1016300087EAF54787EAFB6787EA3C3787EA346A37
:10164000D0F8B840D0F89010D0F86C50D0F840B036
:10165000D0F818C084EAB14484EA050484EAFB4463
:1016600084EA7C0484EA070ED0F88470D0F85C1019
:10167000D0F83450D0F80CB0D0F8A8C087EA315771
:1016800087EAF51787EAFB0787EABC574FEA7757DF
:1016900087EAF476D0F87040D0F84C10D0F820509B
:1016A000D0F8C0B0D0F898C0CDF8106084EA3134DA
:1016B00084EAF54484EA3B1484EAFC6487EAB428AB
:1016C000D0F83C70D0F81410D0F8B450D0F888B0EE
:1016D000D0F864C0CDF8048087EA312787EAB5776F
:1016E00087EAFB2787EABC174FEA776787EA7429FE
:1016F000D0F80440D0F8A010D0F87850D0F850B00E
:10170000D0F828C0CDF8089084EAF17484EA355402
:1017100084EAFB6484EA7C3484EA070B83EAF47C81
:10172000D0F8BC30D0F84840D0F87850D0F80860F5
:10173000D0F86070C0F8781089EA03038CEAB454DA
:1017400088EA35558BEA766682EAF77725EA3461CE
:1017500081EA3351C0F8781026EA755181EA743174
:10176000C0F8081027EA362181EA7571C0F86010C8
:1017700023EAF73181EAF651C0F8BC1024EA33714C
:1017800081EAF721D0F88430D0F81040D0F86850C2
:10179000D0F8C060D0F82870C0F848108AEA7353B7
:1017A00082EAB40489EAF5758EEAB63688EA7737B4
:1017B00025EA742181EA3331C0F8281026EA356120
:1017C00081EA7401C0F8841027EA761181EA757104
:1017D000C0F8101023EAF75181EA3671C0F868109A
:1017E00024EAF30181EAB761DDF80080D0F87030B7
:1017F000D0F8A440D0F83450D0F88C60D0F81C70E9
:10180000C0F8C0108EEAB32388EAB4748AEA35754A
:1018100082EA361689EA770725EAF44181EAF3512C
:10182000C0F8A41026EAF50181EAB451C0F83410DA
:1018300027EA365181EAF551C0F88C1023EAB74106
:1018400081EAB611C0F81C1024EA331181EAB751BD
:10185000D0F83830D0F89440D0F82450D0F8546004
:10186000D0F8AC70C0F8701082EA736389EAB444AF
:101870008CEA757588EAF6668BEA373725EA3461B3
:1018800081EA3351C0F8541026EA750181EA746187
:10189000C0F8AC1027EA763181EAB531C0F83810CB
:1018A00023EAB77181EAF621C0F8941024EA337173
:1018B00081EAB761DDF80C90D0F80030C46DD0F843
:1018C000B050066CD0F89C70C0F8241088EA03036E
:1018D0008AEA742482EAF55589EAF6468CEA3717D3
:1018E00026EA755181EA7451C0F85C1027EA367116
:1018F00081EA7541C0F8B01023EA776181EA765138
:10190000C0F8401024EAB35181EAF731C0F89C10C6
:1019100025EA040505990C6983EAB52384EA0301E5
:10192000DDF81020D0F8B830D0F84C40D0F87C501A
:10193000D0F80C60D0F86470C0F8001089EA030396
:101940008EEAB45488EAF5458AEA366682EAF77781
:1019500025EAF45181EAF341C0F87C1026EA75517A
:1019600081EA3431C0F80C1027EA362181EA75711A
:10197000C0F8641023EA374181EA3661C0F8B81034
:1019800024EA337181EA3731D0F88030D0F814403E
:10199000D0F86C50D0F8C460D0F82C70C0F84C105F
:1019A0008BEAB35382EA740489EA05058CEAB636F9
:1019B00088EA373725EAB42181EA3331C0F82C10A0
:1019C00026EAF55181EA7401C0F8801027EA761101
:1019D00081EA3571C0F8141023EA376181EA767123
:1019E000C0F86C1024EAB30181EAB761DDF8048025
:1019F000D0F87430D0F8A040D0F83050D0F88860DB
:101A0000D0F81870C0F8C4108CEAB32388EAF474D4
:101A10008BEA357582EA361689EA770725EAF441BA
:101A200081EA3361C0F8A01026EAB50181EA745159
:101A3000C0F8301027EA765181EAF551C0F88810D5
:101A400023EA774181EAB611C0F8181024EA73112D
:101A500081EAB751D0F83C30D0F89040D0F820500F
:101A6000D0F85060D0F8A870C0F8741082EA7363A0
:101A700089EAB4448EEA757588EAF6668AEAF72739
:101A800025EA346181EA7351C0F8501026EA7501E5
:101A900081EA7461C0F8A81027EA363181EA75310D
:101AA000C0F83C1023EAB77181EAB621C0F8901063
:101AB00024EA737181EAF761DDF80890D0F8043008
:101AC000846DD0F8B450466CD0F89870C0F82010EF
:101AD00088EA03038BEAB42482EAF55589EAB6461C
:101AE0008EEA771726EA755181EA3451C0F858100A
:101AF00027EA767181EAB541C0F8B41023EA77612C
:101B000081EAB651C0F8441024EAB35181EAF731B2
:101B1000C0F8981025EAF47505994C6983EAF52315
:101B200084EA030ED0F89C30D0F84810D0F8C450A6
:101B3000D0F870B0D0F820C0C0F804E083EA3133A8
:101B400083EAF54383EA3B1383EABC63D0F8587019
:101B5000D0F80C10D0F88450D0F830B0D0F8ACC029
:101B600087EA315787EAB51787EAFB0787EABC5748
:101B70004FEAB32383EA7756D0F8B440D0F8641024
:101B8000D0F81050D0F888B0D0F838C0CDF8006048
:101B900084EA712484EAB57484EAFB2484EABC14E0
:101BA00083EA7466D0F84030D0F8BC10D0F86C509E
:101BB000D0F81CB0D0F890C0CDF80C6083EAB143E7
:101BC00083EAF57383EABB4383EA7C0383EAB75273
:101BD000D0F80070D0F87810D0F82C50D0F8A4B01D
:101BE000D0F850C087EAB17787EAF54787EAFB6704
:101BF00087EA3C3787EA346AD0F84440D0F8B81016
:101C0000D0F86850D0F818B0D0F894C084EAB14445
:101C100084EA050484EAFB4484EA7C0484EA070E2F
:101C2000D0F85C70D0F80810D0F88050D0F834B0FC
:101C3000D0F8A8C087EA315787EAF51787EAFB078B
:101C400087EABC574FEA775787EAF476D0F898408E
:101C5000D0F84C10D0F8C050D0F874B0D0F824C0F0
:101C6000CDF8106084EA313484EAF54484EA3B1408
:101C700084EAFC6487EAB428D0F8B070D0F8601029
:101C8000D0F81450D0F88CB0D0F83CC0CDF8048017
:101C900087EA312787EAB57787EAFB2787EABC1707
:101CA0004FEA776787EA7429D0F80440D0F87C10AF
:101CB000D0F82850D0F8A0B0D0F854C0CDF8089093
:101CC00084EAF17484EA355484EAFB6484EA7C345F
:101CD00084EA070B83EAF47CD0F84030D0F848401F
:101CE000D0F82850D0F83060D0F83870C0F82810FC
:101CF00089EA03038CEAB45488EA35558BEA7666A0
:101D000082EAF77725EA346181EA33514FEAB1710B
:101D1000C0F8281026EA755181EA74314FEA712122
:101D2000C0F8301027EA362181EA75714FEA710157
:101D3000C0F8381023EAF73181EAF6514FEAB14191
:101D4000C0F8401024EA337181EAF7214FEAB1511B
:101D5000D0F85C30D0F86440D0F86C50D0F87460A3
:101D6000D0F85470C0F848108AEA735382EAB40479
:101D700089EAF5758EEAB63688EA773725EA74215E
:101D800081EA33314FEA3151C0F8541026EA356107
:101D900081EA74014FEA3171C0F85C1027EA7611CC
:101DA00081EA75714FEAF151C0F8641023EAF751E6
:101DB00081EA3671C0F86C1024EAF30181EAB76158
:101DC0004FEA7171DDF80080D0F89830D0F8784093
:101DD000D0F88050D0F88860D0F89070C0F87410B7
:101DE0008EEAB32388EAB4748AEA357582EA361635
:101DF00089EA770725EAF44181EAF3514FEAF16174
:101E0000C0F8781026EAF50181EAB4514FEA316151
:101E1000C0F8801027EA365181EAF5514FEA3111B6
:101E2000C0F8881023EAB74181EAB6114FEAB14100
:101E3000C0F8901024EA331181EAB7514FEAB1316A
:101E4000D0F8B430D0F8BC40D0F8C450D0F8A4607A
:101E5000D0F8AC70C0F8981082EA736389EAB44491
:101E60008CEA757588EAF6668BEA373725EA3461BD
:101E700081EA33514FEA7131C0F8A41026EA7501A6
:101E800081EA74614FEA3131C0F8AC1027EA76314B
:101E900081EAB5314FEAF171C0F8B41023EAB771A5
:101EA00081EAF6214FEA7101C0F8BC1024EA3371CF
:101EB00081EAB7614FEA7111DDF80C90D0F800307B
:101EC000846805698669076AC0F8C41088EA030354
:101ED0008AEA742482EAF55589EAF6468CEA3717CD
:101EE00026EA755181EA74514FEA7151C0F8081021
:101EF00027EA367181EA75414FEA7161C0F8101026
:101F000023EA776181EA7651C0F8181024EAB351C8
:101F100081EAF7314FEAB121C0F8201025EA040523
:101F200005998C6983EAB52384EA0301DDF8102062
:101F3000D0F84430D0F84C40D0F82C50D0F8346071
:101F4000D0F83C70C0F8001089EA03038EEAB4545C
:101F500088EAF5458AEA366682EAF77725EAF45197
:101F600081EAF3414FEAF171C0F82C1026EA75516D
:101F700081EA34314FEAB121C0F8341027EA362122
:101F800081EA75714FEAB101C0F83C1023EA37418C
:101F900081EA36614FEAB141C0F8441024EA337156
:101FA00081EA37314FEAB151D0F85830D0F860406B
:101FB000D0F86850D0F87060D0F85070C0F84C106D
:101FC0008BEAB35382EA740489EA05058CEAB636D3
:101FD00088EA373725EAB42181EA33314FEAF14103
:101FE000C0F8501026EAF55181EA74014FEA3171C8
:101FF000C0F8581027EA761181EA35714FEAF1519D
:10200000C0F8601023EA376181EA76714FEAF17116
:10201000C0F8681024EAB30181EAB7614FEA717130
:10202000DDF80480D0F89C30D0F87C40D0F88450A3
:10203000D0F88C60D0F89470C0F870108CEAB3239C
:1020400088EAF4748BEA357582EA361689EA7707EE
:1020500025EAF44181EA33614FEAF161C0F87C106E
:1020600026EAB50181EA74514FEA7161C0F8841023
:1020700027EA765181EAF5514FEA3111C0F88C1008
:1020800023EA774181EAB6114FEAF141C0F8941092
:1020900024EA731181EAB7514FEAB131D0F8B03078
:1020A000D0F8B840D0F8C050D0F8A060D0F8A870F0
:1020B000C0F89C1082EA736389EAB4448EEA7575AD
:1020C00088EAF6668AEAF72725EA346181EA7351DD
:1020D0004FEA3131C0F8A01026EA750181EA746137
:1020E0004FEAF121C0F8A81027EA363181EA7531AC
:1020F0004FEAF171C0F8B01023EAB77181EAB62156
:102100004FEA7101C0F8B81024EA737181EAF761EF
:102110004FEA3111DDF80890D0F80430C468456901
:10212000C669476AC0F8C01088EA03038BEAB42482
:1021300082EAF55589EAB6468EEA771726EA75519E
:1021400081EA34514FEAB151C0F80C1027EA767198
:1021500081EAB5414FEA7161C0F8141023EA776152
:1021600081EAB651C0F81C1024EAB35181EAF73174
:102170004FEAB121C0F8241025EAF4750599CC691D
:1021800051F8207F0591FF2F83EAF52384EA0301AC
:10219000C0F804107EF43AAC06B0BDE8F09F00BF72
:1021A000074A13682BB10748074A036000211160F2
:1021B00070470649064B074813600860F3E700BF05
:1021C0000C00002004000020000000200800002077
:1021D0001000002010400020094A13681BB1094A72
:1021E0001068C01A704710B407491160074A0848C0
:1021F000044C1160074A20601360401A10BC7047FD
:102200000C00002008000020100000200400002026
:102210001040002000000020084B094A93420BD2D6
:10222000013AD21A22F00302043206481A4419462F
:10223000043393420860FAD1704700BF1040002079
:1022400000000220EFBEADDE014B0248C01A70470D
:102250000000002010000020014B0248C01A704707
:1022600010400020000002202DE9F04F8DB06B4699
:1022700006930699B64B994206D9B64CB44B1A460A
:10228000043399421460FAD8DFF82893D9F8003063
:1022900093B1B14EB1493360B14B00220A601A7854
:1022A000824210D0AF4B1A7882420CD0AE480DB0AB
:1022B000BDE8F04F00F04EBAAC4AAD4BAD49C9F89D
:1022C00000301160E5E798461B7A002BD8F80C30F7
:1022D00007934FF040024FF48063CDE908234FF09D
:1022E00010014FF01403CDE90A1383460CBF0123FC
:1022F0000523A148049300F02DFAD8F8040000F05B
:1023000029FA9E4800F026FAD9F800C0BCF1000F67
:1023100000F0A181954B326802931B6802F18001A5
:10232000994200F2AA8131601346002003F8010BA4
:102330008B42FBD189480168A3EB0C038B4288BF19
:102340000360002A00F09981511E002301F8013F2B
:102350000133802BFAD107AD00240392CDF814B0DD
:102360002968BCF1000F00F0D580029BD6F800B0C0
:102370001868CB1D23F007030BEB0302824200F227
:10238000DD8032602BB15B46002003F8010B9A42DE
:10239000FBD1724B1B68A2EB0C029A4201D96F4B26
:1023A0001A60BBF1000F00F0C980019100F006FB3C
:1023B0000199039AD8F81070824680235846B8478E
:1023C000834600F0FBFABBF1000F40F0F580002CD3
:1023D00000F0FD80012C00F01F81022C00F009812B
:1023E000032C00F023818245DDF814B003D900F1FD
:1023F000FF1000F57F40A0EB0A0A614800F0AAF93F
:10240000504600F0B5F95F4800F0A4F95E485F4D12
:1024100000F0A0F9514B5E481C6800F09BF9204683
:1024200000F0A6F95B4800F095F9494BAB4228BF94
:102430001C4608D2464C474A02E00434AC4202D261
:1024400023689342F9D0544800F084F9281B00F027
:102450008FF9504800F07EF9504800F07BF9504B5E
:102460005048C01A00F084F94A4800F073F9BBF1F3
:10247000000F00F0E780BBF1010F00F0E380BBF13B
:10248000020F00F0DF80BBF1030F00F0DB80BBF137
:10249000040F00F0D780BBF1060F00F0D180BBF134
:1024A000090F00F0F380BBF10A0F00F0EC80BBF1E4
:1024B0000C0F00F0F180BBF1070F00F0EA80BBF1D8
:1024C0000B0F00F0F580BBF10F0F00F0EE80BBF1B9
:1024D000100F00F0E780BBF1140F00F0E080BBF1BB
:1024E000150F00F0E880BBF1130F08BF4FF00F0B82
:1024F00000F0A88000242C4800F02CF9204600F0C1
:1025000037F9244800F026F928480DB0BDE8F04F0F
:1025100000F020B9114B029AC3F800C0144BC9F85F
:1025200000309B4633609C46CB1D1248106023F060
:1025300007030BEB030282427FF623AF1C4800F037
:1025400009F9049B0134A3423DD1DDF814B05DE7E5
:1025500010400020EFBEADDE04000020000000208F
:102560003C0100084C000008D83200080800002098
:102570001000002010400020F8320008FC32000853
:10258000AC33000868330008DC3300080000022088
:10259000EC330008FC330008003400081034000855
:1025A0000000002010000020203400083034000813
:1025B000303300080C000020404800F0CBF8049BAA
:1025C0000134A342C1D0D9F800C00435C8E6824521
:1025D00084BF00F1FF1000F57F40A0EB0A0A3848E5
:1025E00000F0B8F8504600F0C3F8364800F0B2F8F2
:1025F000E5E7824584BF00F1FF1000F57F40A0EBC6
:102600000A0A314800F0A6F8504600F0B1F82D480B
:1026100000F0A0F80134D6E7824584BF00F1FF1036
:1026200000F57F40A0EB0A0A2848EBE7824584BF0B
:1026300000F1FF1000F57F40A0EB0A0A2448E1E713
:102640004FF0050B234B0BEB4B0B03EB8B03D3E949
:102650000134E41A4FE7204B2048214AC3F800C058
:10266000204B02921360024602F180019942C9F8A0
:102670000000306084467FF656AE1B480DB0BDE8C2
:10268000F04F00F067B84FF0070BDBE74FF0060B99
:10269000D8E74FF0090BD5E74FF0080BD2E74FF022
:1026A0000D0BCFE74FF00C0BCCE74FF00B0BC9E74E
:1026B0004FF00A0BC6E74FF00E0BC3E7C03300081C
:1026C000543300086833000884330008703300086E
:1026D0009833000808360008000000201000002091
:1026E00008000020104000200C33000808B50B48FB
:1026F00000F030F8802000F03BF8094800F02AF89C
:10270000084800F027F8084B1878FFF7ADFD074B95
:102710001878BDE80840FFF7A7BD00BF34340008B3
:10272000FC330008483400083C0100084C00000855
:102730000649074A0A2001F11F0C13681B06FCD545
:10274000506011F8010F6145F7D1FEE790340008A1
:1027500000100140017841B1044A13681B06FCD502
:10276000516010F8011F0029F7D170470010014097
:1027700000B585B000238DF80E30002800F0A3804E
:10278000624BA3FB0012D20802EB8201A0EB4101D5
:102790003031C9B209288DF80D1040F29F80A3FB9B
:1027A000021C4FEADC0C0CEB8C01A2EB4102303234
:1027B000D1B263288DF80C1040F29380A3FB0C2E4D
:1027C0004FEADE0E0EEB8E02ACEB42023032D1B29B
:1027D000B0F57A7F8DF80B10C0F08680A3FB0E2C2D
:1027E0004FEADC0C0CEB8C02AEEB42023032D1B281
:1027F00042F20F7290428DF80A1078D9A3FB0C2E8A
:102800004FEADE0E0EEB8E02ACEB4202DFF808C19F
:102810003032D1B260458DF809105CD9A3FB0E2C83
:102820004FEADC0C0CEB8C02AEEB4202DFF8ECE082
:102830003032D1B270458DF808105BD9A3FB0C2E55
:102840004FEADE0E0EEB8E02ACEB4202DFF8D0C098
:102850003032D1B260458DF807104ED3A3FB0E2C59
:102860004FEADC0C0CEB8C02AEEB4202DFF8B4E07A
:102870003032D1B270458DF8061041D9A3FB0C233C
:10288000DB0803EB8303224AACEB43033033D9B2BA
:1028900090428DF8051036D91C4BA3FB0C23DB08A6
:1028A00003F130014FF0000E8DF8041001A8194A11
:1028B000704413681B06FCD5516010F8011F0029F5
:1028C000F7D105B000BD134A13681906FCD53023B3
:1028D000536005B000BD4FF0050EE7E74FF0090E5D
:1028E000E4E74FF0080EE1E74FF0070EDEE74FF0A8
:1028F000060EDBE74FF0040ED8E74FF0030ED5E7E6
:102900004FF0020ED2E74FF0010ECFE7CDCCCCCC8A
:10291000FFC99A3B001001409F8601003F420F0013
:1029200080969800FFE0F505224B010FC0F303628B
:1029300000B513F801E09A5C00216EF30701C0F3C3
:10294000035C62F30F21C0F3034213F80CE013F8A9
:1029500002C000F00F0285B09A5C8DF80D206EF376
:102960001741C0F303226CF31F61C0F3031CC0F3D3
:1029700003309A5C13F80CC08DF80B201B5C0E4AD8
:10298000CDF8061047F630004FF0000EADF8040009
:102990008DF80EE08DF80CC08DF80A30302101A8BA
:1029A00013681B06FCD5516010F8011F0029F7D1F0
:1029B00005B000BDC8360008001001404FF0E0230C
:1029C0009869C04320F07F40704700BF08B54FF0C2
:1029D000E0239049D3F8882D8F4C42F47002C3F85D
:1029E000882DD1F8442842F01002C1F8442842F260
:1029F000080000226FF07F4140F28365A560E0602F
:102A00001A61596105219A611961FFF7C9FBFFF746
:102A100003FC824A0A2102F12B0023681B06FCD525
:102A2000616012F8011F8242F7D17D497A4A202065
:102A300001F12B0413681E06FCD5506011F8010F3C
:102A4000A142F7D17749744A3D2001F12B04136864
:102A50001D06FCD5506011F8010FA142F7D1FFF718
:102A6000BBFB0546FFF7F8FB0446FFF7EDFB6E499D
:102A7000694A064601F10D0C5B2013681B06FCD564
:102A8000506011F8010F6145F7D16849624A202072
:102A900001F10A0C13681B06FCD5506011F8010FF8
:102AA0006145F7D14FF00060FFF73EFF60495A4A99
:102AB000202001F1160C13681B06FCD5506011F89C
:102AC000010F6145F7D15B49534A202001F10A0CFF
:102AD00013681B06FCD5506011F8010F6145F7D152
:102AE0004FF00050FFF720FF53494B4A202001F1DF
:102AF000150C13681B06FCD5506011F8010F6145D9
:102B0000F7D14E49444A202001F1140C13681B06EA
:102B1000FCD5506011F8010F6145F7D13046FFF741
:102B200027FE47493C4A2020CE1C13681B06FCD5D3
:102B3000506011F8010FB142F7D14249364A2020C6
:102B400001F10A0613681B06FCD5506011F8010F4D
:102B5000B142F7D13C48FFF7E7FE3C492E4A20201E
:102B6000CE1C13681B06FCD5506011F8010FB14252
:102B7000F7D12846FFF7FCFD3549274A202001F10F
:102B8000140513681B06FCD5506011F8010FA9420B
:102B9000F7D13049204A202001F10A0513681B06AD
:102BA000FCD5506011F8010FA942F7D12A48FFF770
:102BB000BBFE2649184A202013681B06FCD550602E
:102BC00011F8010FB142F7D12046FFF7D1FD23499B
:102BD000114A202001F1140413681D06FCD5506031
:102BE00011F8010FA142F7D10B4A13681906FCD561
:102BF0000A235360FFF77AFD1949074A532001F170
:102C0000100413681B06FCD5506011F8010FA14297
:102C1000F7D1FEE70030024000100140B034000858
:102C2000DC34000808350008343500084435000855
:102C30005035000868350008743500088C350008E8
:102C4000FC330008A435000810000020B03500084F
:102C5000B4350008CC35000810400020D8350008F5
:102C6000F035000838B5244C244B9C4221D2013B5E
:102C70001B1B032B22463BD99B08214D03F1010C62
:102C80004FEA5C0E2B4605EBCE0ED3E9000108336C
:102C90009E45C2E9000102F10802F6D11CF0010FC5
:102CA00007D02CF0010C04EB8C0405EB8C052B6891
:102CB0002360144C14498C4218D20139091B032992
:102CC000234617D989080131480804EBC0000022C7
:102CD000C3E9002208338342FAD1CB0706D521F09D
:102CE000010104EB810C0023CCF80030FFF76EFEED
:102CF000034DDCE7A446F6E70000002000000020BA
:102D0000F4360008000000201000002072B3F0B577
:102D1000541E052C164620D9451A013D022D844625
:102D20000B461AD922F0030597086A1853F804EBEA
:102D30004CF804EB9342F9D1AE420DD011F82720A4
:102D400000F82720641B00EB050205D0597851706C
:102D5000012C01D09B789370F0BD441E8B1911F8A3
:102D6000012B04F8012F8B42F9D1F0BD704700BF51
:102D70002DE9F04F5A4D2DED028B98460746164629
:102D80000FCD8FB004AC0FC40FCDDDE91CC90FC44B
:102D900095E80300BCF1080F79F1000384E8030013
:102DA000DDF868E06446C0F095809FED4B8B01969E
:102DB0000EEB0C0A4E4602ADF346E1460822AAEBA2
:102DC000040128468DED028BFFF7A0FFDDE902012B
:102DD00000F022F9049A42400492059A04A84A405D
:102DE0000821059200F07EF8083C66F10006082CE8
:102DF00076F10002E2D229F00703019E0BEB030EED
:102E000009F007049FED347B7146224628468DED7C
:102E1000027BFFF77BFFDDE9020100F0FDF8059B77
:102E2000C4F107045940049B24B25840A40008236D
:102E3000A3404B4004900C2104A8059300F052F8E5
:102E4000092E78F1000332D3C346CDF8048034460E
:102E500007EB0609BA46B046DDE9040100F01EF9A9
:102E6000082206460F46A9EB04002946CDE9026771
:102E7000FFF74CFF082104A800F034F8083C6BF180
:102E8000000B092C7BF10003E6D24646DDF80480F6
:102E9000B6F1090368F10008DB0843EA48735746B6
:102EA000083E08375A4206EBC20607EBC307DDE9C6
:102EB000040100F0F3F83246804689463846294638
:102EC000CDE90289FFF722FF00200FB0BDEC028B95
:102ED000BDE8F08F02AD95E70000000000000000A3
:102EE000B0320008D0E900232DE9F04F9146D0E937
:102EF000054283B098469646464BC2698768019062
:102F0000C1F10C0103EB410A9446D0E90365016A63
:102F1000426A18331AF8010B89EA010981EA0E01A5
:102F200085EA070561EA090B85EA000525EA07003D
:102F300089EA00096EEA010085EA000527EA09002E
:102F400081EA00010EEA050087EA00078EEA0B0E0F
:102F50001AF8010B87EA09078EEA050E89EA0109CA
:102F600088EA020882EA0C0284EA000484EA060481
:102F700062EA080B24EA060088EA00086CEA02000C
:102F800084EA000426EA080082EA00020CEA04004F
:102F900086EA00068CEA0B0C86EA08068CEA040C2A
:102FA00088EA020889EA381B88EA791088EABB288F
:102FB00089EA702987EAF72B86EAF62086EA3B56EB
:102FC00087EAF04785EAB40B84EAF50084EA7B04DB
:102FD00085EA00058EEAFC0B8CEA3E108EEA7B1E29
:102FE0008CEA701C81EA714B82EA724082EA3B12E1
:102FF00081EAF0019A458DD1019BC3E90098C3E9AC
:103000000276C3E90454C3E906ECC3E9081203B02D
:10301000BDE8F08FDC3600080BBA83EA530101F0FB
:10302000223102BA01EB4101594082EA520081EAA1
:10303000910300F0223003F00C3300EB40005040CD
:1030400003EB8303594080EA900303F00C3303EB56
:103050008303584080EA101381EA111203F0F01341
:1030600003EB031302F0F01202EB0212584051403E
:1030700080EA102381EA112203F47F4303EB032348
:1030800002F47F4202EB022258405140030C8AB204
:103090001B0442EA004043EA1141704783B243EA0D
:1030A00001430A0C83EA1321120401F47F4142EA2E
:1030B000104201EB0121594082EA122081EA1113EA
:1030C00000F47F4003F0F01300EB0020504003EBCE
:1030D0000313594080EA101303F0F01303EB0313BA
:1030E000584081EA910280EA900302F00C3203F02A
:1030F0000C3302EB820203EB83035140584080EA19
:10310000500281EA510303F0223302F0223203EB32
:10311000430302EB42025040594000BA09BA7047DB
:103120009FED077BA0F1080300F1C0020833934232
:1031300083ED007BFAD180ED327B7047AFF30080E6
:1031400000000000000000002DE970431546044611
:10315000D0E93220AB1840F10000882B70F100005C
:103160000E461FD34FF000084FF00009C2F188034C
:1031700031462046FDF7C4F8D4F8C8302046A3F104
:103180008802C4E93289C3F1880315441E44FDF75F
:1031900037FCD4E93220531940F10000882B70F13C
:1031A0000000E3D22B4631462046FDF7A9F8D4E9CA
:1031B00032325B1942F10002C4E93232BDE8708359
:1031C00010B5D0E9322182B01F238DF80730A2F16B
:1031D00087030B43044614D001230DF10701FDF7CB
:1031E0008FF880208DF80700012387220DF1070159
:1031F0002046FDF785F800220023C4E9322302B0FF
:1032000010BD9F218DF80710012387220DF10701C2
:10321000FDF776F8EFE700BF2DE9F843D2E9325920
:103220004FF00008A94278EB090316460C46074602
:10323000C5F188020DD20B4601463046FDF7E0F994
:10324000D6E932321B1B62F10002C6E93232BDE818
:10325000F8832B4601463046FDF7D2F9D6F8C83040
:103260005B1BC6F8C830D6F8CC302F4463EB09039B
:10327000651BC6F8CC30EAD03046FDF7C1FB882D7F
:103280002C4628BF88242346394600223046FDF7C5
:10329000B7F9C4F188032D1BC6E932382744EBD1B6
:1032A000BDE8F883D022FFF731BD00BF704700BFF3
:1032B000447DB8A4A5D74608F4DBA2B305106FAAD5
:1032C00011E813F7461145DC0DE3392853B28C465B
:1032D0007769E90997422DEB212120556E726567C8
:1032E0006973746572656420486173682F584F462E
:1032F0002021210A000000002D3E20000A2020206D
:103300005B54696D696E675D0A00000021212048E9
:10331000656170204F4F4D20616C6C6F6361746903
:103320006E6720696E7075742021210A000000000C
:1033300021212048656170204F4F4D20616C6C6FDA
:10334000636174696E67206F7574707574202121D4
:103350000A00000020202044656661756C742F33DC
:1033600032423A20000000002063790A0000000089
:1033700020202053717565657A65203634423A20E5
:103380000000000020202053717A20313032344276
:103390003A2020200000000020202053717A2031A4
:1033A00036423A2020202020000000002020205318
:1033B000717A203230423A20202020200000000084
:1033C0002020205B4572726F72206578656375748A
:1033D000696E6720686173685D0A00002020205BC9
:1033E0004D656D6F72795D0A000000002020204855
:1033F000656170205065616B3A20200020420A0010
:10340000202020537461636B2048574D3A202000E0
:10341000202020537461746963204253533A200082
:10342000202020466C61736820436F64653A200059
:103430000A000000202020496E707574204C656ED3
:103440006774683A200000005B48617368202F2091
:10345000584F465D0A0000004153434F4E2D584FD0
:10346000462028616363656C657261746564292018
:10347000286173636F6E29005348414B45323536DE
:10348000202870716D342F6D757071290000000057
:103490000A212121204841524457415245204641AA
:1034A000554C5420434155474854202121210A00BE
:1034B0000A3D3D3D3D3D3D3D3D3D3D3D3D3D3D3D6F
:1034C0003D3D3D3D3D3D3D3D3D3D3D3D3D3D3D3D2C
:1034D0003D3D3D3D3D3D3D3D3D3D0A0020204D757E
:1034E0006C74692D416C676F726974686D204865F2
:1034F0007465726F67656E656F7573204672616D76
:1035000065776F726B200A003D3D3D3D3D3D3D3D81
:103510003D3D3D3D3D3D3D3D3D3D3D3D3D3D3D3DDB
:103520003D3D3D3D3D3D3D3D3D3D3D3D3D3D3D3DCB
:103530003D0A0A005B4D656D6F7279204D61705DCB
:103540000A0000002020466C6173683A20200000C9
:10355000202031303438353736204220283130327F
:1035600034204B42290A0000202052414D3A2020AD
:1035700020200000202020313331303732204220FB
:1035800028313238204B42290A00000020204253C3
:10359000533A2020202020202020202020202020DE
:1035A000000000002020486561703A2020200000C3
:1035B000202020002042202862756D7020616C6CF4
:1035C0006F6361746F72290A000000002020537439
:1035D00061636B3A202000002042202867726F77D9
:1035E0007320646F776E77617264290A00000000AF
:1035F000537569746520636F6D706C6574652E0A10
:103600000000000000000000000000001C00000896
:103610001C000008010000001C0000081C0000083D
:10362000020000001C0000081C000008030000004D
:103630001C0000081C000008040000001C0000081A
:103640007400000806000000740000087400000800
:103650000900000074000008740000080A0000005F
:1036600074000008740000080C00000074000008DA
:1036700074000008070000007400000874000008CF
:103680000B00000074000008740000080F00000028
:1036900074000008740000081000000074000008A6
:1036A0007400000814000000740000087400000892
:1036B00015000000740000086401000813000000F9
:1036C0006401000864010008303132333435363784
:1036D0003839414243444546000000000C0C090CB7
:1036E0000C090909060C030C060903090C06090656
:0436F0000C030903BB
:0400000508000000EF
:00000001FF
