:020000040800F2
:10000000000002206D0F0008390A0008390A0008B4
:10001000390A0008390A0008390A00080F2B37D9B5
:10002000F0B5D5B015460E4607466FF00102002127
:1000300006A81C4605F01CFA38BB5D99102206A8DC
:1000400004F0AEF9F0B95B9B0593103C5A9B049306
:1000500010225C9B03920C202A19009302920190BB
:100060002A463946234606A804F072FF054606B123
:10007000346006A805F010FA281E18BF012040427F
:1000800055B0F0BD06A805F007FA4FF0FF30F7E7CE
:100090004FF0FF30704700BFF0B5D5B005460E46B3
:1000A000174600216FF0010206A81C4605F0E0F992
:1000B00038BB5D99102206A804F072F9F0B95B9B79
:1000C00005935A9B04935C9B0093102303932B1975
:1000D00002930C23294601933A46234606A804F0CE
:1000E000CDFB05460EB11034346006A805F0D4F9F6
:1000F000281E18BF0120404255B0F0BD06A805F0EB
:10010000CBF94FF0FF30F7E710B510220C4601464F
:10011000084801F06DFE48B90C222146054801F05F
:1001200067FE003818BF0120404210BD4FF0FF307D
:1001300010BD00BF1400002008B5084B1A680AB1B2
:10014000002008BD064801F04FFE18B9034B0122FC
:100150001A60F5E74FF0FF3008BD00BF1000002027
:1001600014000020000000000892000810000000A9
:100170000C0000001000000039010008090100080F
:10018000990000081D00000800B54A1E00236FF00A
:100190005A0E83EA0E0C0133142B02F801CFF8D16A
:1001A000DFF898C0C1F818C0A0F11503ACF10C3C01
:1001B0005B1A214AC1F81CC0022B0CF1043C4A61B5
:1001C000C1F820C00DD902608B694360CB698360A0
:1001D0000B6AC3600023036143618361C3611846F6
:1001E00000BD5A2303704B7D43708B7D8370CB7DA4
:1001F000C3700B7E03714B7E43718B7E8371CB7E0C
:10020000C3710B7F03724B7F43728B7F8372CB7FF3
:10021000C37291F82030037391F82130437391F841
:100220002230837391F82330C37300230361436149
:100230008361C361184600BD5A5B58595E5F5C5DBF
:1002400010B58AB09FED107B00930C9B02930D9B21
:1002500004930E9B069394460F9B079300220C4633
:1002600005920192634608A98DED087B07F048FCD2
:100270000CB1089B2360003818BF012040420AB02F
:1002800010BD00BFAFF300800000000000000000C0
:1002900010B58CB09FED0E7B00930023CDE90533A4
:1002A00001930F9B0493109B0E9C0793119B029448
:1002B00008930C460AA98DED0A7B07F071FB0CB17F
:1002C0000A9B2360003818BF012040420CB010BDCB
:1002D000000000000000000008B5084B1A680AB1D1
:1002E000002008BD064801F07FFD18B9034B01222C
:1002F0001A60F5E74FF0FF3008BD00BF4000002056
:1003000044000020010000003492000814000000A6
:100310001000000010000000D90200088901000848
:1003200091020008410200080F2B17D930B5A3F144
:10033000100485B01319CDE902300D46CDE9002433
:10034000DDE90A10DDE9082306F0E0FF05B12C60C5
:10035000003818BF0120404205B030BD4FF0FF30DB
:10036000704700BF30B585B01C46C3180D46CDE9B7
:10037000014003930092DDE90A10099B089A06F0F8
:1003800071FF0DB110342C60003818BF01204042BD
:1003900005B030BD08B5084B1A680AB1002008BD89
:1003A000064801F021FD18B9034B01221A60F5E758
:1003B0004FF0FF3008BD00BF280000202C000020B7
:1003C00038B5104B1A6804460D467AB10E48202203
:1003D000214601F00DFD88B90C2229460A4801F09A
:1003E00007FD003818BF0120404238BD064801F023
:1003F000FBFC044B10B901221A60E7E74FF0FF3015
:1004000038BD00BF280000202C00002004000000A0
:1004100020920008200000000C00000010000000E6
:1004200095030008C10300086503000829030008BC
:10043000074A13682BB10748074A0360002111607F
:1004400070470649064B074813600860F3E700BF92
:100450000C00002004000020000000200800002004
:100460006820002068600020094A13681BB1094A0F
:100470001068C01A704710B407491160074A08484D
:10048000044C1160074A20601360401A10BC70478A
:100490000C0000200800002068200020040000203C
:1004A0006860002000000020084B094A93420BD2EC
:1004B000013AD21A22F00302043206481A441946BD
:1004C000043393420860FAD1704700BF686000208F
:1004D00000000220EFBEADDE014B0248C01A70479B
:1004E0000000002064200020014B0248C01A704721
:1004F00068600020000002202DE9F04F8DB06B46AF
:100500000B930B99DFF86CB0594506D9114C5B463B
:100510001A46043399421460FAD80F4C2368002B12
:1005200000F00F820D4D0E4F2A780E493B600026D9
:1005300082420E6020D00C4D2A7882421CD00B4D96
:100540002A78824218D00A480DB0BDE8F04F00F07A
:1005500085BA00BFEFBEADDE0C00002064010008CC
:100560000400002000000020040300080C04000820
:10057000F0900008686000206A698246002A00F056
:10058000E8819047002840F0E6812368A868A44FDE
:10059000002B00F0BA81A34AD7F80090D2F800C02F
:1005A000073020F0070009EB0002624500F2BF812E
:1005B0003A6028B14846002400F8014B9042FBD134
:1005C00099490868D41A844200F29C81E86807308F
:1005D00020F007001418A445C0F0C58192493C6082
:1005E000D1F800E028B11046002600F8016BA042C7
:1005F000FBD1E01A704501D98B490860059222466B
:1006000002F14004644500F2C38187493C60D1F89F
:100610000080A4EB030E1046002600F8016BA042F8
:10062000FBD1C64502D98049C1F800E004F11008A9
:10063000E04500F29F817C49C7F8008000260868E9
:1006400026706670A670E67026716671A671E671F6
:1006500026726672A672E67226736673A673E673D6
:10066000A8EB03068642286988BF0E60473020F059
:10067000070008EB0006664500F278813E6000281E
:1006800000F0898140464FF0000E00F801EBB042C7
:10069000FBD165490968F01A884201D962490860AE
:1006A00006F14000604500F25C81386031464FF051
:1006B000000C01F801CB8842FBD15B49C01A0B68E2
:1006C000984200D90860B9F1000F00F03481059B11
:1006D000002B00F03081002A00F02D81002C00F06A
:1006E0002A81B8F1000F00F02681002E00F023814E
:1006F000511E002301F8013F0133402BFAD14B4B2F
:10070000236003F10433636003F10433A36003F156
:100710000433E3604648079200F0A0F9686800F0EF
:100720009DF9444800F09AF90023CDE9093300F01F
:10073000C9FA0599AB6906904846984700F0C2FA95
:10074000069B079A0792834284BF00F1FF1000F5D1
:100750007F40C71A384800F081F9384600F08CF91C
:10076000364800F07BF900F0ADFA059A02921023AA
:1007700000940193CDF80C90079AEF69069009A9AF
:1007800040234046B84700F09DFA069B834284BF51
:1007900000F1FF1000F57F40C71A294800F05EF90C
:1007A000384600F069F9254800F058F900F08AFA57
:1007B000059A029210230193CDF80C9000942C6AB4
:1007C000099B074642460AA93046A047054600F065
:1007D00079FA04461B4800F041F9A74284BF04F1AE
:1007E000FF1404F57F44E01B00F046F9002D00F0F3
:1007F000AE801548154D00F031F9154800F02EF97E
:10080000094B14481C6800F029F9204600F034F91F
:100810001148124C00F022F9AB4529D2104A24E0CD
:10082000040000200800002000000020A0A1A2A3D6
:1008300050910008549100086491000874910008D8
:100840007C9100088C910008E090000800000220D4
:100850009C910008AC910008BC91000868600020E1
:10086000EFBEADDE0434AC4202D223689342F9D02D
:10087000554800F0F3F8281B00F0FEF8534800F04C
:10088000EDF8534800F0EAF8524B5348C01A00F014
:10089000F3F84E4800F0E2F8BAF1000F6ED0BAF16A
:1008A000010F6BD0BAF1020F68D0BAF1040F7BD000
:1008B000BAF1070F7AD0BAF1080F79D0BAF10A0F5E
:1008C0007AD0BAF1050F75D0BAF1090F7AD0BAF122
:1008D0000D0F75D0BAF10E0F70D0BAF1110F08BF1D
:1008E0000B234CD000243D4800F0B8F8204600F01F
:1008F000C3F8364800F0B2F8394800F0AFF80DB050
:10090000BDE8F08F37490C6060E6364A1360364B1D
:10091000364A23600730364C1460994620F00700B1
:10092000A44609EB000262453B607FF641AE4A46B1
:100930004FF000094AE62F480DB0BDE8F04F00F037
:100940008DB82A4A284B2A4923601160EAE52A48D3
:1009500050E7A8681FE629480DB0BDE8F04F00F049
:100960007DB80026AFE60021059149E646464FF0E6
:10097000000895E6A0462869002477E65346204AF9
:1009800003EB430302EB8303D3E90134E41AAAE740
:10099000144600224AE613490968A8EB0300814285
:1009A000FFF47CAE46467BE60323E8E70423E6E754
:1009B0000523E4E70723E2E70623E0E70A23DEE76F
:1009C0000923DCE70823DAE7C0910008BC9100089E
:1009D000D09100080000002064200020E091000871
:1009E000F09100080000002068200020080000208E
:1009F000686000202C910008D49000081491000831
:100A0000B893000808B5084800F028F8074B187894
:100A1000FFF772FD064B1878FFF76EFD054B18784F
:100A2000BDE80840FFF768BDF491000864010008C4
:100A3000040300080C0400080649074A0A2001F1D3
:100A40001F0C13681B06FCD5506011F8010F61459F
:100A5000F7D1FEE74092000800100140017841B153
:100A6000044A13681B06FCD5516010F8011F0029C9
:100A7000F7D170470010014000B585B000238DF814
:100A80000E30002800F0A380624BA3FB0012D208B6
:100A900002EB8201A0EB41013031C9B209288DF887
:100AA0000D1040F29F80A3FB021C4FEADC0C0CEB04
:100AB0008C01A2EB41023032D1B263288DF80C10C8
:100AC00040F29380A3FB0C2E4FEADE0E0EEB8E025B
:100AD000ACEB42023032D1B2B0F57A7F8DF80B1018
:100AE000C0F08680A3FB0E2C4FEADC0C0CEB8C02D2
:100AF000AEEB42023032D1B242F20F7290428DF828
:100B00000A1078D9A3FB0C2E4FEADE0E0EEB8E02F4
:100B1000ACEB4202DFF808C13032D1B260458DF84B
:100B200009105CD9A3FB0E2C4FEADC0C0CEB8C02F9
:100B3000AEEB4202DFF8ECE03032D1B270458DF816
:100B400008105BD9A3FB0C2E4FEADE0E0EEB8E02D3
:100B5000ACEB4202DFF8D0C03032D1B260458DF844
:100B600007104ED3A3FB0E2C4FEADC0C0CEB8C02CF
:100B7000AEEB4202DFF8B4E03032D1B270458DF80E
:100B8000061041D9A3FB0C23DB0803EB8303224AA5
:100B9000ACEB43033033D9B290428DF8051036D90F
:100BA0001C4BA3FB0C23DB0803F130014FF0000EBC
:100BB0008DF8041001A8194A704413681B06FCD56F
:100BC000516010F8011F0029F7D105B000BD134A8C
:100BD00013681906FCD53023536005B000BD4FF0F3
:100BE000050EE7E74FF0090EE4E74FF0080EE1E7E6
:100BF0004FF0070EDEE74FF0060EDBE74FF0040E76
:100C0000D8E74FF0030ED5E74FF0020ED2E74FF0D2
:100C1000010ECFE7CDCCCCCCFFC99A3B00100140F0
:100C20009F8601003F420F0080969800FFE0F50587
:100C3000224B010FC0F3036200B513F801E09A5C88
:100C400000216EF30701C0F3035C62F30F21C0F3D0
:100C5000034213F80CE013F802C000F00F0285B055
:100C60009A5C8DF80D206EF31741C0F303226CF3EC
:100C70001F61C0F3031CC0F303309A5C13F80CC06F
:100C80008DF80B201B5C0E4ACDF8061047F630009D
:100C90004FF0000EADF804008DF80EE08DF80CC09A
:100CA0008DF80A30302101A813681B06FCD551606D
:100CB00010F8011F0029F7D105B000BD48940008C5
:100CC000001001404FF0E0239869C04320F07F40BE
:100CD000704700BF08B54FF0E0239049D3F8882D46
:100CE0008F4C42F47002C3F8882DD1F8442842F0AA
:100CF0001002C1F8442842F2080000226FF07F4140
:100D000040F28365A560E0601A61596105219A612E
:100D10001961FFF78DFBFFF7C7FB824A0A2102F139
:100D20002B0023681B06FCD5616012F8011F82426C
:100D3000F7D17D497A4A202001F12B0413681E0661
:100D4000FCD5506011F8010FA142F7D17749744AE0
:100D50003D2001F12B0413681D06FCD5506011F8ED
:100D6000010FA142F7D1FFF77FFB0546FFF7BCFB60
:100D70000446FFF7B1FB6E49694A064601F10D0CC6
:100D80005B2013681B06FCD5506011F8010F61450C
:100D9000F7D16849624A202001F10A0C13681B064A
:100DA000FCD5506011F8010F6145F7D14FF000609C
:100DB000FFF73EFF60495A4A202001F1160C1368E4
:100DC0001B06FCD5506011F8010F6145F7D15B4956
:100DD000534A202001F10A0C13681B06FCD5506011
:100DE00011F8010F6145F7D14FF00050FFF720FFD8
:100DF00053494B4A202001F1150C13681B06FCD502
:100E0000506011F8010F6145F7D14E49444A202046
:100E100001F1140C13681B06FCD5506011F8010F8A
:100E20006145F7D13046FFF727FE47493C4A20206D
:100E3000CE1C13681B06FCD5506011F8010FB1429F
:100E4000F7D14249364A202001F10A0613681B06F1
:100E5000FCD5506011F8010FB142F7D13C48FFF7C3
:100E6000E7FE3C492E4A2020CE1C13681B06FCD509
:100E7000506011F8010FB142F7D12846FFF7FCFD91
:100E80003549274A202001F1140513681B06FCD5BB
:100E9000506011F8010FA942F7D13049204A2020B3
:100EA00001F10A0513681B06FCD5506011F8010F0B
:100EB000A942F7D12A48FFF7BBFE2649184A20204D
:100EC00013681B06FCD5506011F8010FB142F7D131
:100ED0002046FFF7D1FD2349114A202001F11404D7
:100EE00013681D06FCD5506011F8010FA142F7D11F
:100EF0000B4A13681906FCD50A235360FFF782FDDD
:100F00001949074A532001F1100413681B06FCD548
:100F1000506011F8010FA142F7D1FEE70030024006
:100F200000100140609200088C920008B8920008FE
:100F3000E4920008F4920008009300081893000857
:100F4000249300083C930008BC91000854930008C7
:100F50006820002060930008649300087C930008D8
:100F60006860002088930008A093000838B5244CDE
:100F7000244B9C4221D2013B1B1B032B22463BD915
:100F80009B08214D03F1010C4FEA5C0E2B4605EB4B
:100F9000CE0ED3E9000108339E45C2E9000102F1FB
:100FA0000802F6D11CF0010F07D02CF0010C04EB65
:100FB0008C0405EB8C052B682360144C14498C427F
:100FC00018D20139091B0329234617D98908013191
:100FD000480804EBC0000022C3E900220833834222
:100FE000FAD1CB0706D521F0010104EB810C0023D7
:100FF000CCF80030FFF76EFE034DDCE7A446F6E7C1
:10100000000000200000002028B700080000002099
:101010006420002030B5044612B3501E0228C9B225
:1010200020D94FF0000C61F3070C61F30F2C61F332
:10103000174C22F0030561F31F6C234604EB050EE9
:1010400043F804CB9E45FBD1AA4209D0401B8EF841
:10105000001028B101288EF8011018BF8EF8021078
:10106000204630BDA646F2E772B3F0B5541E052CFB
:10107000164620D9451A013D022D84460B461AD941
:1010800022F0030597086A1853F804EB4CF804EBB8
:101090009342F9D1AE420DD011F8272000F8272055
:1010A000641B00EB050205D059785170012C01D06A
:1010B0009B789370F0BD441E8B1911F8012B04F836
:1010C000012F8B42F9D1F0BD704700BF0649C31D07
:1010D0000A6823F007031344B3F5005F9DBF03487C
:1010E0000B60801800207047580000205C00002032
:1010F000704700BF00286FD0F0B50746ADF5037DFF
:1011000017F8232B014600240123154611F8012F5F
:10111000AA4214BF0125002503F1010318BF0023D3
:101120002B441E2BC8BF44F001048F42EDD1002197
:101130000191019B019FDB4303F0240307F4007737
:1011400002AD06461F434FF400722846FFF762FFC8
:1011500067B1781E721E304412F8011F35F8113045
:10116000904203F1010325F81130F5D10DF106038A
:101170000DF20621002033F8022FB2F5A27F88BFBE
:1011800040F001009942F6D1232F1BD807F1FF3C14
:10119000F71BB4442337013E16F8011F1CF8012F3A
:1011A00035F81130013B25F8113035F81230013394
:1011B0009BB2B3F5A27F88BF40F00100B74225F88B
:1011C0001230E9D134B9A04218BF6FF493700DF515
:1011D000037DF0BD0248FAE76FF0AC00704700BF36
:1011E000DAFEFFFF2DE9F041A6B000238DF80230B2
:1011F000002871D090460123394A01920E468DF89D
:1012000003300225372705E00AA801F051FA012D25
:1012100049D001250AA801F013FA0446002842D15A
:1012200001220DF103010AA801F038F80446002854
:10123000EAD19DF80330042201330DEB02010AA824
:101240008DF8033001F02AF804460028DCD19DF81F
:101250000230042B08D001220DF102010AA801F08E
:101260001DF804460028CFD1372241460AA801F0D4
:1012700015F804460028C7D102A90AA801F0EAF827
:1012800004460AA801F014FA002CC0D1202F02A9AC
:101290001DD930462022FFF7E7FE012DA7F12007D8
:1012A00006F12006B5D100220023BFF35B8FCDE904
:1012B0000223CDE90423CDE90623CDE90823201E2E
:1012C00018BF0120BFF35B8F26B0BDE8F0813A461E
:1012D0003046FFF7C9FE9AE7012026B0BDE8F0814D
:1012E000000001B82DE9F043A7B00E4604218DF8A7
:1012F0000210002800F08E809946484B019301238C
:1013000090468DF803300225372705E00AA801F042
:10131000CFF9012D52D001250AA801F091F9044618
:1013200000284BD101220DF103010AA800F0B6FFFD
:1013300004460028EAD19DF80330042201330DEB66
:1013400002010AA88DF8033000F0A8FF0446002827
:10135000DCD19DF80230042B08D001220DF10201EE
:101360000AA800F09BFF04460028CFD14A46414618
:101370000AA800F093FF04460028C7D12E9B0BB1AA
:101380002F9B7BBB309B13B1319B002B38D102A923
:101390000AA801F05FF804460AA801F089F9002CB8
:1013A000B7D1202F02A926D930462022FFF75CFEB4
:1013B000012DA7F1200706F12006ACD10022002361
:1013C000BFF35B8FCDE90223CDE90423CDE90623EA
:1013D000CDE90823201E18BF0120BFF35B8F27B083
:1013E000BDE8F0832E991A460AA800F057FF04467C
:1013F00000288BD1C6E73A463046FFF735FE88E72E
:1014000030991A460AA800F049FF044600287FF4E4
:101410007DAFBCE7012027B0BDE8F083000001B834
:101420002DE9F043A7B001248DF80240002800F018
:101430008F809946484B01930E4690468DF80340A5
:101440000225372705E00AA801F032F9012D53D013
:1014500001250AA801F0F4F8044600284CD1012225
:101460000DF103010AA800F019FF04460028EAD193
:101470009DF80330042201330DEB02010AA88DF818
:10148000033000F00BFF04460028DCD19DF8023049
:10149000042B08D001220DF102010AA800F0FEFE83
:1014A00004460028CFD1372241460AA800F0F6FEB4
:1014B00004460028C7D1B9F1000F01D02E9B7BBB99
:1014C0002F9B13B1309B002B38D102A90AA800F042
:1014D000C1FF04460AA801F0EBF8002CB6D1202F7A
:1014E00002A926D930462022FFF7BEFD012DA7F123
:1014F000200706F12006ABD100220023BFF35B8F4B
:10150000CDE90223CDE90423CDE90623CDE9082363
:10151000201E18BF0120BFF35B8F27B0BDE8F0830A
:101520001A4649460AA800F0B9FE044600288AD1A6
:10153000C6E73A463046FFF797FD87E72F991A46E8
:101540000AA800F0ABFE044600287FF47CAFBCE79D
:10155000204627B0BDE8F083000001B830B595B053
:101560000446059115460021372206A8FFF752FDD3
:101570000022CDE90122059B009504F1080206A98D
:101580002046FFF74DFFD0B1012000220023BFF31A
:101590005B8FCDE90623CDE90823CDE90A23CDE908
:1015A0000C23CDE90E23CDE9102300231293ADF8CF
:1015B0004C308DF84E30BFF35B8F15B030BD372205
:1015C00006A904F10800FFF74FFD04F1080204F139
:1015D0003F012046FFF706FE0028D5D10122002357
:1015E000C4E90023D1E700BF2DE9F04FDBB00028AC
:1015F00000F0DE80C24CD0F804B00F4601680091C4
:101600008C424FF0000171EB0B01C0F0D6801E46FA
:101610000323154604468DF80F301EB1649B002B42
:1016200040F0A68004F1080A012D38BF012515F00D
:101630001F0818BF4FF001080DF1500908EB5518AD
:10164000372251464846FFF70FFDB8F1000F07D08B
:1016500000263EA800F0F4FF70B33EA801F028F881
:10166000BFF35B8F00230022CDE91423CDE91623BD
:10167000CDE91823CDE91A23CDE91C23CDE91E239A
:101680000023C9F83030A9F8343089F83630012504
:10169000BFF35B8F00220023BFF35B8FCDE90423F0
:1016A000CDE90623CDE90823CDE90A232846BFF377
:1016B0005B8F5BB0BDE8F08F372249463EA800F053
:1016C000EDFD0028C9D10CA93EA800F0C3FE019091
:1016D0003EA800F0EDFF019B002BC1D147B135B111
:1016E0001F2D32D82A460CA93846FFF7BDFC00252D
:1016F0000136B045ADD10023BFF35B8F0022C9F89E
:101700003030A9F8343089F836300023CDE914237D
:10171000CDE91623CDE91823CDE91A23CDE91C2301
:10172000CDE91E2322A8BFF35B8F00F089FF0028BC
:1017300048D022A800F0BCFF0125D4E900320133D3
:1017400042F10002C4E90032A4E7202238460CA985
:10175000FFF78AFC203D20370DF1870212F8013D8A
:101760000133DBB21370002BC2D14A45F6D1BFE77B
:10177000022322A88DF8F83000F062FFC0B90122E0
:101780003EA922A800F08AFD002800F0BB8022A814
:1017900000F08EFFBFF35B8F00220023CDE904230E
:1017A000CDE90623CDE90823CDE90A23BFF35B8FFA
:1017B000012528465BB0BDE8F08F022528465BB0C6
:1017C000BDE8F08F0DF10F01012222A800F066FDA7
:1017D0000028AED13722514622A800F05FFD002834
:1017E000A7D104A922A800F035FE054622A800F0E2
:1017F0005FFF002DA0D104F13F020DF12F0610462E
:1018000029460DF10F0C10F8017D16F801393B4403
:101810000B44B44503704FEA1321F4D104F11F00C7
:1018200010F8013D0B449BB2504503704FEA132161
:10183000F6D1002312F8011D92F8370001440B4441
:10184000924513704FEA1323F4D1009B94F83D00A6
:101850001ABA94F83E3003EB126384F83E30C3F3B7
:101860000723C2F30746034494F83C003344C2F311
:101870000726304484F83D3000EB132394F83B00F6
:1018800094F839609BB250FA82F202EB132284F88A
:101890003C3094F83A3084F83B209BFA8BF103EB10
:1018A000116303EB1223C3F3072094F8382030446C
:1018B0009EB2C1F307431844C1F307231A4494F8B6
:1018C000373002EB102253FA81F1C2F307230B44A5
:1018D000002192B263F3070162F30F2160F3174115
:1018E000224666F31F6142F8371F1B0A12F8011DDA
:1018F0000B449BB2924513704FEA1323F6D11CE7B9
:101900003F420F0004F1080A3722514622A800F096
:10191000C5FC00287FF43BAF649A314622A800F052
:10192000BDFC00287FF433AF04A922A800F092FD8B
:10193000064622A800F0BCFE002E7FF42BAF3146F5
:1019400004F13F000DF12F020DF10F0C10F8016DA5
:1019500012F8013933440B44944503704FEA1321C4
:10196000F4D104F11F0212F8013D0B449BB29245E1
:1019700013704FEA1321F6D156E600BFF0B585B0DB
:1019800015460A9C0F9A002C54D00E9C002C51D066
:1019900000294CD1802A7AD104460F4600211E46E8
:1019A000FFF738FB109BA3670021CDE90211CDE9B9
:1019B0000056DDE90A2304F108012046FFF792FCF6
:1019C00000283AD04FF0FF3000230022BFF35B8F96
:1019D000C4E90023C4E90223C4E90423C4E90623BB
:1019E000C4E90823C4E90A23C4E90C23C4E90E238B
:1019F000C4E91023C4E91223C4E91423C4E916235B
:101A0000C4E91823C4E91A23C4E91C23C4E91E232A
:101A100004F17F0C631EBFF35B8F13F8011F9C451D
:101A200042EA0102F9D1002A31D105B0F0BD0C9C87
:101A3000002CAFD16FF0AC00F7E704F1080204F11D
:101A40003F012046FFF7CEFB0028BBD10122002337
:101A5000C4E9002337B1DDE90C122046FFF77EFD13
:101A60000028AFD100230E99009380222046FFF773
:101A7000BBFD0028A6D1009003460E998022204687
:101A8000FFF7B2FD003818BF012040429CE74FF03D
:101A9000FF30CAE7F0B50F46C9B040B38023CDE9A7
:101AA00005313648364A0092202308AC3021CDE972
:101AB00003340023CDE901101A46012128A8FFF7BD
:101AC0005DFF90B92F490DF11F020DF19F0512F82E
:101AD000013F11F8014FAA4283EA040340EA0300E0
:101AE000F5D1003818BF0120404249B0F0BD802335
:101AF000CDE9053108ABCDE90303234B0093302337
:101B00000290019302460346014628A8FFF736FFDC
:101B10000028EAD11D4E0DF11F040DF19F0531463D
:101B2000224612F8013F11F801CF954283EA0C03D7
:101B300040EA0300F5D1E8B908AB0493124B0093D7
:101B4000802305932023CDE9020001460193104A2A
:101B5000069728A81023FFF711FF0028C5D114F815
:101B6000013F16F8012FA54283EA020340EA030071
:101B7000F5D1B6E74FF0FF30B7E700BF909500080A
:101B8000B09500080F950008E09400085F940008E5
:101B900000950008002877D0032975D92DE9F04376
:101BA0004F1E0478ADF5037D0744024601234FF034
:101BB0000008254612F8014FAC4214BF012500254C
:101BC00003F1010318BF00232B441E2BC8BF48F0AC
:101BD00001089742EDD1B1F5007F4FF0FF3338BFD8
:101BE00000230193019B019D21EA030305F4007585
:101BF00002AC894606461D434FF400720021204680
:101C0000FFF708FA65B170190138721E12F8011F4A
:101C100034F81130904203F1010324F81130F5D16A
:101C20000DF106030DF20621002033F8022FB2F564
:101C3000A27F88BF40F001009942F6D1A94518D98A
:101C40007219013A013E16F8015F12F8011F34F8CB
:101C50001530013B24F8153034F8113001339BB2B4
:101C6000B3F5A27F88BF40F00100974224F81130FD
:101C7000E9D1B8F1000F0AD1404518BF6FF4937055
:101C80000DF5037DBDE8F0836FF0AC0070470148AF
:101C9000F6E700BFDAFEFFFFF0B595B0002800F0D0
:101CA00099800D46142200210446FFF7B3F94D4AEE
:101CB000656016680023E3602372002E40F0838085
:101CC00026748020FFF702FAE060002800F085808B
:101CD00061683046FFF7DEFE38B30325002300229B
:101CE000BFF35B8FCDE90623CDE90823CDE90A23B5
:101CF000CDE90C23CDE90E23CDE910230023129367
:101D0000BFF35B8F237C2BB9E06808B1FFF7F0F9D4
:101D10000023E360032D59D0012D08BF6FF0C605E5
:101D200002232846237215B0F0BD0DF117030146BA
:101D300003F8011F01313429FAD106A8FFF72AFF61
:101D400005460028CAD1237CC3B1BFF35B8F0023B3
:101D50000022CDE90623CDE90823CDE90A23CDE908
:101D60000C23CDE90E23CDE9102300231293012388
:101D7000BFF35B8F2372284615B0F0BDE668636839
:101D800001461F4680223046FFF744F9B76706F147
:101D90000801CDE90255CDE90055302307AA3046A8
:101DA0000591FFF79FFA08B1012597E7059A06F11B
:101DB0003F013046FFF716FA0028F5D10122002333
:101DC000C6E90023C1E76FF0BF05D4E725726FF0C5
:101DD000D005D0E76FF0AC05CDE7022323726FF09A
:101DE0007C057BE75C2000200021FFF755BF00BF8A
:101DF000002800F08F80002900F08C80002A00F07D
:101E00009C80B2F5803F00F28580F0B5057A012D07
:101E1000CBB006D1037C17460E4604462BB10223F5
:101E200023726FF0C6004BB0F0BD0093C0680993F9
:101E3000FFF7DAFB0228099B04D00028EFD100202D
:101E40004BB0F0BD626806923D4A02923D4A009254
:101E5000802205920AAA0492202203923022019243
:101E600029461A462AA8FFF789FD00283BD1DFF84A
:101E7000D8C00DF127010DF1A70311F8012F1CF8AF
:101E800001EF8B4282EA0E0240EA0200F5D150BB1C
:101E900003F8010F01302428FAD12AA8FFF72AF904
:101EA00038BB257C002D38D1E06810B320222BA947
:101EB000FFF754FBBFF35B8F00220023CDE92A23F9
:101EC000CDE92C23CDE92E23CDE930233295BFF384
:101ED0005B8F0028A3D100230093E0683A46314687
:101EE000FFF782FBA9E703236FF0D00023724BB00A
:101EF000F0BD00230022BFF35B8FCDE92A23CDE99B
:101F00002C23CDE92E23CDE9302300233293BFF3D8
:101F10005B8F84E76FF0AC00704700220023BFF3B3
:101F20005B8FCDE92A23CDE92C23CDE92E23CDE902
:101F300030233290BFF35B8FCDE70020704700BFA6
:101F400090950008B09500080F9500082DE9F04F16
:101F50000F46C5B03A68049296467A680592BA6808
:101F60000692FA6807923A6908927A690992BA6900
:101F70000A92FA690B923A6A0C927A6A0D920546B5
:101F8000BA6A0E92FA6AEB680F92D0E90001AA6869
:101F9000D5E9048C3E6B1096D5E9069BBE6B129674
:101FA000B246CDE900B8FE6B7F6B119704AC984642
:101FB0007346CDE9020196461396274651461A46C6
:101FC0007B68B86A4FEAF14B8BEA714B8BEA912A36
:101FD000796A4FEAB34B8BEAF31B8BEAD30B8A4443
:101FE000DA440AEB02014FEAF64BBA6839648BEA2D
:101FF000764B8BEA962B4FEAF216034486EAB246FA
:102000009B4486EAD2065E447E6434AB08379F4226
:10201000D6D17246DDE90201DFF87CE2DDF800B0DE
:1020200043460EF5807ADDF804800195DEF8006005
:1020300025682E444FEAF82585EAB81585EA7865C3
:10204000354489EA0C0606EA080686EA090635449C
:102050005D44EF184FEA703383EAB00383EAB0536C
:102060002B4440EA010500EA0106154035432B44A4
:102070006668DEF80450354488EA0C063E4086EA7D
:102080000C064D4435444FEAF72686EAB7164FEA68
:10209000733986EA776689EAB309354489EAB35920
:1020A000AE18A944DEF80820A56843EA000B0BEA45
:1020B000010B2A4403EA00054BEA050B88EA0705F1
:1020C000354085EA08056244D9442A444FEAF6259A
:1020D00085EAB6154FEA793C85EA76658CEAB90C53
:1020E0002A448CEAB95C8D189444E168DEF80C202F
:1020F00043EA090B0BEA000B0A4403EA09014BEA25
:10210000010B87EA06012940794042440A444FEA1C
:10211000F521DC4481EAB51181EA75614FEA7C382A
:102120000A4488EABC08811888EABC5800919044A7
:102130002169DEF8102049EA0C000A44184009EA37
:102140000C013A44009F084386EA0501394071407A
:102150000A444FEAF72181EAB71181EA77618044A6
:102160000A4403EB020B4FEA783383EAB80383EAAD
:10217000B85361691344DEF814204CEA080000EA01
:10218000090011440CEA0802104385EA070202EA3A
:102190000B026A40314411444FEAFB2282EABB122F
:1021A000034482EA7B6211444FEA733282EAB3024B
:1021B00082EAB3528944A0690A44DEF8181048EA5A
:1021C000030606EA0C06084408EA03010E4387EA00
:1021D0000B0101EA09012844794008444FEAF9213A
:1021E00081EAB911324481EA796108444FEA7231D7
:1021F00081EAB20181EAB2518444DEF81C50014404
:10220000E06943EA020606EA0806054403EA02001A
:1022100006438BEA090000EA0C0080EA0B003D440B
:1022200005444FEAFC2080EABC10314480EA7C601F
:1022300005444FEA713080EAB10080EAB150284489
:10224000A84442EA01050EF1200E1D4002EA0106F3
:102250003543F24504F1200428447FF4E7AE019DA4
:102260002C68044468682C600844A96868601144BC
:10227000EA68A9601A442B69EA6043442B616B69E0
:10228000AA6963446B61EB694A445B44AA61EB61F0
:1022900045B0BDE8F08F00BFE0950008002800F0D1
:1022A000D5802DE9F04F894683B0924600296DD044
:1022B000026E3F2A00F2C780436E1AEB03034366A7
:1022C00002D3836E01338366074600F12005002A9E
:1022D00060D1BAF13F0F4BD94FEA9A1303F1FF3B9C
:1022E00009EB83184C46214640222846FEF7BCFEE7
:1022F000D7E90820D7E90B1312BA00BABE6AC7E9BA
:102300000820D7E90D2096FA86FE09BA92FA82FCD7
:10231000C7E90AE100BAD7E90F12C7E90DC01BBA35
:10232000D7E912603B637B6C09BA12BAC7E90F1296
:102330001BBAD7E9141296FA86FC00BAC7E912C094
:102340007B64F86DBB6D09BA12BA1BBA00BA396565
:10235000F865C7E91523294638464034FFF7F6FDEE
:102360004445C0D109F140030AF03F0A03EB8B1941
:10237000BAF1000F0CD0524649462846FEF774FECB
:10238000C7F860A0002003B0BDE8F08F002A57D145
:102390000020F8E7C2F140039A4505EB02004FF038
:1023A000FF3238BF00220192019A01992AEA020203
:1023B0000B4043EA020849464246FEF755FE3B6E93
:1023C0004344402B4FF00004C144AAEB080A3B668B
:1023D0007FF47FAF3B6A1BBA3B627B6A1BBA7B62AE
:1023E000BB6A1BBABB62FB6A1BBAFB623B6B1BBAC4
:1023F0003B637B6B1BBA7B63BB6B1BBABB63FB6B27
:102400001BBAFB633B6C1BBA3B647B6C1BBA7B64E3
:10241000BB6C1BBABB64FB6C1BBAFB643B6D1BBA89
:102420003B657B6D1BBA7B65BB6D1BBABB65FB6DEA
:102430001BBAFB6529463846FFF788FD3C6648E72E
:102440006FF0AC009FE76FF083009CE76FF0AC008B
:10245000704700BF002800F0DD80002900F0DA801E
:10246000036E3F2B00F2D98070B55A1C00F1200595
:1024700002668022EA54036E382B0E4604463BD98E
:102480003F2B40F2C080D4E9082312BA1BBAC4E93A
:102490000823D4E90A2312BA1BBAC4E90A23D4E9EF
:1024A0000C2312BA1BBAC4E90C23D4E90E2312BAC6
:1024B0001BBAC4E90E23D4E9102312BA1BBAC4E92B
:1024C0001023D4E9122312BA1BBAC4E91223D4E9A7
:1024D000142312BA1BBAC4E91423D4E9162312BA7E
:1024E0001BBAC4E9162320462946FFF72FFD002317
:1024F00038222366284602E0E818C3F1380200219A
:10250000FEF788FD226A12BA2262626A12BA626219
:10251000A26A12BAA262E26A12BAE262226B12BA2A
:102520002263626B12BA6263A26B12BAA263E26B9D
:1025300012BAE263226C12BA2264626C12BA62644A
:10254000A26C12BAA264E26C12BAE264226D12BAF0
:10255000D4E919312265626D12BA62655A0F02EB35
:10256000C102DB00C4E9193204F16801042204F15C
:102570005800FEF779FD042204F1640104F15C00C7
:10258000FEF772FD29462046FFF7E0FC23681BBAE0
:10259000236063681BBA6360A3681BBAA360E36827
:1025A0001BBAE36023691BBA236163691BBA6361C9
:1025B000A3691BBAA361E3691BBAE3612146202228
:1025C0003046FEF751FD202200212046FEF722FD75
:1025D000134A144BC4E90023134A144BC4E90223E1
:1025E000134A144BC4E90423134B144A0021C4E9D1
:1025F0000623216640222846FEF70CFD0021C4E98F
:102600001911084670BDC3F14002E8180021FEF719
:1026100001FD38E76FF0AC0070476FF0BF00704706
:1026200067E6096A85AE67BB72F36E3C3AF54FA563
:102630007F520E518C68059B19CDE05BABD9831F8F
:1026400010B310B5202200210446FEF7E3FC104829
:10265000104B114AC4E90003104B1148C4E902238E
:10266000104B114AC4E90403104B0021C4E90623AE
:102670002166402204F12000FEF7CCFC0021C4E9D1
:102680001911E166084610BD6FF0AC00704700BF3D
:1026900067E6096A85AE67BB72F36E3C3AF54FA5F3
:1026A0007F520E518C68059BABD9831F19CDE05B1F
:1026B000002800F0918010B510F003038646BFF3A8
:1026C0005B8F00F08A8000F1700C0023024600F856
:1026D000013B10F0030102D06045F7D110BDC0F1FD
:1026E000700CF444BCF1030F53D9ACF1040EBEF1ED
:1026F000030F7FD94FEA9E014C1C4FEA540EBEF1E6
:10270000010FC0E9003356D0BEF1020FC0E9023319
:1027100051D011320023BEF1030FC2E900334AD079
:10272000BEF1040FC0E9063345D0BEF1050FC0E984
:10273000083340D0BEF1060FC0E90A333BD0BEF1EA
:10274000070FC0E90C3336D0BEF1080FC0E90E33D5
:1027500031D0BEF1090FC0E910332CD0BEF10A0F01
:10276000C0E9123327D0BEF10B0FC0E9143322D0D9
:10277000BEF10C0FC0E916331DD0BEF10E0FC0E93B
:10278000183316D1C0E91A3304300CF0030C00EBF7
:102790008100BCF1000F09D00023BCF1010F0370D0
:1027A00004D0BCF1020F437018BF8370BFF35B8F7E
:1027B00010BD4FF00D0EB4EB4E0F4FEA4E03E3D0B9
:1027C000C3EBCE73A0EB8303002204301A600CF03D
:1027D000030C00EB8100DCE77047C0E90033C0E97F
:1027E000023300F110021B211C244FF00E0E4FF09B
:1027F000700C8FE70346E7E72DE9F04F8DB00446F4
:10280000059200930422002307A8CDE90733CDE900
:1028100009330D46DDF85880FEF726FC0422A9187E
:1028200008A8FEF721FC05F10801042209A8FEF71B
:102830001BFC05F10C0104220AA8FEF715FC079BFE
:1028400022680A9F1DBA089B55406268079593FA53
:1028500083FE099B8EEA020EA268CDF820E01BBA27
:1028600083EA0206E36809963FBA5F400A97D8F800
:102870000030002B00F0D286004B01E0E0A60008FB
:10288000FAB202F5407253F82210EAB202F5407231
:1028900053F822C05FFA8EF202F5407253F822809C
:1028A000F2B202F5407253F822002A0E53F82220A9
:1028B00051404FEA1E6253F8222082EA0C024FEA8E
:1028C000166C019253F82CC022698CEA080C4FEA6E
:1028D0001768514053F82880019A88EA0000CEF327
:1028E0000748CEF3072E0EF5007E08F5807853F8E2
:1028F0002E9053F828B0C6F3074EC6F3072606F508
:10290000007681EA0B0153F826800EF5807E81EA7D
:102910000808C7F30746616953F82EA006F58076CC
:10292000C5F3074EC5F30725514005F50075A269AB
:1029300053F8266053F825508CEA020272400EF5D7
:10294000807E5540E26953F82EE05040C7F30727D8
:1029500080EA0E0007F5007780EA090053F8277037
:10296000C2B281EA0A0102F54072794053F822703E
:10297000C1F3074202F580725FFA85FE53F822B078
:10298000C5F3072202F500724FEA106953F82220BE
:1029900001925FFA88F202F54072C8F3072C53F8EF
:1029A0002260C5F3074202F580722D0E53F82220F3
:1029B0000292C0F3072202F50072C0F3074053F8F9
:1029C00022200392CAB202F5407200F5807053F8DB
:1029D000222053F8255053F820006A404FEA18652A
:1029E0000EF5407E53F825506F400D0E0CF5007C1F
:1029F00053F825506E40256A6F40019D87EA0B070A
:102A00006F40656A6E40029D6E40039D6E40A56AF0
:102A10006A40C8F3074A53F82E5053F8298082EAD7
:102A2000000E53F82C200AF5807AC1F307218EEAB4
:102A3000020E01F50071E26A53F82A0053F82110E2
:102A400088EA050585EA020C8CEA000C8CEA010C88
:102A50005FFA8CF202F5407253F82280FAB202F566
:102A6000407253F82250F2B202F5407253F822003D
:102A70005FFA8EF202F5407253F822103A0E53F8C4
:102A8000222082EA08024FEA166853F8288088EA72
:102A900005054FEA1E6853F8288088EA00004FEACF
:102AA0001C6853F8288088EA0101C6F30748C6F37A
:102AB000072606F5007608F5807853F826900191F0
:102AC000CEF3072606F5007653F8281053F826B003
:102AD000CEF30748CCF3072608F5807E06F500768E
:102AE00053F82EA053F82680CCF3074EC7F30746C1
:102AF000C7F307270EF5807C07F5007706F580768B
:102B000053F82CE053F8266053F827C0276B7A401F
:102B10004A4082EA0B07626B01995540A26B424022
:102B2000E06B4140714081EA090185EA0A05C8B2BB
:102B300085EA080582EA0E0200F5407082EA0C027E
:102B40005FFA85FE53F820800EF540705FFA82FE32
:102B500002900EF540704FEA176EC5F3074653F822
:102B60002EE0039006F580768EEA08004FEA156E97
:102B7000C5F3072553F8266001964FEA1269C2F3A0
:102B8000072C05F50075C2F30742049502F580781D
:102B90004FEA116AFEB2C1F30745C1F30722C7F33A
:102BA000074BC7F30721276C0CF5007C7840019F89
:102BB00006F54076784053F82C7053F8266047406D
:102BC00053F82E007040029E019053F826C053F82F
:102BD0002900039E80EA0C0053F826E053F82AC02F
:102BE000049E05F5807502F500720BF5807B01F5FA
:102BF000007153F8229053F826A053F821108CEA64
:102C00000E0C53F828E053F8258053F82B50666CCF
:102C1000019A5640A26C424082EA08025140E26C9E
:102C20008CEA0200684080EA0A00C2B286EA0E0618
:102C300002F5407286EA090653F82290C6F307426D
:102C400002F58072C0F3074E53F822A0C1F30722A9
:102C500002F500720EF5807E53F822200192FAB23E
:102C600002F5407253F82E8053F82250C1F3074208
:102C700002F580724FEA176B53F822200292C0F3DC
:102C80000722000E02F5007253F820E053F822C02C
:102C9000C7F3072000F50070F2B253F8200003904C
:102CA00002F54072C8B2090E53F8222053F82110E1
:102CB0004A40C7F3074153F82B7087EA09074FEAE8
:102CC0001669C6F3072653F829B08BEA050B256D64
:102CD0006F40019D87EA0A076F40656D8BEA050B1F
:102CE000029D8BEA050BA56D06F5007900F5407095
:102CF00082EA0506039A86EA0806564053F8202021
:102D000001F580718EEA020EE26D53F8210053F84E
:102D100029108EEA020E8EEA000E8EEA010E5FFA8C
:102D20008EF202F540728BEA0C0C53F82210FAB2C4
:102D300002F540724FEA176853F822005FFA8CF2EE
:102D400002F5407253F8225053F8288088EA0101B6
:102D50004FEA1C68F2B253F8288088EA00004FEA74
:102D6000166802F5407253F8288053F8222088EA4A
:102D700005054FEA1E6853F8288088EA0202CCF362
:102D80000748CCF3072C08F580780CF5007C0192FD
:102D900053F8282053F82C80C6F3074CC6F30726B7
:102DA00006F500760CF5807C53F826B053F82CA07D
:102DB000CEF3072606F50076CEF3074C53F826909F
:102DC000C7F30746C7F307270CF5807C07F50077A4
:102DD00053F82CE053F827C0276E7940514081EA20
:102DE0000B07616E019A4840A16E06F580764D4052
:102DF000E16E53F8266080EA0A0080EA090051403B
:102E00007140C0F3074606F5807685EA0E0585EA2F
:102E10000C0581EA080153F826600196C5F3074CBA
:102E2000CAB2C5F307260CF580794FEA156B5FFA35
:102E300085FC02F540723D0E06F5007653F82550EC
:102E400053F8266053F822200296FEB26A4006F537
:102E50004076050E53F8266053F825507540C7F3A9
:102E60000746C7F3072707F50078276F7A40019FC9
:102E70007A40029F5740626F0CF5407A4FEA116E1C
:102E80006A4053F8295053F82B905FFA80FC6A404F
:102E90000CF5407C53F82E5053F82AE085EA0E0ECC
:102EA00053F82C50C1F3072C0CF5007C06F5807606
:102EB00053F82CC053F8266082EA0C0CC0F30720AC
:102EC000E26F00F50070C1F307418EEA020201F5DE
:102ED000807189EA0505724053F82090A66F53F877
:102EE000211053F8280082EA090275404D40D1B202
:102EF00001F540713E0E454053F8266053F821001D
:102F0000F9B201F5407146404FEA1C6053F821E0E8
:102F100053F820005FFA8CF180EA0E0001F5407151
:102F20004FEA156E53F8211053F82EE08EEA010196
:102F3000CCF3074ECCF3072C0CF50078C5F3074C07
:102F40000CF5807C019153F82C10C2F3074C0CF562
:102F5000807C0EF5807E53F82CB053F82EA0C5F37C
:102F6000072C0CF5007CEDB253F82C9005F540755C
:102F7000C2F3072C120E53F8255053F822200CF5FB
:102F8000007C6A4053F82CE0C7F30745C7F3072CD1
:102F9000D4F880707E4086EA0A0686EA0907D4F8EB
:102FA0008460079746404E400CF5007C86EA0E068A
:102FB000D4F8880053F82CC008960199414081EA62
:102FC0000B0181EA0C0C05F58075D4F88C10CDF856
:102FD00024C082EA010E53F825208EEA020E53F82F
:102FE00028208EEA020E5FFA8EF202F54072CDF8CA
:102FF00028E053F82280FAB202F5407253F822100A
:10300000F2B202F5407253F822505FFA8CF202F5E8
:10301000407253F822003A0E53F8222082EA080246
:103020004FEA166853F8288088EA01014FEA1C68C5
:10303000019153F8288088EA05054FEA1E6853F885
:10304000288088EA0000C6F30748C6F3072606F57D
:10305000007608F5807853F8269053F82810CCF3C2
:10306000072606F50076CCF3074853F826B0CEF3D2
:10307000072608F5807C06F5007653F82CA053F857
:103080002680CEF3074CC7F30746C7F307270CF596
:10309000807C07F5007753F82CE053F827C0D4F86C
:1030A00090707A404A40D4F8947001994F40D4F817
:1030B0009810694081EA0E0106F5807681EA0C0CD1
:1030C000D4F89C1053F826604840009987EA0A0714
:1030D0004640052982EA0B0287EA080786EA0906C4
:1030E00040F2E581F1B201F54071C7F3074E53F8A4
:1030F0002100D1B201F540710EF5807E53F8218098
:10310000F9B201F54071C2F3074A53F821505FFA52
:103110008CF101F540710AF5807A53F821B0110E57
:10312000C2F3072253F821104840390EC7F307278E
:1031300053F8211081EA08014FEA1C6807F500776F
:1031400053F8288053F82770019788EA05054FEA5D
:103150001668CCF3072753F8288088EA0B0B53F83E
:103160002E80CCF3074E0EF5807C07F5007753F8E0
:103170002CE053F82790C6F3074CC6F3072606F554
:1031800000770CF5807C53F82C6053F827C002F5CB
:10319000007753F82A2053F827A0D4F8A07078407D
:1031A00080EA080080EA0907D4F8A400079748409D
:1031B000D4F8A8104D40D4F8AC106E408BEA01054D
:1031C0005540019A5540EAB280EA0E0002F540727D
:1031D00080EA0C0053F822100890C0F3074202F571
:1031E000807286EA0A0653F822200192C6F307226B
:1031F00002F50072099653F822200292FAB202F503
:1032000040720A9553F822C0C6F3074202F5807B4C
:10321000C2B202F54079F2B2360E039602F5407A58
:10322000060E3A0E53F8266053F8222053F82990E0
:1032300086EA0C064FEA15684A40C5F3074EC0F30C
:103240000721C7F3074CC5F30720C7F30725D4F8B8
:10325000B0707A40019F7A40029F7A40D4F8B470EF
:10326000774053F82B6000F500707740039E53F8C9
:10327000200053F8266001F500710EF5807E0CF5F4
:10328000807C86EA0909474053F8286053F82100FA
:1032900053F82A80D4F8B81086EA080653F82E802E
:1032A00053F82CE089EA010CD4F8BC1005F5007540
:1032B0004E40009953F825508CEA080C86EA0E0619
:1032C00006298CEA050C86EA000600F0F080F1B2CF
:1032D00001F54071C7F3074E53F82100D1B201F553
:1032E00040710EF5807E53F82180F9B201F54071EE
:1032F000C2F3074A53F821505FFA8CF101F540718F
:103300000AF5807A53F821B0110EC2F3072253F860
:1033100021104840390EC7F3072753F8211081EADE
:1033200008014FEA1C6807F5007753F8288053F826
:103330002770019788EA05054FEA1668CCF307273E
:1033400053F8288088EA0B0B53F82E80CCF3074EF5
:103350000EF5807C07F5007753F82CE053F82790A2
:10336000C6F3074CC6F3072606F500770CF5807CFC
:1033700053F82C6053F827C002F5007753F82A2041
:1033800053F827A0D4F8C070784080EA080080EA9B
:103390000907D4F8C40007974840D4F8C8104D4036
:1033A000D4F8CC106E408BEA01055540019A554087
:1033B000EAB280EA0E0002F5407280EA0C0053F88F
:1033C00022100890C0F3074202F5807286EA0A06CE
:1033D00053F822200192C6F3072202F500720996E3
:1033E00053F822200292FAB202F540720A9553F87D
:1033F00022C0C6F3074202F5807BC2B202F54079D3
:10340000F2B2360E039602F5407A060E3A0E53F8E3
:10341000266053F8222053F8299086EA0C064FEADA
:1034200015684A40C5F3074EC0F30721C7F3074CA0
:10343000C5F30720C7F30725D4F8D0707A40019F61
:103440007A40029F7A40D4F8D470774053F82B60CA
:1034500000F500707740039E53F8200053F8266073
:1034600001F500710EF5807E0CF5807C86EA090975
:10347000474053F8286053F8210053F82A80D4F8C5
:10348000D81086EA080605F5007553F82E8053F823
:103490002CE053F8255089EA010CD4F8DC104E409A
:1034A0008CEA080C86EA0E068CEA050C4640D0B27F
:1034B00000F58070C6F3074813F82050CCF307409E
:1034C00000F5407008F5407853F8200053F8289034
:1034D00000F47F0E380E00F500704FEA1C6853F8B8
:1034E000200008F5007800F07F404EEA000EF8B2A8
:1034F00053F8288000F5807009F47F0913F8200044
:10350000019008F07F4849EA08005FFA8CF808F556
:103510008078CCF3072C029053F82C9013F82800F5
:103520000390C2F3074C4FEA16680CF5407C08F58F
:10353000007853F82CC053F8288001985FFA86FA77
:103540000AF5807AC6F3072608F07F480CF47F0C52
:103550004CEA080C53F8268013F82A60C7F3074A90
:103560000AF5407AC7F3072753F82AB053F82770B3
:103570004FEA126A0AF5007AC2F307220BF47F0BB6
:1035800053F8222053F82A3003F07F434BEA030B11
:10359000009B02F47F4A04EB43125B0109F47F496C
:1035A000E358059C5E4086EA090383EA0B031BBAD5
:1035B0000793536808F47F486B4083EA080383EA63
:1035C0000E031BBA089393685840029B80EA0A00D6
:1035D0005840D368039A07F47F4753407B4083EAFF
:1035E0000C0300BA1BBA07A90990042220460A93CB
:1035F000FDF73AFD042208A9A018FDF735FD09A939
:10360000042204F10800FDF72FFD04220AA904F1A9
:103610000C00FDF729FD0DB0BDE8F08F0B930F4BAB
:10362000184603F5805C994600220B9950F8223029
:1036300008321940B2F5807F0B91F6D100F5806019
:103640006045F1D10B9A1543054A904518BF0122F8
:103650004B4618BFC8F80020FFF712B9E0A60008D3
:1036600060200020002800F039852DE9F04FA2F1FC
:103670001007102F83B000F22D856C4DFD40EC0734
:1036800040F128854FEA9208C0F8F420154608F169
:103690000602C0F8F0200E46044619461022F83003
:1036A000002B00F06383FDF7DFFC2A4631462046FD
:1036B000FDF7DAFC23681BBA236063681BBA6360FA
:1036C000A3681BBAA360E368B8F1040F1BBA2546D0
:1036D000E36000F0B18023691BBA23616369B8F12C
:1036E000060F1BBA636100F0EC84A3691BBAA361E7
:1036F000E3691BBA3146E36120222046FDF7B4FCA2
:10370000266836BAE1686068A768636926600ABA05
:103710002169E26000BA3FBA09BA93FA83FCB8F1B2
:10372000060F6060A7602161C4F814C000F0248314
:10373000A3691BBAA361E36911463D4A01921BBA12
:10374000E361BC463B4B02F11C0829E053F8222000
:103750002F6902F47F0B0A0E02F5007253F8222043
:1037600002F07F49C1F3072253F8222002F47F4A76
:103770004BEA0A025FFA81FA0AF5807A13F82AA066
:1037800049EA0A0982EA09027A406F692A637A40A3
:10379000AF696A637A408EEA020EC5E90E2E2035C3
:1037A000D5F81CE0019F5FFA8EF24FEA1E6909F519
:1037B000807953F8222013F8299057F804BF019715
:1037C00002F47F4242EA0902CEF3074909F5007983
:1037D00082EA0B0253F829A0CEF3072909F54079B4
:1037E0000AF07F4A53F8299082EA0A0209F47F0915
:1037F00082EA0902564070408CEA000C81EA0C0112
:10380000C1F307424745C5E90860C5E90AC102F5A9
:1038100040729BD1BFF35B8FBFF35B8F0C9A012A81
:1038200000F0BC81002003B0BDE8F08F0101010071
:10383000DCB60008E0A60008314610222046FDF75D
:1038400013FCE268D44B12BAD1B2150E05F580759F
:1038500053F8210013F825602168E26000F47F40EE
:103860000643C2F3074000F5007009BA53F8200080
:1038700021604E4000F07F404640C2F3072000F533
:103880004070616853F8200000F47F004640A06853
:1038900086F0807609BA00BA6160714081EA00055D
:1038A0006A40C4E90652C2F3072505F54075C4E92C
:1038B000046153F82550A06005F47F057540D6B229
:1038C00053F8266006F47F467540160E06F580769E
:1038D00013F826607540C2F3074606F5007653F8E4
:1038E000266006F07F46754085F00075684080EAE6
:1038F0000207C7F3072606F54076694053F82660AD
:10390000E76206F47F06C4E908516E40FDB2A0628A
:1039100053F8255005F47F456E403D0E05F5807542
:10392000C7F3074713F8255007F500776E4053F8A3
:10393000275005F07F456E4086F0806671404A4012
:10394000C2F3072505F5407581EA0007C4E90C615B
:10395000E263A76353F8255005F47F057540D6B29E
:1039600053F8266006F47F467540160E06F58076FD
:1039700013F826607540C2F3074606F5007653F843
:10398000266006F07F46754085F00065684080EA55
:103990000207C7F3072606F54076694053F826600C
:1039A000E76406F47F06C4E910517540FEB2A064D6
:1039B00053F8266006F47F4675403E0E06F5807685
:1039C000C7F3074713F8266007F50077754053F8EB
:1039D000276006F07F46754085F0805569404A4073
:1039E000C2F3072606F54076C4E9145153F8266061
:1039F000E26506F47F066E40D5B253F8255005F413
:103A00007F456E40150E05F5807513F825506E4004
:103A1000C2F3074505F5007553F8255005F07F45BD
:103A20006E4086F0005686EA000585EA02074840A7
:103A3000A065C7F3072000F54070714053F82000DF
:103A4000266600F47F004640F8B2E76653F820008F
:103A500000F47F404640380E00F58070C7F30747FA
:103A600013F8200007F50077464053F8270000F0D0
:103A70007F40464086F08046C4E9191571404A40AF
:103A8000C2F3072000F5407081EA0507C4E91C6114
:103A9000E267A76753F8200000F47F007040D6B2B9
:103AA00053F8266006F47F467040160E06F58076C1
:103AB00013F826607040C2F3074606F5007653F807
:103AC000266006F07F46704000F10040454085EAE0
:103AD0000207C7F3072606F54076414053F82660F3
:103AE000C4F88C7006F47F06C4E920014640F8B2A1
:103AF000C4F8885053F8200000F47F404640380E48
:103B000000F58070C7F3074713F8200007F500772A
:103B1000464053F8270000F07F40464086F0D856D4
:103B200071404A40C2F3072000F54070C4E92461A7
:103B300053F82000C4F89C2000F47F007040D6B2F7
:103B400053F8266006F47F467040160E06F5807620
:103B500013F826607040C2F3074606F5007653F866
:103B6000266006F07F46704080F0585080EA0506D7
:103B70007240C4E92A62C4F8A0004D404840C4F82D
:103B80009850C4F8A400BFF35B8FBFF35B8F0C9A0F
:103B9000012A7FF447AE01E0E0A60008D4F8F02047
:103BA0005FEA820C1CD0214604EB0212002016684A
:103BB0000D680E60566815604D684E6096685560D9
:103BC0008D688E6004309560D768CE68CF60ACEBAE
:103BD0000005A842A2F1100201F11001D661E6D35E
:103BE000BFF35B8FBFF35B8FD4F8F020012A7FF621
:103BF00019AE604A21464FF0010ED1E90460F7B2D8
:103C000007F580774FEA166C13F827708D690CF56D
:103C1000807C07F5407713F82CC052F8277052F8D3
:103C20002CC0C6F3074808F580788CEA0707C6F36E
:103C3000072C13F828800CF5807CC0F3074913F893
:103C40002C6008F5807C4FEA106852F82CC087EA97
:103C50000C075FFA80FC0CF5807C08F5807813F87F
:103C60002CC013F828A009F58079C0F3072000F5CF
:103C700080700CF5407C13F8299013F8208052F8DE
:103C80002CC052F82A0006F5007609F5807980EA02
:103C90000C0C08F5007052F8266052F8298052F892
:103CA000200077408CEA080CEEB28CEA00000F612D
:103CB0004FEA156CC5F3074706F5807648610CF5A9
:103CC000807C07F58077C5F3072013F8266013F88A
:103CD0002C8013F827C052F8285000F5807006F5A4
:103CE000407613F8207052F82660C8690CF5807C85
:103CF00007F5007752F82CC052F82770754085EA16
:103D00000C057D404FEA106CC7B2C0F307460CF5B6
:103D1000807C07F5807706F58076C0F307208D61FB
:103D200013F82CC013F8277013F8266000F5807084
:103D300007F5407713F8205052F8277052F82C00FE
:103D400006F5807605F5007552F8266052F8255084
:103D5000784070406840C861D4F8F0000EF1010E60
:103D6000864501F11001FFF448AF5BE5FDF752F91C
:103D70009BE400BFE0960008DA4B4FEA1C655FFA4F
:103D80008CFE05F5807553F82EE013F825500EF4DF
:103D90007F4E45EA0E057540CCF3074606F50076E2
:103DA00053F8266006F07F467540CCF3072606F5EB
:103DB000407653F8266006F47F06754085F08075DE
:103DC000684080EA070E82EA0E06C4E908E686EA41
:103DD000010E8CEA0E02C2F3072C0CF5407CC4E9FC
:103DE000065053F82CC00CF47F0C8CEA05055FFAE2
:103DF00082FCC4E90AE253F82CC00CF47F4C85EA3B
:103E00000C054FEA126C0CF5807C13F82CC085EA87
:103E10000C05C2F3074C0CF5007C53F82CC00CF0D9
:103E20007F4C85EA0C0585F0007587EA050C81EA70
:103E30000C0782EA070ECEF3072808F540786840A1
:103E400053F82880C4F844E008F47F08C4E90C5013
:103E500088EA05055FFA8EF8276453F82880C4F8CD
:103E600038C008F47F4885EA08054FEA1E68CEF39B
:103E7000074E08F580780EF5007E13F8288053F879
:103E80002EE085EA08050EF07F4E85EA0E0585F0E6
:103E90008065684086EA000E86EA0C06E66387EADB
:103EA0000E0782EA0E06C4E915E7C6F3072707F5F1
:103EB0004077C4E9125053F82770E66507F47F078E
:103EC0007D40F7B24FEA166853F8277007F47F4732
:103ED0007D40C6F3074708F5807807F500778CEA40
:103EE0000009C4F8509013F8288053F8277085EA29
:103EF000080507F07F477D4085F0006581EA0507EA
:103F000086EA0708C8F3072606F5407680EA050129
:103F100053F8266006F47F068CEA0500C4E91851C0
:103F200075405FFA88F64FEA186C53F82660A06671
:103F300006F47F467540C8F307460CF5807C06F50D
:103F4000007613F82CC053F8266085EA0C0506F0BD
:103F50007F46754085F0805581EA050C82EA0C02A7
:103F6000C2F3072101F54071C4E91E5C53F821102A
:103F7000C4F88C2001F47F014D40D1B2C4E91C7813
:103F800053F8211001F47F414D40110E01F580716D
:103F900013F821104D40C2F3074101F5007153F8A9
:103FA000211001F07F414D4085F0005580EA050663
:103FB00087EA060982EA0901C1F3072808F5407873
:103FC0005FFA81FA53F8288053F82AA0C4F8A410A5
:103FD00008F47F0888EA05080AF47F4A88EA0A0894
:103FE0004FEA116AC1F307410AF5807A01F50071C1
:103FF00013F82AA053F82110C4F8905088EA0A0850
:1040000001F07F4188EA01088CEA050588F08048C4
:1040100085EA08018EEA0C0AC4F894508EEA00057D
:1040200080EA0C00C4F880008AEA0100E56682EAB2
:1040300000058AEA060287EA0A07C4F89C2089EA92
:104040000002C4E921A7C4F89860C4F8A090C4F89D
:10405000A880C4F8B820C5F3072202F54072EFB279
:1040600053F8222053F82770C4F8BC5002F47F02A2
:1040700007F47F4782EA08027A402F0EC5F307450E
:1040800007F5807705F5007513F8277053F825506C
:10409000C4F8B40005F07F457A406A4002F100425E
:1040A00082EA0605C4F8C0204E404A406840C4E990
:1040B0003250C4F8AC10C4F8B060C4F8C420FFF7A4
:1040C000A9BB314618222046FCF7CEFF266836BA37
:1040D000FFF718BB6FF0AC00FFF7A5BB6FF0AC00AB
:1040E000704700BFE0A600082DE9F04F002695B00C
:1040F0000027CDE90867CDE90A67002800F0F480C1
:104100000C469046014610220CA80493FCF7ACFF25
:104110000C9B1ABA0D9B0D921BBA0C930E9B1ABAEC
:104120000F9B0F921BBA0E93B8F1000F00F089801D
:10413000002C00F086805FEA181308F00F0508BF16
:104140000DF1400B76D05E1E0DF1400B04EB031316
:10415000CDE90556CDF804B003930794A34646462F
:10416000594601981022FCF77FFF1198089B109D7B
:104170001399129CCDF808B000BA10905840099BD2
:104180002DBA11955D400A9B09BA129159400B9BBB
:104190004FF0000C24BA1394E6465C400DF1300A4F
:1041A000E146E046B346DAE900230AF1080A40276F
:1041B000CDF800A000EAE37A8AEA090905EAE37A81
:1041C0008AEA080801EAE37A921841F300068AEACB
:1041D0000C0C04EAE37A06F061464FEA51018AEAE0
:1041E0000E0E5B414FEAC07A013F4FEA500041EAB0
:1041F000C47140EAC5704AEA540486EA5505D9D12B
:10420000DDE900A35345CED15E46DDF808B0039B3F
:104210000BF1100B9B45CDE90898CDE90ACE9FD153
:10422000079C059DDDF804B0B046069E04F110031E
:1042300003EB0614002D5AD1DDE90805DDE90A1467
:1042400005E0DDE90805DDE90A140DF1400B4FF04A
:10425000000C81EAC80184EA58740DF1300AE64680
:10426000E046E146DAE900230AF1080A4027CDF8E2
:1042700000A000EAE37A8AEA080805EAE37A8AEA13
:10428000090901EAE37A921841F300068AEA0C0C64
:1042900004EAE37A06F061464FEA51018AEA0E0E1B
:1042A0005B414FEAC07A013F4FEA500041EAC471D6
:1042B00040EAC5704AEA540486EA5505D9D1DDF8CA
:1042C00000A0DA45CED199FA89F29EFA8EF198FAD9
:1042D00088F4CDE909419CFA8CF3089204980B9379
:1042E000102208A9FCF7C0FE15B0BDE8F08F10221F
:1042F00000215846FCF78EFE2A4621465846FCF718
:10430000B3FE109B089A93FA83FE119B1FBA129B6F
:104310005740099A93FA83FC139B8EEA020E0A9A7D
:104320001BBA83EA02060B9B00218CEA030C0DF1F9
:10433000300A0C4608460D46DAE900230AF1080A5D
:10434000CDE900AB4FF0400907EAE37B8BEA0000C0
:104350000EEAE37B8BEA050506EAE37B921846F357
:10436000000A8BEA01010CEAE37B0AF0614A4FEA9A
:1043700056068BEA04045B414FEAC77BB9F1010999
:104380004FEA570746EACC7647EACE774BEA5C0C11
:104390008AEA5E0ED8D1DDE900ABDA45CCD156E72A
:1043A00070B5A2F11005102D86B02BD8174BEB403D
:1043B000DB0727D530B329B315460E460446102235
:1043C000002102A8FCF726FE002300932A4602AB38
:1043D00031462046FFF746F9054698B9D4F8F03043
:1043E0005B085A1E062A0AD8094A009202A904F557
:1043F00092722046FEF700FA284606B070BD6FF0B4
:10440000E105F9E76FF0AC05F6E700BF0101010037
:10441000602000202DE9F04F4FF0000895B04FF0DC
:104420000009CDE90889CDE90A89002800F0EB8070
:1044300004920C461546014610220CA81F46FCF7B4
:1044400013FE0C9B1ABA0D9B0D921BBA0C930E9B7C
:104450001ABA0F9B0F921BBA0E93002D40F0D68014
:104460000DF1400B1E9B002B76D0002F74D003F073
:104470000F041B096DD05D1E07EB0316CDF800B0CD
:104480000394059502960697BB465946009810225C
:10449000FCF7EAFD1198089B109D1399129CCDF82A
:1044A00004B000BA10905840099B2DBA11955D4098
:1044B0000A9B09BA129159400B9B4FF0000C24BA89
:1044C0001394E6465C400DF1300AE146E046DAE935
:1044D000002340270AF1080A00EAE37B8BEA090976
:1044E00005EAE37B8BEA080801EAE37B921841F3D3
:1044F00000068BEA0C0C04EAE37B06F061464FEA07
:1045000051018BEA0E0E5B414FEAC07B013F4FEA3F
:10451000500041EAC47140EAC5704BEA540486EA8F
:104520005505D9D1009B5345D1D1DDF804B0029B8C
:104530000BF1100B9B45CDE90898CDE90ACEA4D12B
:10454000DDE90557039CDDF800B007F1100303EB2C
:104550000517002C40F03881DDE90805DDE90A1473
:10456000049B80EAC30085EA53751E9B4FF0000C44
:1045700081EAC30184EA53740DF1300AE646E0464D
:10458000E146DAE900230AF1080A4027CDF800A045
:1045900000EAE37A8AEA080805EAE37A8AEA09097E
:1045A00001EAE37A921841F300068AEA0C0C04EA65
:1045B000E37A06F061464FEA51018AEA0E0E5B414A
:1045C0004FEAC07A013F4FEA500041EAC47140EA25
:1045D000C5704AEA540486EA5505D9D1DDF800A031
:1045E000DA45CED198FA88F199FA89F0CDE9080137
:1045F0009CFA8CF39EFA8EF4209A1F9808A9CDE9B4
:104600000A43FCF731FD15B0BDE8F08F002C3FF4F4
:1046100027AF049B03F00F051B0908BF0DF1400BEA
:1046200076D05E1E0DF1400B04EB0313CDE9055669
:10463000CDF804B0039307943E46A346594601982B
:104640001022FCF711FD1198089B109D1399129CE4
:10465000CDF808B000BA10905840099B2DBA1195BA
:104660005D400A9B09BA129159400B9B4FF0000C18
:1046700024BA1394E6465C400DF1300AE146E04668
:10468000B346DAE900230AF1080A4027CDF800A072
:1046900000EAE37A8AEA090905EAE37A8AEA08087D
:1046A00001EAE37A921841F300068AEA0C0C04EA64
:1046B000E37A06F061464FEA51018AEA0E0E5B4149
:1046C0004FEAC07A013F4FEA500041EAC47140EA24
:1046D000C5704AEA540486EA5505D9D1DDE900A33C
:1046E0005345CED15E46DDF808B0039B0BF1100BAD
:1046F0005B45CDE90898CDE90ACE9FD1079C059D81
:10470000DDF804B03746069E04F1100303EB0614EF
:10471000002D3FF4A7AE102200215846FCF77AFC8A
:104720002A4621465846FCF79FFC119B109D129C7F
:10473000089A009718BA139B19BA099B2DBA5D40C5
:104740000A9B59400B9B4FF0000C24BAE6465040A0
:104750005C400DF1300AE146E046DAE900230AF157
:10476000080A4027CDF804A000EAE37A8AEA09099A
:1047700005EAE37A8AEA080801EAE37A921841F343
:1047800000068AEA0C0C04EAE37A06F061464FEA76
:1047900051018AEA0E0E5B414FEAC07A013F4FEAAF
:1047A000500041EAC47140EAC5704AEA540486EAFE
:1047B0005505D9D1DDF804A0D345CED1CDE908986F
:1047C000CDE90ACE009F4DE6102200215846FCF7A5
:1047D00021FC224639465846FCF746FC109B089AB5
:1047E00093FA83FE119B1FBA129B5740099A93FAC2
:1047F00083FC139B8EEA020E0A9A1BBA83EA020616
:104800000B9B00218CEA030C0DF1300A0C46084684
:104810000D46DAE900230AF1080A4FF04009CDF805
:1048200000A007EAE37A8AEA00000EEAE37A8AEA5D
:10483000050506EAE37A921846F300088AEA0101C0
:104840000CEAE37A08F061484FEA56068AEA040463
:104850005B414FEAC77AB9F101094FEA570746EAC7
:10486000CC7647EACE774AEA5C0C88EA5E0ED8D16D
:10487000DDF800A0D345CCD172E600BF2DE9F04FA2
:1048800095B01546DDF878C0DDE91F26002800F058
:104890000182BCF1000F00F0FD81002A00F0FA81D6
:1048A000002B40F0F381002E00F0F481219C102CAD
:1048B00000F2F081239C002C40F0EF81219C0B2C16
:1048C00040F2E88100240C2A04911F468046079498
:1048D0004FEA131961460DF1300A00F0F881534692
:1048E00000F59270FFF700FC1022514610A8FCF76B
:1048F000BBFBB9F1000F00F00783049B059703F1A0
:10490000100410350DF11C0B209604EB091729E05B
:1049100049EA0606B60700F03E81A4F11103A3EBB5
:104920000903022B40F2418155F8103C089A53408C
:1049300044F8103C55F80C3C099A534044F80C3CA0
:1049400055F8083C0A9A534044F8083C55F8043C92
:104950000B9A534044F8043C04F110039F424DD09D
:104960001C4610359DF83F300133DBB28DF83F30E7
:1049700093B99DF83E300133DBB28DF83E305BB920
:104980009DF83D300133DBB28DF83D3023B99DF801
:104990003C3001338DF83C30D8F8F0305B085A1EBB
:1049A000062A00F2A081CDF800B008AA5146404680
:1049B000A4F11006A5F11009FDF71EFF46EA090350
:1049C0009B07A5D155F8102C089B534044F8103C88
:1049D00055F80C3C099A534044F80C3C55F8082C07
:1049E0000A9B534044F8083C55F8042C0B9B534059
:1049F00044F8043C04F110039F42B1D1209E059F6E
:104A000017F00F0971D09DF83F300133DBB28DF8FC
:104A10003F3093B99DF83E300133DBB28DF83E3024
:104A20005BB99DF83D300133DBB28DF83D3023B9E1
:104A30009DF83C3001338DF83C30D8F8F0305B08FD
:104A40005A1E062A00F24F81514607AA0DF1200A8C
:104A5000009240465246FDF7CFFE44EA0503980710
:104A6000A446AB4600F0278245EA0403990700F00C
:104A70005D8109F1FF33032B40F28A81631E5B1BCA
:104A8000022B40F24E822B68089A534023604FEA73
:104A90009903012B00F032826A680999032B82EA9C
:104AA0000102626003D1AB680A9A5340A36007F029
:104AB0000C03994519D0A9EB03091C441D440AEBCA
:104AC000030213782978B9F1010F83EA01032370F7
:104AD0000BD053786978B9F1020F83EA0103637050
:104AE00003D09378AA785340A370219B0097CDE917
:104AF0000163DDE92212049B08F59270FFF78AFC3E
:104B0000D8F8F0305B085A1E062A00F2EC8007AA9B
:104B100008AD009210A92A464046FDF76DFEB20787
:104B200040F0C080219B23F00303EA18954229D26C
:104B3000013B9A08541C670806EBC7073346294611
:104B40009646BC46D1E900701A6857405A681F6003
:104B50005040586008339C4501F10801F2D1E30749
:104B6000724609D524F001040DEB8403196A56F846
:104B700024304B4046F82430331D043503EB8206C5
:104B800005EB8205219B13F0030240F0BA80002060
:104B900015B0BDE8F08F55F8102C089B534044F831
:104BA000103C55F80C2C099B15E715F8102C9DF8B6
:104BB0002030534004F8103C15F80F2C9DF821309C
:104BC000534004F80F3C15F80E2C9DF8223053404A
:104BD00004F80E3C15F80D2C9DF82330534004F8D2
:104BE0000D3C15F80C2C9DF82430534004F80C3C77
:104BF00015F80B2C9DF82530534004F80B3C15F8A4
:104C00000A2C9DF82630534004F80A3C15F8092C6C
:104C10009DF82730534004F8093C15F8082C9DF8FE
:104C20002830534004F8083C15F8072C9DF829302B
:104C3000534004F8073C15F8062C9DF82A305340E1
:104C400004F8063C15F8052C9DF82B30534004F869
:104C5000053C15F8042C9DF82C30534004F8043C16
:104C600015F8032C9DF82D30534004F8033C15F83B
:104C7000022C9DF82E30534004F8023C15F8012C0C
:104C80009DF82F30534004F8013C65E615B100292A
:104C90007FF409AE6FF0AC007AE7229C002C7FF421
:104CA0000DAEF7E7316808987268B368414031602B
:104CB00009994A407260219A0A9992084B40042A45
:104CC000B36015D1F3680B9A5340F3605FE7504629
:104CD000FCF7CAF9214603220FA8FCF79BF9012330
:104CE0008DF83F3000E66FF0E10015B0BDE8F08FC1
:104CF000219B0C2BA3F10C0206F10C063FF447AFED
:104D00000BAD2B783178012A83EA010333703FF42D
:104D10003EAF73786978022A83EA010373703FF427
:104D200036AFAB78B2785340B37030E709F00C0976
:104D30000AEB0901514525D909F1FF3EBEF10F0FDC
:104D400040F2E480631B042B00F0E08029465046CB
:104D500003680A68D1F804905A4043682260083119
:104D600083EA09038D42636000F1080004F108043E
:104D7000EED12EF003031D1D0AF1040A0CEB05040D
:104D80009A445D4417F003093FF4AFAE09F1FF33D5
:104D900029789AF800204A402270002B3FF4A5AEF3
:104DA0000AF101016B1C621C18780B78B9F1020F33
:104DB00083EA000313703FF498AEAA789AF80230A1
:104DC000B9F1030F83EA0203A3703FF48EAEEA78D1
:104DD0009AF80330B9F1040F83EA0203E3703FF459
:104DE00084AE2A799AF80430B9F1050F83EA0203F8
:104DF00023713FF47AAE6A799AF80530B9F1060F5B
:104E000083EA020363713FF470AEAA799AF8063020
:104E1000B9F1070F83EA0203A3713FF466AEEA79A2
:104E20009AF80730B9F1080F83EA0203E3713FF4FF
:104E30005CAE2A7A9AF80830B9F1090F83EA0203C6
:104E400023723FF452AE6A7A9AF80930B9F10A0F28
:104E500083EA020363723FF448AEAA7A9AF80A30F2
:104E6000B9F10B0F83EA0203A3723FF43EAEEA7A74
:104E70009AF80B30B9F10C0F83EA0203E3723FF4A6
:104E800034AE2A7B9AF80C30B9F10D0F83EA020395
:104E900023733FF42AAE6A7B9AF80D30B9F10E0FF6
:104EA00083EA020363733FF420AEAA7B9AF80E30C4
:104EB0005340A37319E609F00C090AEB09015145A7
:104EC0007FF660AF09F1FF3EBEF10F0F35D9631BCE
:104ED000042B32D02B46504602681968D3F8049050
:104EE000514042682160083382EA09029D426260B3
:104EF00000F1080004F10804EED13AE7A9F1040931
:104F00000434043509AADCE5049C79E5524655F8D9
:104F1000040B52F8043B4340914244F8043BF6D85A
:104F200027E72B469DF8202013F8011B514022460D
:104F300002F8011B0DF1210136E7524655F8040B2A
:104F400052F8043B4340914244F8043BF6D810E742
:104F50002DE9F04F99B01546229FDDE92326002860
:104F600000F02B82002F00F028820C46002B40F02E
:104F70002082002E00F0218225990C39042900F2AC
:104F80001C82002A00F019820C2A059380463946BB
:104F90000DF1500A00F0148200F59277534638461E
:104FA000FFF7A2F8059B0093102302930CABDDE9F9
:104FB0002612019338462B46FFF72CFAD8F8F0302A
:104FC0005B085A1E062A00F20982DFF8A0B4CDF869
:104FD00000B010AA51464046059FFDF70DFCDDE9E3
:104FE0000C3110980E9A43400C93119B4B400D933B
:104FF000129B53400E930F9A139B3F0953400F93FC
:10500000002F7CD010342496103504EB071629E0CD
:1050100049EA0707BA0700F04281A4F11103A3EBA4
:105020000903022B40F25481DDE9081255F8103CC7
:105030004B4044F8103C55F80C3C534044F80C3CB1
:10504000DDE90A1255F8083C4B4044F8083C55F895
:10505000043C534044F8043C04F11003B3424DD0E7
:1050600010351C469DF85F300133DBB28DF85F30A0
:1050700093B99DF85E300133DBB28DF85E305BB9D9
:105080009DF85D300133DBB28DF85D3023B99DF8BA
:105090005C3001338DF85C30D8F8F0305B085A1E74
:1050A000062A00F29B815146CDF800B0A4F110070A
:1050B000A5F1100908AA4046FDF79EFB47EA09033F
:1050C0009907A5D155F8102C089B534044F8103C83
:1050D00055F80C2C099B534044F80C3C55F8082C0F
:1050E0000A9B534044F8083C55F8042C0B9B534052
:1050F00044F8043C04F11003B342B1D1249E059B53
:1051000013F00F0761D09DF85F300133DBB28DF8EB
:105110005F3093B99DF85E300133DBB28DF85E30BD
:105120005BB99DF85D300133DBB28DF85D3023B99A
:105130009DF85C3001338DF85C30D8F8F0305B08B6
:105140005A1E062A00F24A814046CDF800B0514668
:1051500008AAFDF751FBAB07A84600F044817B1E6F
:10516000022B40F27F81089A2B685340BA08012A2B
:1051700008930AD009996B68032A83EA010309930B
:1051800003D10A9AAB6853400A93059B03F00C03C2
:105190009F4215D008AA1D44F91A13442A7818789A
:1051A000012982EA00021A700AD06A785878022926
:1051B00082EA00025A7003D0A9789A784A409A701D
:1051C0003A4608A92046FBF74FFF9DF83010337888
:1051D00072784B409DF831104A401343B1789DF8E6
:1051E000322051400B43F2789DF833104A4013436C
:1051F0009DF83410327951400B439DF83520717978
:105200004A4013439DF83610B27951400B43F2796E
:105210009DF837104A4013439DF83810327A5140B8
:105220000B43727A9DF839104A4013439DF83A10A7
:10523000B27A51400B43F27A9DF83B104A40134337
:10524000259A0C2A1CD0327B9DF83C104A4013430F
:10525000259A0D2A14D0727B9DF83D104A401343C5
:10526000259A0E2A0CD0B27B9DF83E104A4013437B
:10527000259A102A04D1F27B9DF83F104A4013432F
:105280000793079B002BD4BF002301235B420793A6
:10529000079B079820F0B30019B0BDE8F08F55F8D0
:1052A000102C089B534044F8103C55F80C2C099BDB
:1052B000534044F80C3C55F8083C0A9A534044F8D3
:1052C000083C55F8043C0B9A534044F8043CC3E6B0
:1052D00015F8102C9DF82030534004F8103C15F8B8
:1052E0000F2C9DF82130534004F80F3C15F80E2C7C
:1052F0009DF82230534004F80E3C15F80D2C9DF813
:105300002330534004F80D3C15F80C2C9DF8243044
:10531000534004F80C3C15F80B2C9DF825305340F5
:1053200004F80B3C15F80A2C9DF82630534004F87D
:105330000A3C15F8092C9DF82730534004F8093C25
:1053400015F8082C9DF82830534004F8083C15F84F
:10535000072C9DF82930534004F8073C15F8062C1B
:105360009DF82A30534004F8063C15F8052C9DF8AA
:105370002B30534004F8053C15F8042C9DF82C30D4
:10538000534004F8043C15F8032C9DF82D3053408D
:1053900004F8033C15F8022C9DF82E30534004F815
:1053A000023C15F8012C9DF82F30534004F8013CC5
:1053B00052E615B100297FF4DCAD6FF0AC006BE76D
:1053C0005046FBF751FE0322002117A8FBF722FEEF
:1053D00001238DF85F3008F59277E3E56FF0E10087
:1053E00019B0BDE8F08F07F00C03EA18954235D2EA
:1053F000013B032B4FEA930E32D00EF101004FEA2E
:10540000500C05EBCC0C2A4608AB81461868116895
:1054100041401960586851680832414094455960CC
:1054200003F10803F2D119F0010F0AD029F00103AA
:1054300008AA05EB830502EB830329681A684A4032
:105440001A6008EB8E0809AB08F1040503EB8E0324
:10545000059A12F003017FF4A1AEB1E608ABF7E7BD
:1054600008ABEAE7394608AB98E600BF60200020A9
:1054700070B110B582B00C464FF49C7200210190BF
:10548000FBF7C8FD019B0020C3F8344102B010BDFA
:105490006FF0AC00704700BF002846D010B58207FF
:1054A0008446BFF35B8F41D000F59C71002300F868
:1054B000013B10F0030202D08142F8D110BDC0F5CB
:1054C0009C7EE644BEF1030F1FD9AEF10403032B0B
:1054D00031D99A08541C4FEA540C034600EBCC0C0B
:1054E0000021C3E9001108339C45FAD1E30707D531
:1054F00024F00103C3EB8373A0EB83030021196045
:1055000004300EF0030E00EB8200BEF1000F09D054
:105510000023BEF1010F037004D0BEF1020F4370EF
:1055200018BF8370BFF35B8F10BD70474D224E24B0
:105530004FF49C7ECFE70346E0E700BFA0B199B1EE
:1055400070B5002584B00446164605640C2201A8F7
:10555000FBF78AFDDDE90132C4E90C63039B2846B1
:10556000C4E90E2304B070BD6FF0AC00704700BFFB
:10557000002800F0AD802DE9F04F0C468DB00029D9
:1055800000F0A380102A02D0202A40F09E80164608
:10559000A207054640F09280A2465AF8043B2B61D0
:1055A0001AF0030940F0818063686B6114F003080E
:1055B00004F1080B70D1A368AB6114F0030704F188
:1055C0000C0301935ED1E368EB61202E1FD0A3078B
:1055D000414E2BD123682B62B9F1000F32D16368A1
:1055E0006B62B8F1000F39D1A368AB62002F40D1D4
:1055F000E368EB6233682B6073686B60B368AB6021
:10560000F368EB60002028640DB0BDE8F08F04F172
:105610001C0304F0030704F1140A04F1180B1034FE
:105620000193A3072D4EB846B946D3D000230422D8
:10563000214603A80393FBF717FD039B2B62B9F1E7
:10564000000FCCD000235146042203A80393FBF79C
:105650000BFD039B6B62B8F1000FC5D000235946C8
:10566000042203A80393FBF7FFFC039BAB62002F0C
:10567000BED0002301990393042203A8FBF7F4FC96
:10568000039BB6E70023042204F10C0103A8039353
:10569000FBF7EAFC039B97E700230422594603A883
:1056A0000393FBF7E1FC039B86E7002304225146AA
:1056B00003A80393FBF7D8FC039B76E72146324609
:1056C00004A8FBF7D1FC04AC66E76FF0AC009BE7E5
:1056D0006FF0AC00704700BF08B7000818B70008AB
:1056E0002DE9F04FA3B00C910E93002800F0B38782
:1056F0001746002A00F0AF87002900F0AC871A4651
:10570000002B00F06583036C0D90002B40F0778434
:105710003F2A40F2BE8712AB08930C9B0E9A079368
:105720000D9D069713440B930F9740222946089826
:10573000FBF79AFC17991C9C099100942199199CDC
:105740001A9F1898049101940A24039005940297D3
:10575000169B1E9ADDF84CA0DDF848C0DDF87CE011
:10576000DDF85090DDF86CB02098DDF854801D997C
:10577000049C099F0A95019D039E9C44A844029D98
:105780008CEA020205EB32450295B144009D89EA9C
:10579000000005EB30450095029D6B40009DBA442A
:1057A00075408AEA0E0E03950BEB3E4B0CEB335C17
:1057B00009EB3559029D019E88EA04048BEA07072C
:1057C0008CEA3242019201EB34410AEB375A05EB85
:1057D0003262009D00924E4082EA33528AEA3E4E87
:1057E000039B029289EA304008EB36580BEB3E6B84
:1057F00005EB306588EA34448BEA375785EA335342
:1058000008EB7268019A01EB34610CEB776C0AEBE0
:10581000736A8AEA326281EA36568CEA3464039209
:1058200009EB766905EB344501EB3241009A89EAD0
:105830003E6E85EA776702EB3E420CEB375C0192E5
:1058400088EA306082EA76668CEA3444029A0BEB8E
:10585000304B05EB34658BEA7262009509EB3659E3
:10586000019D049281EA736308EB325889EA3E4E47
:10587000039A05EB3E650AEB335A02958AEA3242F7
:10588000009D01EB326185EA375781EA3355029B6F
:105890004FEA756583EA365603954FEA7665049BB1
:1058A000019588EA3040059D0BEB306B8BEA335352
:1058B000013D4FEA34644FEA77674FEA32624FEABC
:1058C0003E6E4FEA30604FEA736305957FF453AF45
:1058D0000A9D04945E46E346D5F830C062441E92A9
:1058E0002A6893446A68CDF848B052441392AA6873
:1058F0004A441492EA68424415922A691A446B6930
:1059000016923C462344039A1793AB69029F1344B3
:105910001893019AEB69134419932B6A009A3B443C
:105920001A936B6A33441B93AB6A13441C93EB6A60
:105930000B441D936B6B049C73441F93AB6B03442C
:105940002093EB6B1C44DDE9062313430CF1010C9F
:105950009F07219402F14000C5F830C000F03C825E
:10596000079B534013439E07144600F08982079912
:105970004B1E9A1A022A40F21483089A9B1A022B91
:1059800040F20F83236883EA0B030B606268139B6A
:1059900053404B60A268149B53408B60E268159B98
:1059A0005340CB602269169B53400B616269179B81
:1059B00053404B61A269189B53408B61E269199B6C
:1059C0005340CB61226A1A9B53400B62626A1B9B55
:1059D00053404B62A26A1C9B53408B62E26A1D9B40
:1059E0005340CB62226B1E9B53400B63626B1F9B29
:1059F00053404B63A26B209B53408B63E36B219A14
:105A0000534001F1400ECB630B9BCDF81CE0A3EBA0
:105A10000E033F2B01D9069087E60E990F9FA1F147
:105A2000400307F1400223F03F039F1821F03F039A
:105A30000A460C99194402F03F030C910993002B7C
:105A400000F0C6810D9908984022FBF70DFB0A2350
:105A50000793179B0393189B1A9E2199DDF87CC02E
:105A60001C9C0193199B1B9D0293DDF848B01D9B64
:105A70001698DDF878E0DDF84CA0DDF85090209A1B
:105A8000DDF8548000930A970B463746059521466A
:105A90006646019D039CA944029D8344A8448EEA66
:105AA0000B0507EB354EA244059F049586EA0A06CE
:105AB00089EA020207EB3647039701EB3247009968
:105AC00088EA030301EB33458EEA00010398604046
:105AD00005900298019C85EA000C05980AEB305A63
