:020000040800F2
:100000000000022055580008215300082153000821
:1000100021530008215300082153000878B163B927
:1000200020290CD108B511461A46002311F0DEFE36
:10003000003818BF0120404208BD002AF0D14FF01F
:10004000FF30704703000000E83C0108000000009A
:10005000200000001D00000800000000000000005B
:100060000000000000000000000000000F2B17D966
:1000700030B5A3F1100485B01319CDE902300D4657
:10008000CDE90024DDE90A10DDE9082311F06AF961
:1000900005B12C60003818BF0120404205B030BDCA
:1000A0004FF0FF30704700BF30B585B01C46C31815
:1000B0000D46CDE9014003930092DDE90A10099B4A
:1000C000089A11F099F80DB110342C60003818BF5F
:1000D0000120404205B030BD10B50C46202107F08C
:1000E000EFF840B90C21204607F0EAF8003818BFB5
:1000F0000120404210BD4FF0FF3010BD060000004F
:10010000C03C0108200000000C00000010000000AE
:1001100095720008D9000008A90000086D000008C9
:10012000F0B59FB0044604A80D4616461F460AF0D7
:100130003BFA08BB249804AA20210AF0F1FAC0B9BE
:1001400004AB0DF10C0C0390019320463B46324664
:100150002946CDF800C00AF015FA044604A80AF0B2
:1001600037FA4CB90398013818BF4FF0FF301FB071
:10017000F0BD04A80AF02CFA4FF0FF30F7E700BFFB
:100180002DE9F0419EB004AC064620460D461746C8
:1001900098460AF009FA10BB249A24980094202368
:1001A0001A4419460AF0FAFAB0B9402332460393CA
:1001B00000944146384603AB0AF0ECF806460DB110
:1001C000039B2B6020460AF003FA301E18BF012063
:1001D00040421EB0BDE8F08120460AF0F9F94FF028
:1001E000FF30F6E770B59CB005460E4607F08AF87A
:1001F00038B3044602A80AF0D7F910BB02AA204679
:10020000202109F057FFC8B940232022CDE900235F
:1002100029466A4602A80AF0E1F901AA05463146D4
:1002200002A80AF0FBF904462C4302A80AF0D0F910
:10023000201E18BF012040421CB070BD02A80AF069
:10024000C7F94FF0FF30F7E70A000000AC3C0108A7
:10025000E5010008810100082101000808B512F03D
:100260003DFA003818BF0120404208BD08B512F021
:100270000DFA003818BF0120404208BD08B512F041
:10028000DFF9003818BF0120404208BD0F00000010
:10029000F83C01087D0200086D0200085D020008BC
:1002A00070B5AEB0064602A80D46144611F0C6FC65
:1002B00078B918A811F0C2FC58BB204602AA202128
:1002C00011F08CFC48B102A811F0CEFC18A811F076
:1002D000CBFC4FF0FF302EB070BD18AA284620216D
:1002E00011F03CFC0028EED1202101AB32460191F7
:1002F00002A818A911F0EAFB044602A811F0B4FC08
:1003000018A811F0B1FC201E18BF012040422EB0E9
:1003100070BD02A811F0A8FCDBE700BF70B598B073
:1003200005460E4606F0EEFF30B3044602A811F073
:1003300085FC08BB02AA2046202111F019FBC0B998
:10034000202329466A4602A8CDE9003311F0C8FBF4
:1003500001AA0546314602A811F020FC04462C43B0
:1003600002A811F081FC201E18BF0120404218B0E5
:1003700070BD02A811F078FC4FF0FF30F7E700BF26
:1003800013000000D43C01081D030008A10200086E
:10039000B2F1000FB0F9003018BF4FEA0103A0F826
:1003A000003070472DE9F04F40F2190EF8C9B2E85D
:1003B000001FD3FA48F3D4FA49F4D5FA4AF5D6FA2D
:1003C0004BF6D7FA4CF7F8C0BEF1010E7FF4EEAF52
:1003D00038C9B2E80007D3FA48F3D4FA49F4D5FA99
:1003E0004AF538C0BDE8F08F2DE9F04F40F2190E04
:1003F000F8C9B2E8001F93FA48F394FA49F495FA61
:100400004AF596FA4BF697FA4CF7F8C0BEF1010E92
:100410007FF4EEAF38C9B2E8000793FA48F394FAD4
:1004200049F495FA4AF538C0BDE8F08F2DE9F04F50
:1004300040F2400E51F8044B52F8046B51F8045B43
:1004400052F8047BD3F804B053F808CB2CFB06FC1D
:1004500040F804CB24FB16FC40F804CB2BFB07FC34
:1004600040F804CB25FB17FC40F804CBBEF1010E8D
:100470007FF4E0AFBDE8F08F2DE9F04F40F2400E81
:1004800051F8044B52F8046BD0F8005053F804CBE9
:10049000D0F804702CFB065C40F804CB24FB167BE0
:1004A00040F804BB51F8044B52F8046BD0F80050EC
:1004B00053F804CBD0F804702CFB065C40F804CB56
:1004C00024FB167B40F804BBBEF1010E7FF4D8AFCD
:1004D000BDE8F08F2DE9F04F46F60809C0F6015847
:1004E0004FF2013AC6F6A83ADDF824B040F2400EC9
:1004F00051F8044B52F8046B5BF8045B53F804CBDF
:100500005BF8047B2CFB065505FB0AF515FB3895BB
:1005100024FB167707FB0AF717FB3897C7EA254530
:1005200040F8045B51F8044B52F8046B5BF8045B31
:1005300053F804CB5BF8047B2CFB065505FB0AF54E
:1005400015FB389524FB167707FB0AF717FB38973E
:10055000C7EA254540F8045BBEF1010E7FF4C8AF41
:10056000BDE8F08F2DE9F04F2DED088AC0F6015C53
:10057000B1EC0F4A00F5007E04EE10EA0BEE900A93
:10058000D0F82020D0F82430D0F82840D0F82C50D3
:10059000D0F83060D0F83470D0F83880D0F83C9083
:1005A00046F6080092FA03FED2FA03F394FA05FB2A
:1005B000D4FA05F596FA07F2D6FA07F798FA09F48D
:1005C000D8FA09F99EFA0BF8DEFA0BFB92FA04F658
:1005D000D2FA04F415EE10AA3AFB05FE3AFB15F523
:1005E0001EFB1C0E15FB1C05C5EA2E4ED3FA4EF55C
:1005F00093FA4EF33AFB09FE3AFB19F91EFB1C0E67
:1006000019FB1C09C9EA2E4ED7FA4EF997FA4EF794
:1006100098FA06F2D8FA06F616EE10AA3AFB07FE8A
:100620003AFB17F71EFB1C0E17FB1C07C7EA2E4EE2
:10063000D3FA4EF793FA4EF316EE90AA3AFB04FE65
:100640003AFB14F41EFB1C0E14FB1C04C4EA2E4ED1
:10065000DBFA0EF89BFA0EF417EE10AA3AFB09FE2D
:100660003AFB19F91EFB1C0E19FB1C09C9EA2E4E98
:10067000D5FA4EF995FA4EF518EE10BA3BFB03FE8B
:100680003BFB13F31EFB1C0E13FB1C03C3EA2E43A0
:1006900018EE90AA19EE10BA3AFB04FE3AFB14F4D5
:1006A0001EFB1C0E14FB1C04C4EA2E443BFB05FE7F
:1006B0003BFB15F51EFB1C0E15FB1C05C5EA2E4564
:1006C00019EE90AA1AEE10BA3AFB06FE3AFB16F69D
:1006D0001EFB1C0E16FB1C06C6EA2E463BFB07FE45
:1006E0003BFB17F71EFB1C0E17FB1C07C7EA2E4728
:1006F0001AEE90AA1BEE10BA3AFB08FE3AFB18F865
:100700001EFB1C0E18FB1C08C8EA2E483BFB09FE0A
:100710003BFB19F91EFB1C0E19FB1C09C9EA2E49EB
:1007200000EE102A00EE903A01EE104A01EE905AC7
:1007300002EE106A02EE907A03EE108A03EE909AAF
:100740001BEE900AD0F80020D0F80430D0F8084012
:10075000D0F80C50D0F81060D0F81470D0F8188091
:10076000D0F81C9046F6080092FA03FED2FA03F382
:1007700094FA05FBD4FA05F596FA07F2D6FA07F7CC
:1007800098FA09F4D8FA09F99EFA0BF8DEFA0BFB8D
:1007900092FA04F6D2FA04F415EE10AA3AFB05FE1A
:1007A0003AFB15F51EFB1C0E15FB1C05C5EA2E4E6B
:1007B000D3FA4EF593FA4EF33AFB09FE3AFB19F9D8
:1007C0001EFB1C0E19FB1C09C9EA2E4ED7FA4EF966
:1007D00097FA4EF798FA06F2D8FA06F616EE10AA2D
:1007E0003AFB07FE3AFB17F71EFB1C0E17FB1C0714
:1007F000C7EA2E4ED3FA4EF793FA4EF316EE90AAAE
:100800003AFB04FE3AFB14F41EFB1C0E14FB1C0402
:10081000C4EA2E4EDBFA0EF89BFA0EF417EE10AA7D
:100820003AFB09FE3AFB19F91EFB1C0E19FB1C09C9
:10083000C9EA2E4ED5FA4EF995FA4EF51BEE900AFE
:1008400010EE90BA93FA4BFED3FA4BF3C0F804E0E3
:10085000C0F8243011EE90BA95FA4BFED5FA4BF55C
:10086000C0F80CE0C0F82C5012EE90BA97FA4BFE8C
:10087000D7FA4BF7C0F814E0C0F8347013EE90BA12
:1008800099FA4BFED9FA4BF9C0F81CE0C0F83C903D
:1008900011EE105A94FA45FED4FA45FBC0F808E070
:1008A000C0F828B012EE107A96FA47FED6FA47FB47
:1008B000C0F810E0C0F830B013EE109A98FA49FE74
:1008C000D8FA49FBC0F818E0C0F838B010EE103A7A
:1008D00092FA43FED2FA43FBC0F820B040F840EB56
:1008E00014EE10EAB0EB0E0F7FF448AEA0F50070E6
:1008F00003EE100AD0F80020D0F84030D0F8804045
:10090000D0F8C050D0F80061D0F84071D0F88081A4
:10091000D0F8C091B1EC060A46F608004AF6B87A5B
:10092000C0F2130A3AFB02FE3AFB12F21EFB1C0E47
:1009300012FB1C02C2EA2E423AFB03FE3AFB13F3FF
:100940001EFB1C0E13FB1C03C3EA2E433AFB04FEE2
:100950003AFB14F41EFB1C0E14FB1C04C4EA2E44C8
:100960003AFB05FE3AFB15F51EFB1C0E15FB1C059C
:10097000C5EA2E453AFB06FE3AFB16F61EFB1C0E98
:1009800016FB1C06C6EA2E463AFB07FE3AFB17F793
:100990001EFB1C0E17FB1C07C7EA2E473AFB08FE7E
:1009A0003AFB18F81EFB1C0E18FB1C08C8EA2E4860
:1009B0003AFB09FE3AFB19F91EFB1C0E19FB1C0938
:1009C000C9EA2E4992FA03FED2FA03F394FA05FB20
:1009D000D4FA05F596FA07F2D6FA07F798FA09F469
:1009E000D8FA09F99EFA0BF8DEFA0BFB92FA04F634
:1009F000D2FA04F410EE90AA3AFB05FE3AFB15F584
:100A00001EFB1C0E15FB1C05C5EA2E4ED3FA4EF537
:100A100093FA4EF33AFB09FE3AFB19F91EFB1C0E42
:100A200019FB1C09C9EA2E4ED7FA4EF997FA4EF770
:100A300098FA06F2D8FA06F611EE90AA3AFB07FEEB
:100A40003AFB17F71EFB1C0E17FB1C07C7EA2E4EBE
:100A5000D3FA4EF793FA4EF312EE10AA3AFB04FEC5
:100A60003AFB14F41EFB1C0E14FB1C04C4EA2E4EAD
:100A7000DBFA0EF89BFA0EF412EE90AA3AFB09FE8E
:100A80003AFB19F91EFB1C0E19FB1C09C9EA2E4E74
:100A9000D5FA4EF995FA4EF5F1E802AB3AFB02FEB3
:100AA0003AFB12F21EFB1C0E12FB1C02C2EA2E4283
:100AB0003BFB03FE3BFB13F31EFB1C0E13FB1C0353
:100AC000C3EA2E43F1E802AB3AFB04FE3AFB14F40E
:100AD0001EFB1C0E14FB1C04C4EA2E443BFB05FE4B
:100AE0003BFB15F51EFB1C0E15FB1C05C5EA2E4530
:100AF000F1E802AB3AFB06FE3AFB16F61EFB1C0EB3
:100B000016FB1C06C6EA2E463BFB07FE3BFB17F70F
:100B10001EFB1C0E17FB1C07C7EA2E47F1E802ABB1
:100B20003AFB08FE3AFB18F81EFB1C0E18FB1C08CB
:100B3000C8EA2E483BFB09FE3BFB19F91EFB1C0EC5
:100B400019FB1C09C9EA2E4913EE100AC0F800610E
:100B5000C0F84071C0F88081C0F8C091C0F8403042
:100B6000C0F88040C0F8C05040F8042B00F13C0EA3
:100B700007EE10EA03EE100AD0F80020D0F840305B
:100B8000D0F88040D0F8C050D0F80061D0F8407163
:100B9000D0F88081D0F8C09146F6080051F804AB37
:100BA0003AFB03FE3AFB13F31EFB1C0E13FB1C0364
:100BB000C3EA2E4ED2FA4EF392FA4EF23AFB05FEFB
:100BC0003AFB15F51EFB1C0E15FB1C05C5EA2E4E47
:100BD000D4FA4EF594FA4EF43AFB07FE3AFB17F7B7
:100BE0001EFB1C0E17FB1C07C7EA2E4ED6FA4EF74B
:100BF00096FA4EF63AFB09FE3AFB19F91EFB1C0E5B
:100C000019FB1C09C9EA2E4ED8FA4EF998FA4EF88B
:100C1000F1E802AB3AFB04FE3AFB14F41EFB1C0E97
:100C200014FB1C04C4EA2E4ED2FA4EF492FA4EF291
:100C30003BFB05FE3BFB15F51EFB1C0E15FB1C05C7
:100C4000C5EA2E4ED3FA4EF593FA4EF33AFB08FE60
:100C50003AFB18F81EFB1C0E18FB1C08C8EA2E4EA7
:100C6000D6FA4EF896FA4EF63BFB09FE3BFB19F915
:100C70001EFB1C0E19FB1C09C9EA2E4ED7FA4EF9B1
:100C800097FA4EF7F1E802AB3AFB06FE3AFB16F68E
:100C90001EFB1C0E16FB1C06C6EA2E4ED2FA4EF6A2
:100CA00092FA4EF23BFB07FE3BFB17F71EFB1C0EB6
:100CB00017FB1C07C7EA2E4ED3FA4EF793FA4EF3F2
:100CC000F1E802AB3AFB08FE3AFB18F81EFB1C0EDB
:100CD00018FB1C08C8EA2E4ED4FA4EF894FA4EF4CB
:100CE0003BFB09FE3BFB19F91EFB1C0E19FB1C0903
:100CF000C9EA2E4ED5FA4EF995FA4EF5F1E802AB57
:100D00003AFB02FE3AFB12F21EFB1C0E12FB1C0207
:100D1000C2EA2E423BFB03FE3BFB13F31EFB1C0E01
:100D200013FB1C03C3EA2E43F1E802AB3AFB04FEBB
:100D30003AFB14F41EFB1C0E14FB1C04C4EA2E44E4
:100D40003BFB05FE3BFB15F51EFB1C0E15FB1C05B6
:100D5000C5EA2E45F1E802AB3AFB06FE3AFB16F671
:100D60001EFB1C0E16FB1C06C6EA2E463BFB07FEAE
:100D70003BFB17F71EFB1C0E17FB1C07C7EA2E4791
:100D8000F1E802AB3AFB08FE3AFB18F81EFB1C0E1A
:100D900018FB1C08C8EA2E483BFB09FE3BFB19F96F
:100DA0001EFB1C0E19FB1C09C9EA2E4913EE100A82
:100DB000C0F80061C0F84071C0F88081C0F8C091EF
:100DC000C0F84030C0F88040C0F8C05040F8042B54
:100DD00017EE10EAB0EB0E0F7FF4CCAEBDEC088A34
:100DE000BDE8F08F2DE9F04F2DED098AC0F6015CCA
:100DF000B1EC0F4A00F1200E0CEE10EA0BEE900A57
:100E0000D0F82020D0F86030D0F8A040D0F8E050E2
:100E1000D0F82061D0F86071D0F8A081D0F8E091CE
:100E200046F6080014EE10AA3AFB06FE3AFB16F648
:100E30001EFB1C0E16FB1C06C6EA2E4ED2FA4EF600
:100E400092FA4EF23AFB07FE3AFB17F71EFB1C0E16
:100E500017FB1C07C7EA2E4ED3FA4EF793FA4EF350
:100E60003AFB08FE3AFB18F81EFB1C0E18FB1C0888
:100E7000C8EA2E4ED4FA4EF894FA4EF43AFB09FE24
:100E80003AFB19F91EFB1C0E19FB1C09C9EA2E4E70
:100E9000D5FA4EF995FA4EF514EE90AA15EE10BA61
:100EA0003AFB04FE3AFB14F41EFB1C0E14FB1C045C
:100EB000C4EA2E4ED2FA4EF492FA4EF23AFB05FEF6
:100EC0003AFB15F51EFB1C0E15FB1C05C5EA2E4E44
:100ED000D3FA4EF593FA4EF33BFB08FE3BFB18F8B2
:100EE0001EFB1C0E18FB1C08C8EA2E4ED6FA4EF844
:100EF00096FA4EF63BFB09FE3BFB19F91EFB1C0E56
:100F000019FB1C09C9EA2E4ED7FA4EF997FA4EF78B
:100F100015EE90AA16EE10BA3AFB03FE3AFB13F355
:100F20001EFB1C0E13FB1C03C3EA2E4ED2FA4EF31B
:100F300092FA4EF23BFB05FE3BFB15F51EFB1C0E29
:100F400015FB1C05C5EA2E4ED4FA4EF594FA4EF464
:100F500016EE90AA17EE10BA3AFB07FE3AFB17F707
:100F60001EFB1C0E17FB1C07C7EA2E4ED6FA4EF7C7
:100F700096FA4EF63BFB09FE3BFB19F91EFB1C0ED5
:100F800019FB1C09C9EA2E4ED8FA4EF998FA4EF808
:100F900017EE90AA18EE10BA3AFB02FE3AFB12F2D4
:100FA0001EFB1C0E12FB1C02C2EA2E423BFB03FE80
:100FB0003BFB13F31EFB1C0E13FB1C03C3EA2E4367
:100FC00018EE90AA19EE10BA3AFB04FE3AFB14F49C
:100FD0001EFB1C0E14FB1C04C4EA2E443BFB05FE46
:100FE0003BFB15F51EFB1C0E15FB1C05C5EA2E452B
:100FF00019EE90AA1AEE10BA3AFB06FE3AFB16F664
:101000001EFB1C0E16FB1C06C6EA2E463BFB07FE0B
:101010003BFB17F71EFB1C0E17FB1C07C7EA2E47EE
:101020001AEE90AA1BEE10BA3AFB08FE3AFB18F82B
:101030001EFB1C0E18FB1C08C8EA2E483BFB09FED1
:101040003BFB19F91EFB1C0E19FB1C09C9EA2E49B2
:1010500000EE102A00EE903A01EE104A01EE905A8E
:1010600002EE106A02EE907A03EE108A03EE909A76
:101070001BEE900AD0F80020D0F84030D0F8804025
:10108000D0F8C050D0F80061D0F84071D0F880811D
:10109000D0F8C09146F6080014EE10AA3AFB06FEFE
:1010A0003AFB16F61EFB1C0E16FB1C06C6EA2E4E5D
:1010B000D2FA4EF692FA4EF23AFB07FE3AFB17F7D7
:1010C0001EFB1C0E17FB1C07C7EA2E4ED3FA4EF769
:1010D00093FA4EF33AFB08FE3AFB18F81EFB1C0E7F
:1010E00018FB1C08C8EA2E4ED4FA4EF894FA4EF4B7
:1010F0003AFB09FE3AFB19F91EFB1C0E19FB1C09F1
:10110000C9EA2E4ED5FA4EF995FA4EF514EE90AA8C
:1011100015EE10BA3AFB04FE3AFB14F41EFB1C0E4B
:1011200014FB1C04C4EA2E4ED2FA4EF492FA4EF28C
:101130003AFB05FE3AFB15F51EFB1C0E15FB1C05C4
:10114000C5EA2E4ED3FA4EF593FA4EF33BFB08FE5A
:101150003BFB18F81EFB1C0E18FB1C08C8EA2E4EA1
:10116000D6FA4EF896FA4EF63BFB09FE3BFB19F910
:101170001EFB1C0E19FB1C09C9EA2E4ED7FA4EF9AC
:1011800097FA4EF715EE90AA16EE10BA3AFB03FE48
:101190003AFB13F31EFB1C0E13FB1C03C3EA2E4E7B
:1011A000D2FA4EF392FA4EF23BFB05FE3BFB15F5ED
:1011B0001EFB1C0E15FB1C05C5EA2E4ED4FA4EF57F
:1011C00094FA4EF416EE90AA17EE10BA3AFB07FE08
:1011D0003AFB17F71EFB1C0E17FB1C07C7EA2E4E27
:1011E000D6FA4EF796FA4EF63BFB09FE3BFB19F991
:1011F0001EFB1C0E19FB1C09C9EA2E4ED8FA4EF92B
:1012000098FA4EF81BEE900A10EE90AA93FA4AFE56
:10121000D3FA4AF3C0F840E0C0F8603011EE90AA6B
:1012200095FA4AFED5FA4AF5C0F8C0E0C0F8E05099
:1012300012EE90AA97FA4AFED7FA4AF7C0F840E1B0
:10124000C0F8607113EE90AA99FA4AFED9FA4AF9E9
:10125000C0F8C0E1C0F8E09111EE105A94FA45FED2
:10126000D4FA45FAC0F880E0C0F8A0A012EE107AD7
:1012700096FA47FED6FA47FAC0F800E1C0F820A176
:1012800013EE109A98FA49FED8FA49FAC0F880E1AC
:10129000C0F8A0A110EE103A92FA43FED2FA43FA37
:1012A000C0F820A040F804EB1CEE10EAB0EB0E0FE3
:1012B0007FF4A4ADA0F1200000F5007E06EE90EAD8
:1012C0000BEE900AD0F80020D0F80430D0F8084097
:1012D000D0F80C50D0F81060D0F81470D0F8188006
:1012E000D0F81C9046F6080051F804AB3AFB06FE15
:1012F0003AFB16F61EFB1C0E16FB1C06C6EA2E4E0B
:10130000D2FA4EF692FA4EF23AFB07FE3AFB17F784
:101310001EFB1C0E17FB1C07C7EA2E4ED3FA4EF716
:1013200093FA4EF33AFB08FE3AFB18F81EFB1C0E2C
:1013300018FB1C08C8EA2E4ED4FA4EF894FA4EF464
:101340003AFB09FE3AFB19F91EFB1C0E19FB1C099E
:10135000C9EA2E4ED5FA4EF995FA4EF5F1E802ABF0
:101360003AFB04FE3AFB14F41EFB1C0E14FB1C0497
:10137000C4EA2E4ED2FA4EF492FA4EF23AFB05FE31
:101380003AFB15F51EFB1C0E15FB1C05C5EA2E4E7F
:10139000D3FA4EF593FA4EF33BFB08FE3BFB18F8ED
:1013A0001EFB1C0E18FB1C08C8EA2E4ED6FA4EF87F
:1013B00096FA4EF63BFB09FE3BFB19F91EFB1C0E91
:1013C00019FB1C09C9EA2E4ED7FA4EF997FA4EF7C7
:1013D000F1E802AB3AFB03FE3AFB13F31EFB1C0ED3
:1013E00013FB1C03C3EA2E4ED2FA4EF392FA4EF2CE
:1013F0003BFB05FE3BFB15F51EFB1C0E15FB1C0500
:10140000C5EA2E4ED4FA4EF594FA4EF4F1E802AB4A
:101410003AFB07FE3AFB17F71EFB1C0E17FB1C07D7
:10142000C7EA2E4ED6FA4EF796FA4EF63BFB09FE69
:101430003BFB19F91EFB1C0E19FB1C09C9EA2E4EB9
:10144000D8FA4EF998FA4EF81BEE900AC0F81060E0
:10145000C0F81470C0F81880C0F81C90C0F80430B0
:10146000C0F80840C0F80C5040F8202B16EE90EA67
:10147000B0EB0E0F7FF424AFBDEC098ABDE8F08F0E
:101480002DE9FF4F46F6080B40F6015A4FF2013C9A
:10149000C6F6A83C40F20009DDF83440DDF83870AB
:1014A0000DEE107ADDF83C700DEE907A40F2000EF1
:1014B00008EE903A33F8025B13F8016BC5F303377B
:1014C00047EA0616C5F30B05C6F30B06B5EB0A0F84
:1014D00080F04E8022F8025B09F10109B9F1040F96
:1014E00040F04680A2F1080209EE103A09EE90EAB7
:1014F0000AEE106A1DEE908A51F8043BD2F8009073
:1015000054F804EB3EFB13F515FB0AB5C3EA0505D9
:1015100048F8045B15FB39F613FB096623FB19F544
:10152000C0F8045040F8086BCEF1000E51F8043BAF
:10153000D2F804903EFB13F515FB0AB5C3EA050586
:1015400048F8045B15FB39F613FB096623FB19F514
:10155000C0F8045040F8086B0DEE908A19EE103A6E
:1015600019EE90EA1AEE106A0EF1010E40F200092F
:10157000B6EB0A0F80F04E80BEF1400F80F24A8039
:1015800022F8026B09F10109B9F1040F40F0428021
:10159000A2F1080209EE103A09EE90EA1DEE908AD7
:1015A00051F8043BD2F8009054F804EB3EFB13F5DD
:1015B00015FB0AB5C3EA050548F8045B15FB39F6C7
:1015C00013FB096623FB19F5C0F8045040F8086BBB
:1015D000CEF1000E51F8043BD2F804903EFB13F517
:1015E00015FB0AB5C3EA050548F8045B15FB39F697
:1015F00013FB096623FB19F5C0F8045040F8086B8B
:101600000DEE908A19EE103A19EE90EA0EF1010EE5
:1016100040F2000918EE907A07F1A80703F10308D9
:10162000B8EB070F40F32380BEF1400F80F21F801C
:1016300018EE903A08EE10CA09EE100A09EE901A58
:101640000AEE102A0AEE90EA184640F201011DEE59
:10165000102A11F035FF18EE10CA19EE100A19EE13
:10166000901A1AEE102A1AEE90EA18EE903ABEF18D
:10167000400FFFF61FAFBDE8FF8F00BF2DE9FF4F02
:1016800046F6080B40F6015A4FF2013CC6F6A83C5C
:1016900040F20009DDF83440DDF838700DEE107AC4
:1016A000DDF83C700DEE907A40F2000E08EE903AB4
:1016B00033F8025B13F8016BC5F3033747EA0616EC
:1016C000C5F30B05C6F30B06B5EB0A0F80F054808B
:1016D00022F8025B09F10109B9F1040F40F04C80D6
:1016E000A2F1080209EE103A09EE90EA0AEE106A39
:1016F0001DEE908A51F8043BD2F80090076854F828
:1017000004EB3EFB13F515FB0AB5C3EA050548F8E3
:10171000045B15FB397513FB095740F8047BD0F8BF
:10172000007023FB197740F8047BCEF1000E51F8CE
:10173000043BD2F8049007683EFB13F515FB0AB58D
:10174000C3EA050548F8045B15FB397513FB095717
:1017500040F8047BD0F8007023FB197740F8047B35
:101760000DEE908A19EE103A19EE90EA1AEE106A10
:101770000EF1010E40F20009B6EB0A0F80F0548022
:10178000BEF1400F80F2508022F8026B09F101098E
:10179000B9F1040F40F04880A2F1080209EE103AB6
:1017A00009EE90EA1DEE908A51F8043BD2F80090C1
:1017B000076854F804EB3EFB13F515FB0AB5C3EAC2
:1017C000050548F8045B15FB397513FB095740F80C
:1017D000047BD0F8007023FB197740F8047BCEF12E
:1017E000000E51F8043BD2F8049007683EFB13F555
:1017F00015FB0AB5C3EA050548F8045B15FB397506
:1018000013FB095740F8047BD0F8007023FB1977CD
:1018100040F8047B0DEE908A19EE103A19EE90EA2A
:101820000EF1010E40F2000918EE907A07F1A807B8
:1018300003F10308B8EB070F40F32380BEF1400F1C
:1018400080F21F8018EE903A08EE10CA09EE100AD6
:1018500009EE901A0AEE102A0AEE90EA184640F2B3
:1018600001011DEE102A11F02BFE18EE10CA19EE20
:10187000100A19EE901A1AEE102A1AEE90EA18EED3
:10188000903ABEF1400FFFF613AFBDE8FF8F00BFE7
:101890002DE9FF4F46F6080B40F6015A4FF2013C86
:1018A000C6F6A83C40F20009DDF83440DDF8387097
:1018B0000DEE107ADDF83C700DEE907A0EEE100A07
:1018C0000EEE900ADDF8400040F2000E08EE903A6D
:1018D00033F8025B13F8016BC5F3033747EA0616CA
:1018E000C5F30B05C6F30B06B5EB0A0F80F06A8053
:1018F00022F8025B09F10109B9F1040F40F062809E
:10190000A2F1080209EE103A09EE90EA0AEE106A16
:101910001DEE908A51F8043BD2F8009050F8047BF9
:1019200054F804EB3EFB13F515FB0AB5C3EA0505B5
:1019300048F8045B15FB397513FB095606FB0CF6DA
:1019400016FB2AB650F8045B23FB195505FB0CF572
:1019500015FB2AB5C5EA26471EEE106A46F8047B39
:10196000CEF1000E51F8043BD2F804903EFB13F583
:1019700015FB0AB5C3EA050550F8047B48F8045B7B
:1019800015FB397513FB095505FB0CF515FB2AB53D
:1019900050F8047B23FB197707FB0CF717FB2AB7DA
:1019A000C7EA254746F8047B0EEE106A0DEE908AD2
:1019B00019EE103A19EE90EA1AEE106A0EF1010EC5
:1019C00040F20009B6EB0A0F80F06A80BEF1400FCA
:1019D00080F2668022F8026B09F10109B9F1040F67
:1019E00040F05E80A2F1080209EE103A09EE90EA9A
:1019F0001DEE908A51F8043BD2F8009050F8047B19
:101A000054F804EB3EFB13F515FB0AB5C3EA0505D4
:101A100048F8045B15FB397513FB095606FB0CF6F9
:101A200016FB2AB650F8045B23FB195505FB0CF591
:101A300015FB2AB5C5EA26471EEE106A46F8047B58
:101A4000CEF1000E51F8043BD2F804903EFB13F5A2
:101A500015FB0AB5C3EA050550F8047B48F8045B9A
:101A600015FB397513FB095505FB0CF515FB2AB55C
:101A700050F8047B23FB197707FB0CF717FB2AB7F9
:101A8000C7EA254746F8047B0EEE106A0DEE908AF1
:101A900019EE103A19EE90EA0EF1010E40F200092B
:101AA00018EE907A07F1A80703F10308B8EB070FC7
:101AB00040F32380BEF1400F80F21F8018EE903A71
:101AC00008EE10CA09EE100A09EE901A0AEE102A62
:101AD0000AEE90EA184640F201011DEE102A11F0BC
:101AE000EFFC18EE10CA19EE100A19EE901A1AEE51
:101AF000102A1AEE90EA18EE903ABEF1400FFFF667
:101B0000E7AE1EEE900ABDE8FF8F00BF2DE9FF4F44
:101B100046F6080B40F6015A4FF2013CC6F6A83CC7
:101B200040F20009DDF834700DEE107ADDF83870FF
:101B30000DEE907A40F2000E08EE903A33F8025B18
:101B400013F8016BC5F3033747EA0616C5F30B0517
:101B5000C6F30B06B5EB0A0F80F03A8022F8025B61
:101B600009F10109B9F1040F40F03280A2F1080235
:101B700009EE103A09EE90EA0AEE106A1DEE908A1C
:101B800051F8043BD2F8009051F8045BD2F804609D
:101B900058F804EB2EFB09F723FB19F440F8047BFB
:101BA00040F8044B58F8047B27FB06FE25FB16F48F
:101BB00040F804EB40F8044B0DEE908A19EE103A11
:101BC00019EE90EA1AEE106A0EF1010E40F20009C9
:101BD000B6EB0A0F80F03A80BEF1400F80F23680FB
:101BE00022F8026B09F10109B9F1040F40F02E80CF
:101BF000A2F1080209EE103A09EE90EA1DEE908A71
:101C000051F8043BD2F8009051F8045BD2F804601C
:101C100058F804EB2EFB09F723FB19F440F8047B7A
:101C200040F8044B58F8047B27FB06FE25FB16F40E
:101C300040F804EB40F8044B0DEE908A19EE103A90
:101C400019EE90EA0EF1010E40F2000918EE907ABA
:101C500007F1A80703F10308B8EB070F40F323804F
:101C6000BEF1400F80F21F8018EE903A08EE10CAC5
:101C700009EE100A09EE901A0AEE102A0AEE90EA0E
:101C8000184640F201011DEE102A11F019FC18EE61
:101C900010CA19EE100A19EE901A1AEE102A1AEE4E
:101CA00090EA18EE903ABEF1400FFFF647AFBDE85C
:101CB000FF8F00BF2DE9FF4F46F6080B40F6015A93
:101CC0004FF2013CC6F6A83C40F20009DDF8347042
:101CD0000DEE107ADDF838700DEE907A40F2000EBD
:101CE00008EE903A33F8025B13F8016BC5F3033743
:101CF00047EA0616C5F30B05C6F30B06B5EB0A0F4C
:101D000080F0418022F8025B09F10109B9F1040F6A
:101D100040F03980A2F1080209EE103A09EE90EA8B
:101D20000AEE106A1DEE908A51F8043BD2F800903A
:101D300051F8045BD2F80460D0F80070D0F804E0E9
:101D400058F8044B24FB097723FB19EEC0F804E094
:101D500040F8087B58F8044B0768D0F804E024FBEF
:101D6000067725FB16EEC0F804E040F8087B0DEE80
:101D7000908A19EE103A19EE90EA1AEE106A0EF1F6
:101D8000010E40F20009B6EB0A0F80F04180BEF16F
:101D9000400F80F23D8022F8026B09F10109B9F190
:101DA000040F40F03580A2F1080209EE103A09EE66
:101DB00090EA1DEE908A51F8043BD2F8009051F859
:101DC000045BD2F80460D0F80070D0F804E058F852
:101DD000044B24FB097723FB19EEC0F804E040F81C
:101DE000087B58F8044B0768D0F804E024FB06771A
:101DF00025FB16EEC0F804E040F8087B0DEE908A53
:101E000019EE103A19EE90EA0EF1010E40F20009B7
:101E100018EE907A07F1A80703F10308B8EB070F53
:101E200040F32380BEF1400F80F21F8018EE903AFD
:101E300008EE10CA09EE100A09EE901A0AEE102AEE
:101E40000AEE90EA184640F201011DEE102A11F048
:101E500037FB18EE10CA19EE100A19EE901A1AEE96
:101E6000102A1AEE90EA18EE903ABEF1400FFFF6F3
:101E700039AFBDE8FF8F00BF2DE9FF4F46F6080BD5
:101E800040F6015A4FF2013CC6F6A83C40F2000968
:101E9000DDF834700DEE107ADDF838700DEE907AC2
:101EA0000EEE100A0EEE900ADDF83C0040F2000E35
:101EB00008EE903A33F8025B13F8016BC5F3033771
:101EC00047EA0616C5F30B05C6F30B06B5EB0A0F7A
:101ED00080F0568022F8025B09F10109B9F1040F84
:101EE00040F04E80A2F1080209EE103A09EE90EAA5
:101EF0000AEE106A1DEE908A51F8043BD2F8009069
:101F000051F8045BD2F80460D0F804E050F8087B84
:101F100058F8044B24FB097707FB0CF717FB2AB78B
:101F200023FB19EE0EFB0CFE1EFB2ABECEEA274752
:101F30001EEE103A43F8047B58F8044BD0F804E046
:101F400050F8087B24FB067707FB0CF717FB2AB732
:101F500025FB16EE0EFB0CFE1EFB2ABECEEA274723
:101F600043F8047B0EEE103A0DEE908A19EE103A0B
:101F700019EE90EA1AEE106A0EF1010E40F2000915
:101F8000B6EB0A0F80F05680BEF1400F80F252800F
:101F900022F8026B09F10109B9F1040F40F04A80FF
:101FA000A2F1080209EE103A09EE90EA1DEE908ABD
:101FB00051F8043BD2F8009051F8045BD2F8046069
:101FC000D0F804E050F8087B58F8044B24FB09775C
:101FD00007FB0CF717FB2AB723FB19EE0EFB0CFED1
:101FE0001EFB2ABECEEA27471EEE103A43F8047BBA
:101FF00058F8044BD0F804E050F8087B24FB06772F
:1020000007FB0CF717FB2AB725FB16EE0EFB0CFEA1
:102010001EFB2ABECEEA274743F8047B0EEE103A99
:102020000DEE908A19EE103A19EE90EA0EF1010EBB
:1020300040F2000918EE907A07F1A80703F10308AF
:10204000B8EB070F40F32380BEF1400F80F21F80F2
:1020500018EE903A08EE10CA09EE100A09EE901A2E
:102060000AEE102A0AEE90EA184640F201011DEE2F
:10207000102A11F025FA18EE10CA19EE100A19EEFE
:10208000901A1AEE102A1AEE90EA18EE903ABEF163
:10209000400FFFF60FAF1EEE900ABDE8FF8F00BFA6
:1020A0002DE9F04F46F6080AC0F601594FF2013B00
:1020B000C6F6A83B00F5806E53F804CB92F8026098
:1020C000B2F8037092F8058032F8064BC4F303357A
:1020D000C4F30B0445EA061544EA0544C7F3033587
:1020E000C7F30B0645EA081546EA054551F8046BA7
:1020F00051F8047B3CFB14F818FB19A816FB38F8C0
:1021000016FB048840F8048B26FB14F840F8048B77
:10211000CCF1000C3CFB15F818FB19A817FB38F89C
:1021200017FB058840F8048B27FB15F840F8048B53
:10213000B0EB0E0F7FF4C0AFBDE8F08F2DE9F04F8C
:1021400046F6080AC0F601594FF2013BC6F6A83B15
:1021500000F5806E53F804CB92F80260B2F8037079
:1021600092F8058032F8064BC4F30335C4F30B0430
:1021700045EA061544EA0544C7F30335C7F30B06E1
:1021800045EA081546EA054551F8048B06683CFB0C
:1021900014F717FB19A718FB376718FB047740F8EB
:1021A000047B066828FB146740F8047BCCF1000C24
:1021B00051F8048B06683CFB15F717FB19A718FBB1
:1021C000376718FB057740F8047B066828FB15671E
:1021D00040F8047BB0EB0E0F7FF4BCAFBDE8F08F8E
:1021E0002DE9F04F46F6080AC0F601594FF2013BBF
:1021F000C6F6A83BDDF8246000EE906A06F5806E16
:1022000053F804CB92F80260B2F8037092F805809C
:1022100032F8064BC4F30335C4F30B0445EA061544
:1022200044EA0544C7F30335C7F30B0645EA08152E
:1022300046EA054501EE103A10EE903A51F8048B4B
:1022400053F8046B3CFB14F717FB19A718FB37670F
:1022500018FB047707FB0BF717FB39A753F8046B40
:1022600028FB146606FB0BF616FB39A6C6EA2746C2
:1022700040F8046BCCF1000C51F8048B53F8046B5C
:102280003CFB15F717FB19A718FB376718FB0577F9
:1022900007FB0BF717FB39A753F8046B28FB1566F0
:1022A00006FB0BF616FB39A6C6EA274640F8046B78
:1022B00000EE903AB3EB0E0F11EE103A7FF4A0AFA0
:1022C000BDE8F08F2DE9F04F44F6BF6A40F6015BA0
:1022D00040F2100990E8FE0111FB0AFC11FB2AFEF6
:1022E0004FEAAC6C4FEAAE6E1CFB0BFC1EFB0BFE08
:1022F000CCEA0E4CD1FA4CF112FB0AFC12FB2AFE7E
:102300004FEAAC6C4FEAAE6E1CFB0BFC1EFB0BFEE7
:10231000CCEA0E4CD2FA4CF213FB0AFC13FB2AFE59
:102320004FEAAC6C4FEAAE6E1CFB0BFC1EFB0BFEC7
:10233000CCEA0E4CD3FA4CF314FB0AFC14FB2AFE35
:102340004FEAAC6C4FEAAE6E1CFB0BFC1EFB0BFEA7
:10235000CCEA0E4CD4FA4CF415FB0AFC15FB2AFE11
:102360004FEAAC6C4FEAAE6E1CFB0BFC1EFB0BFE87
:10237000CCEA0E4CD5FA4CF516FB0AFC16FB2AFEED
:102380004FEAAC6C4FEAAE6E1CFB0BFC1EFB0BFE67
:10239000CCEA0E4CD6FA4CF617FB0AFC17FB2AFEC9
:1023A0004FEAAC6C4FEAAE6E1CFB0BFC1EFB0BFE47
:1023B000CCEA0E4CD7FA4CF718FB0AFC18FB2AFEA5
:1023C0004FEAAC6C4FEAAE6E1CFB0BFC1EFB0BFE27
:1023D000CCEA0E4CD8FA4CF8A0E8FE01B9F101099C
:1023E0007FF478AFBDE8F08F2DE9F04F46F6080C8A
:1023F000C0F6015B44F6AC7AC9F2F47A40F21009F7
:1024000090E8FE013AFB01FE3AFB11F11EFB1BCEE8
:1024100011FB1BC1C1EA2E413AFB02FE3AFB12F24C
:102420001EFB1BCE12FB1BC2C2EA2E423AFB03FE6E
:102430003AFB13F31EFB1BCE13FB1BC3C3EA2E4355
:102440003AFB04FE3AFB14F41EFB1BCE14FB1BC428
:10245000C4EA2E443AFB05FE3AFB15F51EFB1BCEE3
:1024600015FB1BC5C5EA2E453AFB06FE3AFB16F6E0
:102470001EFB1BCE16FB1BC6C6EA2E463AFB07FE0A
:102480003AFB17F71EFB1BCE17FB1BC7C7EA2E47ED
:102490003AFB08FE3AFB18F81EFB1BCE18FB1BC8C4
:1024A000C8EA2E48A0E8FE01B9F101097FF4A8AFFF
:1024B000BDE8F08F000000000000000000000000F8
:1024C000000000000000000000000000000000000C
:1024D00000000000000000000000000000000000FC
:1024E00000000000000000000000000000000000EC
:1024F00000000000000000000000000000000000DC
:10250000704700BFAFF30080AFF30080AFF30080EF
:10251000AFF30080AFF30080AFF30080AFF3008033
:10252000AFF30080AFF30080AFF30080AFF3008023
:10253000AFF30080AFF30080AFF30080AFF3008013
:10254000AFF30080AFF30080AFF30080AFF3008003
:10255000AFF30080AFF30080AFF30080AFF30080F3
:10256000AFF30080AFF30080AFF30080AFF30080E3
:10257000AFF30080AFF30080AFF30080AFF30080D3
:10258000AFF30080AFF30080AFF30080AFF30080C3
:10259000AFF30080AFF30080AFF30080AFF30080B3
:1025A000AFF30080AFF30080AFF30080AFF30080A3
:1025B000AFF30080AFF30080AFF30080AFF3008093
:1025C000AFF30080AFF30080AFF30080AFF3008083
:1025D000AFF30080AFF30080AFF30080AFF3008073
:1025E000AFF30080AFF30080AFF30080AFF3008063
:1025F000AFF30080AFF30080AFF30080AFF3008053
:1026000003B32DE9F04122F00704001912F007028C
:102610000BD01C00C2F10805AC4200DD2C00A3EB7E
:102620000408230000F0ECF84346DA0804D098468A
:1026300000F066F808F0070313B1002200F0E0F89C
:10264000BDE8F081704700BFAFF30080AFF30080BA
:10265000AFF30080AFF30080AFF30080AFF30080F2
:10266000AFF30080AFF30080AFF30080AFF30080E2
:10267000AFF30080AFF30080AFF30080AFF30080D2
:10268000AFF30080AFF30080AFF30080AFF30080C2
:10269000AFF30080AFF30080AFF30080AFF30080B2
:1026A000AFF30080AFF30080AFF30080AFF30080A2
:1026B000AFF30080AFF30080AFF30080AFF3008092
:1026C000AFF30080AFF30080AFF30080AFF3008082
:1026D000AFF30080AFF30080AFF30080AFF3008072
:1026E000AFF30080AFF30080AFF30080AFF3008062
:1026F000AFF30080AFF30080AFF30080AFF3008052
:1027000051F8044B51F8045BD0E9006704F05533ED
:1027100043EA530303F0333343EA930303F00F33E5
:1027200043EA131303F0FF1363F30F2386EA132620
:1027300005F0553343EA530303F0333343EA93037D
:1027400003F00F3343EA131303F0FF1343EA132399
:1027500086EA034604F0AA3343EA430303F0CC338A
:1027600043EA830303F0F03343EA031303F0FF2348
:1027700043EA032387EA134705F0AA3343EA4303F6
:1027800003F0CC3343EA830303F0F03343EA03134B
:1027900003F0FF2343EA03236FF30F035F40E0E8F6
:1027A0000267013AACD17047AFF30080AFF300800D
:1027B000AFF30080AFF30080AFF30080AFF3008091
:1027C000AFF30080AFF30080AFF30080AFF3008081
:1027D000AFF30080AFF30080AFF30080AFF3008071
:1027E000AFF30080AFF30080AFF30080AFF3008061
:1027F000AFF30080AFF30080AFF30080AFF3008051
:102800000024002530B46A4411F8015B02F8015B32
:10281000013BF9D130BCD0E9006704F0553343EAFD
:10282000530303F0333343EA930303F00F3343EAD4
:10283000131303F0FF1363F30F2386EA132605F047
:10284000553343EA530303F0333343EA930303F06E
:102850000F3343EA131303F0FF1343EA132386EA0B
:10286000034604F0AA3343EA430303F0CC3343EABC
:10287000830303F0F03343EA031303F0FF2343EA37
:10288000032387EA134705F0AA3343EA430303F01F
:10289000CC3343EA830303F0F03343EA031303F03A
:1028A000FF2343EA03236FF30F035F40E0E802676F
:1028B000704700BFAFF30080AFF30080AFF300803C
:1028C000AFF30080AFF30080AFF30080AFF3008080
:1028D000AFF30080AFF30080AFF30080AFF3008070
:1028E000AFF30080AFF30080AFF30080AFF3008060
:1028F000AFF30080AFF30080AFF30080AFF3008050
:1029000003B32DE9F04122F00704001912F0070289
:102910000BD01C00C2F10805AC4200DD2C00A3EB7B
:102920000408230000F0ECF84346DA0804D0984687
:1029300000F066F808F0070313B1002200F0E0F899
:10294000BDE8F081704700BFAFF30080AFF30080B7
:10295000AFF30080AFF30080AFF30080AFF30080EF
:10296000AFF30080AFF30080AFF30080AFF30080DF
:10297000AFF30080AFF30080AFF30080AFF30080CF
:10298000AFF30080AFF30080AFF30080AFF30080BF
:10299000AFF30080AFF30080AFF30080AFF30080AF
:1029A000AFF30080AFF30080AFF30080AFF300809F
:1029B000AFF30080AFF30080AFF30080AFF300808F
:1029C000AFF30080AFF30080AFF30080AFF300807F
:1029D000AFF30080AFF30080AFF30080AFF300806F
:1029E000AFF30080AFF30080AFF30080AFF300805F
:1029F000AFF30080AFF30080AFF30080AFF300804F
:102A0000F0E80245230065F31F446FF30F0545EA24
:102A1000134584EA142303F47F435C4084EA0324CF
:102A200084EA141303F0F0135C4084EA031484EA8C
:102A3000940303F00C335C4084EA830484EA540377
:102A400003F022335C4084EA430485EA152303F44F
:102A50007F435D4085EA032585EA151303F0F013F3
:102A60005D4085EA031585EA950303F00C335D406C
:102A700085EA830585EA550303F022335D4085EA44
:102A8000430541F8044B013A41F8045BB8D1704763
:102A9000AFF30080AFF30080AFF30080AFF30080AE
:102AA000AFF30080AFF30080AFF30080AFF300809E
:102AB000AFF30080AFF30080AFF30080AFF300808E
:102AC000AFF30080AFF30080AFF30080AFF300807E
:102AD000AFF30080AFF30080AFF30080AFF300806E
:102AE000AFF30080AFF30080AFF30080AFF300805E
:102AF000AFF30080AFF30080AFF30080AFF300804E
:102B0000F0E80245260065F31F446FF30F0545EA20
:102B1000164584EA142606F47F46744084EA0624A7
:102B200084EA141606F0F016744084EA061484EA67
:102B3000940606F00C36744084EA860484EA54064F
:102B400006F02236744084EA460485EA152606F427
:102B50007F46754085EA062585EA151606F0F016CB
:102B6000754085EA061585EA950606F00C3675402F
:102B700085EA860585EA550606F02236754085EA1F
:102B8000460530B46A4412F8014B013B01F8014B91
:102B9000F9D102B0704700BFAFF30080AFF30080FF
:102BA000AFF30080AFF30080AFF30080AFF300809D
:102BB000AFF30080AFF30080AFF30080AFF300808D
:102BC000AFF30080AFF30080AFF30080AFF300807D
:102BD000AFF30080AFF30080AFF30080AFF300806D
:102BE000AFF30080AFF30080AFF30080AFF300805D
:102BF000AFF30080AFF30080AFF30080AFF300804D
:102C0000010000000000000000000000890000003A
:102C1000000000008B000080000000008080008029
:102C2000010000008B000000010000000080000097
:102C30000100000088800080010000008200008008
:102C4000000000000B000000000000000A0000006F
:102C500001000000828000000000000003800000EE
:102C6000010000008B800000010000000B000080CC
:102C7000010000008A000080010000008100008047
:102C800000000000810000800000000008000080BB
:102C900000000000830000000000000003800080AE
:102CA0000100000088800080000000008800008093
:102CB0000100000000800000000000008280008011
:102CC000FF000000AFF30080AFF30080AFF300809F
:102CD000AFF30080AFF30080AFF30080AFF300806C
:102CE000AFF30080AFF30080AFF30080AFF300805C
:102CF000AFF30080AFF30080AFF30080AFF300804C
:102D0000AFF204112DE9F05F86B00591D0F82030C4
:102D1000D0F84810D0F87050D0F898B0D0F8C0C0B3
:102D200083EA010383EA050383EA0B0383EA0C03C6
:102D3000D0F80C70D0F83410D0F85C50D0F884B0D3
:102D4000D0F8ACC087EA010787EA050787EA0B07D6
:102D500087EA0C0783EAF776D0F81440D0F83C10E5
:102D6000D0F86450D0F88CB0D0F8B4C0CDF8006082
:102D700084EA010484EA050484EA0B0484EA0C046E
:102D800083EA0406D0F81830D0F84010D0F8685024
:102D9000D0F890B0D0F8B8C0CDF80C6083EA010349
:102DA00083EA050383EA0B0383EA0C0387EA030241
:102DB000D0F80070D0F82810D0F85050D0F878B083
:102DC000D0F8A0C087EA010787EA050787EA0B0762
:102DD00087EA0C0787EAF47AD0F81C40D0F8441050
:102DE000D0F86C50D0F894B0D0F8BCC084EA01049C
:102DF00084EA050484EA0B0484EA0C0484EA070EDE
:102E0000D0F80870D0F83010D0F85850D0F880B012
:102E1000D0F8A8C087EA010787EA050787EA0B0709
:102E200087EA0C0787EAF476D0F82440D0F84C10F3
:102E3000D0F87450D0F89CB0D0F8C4C0CDF8106071
:102E400084EA010484EA050484EA0B0484EA0C049D
:102E500084EA0708D0F81070D0F83810D0F8605025
:102E6000D0F888B0D0F8B0C0CDF8048087EA010768
:102E700087EA050787EA0B0787EA0C0787EAF479F0
:102E8000D0F80440D0F82C10D0F85450D0F87CB0D2
:102E9000D0F8A4C0CDF8089084EA010484EA0504BF
:102EA00084EA0B0484EA0C0484EA070B83EAF47CCA
:102EB000D0F81830D0F84840D0F85450D0F884609A
:102EC000D0F8B470C0F8541089EA03038CEA040403
:102ED00088EA05058BEA060682EA070725EA3461D7
:102EE00081EA3351C0F8541026EA755181EA7431F1
:102EF000C0F8841027EA362181EA7571C0F8B41051
:102F000023EAF73181EAF651C0F8181024EA337148
:102F100081EAF721D0F80830D0F83C40D0F868506A
:102F2000D0F89C60D0F8A470C0F848108AEA030377
:102F300082EA040489EA05058EEA060688EA07079C
:102F400025EA742181EA3331C0F8A41026EA3561FC
:102F500081EA7401C0F8081027EA761181EA7571D8
:102F6000C0F83C1023EAF75181EA3671C0F86810C6
:102F700024EAF30181EAB761DDF80080D0F824305B
:102F8000D0F82840D0F85850D0F88C60D0F8B870FD
:102F9000C0F89C108EEA030388EA04048AEA050557
:102FA00082EA060689EA070725EAF44181EAF35135
:102FB000C0F8281026EAF50181EAB451C0F858108B
:102FC00027EA365181EAF551C0F88C1023EAB7415F
:102FD00081EAB611C0F8B81024EA331181EAB7517A
:102FE000D0F81430D0F84040D0F87050D0F8786065
:102FF000D0F8AC70C0F8241082EA030389EA040414
:103000008CEA050588EA06068BEA070725EA34619B
:1030100081EA3351C0F8781026EA750181EA7461BB
:10302000C0F8AC1027EA763181EAB531C0F8141047
:1030300023EAB77181EAF621C0F8401024EA33711F
:1030400081EAB761DDF80C90D0F80030046B456E72
:10305000D0F89460D0F8C070C0F8701088EA03030C
:103060008AEA040482EA050589EA06068CEA07076B
:1030700026EA755181EA7451C0F8301027EA36719A
:1030800081EA7541C0F8641023EA776181EA7651DC
:10309000C0F8941024EAB35181EAF731C0F8C010A7
:1030A00025EA040505990C6883EAB52384EA03013F
:1030B000DDF81020D0F81C30D0F84C40D0F850503B
:1030C000D0F88060D0F8B070C0F8001089EA03032F
:1030D0008EEA040488EA05058AEA060682EA0707FA
:1030E00025EAF45181EAF341C0F8501026EA7551FF
:1030F00081EA3431C0F8801027EA362181EA7571FF
:10310000C0F8B01023EA374181EA3661C0F81C10DC
:1031100024EA337181EA3731D0F80C30D0F83840E6
:10312000D0F86C50D0F89860D0F8A070C0F84C106F
:103130008BEA030382EA040489EA05058CEA0606A1
:1031400088EA070725EAB42181EA3331C0F8A010E4
:1031500026EAF55181EA7401C0F80C1027EA7611CD
:1031600081EA3571C0F8381023EA376181EA767157
:10317000C0F86C1024EAB30181EAB761DDF804807D
:10318000D0F82030D0F82C40D0F85C50D0F88860CF
:10319000D0F8BC70C0F898108CEA030388EA0404E5
:1031A0008BEA050582EA060689EA070725EAF44163
:1031B00081EA3361C0F82C1026EAB50181EA745126
:1031C000C0F85C1027EA765181EAF551C0F8881002
:1031D00023EA774181EAB611C0F8BC1024EA7311E2
:1031E00081EAB751D0F81030D0F84440D0F874508C
:1031F000D0F87C60D0F8A870C0F8201082EA0303F1
:1032000089EA04048EEA050588EA06068AEA0707C1
:1032100025EA346181EA7351C0F87C1026EA750111
:1032200081EA7461C0F8A81027EA363181EA753165
:10323000C0F8101023EAB77181EAB621C0F8441033
:1032400024EA737181EAF761DDF80890D0F8043060
:10325000446B056ED0F89060D0F8C470C0F874105C
:1032600088EA03038BEA040482EA050589EA060674
:103270008EEA070726EA755181EA3451C0F8341006
:1032800027EA767181EAB541C0F8601023EA7761D8
:1032900081EAB651C0F8901024EAB35181EAF731BF
:1032A000C0F8C41025EAF47505994C6883EAF52343
:1032B00084EA030ED0F8C030D0F84810D0F8985007
:1032C000D0F824B0D0F874C0C0F804E083EA3133F9
:1032D00083EAF54383EA3B1383EABC63D0F8347096
:1032E000D0F88010D0F80850D0F85CB0D0F8ACC05E
:1032F00087EA315787EAB51787EAFB0787EABC57A1
:103300004FEAB32383EA7756D0F86040D0F8B01084
:10331000D0F83C50D0F888B0D0F814C0CDF8006098
:1033200084EA712484EAB57484EAFB2484EABC1438
:1033300083EA7466D0F89430D0F81810D0F86C5046
:10334000D0F8B8B0D0F844C0CDF80C6083EAB143EF
:1033500083EAF57383EABB4383EA7C0383EAB752CB
:10336000D0F80070D0F85410D0F8A050D0F828B0A1
:10337000D0F87CC087EAB17787EAF54787EAFB6730
:1033800087EA3C3787EA346AD0F89040D0F81C10BE
:10339000D0F86850D0F8BCB0D0F840C084EAB1444E
:1033A00084EA050484EAFB4484EA7C0484EA070E88
:1033B000D0F83070D0F88410D0F80C50D0F858B055
:1033C000D0F8A8C087EA315787EAF51787EAFB07E4
:1033D00087EABC574FEA775787EAF476D0F8C440BB
:1033E000D0F84C10D0F89C50D0F820B0D0F870C075
:1033F000CDF8106084EA313484EAF54484EA3B1461
:1034000084EAFC6487EAB428D0F86470D0F8B41079
:10341000D0F83850D0F88CB0D0F810C0CDF8048077
:1034200087EA312787EAB57787EAFB2787EABC175F
:103430004FEA776787EA7429D0F80440D0F8501033
:10344000D0F8A450D0F82CB0D0F878C0CDF80890BF
:1034500084EAF17484EA355484EAFB6484EA7C34B7
:1034600084EA070B83EAF47CD0F89430D0F8484023
:10347000D0F8A450D0F85C60D0F81470C0F8A41054
:1034800089EA03038CEAB45488EA35558BEA7666F8
:1034900082EAF77725EA346181EA3351C0F8A41053
:1034A00026EA755181EA7431C0F85C1027EA3621AA
:1034B00081EA7571C0F8141023EAF73181EAF651F8
:1034C000C0F8941024EA337181EAF721D0F8303043
:1034D000D0F8B040D0F86C50D0F82060D0F87870B8
:1034E000C0F848108AEA735382EAB40489EAF57591
:1034F0008EEAB63688EA773725EA742181EA3331D5
:10350000C0F8781026EA356181EA7401C0F83010FD
:1035100027EA761181EA7571C0F8B01023EAF751F5
:1035200081EA3671C0F86C1024EAF30181EAB761D0
:10353000DDF80080D0F8C430D0F85440D0F80C50FA
:10354000D0F88860D0F84470C0F820108EEAB32319
:1035500088EAB4748AEA357582EA361689EA77070A
:1035600025EAF44181EAF351C0F8541026EAF50146
:1035700081EAB451C0F80C1027EA365181EAF551BE
:10358000C0F8881023EAB74181EAB611C0F84410A8
:1035900024EA331181EAB751D0F86030D0F81840EE
:1035A000D0F89850D0F82860D0F8AC70C0F8C410AB
:1035B00082EA736389EAB4448CEA757588EAF66630
:1035C0008BEA373725EA346181EA3351C0F8281095
:1035D00026EA750181EA7461C0F8AC1027EA7631F9
:1035E00081EAB531C0F8601023EAB77181EAF621AB
:1035F000C0F8181024EA337181EAB761DDF80C9045
:10360000D0F80030D0F88440C56BD0F8BC60476F6C
:10361000C0F8981088EA03038AEA742482EAF55510
:1036200089EAF6468CEA371726EA755181EA745121
:10363000C0F8841027EA367181EA7541C0F83C1061
:1036400023EA776181EA7651C0F8BC1024EAB351CD
:1036500081EAF731C0F8741025EA040505998C68F1
:1036600083EAB52384EA0301DDF81020D0F8903016
:10367000D0F84C40D0F8A050D0F85860D0F8107076
:10368000C0F8001089EA03038EEAB45488EAF545CD
:103690008AEA366682EAF77725EAF45181EAF3414D
:1036A000C0F8A01026EA755181EA3431C0F85810EC
:1036B00027EA362181EA7571C0F8101023EA3741F4
:1036C00081EA3661C0F8901024EA337181EA37311B
:1036D000D0F83430D0F8B440D0F86850D0F8246036
:1036E000D0F87C70C0F84C108BEAB35382EA7404B3
:1036F00089EA05058CEAB63688EA373725EAB42127
:1037000081EA3331C0F87C1026EAF55181EA740170
:10371000C0F8341027EA761181EA3571C0F8B41088
:1037200023EA376181EA7671C0F8681024EAB301B0
:1037300081EAB761DDF80480D0F8C030D0F850409D
:10374000D0F80850D0F88C60D0F84070C0F8241041
:103750008CEAB32388EAF4748BEA357582EA36166C
:1037600089EA770725EAF44181EA3361C0F850100D
:1037700026EAB50181EA7451C0F8081027EA7651AB
:1037800081EAF551C0F88C1023EA774181EAB6113D
:10379000C0F8401024EA731181EAB751D0F86430C0
:1037A000D0F81C40D0F89C50D0F82C60D0F8A8700D
:1037B000C0F8C01082EA736389EAB4448EEA757572
:1037C00088EAF6668AEAF72725EA346181EA7351C6
:1037D000C0F82C1026EA750181EA7461C0F8A810BF
:1037E00027EA363181EA7531C0F8641023EAB771EF
:1037F00081EAB621C0F81C1024EA737181EAF761EE
:10380000DDF80890D0F80430D0F88040856BD0F80F
:10381000B860076FC0F89C1088EA03038BEAB424F1
:1038200082EAF55589EAB6468EEA771726EA755197
:1038300081EA3451C0F8801027EA767181EAB541F7
:10384000C0F8381023EA776181EAB651C0F8B810A1
:1038500024EAB35181EAF731C0F8701025EAF47513
:103860000599CC6883EAF52384EA030ED0F8743016
:10387000D0F84810D0F82450D0F8C4B0D0F89CC08C
:10388000C0F804E083EA313383EAF54383EA3B136B
:1038900083EABC63D0F88070D0F85810D0F830506C
:1038A000D0F808B0D0F8ACC087EA315787EAB5172E
:1038B00087EAFB0787EABC574FEAB32383EA7756C8
:1038C000D0F83840D0F81010D0F8B050D0F88CB004
:1038D000D0F860C0CDF8006084EA712484EAB57441
:1038E00084EAFB2484EABC1483EA7466D0F8BC3012
:1038F000D0F89410D0F86850D0F844B0D0F81CC07C
:10390000CDF80C6083EAB14383EAF57383EABB43E5
:1039100083EA7C0383EAB752D0F80070D0F8A41091
:10392000D0F87C50D0F854B0D0F82CC087EAB177EA
:1039300087EAF54787EAFB6787EA3C3787EA346A14
:10394000D0F8B840D0F89010D0F86C50D0F840B013
:10395000D0F818C084EAB14484EA050484EAFB4440
:1039600084EA7C0484EA070ED0F88470D0F85C10F6
:10397000D0F83450D0F80CB0D0F8A8C087EA31574E
:1039800087EAF51787EAFB0787EABC574FEA7757BC
:1039900087EAF476D0F87040D0F84C10D0F8205078
:1039A000D0F8C0B0D0F898C0CDF8106084EA3134B7
:1039B00084EAF54484EA3B1484EAFC6487EAB42888
:1039C000D0F83C70D0F81410D0F8B450D0F888B0CB
:1039D000D0F864C0CDF8048087EA312787EAB5774C
:1039E00087EAFB2787EABC174FEA776787EA7429DB
:1039F000D0F80440D0F8A010D0F87850D0F850B0EB
:103A0000D0F828C0CDF8089084EAF17484EA3554DF
:103A100084EAFB6484EA7C3484EA070B83EAF47C5E
:103A2000D0F8BC30D0F84840D0F87850D0F80860D2
:103A3000D0F86070C0F8781089EA03038CEAB454B7
:103A400088EA35558BEA766682EAF77725EA3461AB
:103A500081EA3351C0F8781026EA755181EA743151
:103A6000C0F8081027EA362181EA7571C0F86010A5
:103A700023EAF73181EAF651C0F8BC1024EA337129
:103A800081EAF721D0F88430D0F81040D0F868509F
:103A9000D0F8C060D0F82870C0F848108AEA735394
:103AA00082EAB40489EAF5758EEAB63688EA773791
:103AB00025EA742181EA3331C0F8281026EA3561FD
:103AC00081EA7401C0F8841027EA761181EA7571E1
:103AD000C0F8101023EAF75181EA3671C0F8681077
:103AE00024EAF30181EAB761DDF80080D0F8703094
:103AF000D0F8A440D0F83450D0F88C60D0F81C70C6
:103B0000C0F8C0108EEAB32388EAB4748AEA357527
:103B100082EA361689EA770725EAF44181EAF35109
:103B2000C0F8A41026EAF50181EAB451C0F83410B7
:103B300027EA365181EAF551C0F88C1023EAB741E3
:103B400081EAB611C0F81C1024EA331181EAB7519A
:103B5000D0F83830D0F89440D0F82450D0F85460E1
:103B6000D0F8AC70C0F8701082EA736389EAB4448C
:103B70008CEA757588EAF6668BEA373725EA346190
:103B800081EA3351C0F8541026EA750181EA746164
:103B9000C0F8AC1027EA763181EAB531C0F83810A8
:103BA00023EAB77181EAF621C0F8941024EA337150
:103BB00081EAB761DDF80C90D0F80030C46DD0F820
:103BC000B050066CD0F89C70C0F8241088EA03034B
:103BD0008AEA742482EAF55589EAF6468CEA3717B0
:103BE00026EA755181EA7451C0F85C1027EA3671F3
:103BF00081EA7541C0F8B01023EA776181EA765115
:103C0000C0F8401024EAB35181EAF731C0F89C10A3
:103C100025EA040505990C6983EAB52384EA0301C2
:103C2000DDF81020D0F8B830D0F84C40D0F87C50F7
:103C3000D0F80C60D0F86470C0F8001089EA030373
:103C40008EEAB45488EAF5458AEA366682EAF7775E
:103C500025EAF45181EAF341C0F87C1026EA755157
:103C600081EA3431C0F80C1027EA362181EA7571F7
:103C7000C0F8641023EA374181EA3661C0F8B81011
:103C800024EA337181EA3731D0F88030D0F814401B
:103C9000D0F86C50D0F8C460D0F82C70C0F84C103C
:103CA0008BEAB35382EA740489EA05058CEAB636D6
:103CB00088EA373725EAB42181EA3331C0F82C107D
:103CC00026EAF55181EA7401C0F8801027EA7611DE
:103CD00081EA3571C0F8141023EA376181EA767100
:103CE000C0F86C1024EAB30181EAB761DDF8048002
:103CF000D0F87430D0F8A040D0F83050D0F88860B8
:103D0000D0F81870C0F8C4108CEAB32388EAF474B1
:103D10008BEA357582EA361689EA770725EAF44197
:103D200081EA3361C0F8A01026EAB50181EA745136
:103D3000C0F8301027EA765181EAF551C0F88810B2
:103D400023EA774181EAB611C0F8181024EA73110A
:103D500081EAB751D0F83C30D0F89040D0F82050EC
:103D6000D0F85060D0F8A870C0F8741082EA73637D
:103D700089EAB4448EEA757588EAF6668AEAF72716
:103D800025EA346181EA7351C0F8501026EA7501C2
:103D900081EA7461C0F8A81027EA363181EA7531EA
:103DA000C0F83C1023EAB77181EAB621C0F8901040
:103DB00024EA737181EAF761DDF80890D0F80430E5
:103DC000846DD0F8B450466CD0F89870C0F82010CC
:103DD00088EA03038BEAB42482EAF55589EAB646F9
:103DE0008EEA771726EA755181EA3451C0F85810E7
:103DF00027EA767181EAB541C0F8B41023EA776109
:103E000081EAB651C0F8441024EAB35181EAF7318F
:103E1000C0F8981025EAF47505994C6983EAF523F2
:103E200084EA030ED0F89C30D0F84810D0F8C45083
:103E3000D0F870B0D0F820C0C0F804E083EA313385
:103E400083EAF54383EA3B1383EABC63D0F85870F6
:103E5000D0F80C10D0F88450D0F830B0D0F8ACC006
:103E600087EA315787EAB51787EAFB0787EABC5725
:103E70004FEAB32383EA7756D0F8B440D0F8641001
:103E8000D0F81050D0F888B0D0F838C0CDF8006025
:103E900084EA712484EAB57484EAFB2484EABC14BD
:103EA00083EA7466D0F84030D0F8BC10D0F86C507B
:103EB000D0F81CB0D0F890C0CDF80C6083EAB143C4
:103EC00083EAF57383EABB4383EA7C0383EAB75250
:103ED000D0F80070D0F87810D0F82C50D0F8A4B0FA
:103EE000D0F850C087EAB17787EAF54787EAFB67E1
:103EF00087EA3C3787EA346AD0F84440D0F8B810F3
:103F0000D0F86850D0F818B0D0F894C084EAB14422
:103F100084EA050484EAFB4484EA7C0484EA070E0C
:103F2000D0F85C70D0F80810D0F88050D0F834B0D9
:103F3000D0F8A8C087EA315787EAF51787EAFB0768
:103F400087EABC574FEA775787EAF476D0F898406B
:103F5000D0F84C10D0F8C050D0F874B0D0F824C0CD
:103F6000CDF8106084EA313484EAF54484EA3B14E5
:103F700084EAFC6487EAB428D0F8B070D0F8601006
:103F8000D0F81450D0F88CB0D0F83CC0CDF80480F4
:103F900087EA312787EAB57787EAFB2787EABC17E4
:103FA0004FEA776787EA7429D0F80440D0F87C108C
:103FB000D0F82850D0F8A0B0D0F854C0CDF8089070
:103FC00084EAF17484EA355484EAFB6484EA7C343C
:103FD00084EA070B83EAF47CD0F84030D0F84840FC
:103FE000D0F82850D0F83060D0F83870C0F82810D9
:103FF00089EA03038CEAB45488EA35558BEA76667D
:1040000082EAF77725EA346181EA33514FEAB171E8
:10401000C0F8281026EA755181EA74314FEA7121FF
:10402000C0F8301027EA362181EA75714FEA710134
:10403000C0F8381023EAF73181EAF6514FEAB1416E
:10404000C0F8401024EA337181EAF7214FEAB151F8
:10405000D0F85C30D0F86440D0F86C50D0F8746080
:10406000D0F85470C0F848108AEA735382EAB40456
:1040700089EAF5758EEAB63688EA773725EA74213B
:1040800081EA33314FEA3151C0F8541026EA3561E4
:1040900081EA74014FEA3171C0F85C1027EA7611A9
:1040A00081EA75714FEAF151C0F8641023EAF751C3
:1040B00081EA3671C0F86C1024EAF30181EAB76135
:1040C0004FEA7171DDF80080D0F89830D0F8784070
:1040D000D0F88050D0F88860D0F89070C0F8741094
:1040E0008EEAB32388EAB4748AEA357582EA361612
:1040F00089EA770725EAF44181EAF3514FEAF16151
:10410000C0F8781026EAF50181EAB4514FEA31612E
:10411000C0F8801027EA365181EAF5514FEA311193
:10412000C0F8881023EAB74181EAB6114FEAB141DD
:10413000C0F8901024EA331181EAB7514FEAB13147
:10414000D0F8B430D0F8BC40D0F8C450D0F8A46057
:10415000D0F8AC70C0F8981082EA736389EAB4446E
:104160008CEA757588EAF6668BEA373725EA34619A
:1041700081EA33514FEA7131C0F8A41026EA750183
:1041800081EA74614FEA3131C0F8AC1027EA763128
:1041900081EAB5314FEAF171C0F8B41023EAB77182
:1041A00081EAF6214FEA7101C0F8BC1024EA3371AC
:1041B00081EAB7614FEA7111DDF80C90D0F8003058
:1041C000846805698669076AC0F8C41088EA030331
:1041D0008AEA742482EAF55589EAF6468CEA3717AA
:1041E00026EA755181EA74514FEA7151C0F80810FE
:1041F00027EA367181EA75414FEA7161C0F8101003
:1042000023EA776181EA7651C0F8181024EAB351A5
:1042100081EAF7314FEAB121C0F8201025EA040500
:1042200005998C6983EAB52384EA0301DDF810203F
:10423000D0F84430D0F84C40D0F82C50D0F834604E
:10424000D0F83C70C0F8001089EA03038EEAB45439
:1042500088EAF5458AEA366682EAF77725EAF45174
:1042600081EAF3414FEAF171C0F82C1026EA75514A
:1042700081EA34314FEAB121C0F8341027EA3621FF
:1042800081EA75714FEAB101C0F83C1023EA374169
:1042900081EA36614FEAB141C0F8441024EA337133
:1042A00081EA37314FEAB151D0F85830D0F8604048
:1042B000D0F86850D0F87060D0F85070C0F84C104A
:1042C0008BEAB35382EA740489EA05058CEAB636B0
:1042D00088EA373725EAB42181EA33314FEAF141E0
:1042E000C0F8501026EAF55181EA74014FEA3171A5
:1042F000C0F8581027EA761181EA35714FEAF1517A
:10430000C0F8601023EA376181EA76714FEAF171F3
:10431000C0F8681024EAB30181EAB7614FEA71710D
:10432000DDF80480D0F89C30D0F87C40D0F8845080
:10433000D0F88C60D0F89470C0F870108CEAB32379
:1043400088EAF4748BEA357582EA361689EA7707CB
:1043500025EAF44181EA33614FEAF161C0F87C104B
:1043600026EAB50181EA74514FEA7161C0F8841000
:1043700027EA765181EAF5514FEA3111C0F88C10E5
:1043800023EA774181EAB6114FEAF141C0F894106F
:1043900024EA731181EAB7514FEAB131D0F8B03055
:1043A000D0F8B840D0F8C050D0F8A060D0F8A870CD
:1043B000C0F89C1082EA736389EAB4448EEA75758A
:1043C00088EAF6668AEAF72725EA346181EA7351BA
:1043D0004FEA3131C0F8A01026EA750181EA746114
:1043E0004FEAF121C0F8A81027EA363181EA753189
:1043F0004FEAF171C0F8B01023EAB77181EAB62133
:104400004FEA7101C0F8B81024EA737181EAF761CC
:104410004FEA3111DDF80890D0F80430C4684569DE
:10442000C669476AC0F8C01088EA03038BEAB4245F
:1044300082EAF55589EAB6468EEA771726EA75517B
:1044400081EA34514FEAB151C0F80C1027EA767175
:1044500081EAB5414FEA7161C0F8141023EA77612F
:1044600081EAB651C0F81C1024EAB35181EAF73151
:104470004FEAB121C0F8241025EAF4750599CC69FA
:1044800051F8207F0591FF2F83EAF52384EA030189
:10449000C0F804107EF43AAC06B0BDE8F09F00BF4F
:1044A00008B500F02FFF00F05DFA00F09BFB00F074
:1044B0008BFB00F0D3FCBDE8084000F009BE00BF54
:1044C000074A13682BB10748074A036000211160AF
:1044D00070470649064B074813600860F3E700BFC2
:1044E0000C00002004000020000000200800002034
:1044F00038200020386000201D4AD2F800C010B5D6
:104500000346BCF1000F1CD0DFF878E0194ADEF852
:1045100000001168073323F00703C2188A4224D829
:10452000CEF800202BB10346002103F8011B9A426C
:10453000FBD1114B1968A2EB0C02914200D21A6018
:1045400010BD0E4C0B480E49146007330A4A016037
:1045500023F007032046C2F800C0DFF828E0C218A5
:104560008A42A446CEF80040DAD9002010BD00BF30
:104570000C0000200800002000000020382000204F
:104580003860002004000020014B1868704700BF0D
:1045900000000020094A13681BB1094A1068C01ABC
:1045A000704710B407491160074A0848044C11606D
:1045B000074A20601360401A10BC70470C000020AE
:1045C000080000203820002004000020386000206F
:1045D0000000002010B3012820D002281ED003289C
:1045E0001CD004281AD0062817D0092821D00A2860
:1045F00021D00C2821D0072821D00B2821D00F282A
:1046000021D0102813D014281FD015281FD013280C
:1046100008BF0F2002D00020704705200D4B00EB93
:10462000400003EB8003D3E90130C01A70470C202F
:10463000F4E70620F2E70720F0E70820EEE709207C
:10464000ECE70A20EAE70B20E8E70D20E6E70E207A
:10465000E4E700BF00380108084B094A93420BD237
:10466000013AD21A22F00302043206481A441946CB
:10467000043393420860FAD1704700BF38600020CD
:1046800000000220EFBEADDE82B06B4601930199BF
:10469000054B994205D905481A46043399421060E2
:1046A000FAD802B0704700BF38600020EFBEADDE20
:1046B0000648074A904207D2064902E00430904279
:1046C00002D203688B42F9D0101A7047386000207C
:1046D00000000220EFBEADDE014B0248C01A704759
:1046E0000000002034200020014B0248C01A70470F
:1046F00038600020000002202DE9F04F854C8BB07F
:104700008246FFF7C1FFFFF7DBFE2378534505D054
:1047100081480BB0BDE8F04F00F014BE63691BB1D7
:104720009847002840F0F080A068FFF7E5FE0746B4
:10473000E068FFF7E1FE064683464020FFF7DCFE17
:10474000059080461020FFF7D7FE054620694030CF
:10475000FFF7D2FE81464020FFF7CEFE0690002FE5
:1047600000F0CA80002E00F0C780B8F1000F00F002
:10477000C380002D00F0C080B9F1000F00F0BC80B4
:10478000002800F0B980059B56465A1E002302F807
:10479000013F0133402BFAD1604B2B6003F104330E
:1047A0006B6003F10433AB6003F10433EB605C48EE
:1047B00000F0C8FD606800F0C5FD5A4800F0C2FD79
:1047C0000023CDE9083300F0F1FEA26907905946B5
:1047D0003846904700F0EAFE079B834284BF00F111
:1047E000FF1000F57F40B246C61A4F4800F0AAFD00
:1047F000304600F0B5FD4D4800F0A4FD00F0D6FEB7
:104800001023059AE669009508A980460193CDE931
:1048100002B740234846B04700F0C8FE804584BF39
:1048200000F1FF1000F57F40A0EB0806404800F0C3
:1048300089FD304600F094FD3C4800F083FD00F017
:10484000B5FE102306464A4609A9246A009501933D
:10485000CDE902B7089B0698A047054600F0A6FEE2
:104860000446344800F06EFDA64284BF04F1FF14F4
:1048700004F57F44A01B00F073FD002D42D02E48AC
:1048800000F060FD2D4800F05DFDFFF77DFE044661
:104890002B4800F057FD204600F062FD294800F04B
:1048A00051FDFFF705FF0446274800F04BFD204669
:1048B00000F056FD234800F045FDFFF70DFF0446CC
:1048C000224800F03FFD204600F04AFD1D4800F060
:1048D00039FD5046FFF77EFE04461D4800F032FDCC
:1048E000204600F03DFD174800F02CFD194800F06F
:1048F00029FD0BB0BDE8F08F17480BB0BDE8F04FB5
:1049000000F020BD1548BBE715480BB0BDE8F04FDF
:1049100000F018BDFC000008DC380108A0A1A2A32B
:104920003C39010840390108503901086039010853
:104930006839010878390108CC380108883901083C
:1049400098390108A8390108AC390108BC390108B7
:10495000CC390108DC39010818390108C0380108D0
:104960000039010808B5044800F0ECFC034B187846
:10497000BDE80840FFF7C0BEE0390108FC000008B0
:104980002DE9F04FDFF83C8289B004460190FFF733
:104990007BFEFFF795FD98F80030A34205D07648DE
:1049A00009B0BDE8F04F00F0CDBC98F80830D8F859
:1049B0000C2072480392002B4FF040014FF48063AB
:1049C000CDE904134FF010024FF01403CDE9062394
:1049D0000CBF4FF0010B4FF0050B00F0B3FCD8F803
:1049E000040000F0AFFC664800F0ACFC8020FFF74C
:1049F00083FD8146002800F0BD80421E002302F89E
:104A0000013F0133802BFAD1039D2846FFF774FD47
:104A100003AE0024824600286ED000F0C7FDD8F80F
:104A20001030009329460746009D504680234A4691
:104A3000A847054600F0BAFD002D4FD1002C5FD0ED
:104A4000012C6ED0022C00F08780032C7BD0874293
:104A500000F28B80C71B4B4800F074FC384600F016
:104A60007FFC494800F06EFC484800F06BFCFFF703
:104A70008BFD0446464800F065FC204600F070FCC3
:104A8000444800F05FFCFFF713FE0446424800F084
:104A900059FC204600F064FC3E4800F053FCFFF750
:104AA0001BFE04463D4800F04DFC204600F058FC3B
:104AB000384800F047FC0198FFF78CFD0446384861
:104AC00000F040FC204600F04BFC324800F03AFC7D
:104AD000344809B0BDE8F04F00F034BC324800F073
:104AE00031FC0134A345BFD075682846FFF704FDAB
:104AF00004368246002890D12C4800F023FCF0E7D1
:104B0000874284BF00F1FF1000F57F40C71B284893
:104B100000F018FC384600F023FC1B4800F012FCA3
:104B2000DFE7874284BF00F1FF1000F57F40C71B1D
:104B3000204800F007FC384600F012FC124800F054
:104B400001FC0134D0E7874284BF00F1FF1000F57B
:104B50007F40C71B1848ECE7874284BF00F1FF1075
:104B600000F57F40C71B1548E3E700F1FF1000F593
:104B70007F406FE7124813E7F43901083C39010818
:104B800040390108AC3A0108603901088839010848
:104B900098390108A8390108AC390108BC39010865
:104BA000CC390108DC390108C03A0108383A01085B
:104BB0005C3A0108703A0108983A0108843A010801
:104BC000143A01084400000808B5044800F0BAFB94
:104BD000034B1878BDE80840FFF7D2BEDC3A010865
:104BE00044000008704700BF2DE9F04F884F83B0A4
:104BF0000446FFF749FDFFF763FC3B78A34205D06D
:104C0000844803B0BDE8F04F00F09CBB0F2C00F0CF
:104C1000F8804FF488654FF416664FF49460FFF700
:104C20006BFC80463046FFF767FC81462846FFF75D
:104C300063FC82462020FFF75FFC05462020FFF73B
:104C40005BFC0646B8F1000F00F0D380B9F1000F0D
:104C500000F0CF80BAF1000F00F0CB80002D00F003
:104C6000C880002800F0C5806B4800F06BFB7868B6
:104C700000F068FB694800F065FB00F097FCBB683A
:104C8000019049464046984700F090FC019A8242C4
:104C900084BF00F1FF1000F57F40A0EB020B6048DD
:104CA00000F050FB584600F05BFB5E4800F04AFB0A
:104CB00000F07CFC42462946FB680190504698472C
:104CC00000F074FC019B834284BF00F1FF1000F5EB
:104CD0007F40A0EB0308544800F034FB404600F04E
:104CE0003FFB504800F02EFB00F060FC3B694A4659
:104CF000514680463046984700F058FC804584BFB6
:104D000000F1FF1000F57F40A0EB0808474800F0D5
:104D100019FB404600F024FB424800F013FB2A68D0
:104D200033687168B06953406A684A401343B16898
:104D3000AA684A401343E968F2684A401343296964
:104D400032694A401343696972694A40A969134349
:104D50004140EA69F0690B4342401343C3F307251E
:104D60001D43C3F30742154345EA1365EDB23048CE
:104D700000F0E8FA002D42D02E4800F0E3FA2E4869
:104D800000F0E0FAFFF700FC05462C4800F0DAFAE4
:104D9000284600F0E5FA2A4800F0D4FAFFF788FC2C
:104DA0000546284800F0CEFA284600F0D9FA2448F3
:104DB00000F0C8FAFFF790FC0546234800F0C2FA5D
:104DC000284600F0CDFA1E4800F0BCFA2046FFF756
:104DD00001FC04461D4800F0B5FA204600F0C0FA78
:104DE000174800F0AFFA1A4803B0BDE8F04F00F0E2
:104DF000A9BA184803B0BDE8F04F00F0A3BA1648AE
:104E0000BBE74FF440754FF4CC664FF4487006E7AB
:104E10008C020008F83A01083C39010840390108C1
:104E20005039010860390108403B0108503B010836
:104E3000603B0108EC3A01088839010898390108FB
:104E4000A8390108AC390108BC390108CC3901087E
:104E5000DC3901081C3B0108C438010808B50448C6
:104E600000F070FA034B1878BDE80840FFF7BCBEAD
:104E7000703B01088C0200082DE9F04F824E83B090
:104E80000546FFF701FCFFF71BFB3378AB4205D06B
:104E90007E4803B0BDE8F04F00F054BA132D0CBFAC
:104EA000202441242046FFF727FB07462020FFF758
:104EB00023FB81462046FFF71FFB82462020FFF799
:104EC0001BFB83462020FFF717FB04462020FFF73B
:104ED00013FB8046002F00F0CE80B9F1000F00F0E8
:104EE000CA80BAF1000F00F0C680BBF1000F00F0DD
:104EF000C280002C00F0BF80002800F0BC80644815
:104F000000F020FA706800F01DFA624800F01AFA0A
:104F1000B368009359465046984700F047FB49460E
:104F2000009B01903846984700F040FB019B83426C
:104F300084BF00F1FF1000F57F40C31A564800936C
:104F400000F000FA009800F00BFA544800F0FAF96B
:104F500000F02CFB4A465146F3680190204600932E
:104F6000984700F023FB019B834284BF00F1FF10B0
:104F700000F57F40C61A4A4800F0E4F9304600F0D8
:104F8000EFF9464800F0DEF9009B5A4639464046A4
:104F900098472368D8F80020D8F80410D8F81800EB
:104FA000534062684A401343D8F80810A2684A4048
:104FB0001343E168D8F80C204A4013432169D8F81C
:104FC00010204A401343D8F8141062694A40A1697E
:104FD00013434140E269D8F81C000B43424013439D
:104FE000C3F307241C43C3F30742144344EA136486
:104FF000E4B22C4800F0A6F9002C42D02A4800F078
:10500000A1F92A4800F09EF9FFF7BEFA04462848A5
:1050100000F098F9204600F0A3F9264800F092F934
:10502000FFF746FB0446244800F08CF9204600F0C8
:1050300097F9204800F086F9FFF74EFB04461F4819
:1050400000F080F9204600F08BF91A4800F07AF958
:105050002846FFF7BFFA0446194800F073F92046C6
:1050600000F07EF9134800F06DF9164803B0BDE872
:10507000F04F00F067B9144803B0BDE8F04F00F0FE
:1050800061B91248BBE700BF800300088C3B0108F0
:105090003C39010840390108D43B01086039010856
:1050A000E83B0108FC3B0108EC3A0108883901089B
:1050B00098390108A8390108AC390108BC39010840
:1050C000CC390108DC390108B03B0108C4380108BB
:1050D00008B5044800F036F9034B1878BDE80840DD
:1050E000FFF7CABE103C0108800300082DE9F04319
:1050F000734D87B00446FFF7C7FAFFF7E1F92B7845
:10510000A34205D06F4807B0BDE8F04300F01AB9DC
:105110000A2C00F0C380092C00F0C580072C02D0B7
:105120000B2C00F0C58040F674184FF420674FF444
:10513000A460FFF7E1F906463846FFF7DDF90746B8
:105140004046FFF7D9F98046002E00F0A180002FDD
:1051500000F09E80002800F09B805B4A5B480023A3
:10516000CDE9043200F0EEF8686800F0EBF858483A
:1051700000F0E8F800F01AFAAA68039039463046C1
:10518000904700F013FA039B834284BF00F1FF10A5
:1051900000F57F40A0EB03094E4800F0D3F84846E5
:1051A00000F0DEF84C4800F0CDF800F0FFF905AA59
:1051B00004A90423814600974046EF68B84700F0F1
:1051C000F5F9814584BF00F1FF1000F57F40A0EBA9
:1051D0000907424800F0B6F8384600F0C1F83E48EA
:1051E00000F0B0F800F0E2F904992D69009605AAE4
:1051F000042307464046A84700F0D8F9874284BFF9
:1052000000F1FF1000F57F40C71B354800F09AF809
:10521000384600F0A5F8304800F094F8314800F026
:1052200091F8FFF7B1F905462F4800F08BF82846B2
:1052300000F096F82D4800F085F8FFF739FA05469A
:105240002B4800F07FF8284600F08AF8274800F045
:1052500079F8FFF741FA0546264800F073F828462A
:1052600000F07EF8214800F06DF82046FFF7B2F913
:105270000446214800F066F8204600F071F81B480B
:1052800000F060F81D4800F05DF807B0BDE8F0835D
:105290001B4807B0BDE8F04300F054B84FF0400899
:1052A0004746202045E74FF048086127412040E766
:1052B00040F29A2840F2015740F2813039E700BFAE
:1052C00048020008283C0108010203043C39010897
:1052D00040390108783C010860390108843C010824
:1052E000903C01088839010898390108A83901085B
:1052F000AC390108BC390108CC390108DC39010896
:10530000503C010808B5044800F01CF8034B18781D
:10531000BDE80840FFF7EABE9C3C010848020008CF
:105320000649074A0A2001F11F0C13681B06FCD529
:10533000506011F8010F6145F7D1FEE7143D0108F7
:1053400000100140017841B1044A13681B06FCD5E6
:10535000516010F8011F0029F7D17047001001407B
:1053600000B585B000238DF80E30002800F0A38032
:10537000624BA3FB0012D20802EB8201A0EB4101B9
:105380003031C9B209288DF80D1040F29F80A3FB7F
:10539000021C4FEADC0C0CEB8C01A2EB4102303218
:1053A000D1B263288DF80C1040F29380A3FB0C2E31
:1053B0004FEADE0E0EEB8E02ACEB42023032D1B27F
:1053C000B0F57A7F8DF80B10C0F08680A3FB0E2C11
:1053D0004FEADC0C0CEB8C02AEEB42023032D1B265
:1053E00042F20F7290428DF80A1078D9A3FB0C2E6E
:1053F0004FEADE0E0EEB8E02ACEB4202DFF808C184
:105400003032D1B260458DF809105CD9A3FB0E2C67
:105410004FEADC0C0CEB8C02AEEB4202DFF8ECE066
:105420003032D1B270458DF808105BD9A3FB0C2E39
:105430004FEADE0E0EEB8E02ACEB4202DFF8D0C07C
:105440003032D1B260458DF807104ED3A3FB0E2C3D
:105450004FEADC0C0CEB8C02AEEB4202DFF8B4E05E
:105460003032D1B270458DF8061041D9A3FB0C2320
:10547000DB0803EB8303224AACEB43033033D9B29E
:1054800090428DF8051036D91C4BA3FB0C23DB088A
:1054900003F130014FF0000E8DF8041001A8194AF5
:1054A000704413681B06FCD5516010F8011F0029D9
:1054B000F7D105B000BD134A13681906FCD5302397
:1054C000536005B000BD4FF0050EE7E74FF0090E41
:1054D000E4E74FF0080EE1E74FF0070EDEE74FF08C
:1054E000060EDBE74FF0040ED8E74FF0030ED5E7CA
:1054F0004FF0020ED2E74FF0010ECFE7CDCCCCCC6F
:10550000FFC99A3B001001409F8601003F420F00F7
:1055100080969800FFE0F505224B010FC0F303626F
:1055200000B513F801E09A5C00216EF30701C0F3A7
:10553000035C62F30F21C0F3034213F80CE013F88D
:1055400002C000F00F0285B09A5C8DF80D206EF35A
:105550001741C0F303226CF31F61C0F3031CC0F3B7
:1055600003309A5C13F80CC08DF80B201B5C0E4ABC
:10557000CDF8061047F630004FF0000EADF80400ED
:105580008DF80EE08DF80CC08DF80A30302101A89E
:1055900013681B06FCD5516010F8011F0029F7D1D4
:1055A00005B000BD943E0108001001404FF0E0231B
:1055B0009869C04320F07F40704700BF08B54FF0A6
:1055C000E0239049D3F8882D8F4C42F47002C3F841
:1055D000882DD1F8442842F01002C1F8442842F244
:1055E000080000226FF07F4140F28365A560E06013
:1055F0001A61596105219A611961FEF761FFFFF790
:105600002BF8824A0A2102F12B0023681B06FCD5E5
:10561000616012F8011F8242F7D17D497A4A202049
:1056200001F12B0413681E06FCD5506011F8010F20
:10563000A142F7D17749744A3D2001F12B04136848
:105640001D06FCD5506011F8010FA142F7D1FEF7FD
:10565000A1FF0546FFF748F80446FFF73DF86E49FD
:10566000694A064601F10D0C5B2013681B06FCD548
:10567000506011F8010F6145F7D16849624A202056
:1056800001F10A0C13681B06FCD5506011F8010FDC
:105690006145F7D14FF00060FFF73EFF60495A4A7D
:1056A000202001F1160C13681B06FCD5506011F880
:1056B000010F6145F7D15B49534A202001F10A0CE3
:1056C00013681B06FCD5506011F8010F6145F7D136
:1056D0004FF00050FFF720FF53494B4A202001F1C3
:1056E000150C13681B06FCD5506011F8010F6145BD
:1056F000F7D14E49444A202001F1140C13681B06CF
:10570000FCD5506011F8010F6145F7D13046FFF725
:1057100027FE47493C4A2020CE1C13681B06FCD5B7
:10572000506011F8010FB142F7D14249364A2020AA
:1057300001F10A0613681B06FCD5506011F8010F31
:10574000B142F7D13C48FFF7E7FE3C492E4A202002
:10575000CE1C13681B06FCD5506011F8010FB14236
:10576000F7D12846FFF7FCFD3549274A202001F1F3
:10577000140513681B06FCD5506011F8010FA942EF
:10578000F7D13049204A202001F10A0513681B0691
:10579000FCD5506011F8010FA942F7D12A48FFF754
:1057A000BBFE2649184A202013681B06FCD5506012
:1057B00011F8010FB142F7D12046FFF7D1FD23497F
:1057C000114A202001F1140413681D06FCD5506015
:1057D00011F8010FA142F7D10B4A13681906FCD545
:1057E0000A235360FEF75CFE1949074A532001F172
:1057F000100413681B06FCD5506011F8010FA1427C
:10580000F7D1FEE70030024000100140343D0108AE
:10581000603D01088C3D0108B83D0108C83D010804
:10582000D43D0108EC3D0108F83D0108103E010897
:10583000A8390108283E010838200020343E01081C
:10584000383E0108503E0108386000205C3E0108E7
:10585000743E010838B5244C244B9C4221D2013BB4
:105860001B1B032B22463BD99B08214D03F1010C46
:105870004FEA5C0E2B4605EBCE0ED3E90001083350
:105880009E45C2E9000102F10802F6D11CF0010FA9
:1058900007D02CF0010C04EB8C0405EB8C052B6875
:1058A0002360144C14498C4218D20139091B032976
:1058B000234617D989080131480804EBC0000022AB
:1058C000C3E9002208338342FAD1CB0706D521F081
:1058D000010104EB810C0023CCF80030FFF76EFED1
:1058E000034DDCE7A446F6E700000020000000209E
:1058F00084C80108000000203420002030B5044690
:1059000012B3501E0228C9B220D94FF0000C61F327
:10591000070C61F30F2C61F3174C22F0030561F3C0
:105920001F6C234604EB050E43F804CB9E45FBD1C8
:10593000AA4209D0401B8EF8001028B101288EF829
:10594000011018BF8EF80210204630BDA646F2E7BF
:1059500072B3F0B5541E052C164620D9451A013DE8
:10596000022D84460B461AD922F0030597086A18BF
:1059700053F804EB4CF804EB9342F9D1AE420DD04E
:1059800011F8272000F82720641B00EB050205D042
:1059900059785170012C01D09B789370F0BD441E52
:1059A0008B1911F8012B04F8012F8B42F9D1F0BDAE
:1059B000704700BF8842F0B5044627D222B3531E79
:1059C000052B1E462ED98446401A013802280B4664
:1059D00028D922F0030007469508084453F804EB41
:1059E0004CF804EB8342F9D1BA420DD011F82520CE
:1059F00004F82520F21B04EB070105D05878487005
:105A0000012A01D09B788B702046F0BD002AFBD084
:105A10008B18024413F801CD02F801CD9942F9D157
:105A20002046F0BD631E0A4411F8010B03F8010F74
:105A30008A42F9D1E8E700BF7AB1013A431E013941
:105A4000104401E0834208D013F8012F11F801CF70
:105A50006245F7D0A2EB0C0070470020704700BFF2
:105A60000649C31D0A6823F007031344B3F5005F1A
:105A70009DBF03480B608018002070471000002075
:105A800014000020704700BFDFF8A0C0DCF8003031
:105A9000CBB9244AD2F8343843F04003C2F8343842
:105AA000214AD2F8003843F00403C2F80038D2F893
:105AB0000438DB07FBD5D2F8043813F0600F2ED181
:105AC0000123CCF80030032911D9174AD2F8043841
:105AD000DB07FBD5D2F8043813F0600FA1F1040105
