:020000040800F2
:1000000000000220F90D0008BD080008BD08000826
:10001000BD080008BD080008BD08000808B500F0CC
:1000200025FB00F0EDF800F0EFF800F0EBF800F041
:10003000EDF8BDE8084000F00BBB00BF074A1368AD
:100040002BB10748074A0360002111607047064939
:10005000064B074813600860F3E700BF0C00002060
:1000600004000020000000200800002038200020AC
:10007000386000201D4AD2F800C010B50346BCF11C
:10008000000F1CD0DFF878E0194ADEF80000116894
:10009000073323F00703C2188A4224D8CEF8002081
:1000A0002BB10346002103F8011B9A42FBD1114BEF
:1000B0001968A2EB0C02914200D21A6010BD0E4CDE
:1000C0000B480E49146007330A4A016023F0070306
:1000D0002046C2F800C0DFF828E0C2188A42A446D1
:1000E000CEF80040DAD9002010BD00BF0C0000207F
:1000F0000800002000000020382000203860002088
:1001000004000020014B1868704700BF0000002069
:10011000094A13681BB1094A1068C01A704710B425
:1001200007491160074A0848044C1160074A2060DB
:100130001360401A10BC70470C000020080000201B
:10014000382000200400002038600020000000203B
:10015000014B0248C01A70471C0000086851000893
:10016000084B094A93420BD2013AD21A22F00302F9
:10017000043206481A441946043393420860FAD1FF
:10018000704700BF3860002000000220EFBEADDEE7
:1001900082B06B4601930199054B994205D90548F8
:1001A0001A46043399421060FAD802B0704700BF73
:1001B00038600020EFBEADDE0648074A904207D205
:1001C000064902E00430904202D203688B42F9D023
:1001D000101A70473860002000000220EFBEADDE2C
:1001E000014B0248C01A7047000000203420002054
:1001F000014B0248C01A70473860002000000220FE
:10020000704700BF704700BF704700BF704700BF16
:100210002DE9F04FA74C89B00546FFF7B9FFFFF76E
:100220000DFF2378AB4205D0A34809B0BDE8F04FDD
:1002300000F056BB132B0CBF202541252846FFF7A5
:1002400019FF039006462020FFF714FF0090284670
:10025000FFF710FF01902020FFF70CFF81462020C0
:10026000FFF708FF02902020FFF704FF0690002E02
:1002700000F01081009B002B00F00C81019B002BF3
:1002800000F00881B9F1000F00F00481029B002BFF
:1002900000F00081002800F0FD80884800F020FB7D
:1002A000606800F01DFB864800F01AFBA368019807
:1002B000059349469847E368049300244FF03208B9
:1002C000A2462746A346CDF81C9000F03DFC0099BD
:1002D000059B05460398984700F036FC854284BF8D
:1002E00000F1FF1000F57F40451BED194BF10009AF
:1002F00000F02AFCDDE900210646049B029898479D
:1003000000F022FC8642A0EB060200F1FF1000F58F
:100310007F402F46CB46A0EB060000F2C1801219A9
:100320004AF1000AB8F101081446CED16548DFF859
:10033000BC81654F4E46DDF81C9000F0D1FA2A0DC5
:1003400042EA0632C2F31301C5F313020A44C6F3AC
:1003500013210A4402EB1672A8FB0201C90801EB43
:10036000810101EB8101521AAA1A584D66F100036E
:1003700007FB02F005FB0303A2FB051249089818CE
:1003800041EAC07000F0BAFA514800F0A9FA3220F0
:1003900000F0B4FA4F4800F0A3FA4F4800F0A0FA7A
:1003A000230D43EA0A33C3F31303C4F313021A44BD
:1003B000CAF313231A4402EB1A72A8FB0213DB08D8
:1003C00003EB830303EB8303D21AA41A6AF1000A36
:1003D00007FB04F005FB0A00A4FB0545284464085C
:1003E00044EAC07000F08AFA394800F079FA322005
:1003F00000F084FA374800F073FA029F2022AA2105
:10040000384600F04DFD069E20225521304600F072
:1004100047FDDDE90021049C3846A0474A46039980
:1004200005463046A04704462C4800F059FA2846B5
:1004300000F040FB2A4800F053FA204600F03AFB57
:100440007D1E2848741E012600F04AFA07F11F0895
:1004500020462B463746B146B24611E0552947D0D3
:10046000002A14BF002707F001074FF0000A4FF0E1
:100470000009494514BF002606F00106984541D001
:1004800013F8012F10F8011FAA2AE7D1552931D0FE
:100490000027ECE7144809B0BDE8F04F00F020BA9F
:1004A00000194AF1000AB8F1010804467FF40DAFC3
:1004B0003CE700BF9C4E0008584A0008A04A0008CC
:1004C000A44A0008B44A0008F5285C8F295C8FC252
:1004D000C84A0008D84A0008E04A0008F44A000860
:1004E000FC4A0008044B00087C4A00081F85EB51B9
:1004F0004FF0000A0026B24214BF002707F00107A0
:100500009845BDD1434800F0EBF915F8010F00F014
:10051000D1FAA845F9D1404800F0E2F9069B3743EB
:1005200049EA0A0503F11F0614F8010F00F0C2FAA8
:10053000B442F9D1394800F0D3F915B1384800F088
:10054000CFF9002F61D1069C029D63686A68296813
:1005500060695340226851400B43AA68A1684A4031
:100560001343E968E26851400B432A6921694A4014
:1005700013436A69A969504003432046A469C069CE
:10058000EA69614042400B431343C3F307241C4311
:10059000C3F30742144344EA1364E4B2214800F071
:1005A0009FF984B3204800F09BF9204800F098F9A7
:1005B0001F4800F095F9FFF7A5FD00F09FF91D48D1
:1005C00000F08EF91C4800F08BF9FFF7F5FD00F004
:1005D00095F9184800F084F9184800F081F9FFF700
:1005E000FFFD00F08BF9134800F07AF9144800F091
:1005F00077F9FFF7ADFD00F081F9124809B0BDE8C9
:10060000F04F00F06DB91048CDE7104800F068F9E0
:1006100099E700BF084B0008144B0008044B000882
:10062000204B0008984B00084C4A0008AC4B0008CF
:10063000BC4B0008CC4B0008D04B0008E04B000836
:10064000F04B0008004C0008444A0008604B0008CA
:1006500008B5044800F044F9034B1878BDE8084099
:10066000FFF7D6BD084C00089C4E0008704700BF3D
:1006700070B5B6B006460AA80D46144602F080FBD7
:1006800090B920A802F07CFB002840F0B980034616
:100690000AAA2021204602F039FB50B10AA802F034
:1006A00085FB20A802F082FB4FF0FF34204636B0D5
:1006B00070BD2022234602A9104602F09DF904468F
:1006C000564800F00DF9204600F0F4F9544800F0C7
:1006D00007F9002CE2D123460AAA202102A802F041
:1006E000B7FA04464F4800F0FBF8204600F0E2F964
:1006F0004B4800F0F5F8002CD0D14B4800F0F0F852
:100700009DF87C00C0F3400000F0D4F9474800F0A9
:10071000E7F89DF87C0000F0010000F0CBF94048BC
:1007200000F0DEF8234620AA2021284602F090FAA5
:100730000028B3D1034620AA2846202102F088FAD7
:1007400004460028AAD13A4800F0CAF80B9800F0F5
:10075000B1F9384800F0C4F8219800F0ABF93048FE
:1007600000F0BEF8344800F0BBF89DF87C00C0F300
:10077000400000F09FF92D4800F0B2F89DF87C0091
:1007800000F0010000F096F92C4800F0A9F89DF85F
:10079000D400C0F3400000F08DF9294800F0A0F823
:1007A0009DF8D40000F0010000F084F91C4800F02E
:1007B00097F820232348029300F092F8304600F087
:1007C00079F9214800F08CF8029800F073F91F487D
:1007D00000F086F8202000F06DF9114800F080F854
:1007E000009402AB324620A90AA802F077F9044629
:1007F00050B90AA802F0DAFA20A802F0D7FA55E7B1
:100800000AA802F0D3FA4FE7114800F069F8204631
:1008100000F050F9024800F063F83FE7104C000880
:10082000044B0008244C0008404C0008584C0008B9
:10083000684C0008744C0008804C0008944C000878
:10084000A44C0008B44C0008C04C0008CC4C000874
:10085000E44C000870B598B005460E4601F042FE23
:1008600048B3044602A802F08BFA20BB204602AA35
:10087000202102F0F1F80446D0B920232946CDE921
:1008800000336A46034602A802F094F9234605465F
:1008900001AA314602A802F007FA04462C4302A836
:1008A00002F084FA201E18BF0120404218B070BD2B
:1008B00002A802F07BFA4FF0FF30F7E70649074A3B
:1008C0000A2001F11F0C13681B06FCD5506011F8BB
:1008D000010F6145F7D1FEE71C4D000800100140F3
:1008E000017841B1044A13681B06FCD5516010F829
:1008F000011F0029F7D170470010014000B585B0F5
:1009000000238DF80E30002800F0A380624BA3FB7B
:100910000012D20802EB8201A0EB41013031C9B2D2
:1009200009288DF80D1040F29F80A3FB021C4FEAAE
:10093000DC0C0CEB8C01A2EB41023032D1B263280B
:100940008DF80C1040F29380A3FB0C2E4FEADE0EC4
:100950000EEB8E02ACEB42023032D1B2B0F57A7FB0
:100960008DF80B10C0F08680A3FB0E2C4FEADC0C38
:100970000CEB8C02AEEB42023032D1B242F20F727B
:1009800090428DF80A1078D9A3FB0C2E4FEADE0EA8
:100990000EEB8E02ACEB4202DFF808C13032D1B26E
:1009A00060458DF809105CD9A3FB0E2C4FEADC0CD6
:1009B0000CEB8C02AEEB4202DFF8ECE03032D1B24D
:1009C00070458DF808105BD9A3FB0C2E4FEADE0EA4
:1009D0000EEB8E02ACEB4202DFF8D0C03032D1B267
:1009E00060458DF807104ED3A3FB0E2C4FEADC0CAC
:1009F0000CEB8C02AEEB4202DFF8B4E03032D1B245
:100A000070458DF8061041D9A3FB0C23DB0803EBDE
:100A10008303224AACEB43033033D9B290428DF8C2
:100A2000051036D91C4BA3FB0C23DB0803F1300166
:100A30004FF0000E8DF8041001A8194A7044136895
:100A40001B06FCD5516010F8011F0029F7D105B035
:100A500000BD134A13681906FCD53023536005B056
:100A600000BD4FF0050EE7E74FF0090EE4E74FF049
:100A7000080EE1E74FF0070EDEE74FF0060EDBE76A
:100A80004FF0040ED8E74FF0030ED5E74FF0020EFB
:100A9000D2E74FF0010ECFE7CDCCCCCCFFC99A3BCB
:100AA000001001409F8601003F420F008096980091
:100AB000FFE0F505224B010FC0F3036200B513F808
:100AC00001E09A5C00216EF30701C0F3035C62F35E
:100AD0000F21C0F3034213F80CE013F802C000F03A
:100AE0000F0285B09A5C8DF80D206EF31741C0F3AC
:100AF00003226CF31F61C0F3031CC0F303309A5C44
:100B000013F80CC08DF80B201B5C0E4ACDF80610B4
:100B100047F630004FF0000EADF804008DF80EE0FF
:100B20008DF80CC08DF80A30302101A813681B061F
:100B3000FCD5516010F8011F0029F7D105B000BDA8
:100B4000AC4E0008001001404FF0E0239869C0430C
:100B500020F07F40704700BF08B54FF0E023924976
:100B6000D3F8882D914C42F47002C3F8882DD1F847
:100B7000442842F01002C1F8442842F20800002242
:100B80006FF07F4140F28365A560E0601A615961B2
:100B900005219A611961FFF751FAFFF7E1FA844ADA
:100BA0000A2102F12B0023681B06FCD5616012F8B4
:100BB000011F8242F7D17F497C4A202001F12B049A
:100BC00013681E06FCD5506011F8010FA142F7D141
:100BD0007949764A3D2001F12B0413681D06FCD5A6
:100BE000506011F8010FA142F7D1FFF727FAFFF784
:100BF000B7FAFFF78DFA0546FFF7FAFA0446FFF752
:100C0000EFFA6E49694A064601F10D0C5B20136844
:100C10001B06FCD5506011F8010F6145F7D16849FA
:100C2000624A202001F10A0C13681B06FCD55060B3
:100C300011F8010F6145F7D14FF00060FFF73AFF5F
:100C400060495A4A202001F1160C13681B06FCD596
:100C5000506011F8010F6145F7D15B49534A2020DC
:100C600001F10A0C13681B06FCD5506011F8010F46
:100C70006145F7D14FF00050FFF71CFF53494B4A35
:100C8000202001F1150C13681B06FCD5506011F8EB
:100C9000010F6145F7D14E49444A202001F1140C5F
:100CA00013681B06FCD5506011F8010F6145F7D1A0
:100CB0003046FFF723FE47493C4A2020CE1C1368EC
:100CC0001B06FCD5506011F8010FB142F7D1424923
:100CD000364A202001F10A0613681B06FCD5506035
:100CE00011F8010FB142F7D13C48FFF7E3FE3C4950
:100CF0002E4A2020CE1C13681B06FCD5506011F82C
:100D0000010FB142F7D12846FFF7F8FD3549274AD0
:100D1000202001F1140513681B06FCD5506011F862
:100D2000010FA942F7D13049204A202001F10A05DC
:100D300013681B06FCD5506011F8010FA942F7D1CA
:100D40002A48FFF7B7FE2649184A202013681B06D9
:100D5000FCD5506011F8010FB142F7D12046FFF7E2
:100D6000CDFD2349114A202001F1140413681D060A
:100D7000FCD5506011F8010FA142F7D10B4A13685E
:100D80001906FCD50A235360FFF748F91949074AA9
:100D9000532001F1100413681B06FCD5506011F8B4
:100DA000010FA142F7D1FEE70030024000100140E0
:100DB0003C4D0008684D0008944D0008C04D0008E7
:100DC000D04D0008DC4D0008F44D0008004E00082E
:100DD000184E0008CC4B0008304E00083820002088
:100DE0003C4E0008404E0008584E00083860002075
:100DF000644E00087C4E000838B5244C244B9C42BD
:100E000021D2013B1B1B032B22463BD99B08214DC2
:100E100003F1010C4FEA5C0E2B4605EBCE0ED3E935
:100E2000000108339E45C2E9000102F10802F6D133
:100E30001CF0010F07D02CF0010C04EB8C0405EB27
:100E40008C052B682360144C14498C4218D201394C
:100E5000091B0329234617D989080131480804EBE7
:100E6000C0000022C3E9002208338342FAD1CB0735
:100E700006D521F0010104EB810C0023CCF80030F1
:100E8000FFF76AFE034DDCE7A446F6E7000000200A
:100E900000000020685100080000002034200020DD
:100EA00030B5044612B3501E0228C9B220D94FF003
:100EB000000C61F3070C61F30F2C61F3174C22F067
:100EC000030561F31F6C234604EB050E43F804CBC6
:100ED0009E45FBD1AA4209D0401B8EF8001028B1D4
:100EE00001288EF8011018BF8EF80210204630BD80
:100EF000A646F2E772B3F0B5541E052C164620D96B
:100F0000451A013D022D84460B461AD922F00305ED
:100F100097086A1853F804EB4CF804EB9342F9D1A4
:100F2000AE420DD011F8272000F82720641B00EBFB
:100F3000050205D059785170012C01D09B7893702F
:100F4000F0BD441E8B1911F8012B04F8012F8B42C0
:100F5000F9D1F0BD704700BF0649C31D0A6823F0F0
:100F600007031344B3F5005F9DBF03480B6080186F
:100F7000002070471000002014000020704700BFC0
:100F8000DFF8A0C0DCF80030CBB9244AD2F83438FE
:100F900043F04003C2F83438214AD2F8003843F015
:100FA0000403C2F80038D2F80438DB07FBD5D2F8C6
:100FB000043813F0600F2ED10123CCF80030032940
:100FC00011D9174AD2F80438DB07FBD5D2F8043818
:100FD00013F0600FA1F104011DD1D2F8083840F8D8
:100FE000043B0329EED8A1B10D4AD2F80438DB073F
:100FF000FBD5D2F8043813F0600F0CD1D2F80838C2
:101000000370012905D01A0A0329427001D11B0C73
:101010008370002070474FF0FF307047003002406F
:101020000000065014200020C841704700BA7047E5
:1010300092080AD00439043801EB820251F8043FC7
:101040001BBA914240F8043FF8D17047034608BAF2
:1010500019BA704710B50C468107BFF35B8F07D0F4
:1010600000239CB300F8013B820704F1FF34F8D160
:10107000032C20D9231F032B4FEA930127D901F119
:10108000010E4FEA5E0C034600EBCC0C0022C3E9D4
:10109000002208336345FAD11EF0010F06D02EF06E
:1010A000010E00EB8E0E0023CEF80030043000EB72
:1010B000810004F003043CB10023012C037003D031
:1010C000022C437018BF8370BFF35B8F10BD864640
:1010D000E9E700BF002A10DD00B500F1FF3C01394F
:1010E000624400201CF8013F11F801EF624583EAD9
:1010F0000E0340EA0300F5D100BD0020704700BF99
:1011000082B088424FF0FF3338BF00230193019A29
:10111000019B20EA02000B40184302B0704700BF59
:101120002DE9F041A6B000244FF4DC738DF80240A5
:10113000019300286BD018460E469046FFF776FFC5
:10114000012301908DF803300225372705E00AA816
:1011500001F0C2F9012D40D001250AA801F084F95F
:101160000446002839D101220DF103010AA801F03B
:101170007BF804460028EAD19DF8033004220133AD
:101180000DEB02010AA88DF8033001F06DF804465A
:101190000028DCD19DF80230042B2ED137224146A5
:1011A0000AA801F061F804460028D0D102A90AA8D3
:1011B00001F0CAF804460AA801F08EF9002CC9D142
:1011C000202F14D93046202202A9FFF793FE012DCB
:1011D000A7F1200706F12006BED102A82021FFF7C3
:1011E00039FF201E18BF012026B0BDE8F0813A4625
:1011F00002A93046FFF77EFEACE701220DF10201A5
:101200000AA801F031F804460028A0D1C6E7012061
:1012100026B0BDE8F08100BF2DE9F043A7B004245B
:101220000E464FF4DC718DF802400191002875D014
:10123000084699469046FFF7F9FE012301908DF884
:1012400003300225372705E00AA801F045F9012DF2
:101250004AD001250AA801F007F90446002843D125
:1012600001220DF103010AA800F0FEFF0446002848
:10127000EAD19DF80330042201330DEB02010AA8E4
:101280008DF8033000F0F0FF04460028DCD19DF813
:101290000230042B32D14A4641460AA800F0E4FF4E
:1012A00004460028D0D12E9B13B12F9B002B39D19F
:1012B000309B13B1319B002B3DD102A90AA801F04C
:1012C00043F804460AA801F007F9002CBFD1202FEB
:1012D0001ED93046202202A9FFF70CFE012DA7F1EE
:1012E000200706F12006B4D102A82021FFF7B2FEA4
:1012F000201E18BF012027B0BDE8F08301220DF1A8
:1013000002010AA800F0B0FF044600289CD1C2E701
:101310003A4602A93046FFF7EDFD98E7012027B0D5
:10132000BDE8F0832E991A460AA800F09DFF0446F6
:10133000002889D1BCE730991A460AA800F094FF2A
:101340000446002880D1B8E72DE9F043A7B0012476
:101350000E464FF4DC718DF802400191002875D0E3
:10136000084699469046FFF761FE022501908DF8E8
:101370000340372705E00AA801F0AEF8012D4BD055
:1013800001250AA801F070F80446002844D1012282
:101390000DF103010AA800F067FF04460028EAD116
:1013A0009DF80330042201330DEB02010AA88DF8E9
:1013B000033000F059FF04460028DCD19DF80230CC
:1013C000042B33D1372241460AA800F04DFF0446D2
:1013D0000028D0D1B9F1000F02D02E9B002B39D1BB
:1013E0002F9B13B1309B002B3DD102A90AA800F01E
:1013F000ABFF04460AA801F06FF8002CBED1202FE5
:101400001ED93046202202A9FFF774FD012DA7F155
:10141000200706F12006B3D102A82021FFF71AFE0B
:10142000201E18BF012027B0BDE8F08301220DF176
:1014300002010AA800F018FF044600289BD1C1E76A
:101440003A4602A93046FFF755FD97E7204627B0F8
:10145000BDE8F0831A4649460AA800F005FF044695
:10146000002888D1BCE72F991A460AA800F0FCFE94
:10147000044600287FF47FAFB7E700BF30B595B0D2
:101480000446059115460021372206A8FFF708FDFE
:101490000022CDE90122059B009504F1080206A96E
:1014A0002046FFF751FF38B1012506A83721FFF785
:1014B000D1FD284615B030BD372206A904F1080039
:1014C000FFF718FD04F1080204F13F012046FFF781
:1014D00027FE05460028E7D101220023C4E90023A6
:1014E000E3E700BF2DE9F04FDDB0002800F0A68053
:1014F0000568C54C476801970E46AC424FF00001A5
:10150000B941AB46C0F09F801D4603239246044676
:101510008DF8173015B1669B002B77D106AB04F11F
:1015200008090293BAF1010F38BF4FF0010A1AF00F
:101530001F0718BF01270DF1580807EB5A1737226C
:1015400049464046FFF7D6FC67B13346002556466C
:101550000394BA461F4640A800F086FF78B140A821
:1015600000F0BAFF37214046FFF774FD01250298CD
:101570002021FFF76FFD28465DB0BDE8F08F3722D0
:10158000414640A800F070FE0028E8D10EA940A80E
:1015900000F0DAFE044640A800F09EFF002CE1D1E6
:1015A00047B136B11F2E1ED832460EA93846FFF776
:1015B000A1FC00260135AA45CDD140463721039C28
:1015C000FFF748FD24A800F04FFF002840D024A8D2
:1015D00000F082FF0125D4E90032013342F100021C
:1015E000C4E90032C3E7202238460EA9FFF782FC87
:1015F000203E20370DF18F0212F8013D0133DBB29E
:101600001370002BD6D19045F6D1D3E7022324A83E
:101610008DF8003100F028FF80B9012240A924A8EC
:1016200000F022FE002800F0B18024A800F054FF52
:1016300006AB029302982021FFF70CFD01252846F6
:101640005DB0BDE8F08F022528465DB0BDE8F08FA3
:101650000DF11701012224A800F006FE0028B6D1E2
:101660003722494624A800F0FFFD0028AFD1029997
:1016700024A800F069FE054624A800F02DFF002DE7
:10168000A8D104F13F010DF1370608462B460DF1B4
:10169000170710F801CD16F8012962441344B74228
:1016A00003704FEA1323F4D104F11F0010F8012D49
:1016B00013449BB2814503704FEA1323F6D10023F4
:1016C00011F8012D91F837000244134449450B707D
:1016D0004FEA1323F4D101995846FFF7B7FC94F869
:1016E0003E3094F83D2003EB116384F83E30C3F3A1
:1016F0000723C1F30746134494F83C203344C1F355
:101700000726324484F83D3002EB132394F83B2043
:101710009BB252FA81F101EB132184F83C3094F82A
:101720003A3084F83B1003EB106303EB112394F879
:10173000391094F83820C3F307260E4499B2C0F349
:1017400007431E44C0F307231A4494F8373002EBD2
:10175000162253FA80F0C2F307230344002063F3F8
:10176000070092B262F30F2066F3174061F31F6027
:1017700021461B0A41F8370F11F8012D13449BB283
:1017800049450B704FEA1323F6D124E704F1080909
:101790003722494624A800F067FD00287FF445AFB2
:1017A000669A294624A800F05FFD00287FF43DAF2B
:1017B00006AB194624A8029300F0C6FD054624A8EE
:1017C00000F08AFE002D7FF435AF2B4604F13F0078
:1017D0000DF137010DF1170510F8017D11F8012900
:1017E0003A441344A94203704FEA1323F4D104F19D
:1017F0001F0111F8012D13449BB249450B704FEAAC
:101800001323F6D18EE600BF3F420F00F0B585B03E
:1018100015460A9C0F9A8CB30E9C7CB359BB802A48
:1018200059D104460F4600211E46FFF739FB109B95
:10183000A3670021CDE90211CDE90056DDE90A23B5
:1018400004F108012046FFF7E7FCD0B14FF0FF3567
:1018500020468021FFF7FEFB0022631E04F17F007B
:1018600013F8011F984242EA0102F9D1002A32D14D
:10187000284605B0F0BD0C9C002CD0D16FF0AC0513
:10188000F6E704F1080204F13F012046FFF748FCA7
:101890000028DBD101220023C4E9002337B1DDE9B0
:1018A0000C122046FFF7EAFD0028CFD100230E9945
:1018B000009380222046FFF715FE0028C6D1009035
:1018C00003460E9980222046FFF70CFE051E18BF26
:1018D00001256D42BCE74FF0FF35C9E700286DD008
:1018E00003296BD92DE9F0434F1E0478ADF5017D36
:1018F0000744024601234FF00008254612F8014F25
:10190000AC4214BF0125002503F1010318BF0023D9
:101910002B441E2BC8BF48F001089742EDD18946E1
:1019200006464FF400714846FFF7EAFB4FF4007299
:101930000546002168466C46FFF7B2FA5DB1721E9B
:10194000A81812F8011F34F81130904203F1010376
:1019500024F81130F5D1ADF102030DF5FF7100202F
:1019600033F8022FB2F5A27F88BF40F00100994200
:10197000F6D1A94517D9013E354416F8011F15F8CF
:10198000012F34F81130013B24F8113034F81230B3
:1019900001339BB2B3F5A27F88BF40F00100AF4294
:1019A00024F81230E9D1B8F1000F0AD1404518BF30
:1019B0006FF493700DF5017DBDE8F0836FF0AC001E
:1019C00070470148F6E700BFDAFEFFFFF0B5C9B087
:1019D000204B42680293204B009330212027802621
:1019E00028AC0023CDE905620546019104941A460E
:1019F000039701210DEB0700FFF708FF18B103263D
:101A0000304649B0F0BD154932462046FFF762FB2B
:101A10000028F4D124212046FFF7B2FA38B101267C
:101A200020462421FFF716FB304649B0F0BD2421A3
:101A30002046FFF753FF06460028F1D12A7C002AF2
:101A4000EED1E8680028EAD03A4629A9FFF716FD4A
:101A50000646E5E7F04F000810500008704F0008F8
:101A60002DE9F04FCDB0002800F0E78004468B460A
:101A70001E461546002945D014220021FFF710FA12
:101A8000854A666012680023E3602372002A40F0F2
:101A9000D180002D44D0202309934FF0240A002345
:101AA00023748020FFF758FA0023E060002800F03C
:101AB000DF80CDE9023330226768DFF8E4910192DC
:101AC0004FF080082CAE0697CDF80090CDF814802A
:101AD00004961A4619460CA8FFF798FE28B35146FB
:101AE0003046FFF7B7FA257C25B9E06810B1FFF75B
:101AF00045FAE560032323726FF0D00948464DB0E4
:101B0000BDE8F08F002A40F098801422FFF7C8F952
:101B1000614B66601B68E5602572002B40F08A808F
:101B2000302309934FF0340AB9E75C494246304606
:101B3000FFF7D0FA0028D2D12023CDE90306029086
:101B400001460193CDE90587CDF8009009F1200207
:101B50000CA81023FFF75AFE0028C0D14F49424677
:101B60003046FFF7B7FA0028B9D151463046FFF7A3
:101B700007FAA0B10223237251463046FFF76AFAF2
:101B8000257C25B9E06810B1FFF7F8F9E5606FF042
:101B9000C6090223484623724DB0BDE8F08F514676
:101BA0003046FFF79BFE814658B9217CD1B15146A2
:101BB0003046FFF74FFA0123484623724DB0BDE887
:101BC000F08F51463046FFF745FA257C25B9E0688D
:101BD00010B1FFF7D3F9E5600223484623724DB0F8
:101BE000BDE8F08F4246D4F80C8063680B91404604
:101BF0000A93FFF755F90B990A9BC8F878302DAA7C
:101C0000CDE90211CDE900B5099B08F10801404674
:101C1000FFF702FBA0B151463046FFF71BFA237CC9
:101C2000002BB4D1E0680028B1D0FFF7A7F900235A
:101C3000E360ACE76FF0BF0960E76FF0AC095DE708
:101C400008F13F0108F108024046FFF769FA5146E2
:101C500030B13046FFF7FEF9257C002D92D096E793
:101C600001220023C8E900233046FFF7F3F9A2E779
:101C70000223237251462CA8FFF7ECF9257C3DB9CD
:101C8000E06828B1FFF77AF96FF07C09E560A3E717
:101C90006FF07C09A0E700BF18200020C04E0008AC
:101CA000404F000800231A461946FFF7D9BE00BF6F
:101CB00068B361B3002A38D0B2F5803F27D890F8D6
:101CC00008C0BCF1010F2DD170B5037C82B016465F
:101CD0000D4604462BB102236FF0C600237202B0FA
:101CE00070BD0093C068FFF7FDFB022804D00028F8
:101CF000F1D1002002B070BD2046FFF767FE48B169
:101D00000328E8D120726FF0D00002B070BD6FF0F0
:101D1000AC007047009003463246E0682946FFF762
:101D2000E1FBE4E76FF0C60070470020704700BF9A
:101D300050B310B50446C06882B0F8B1802101905C
:101D4000FFF788F901980022431E00F17F0C13F879
:101D5000011F9C4542EA0102F9D1E068002A18BF40
:101D60006FF0C60218B10192FFF708F9019A00233B
:101D7000E36010460023237202B010BD0246002328
:101D80001046237202B010BD6FF0AC0210467047CF
:101D90002DE9F04FD0E90038CBB0D0F80CA0059376
:101DA0000B680A934B680B938B680C93CB680D936D
:101DB0000B690E934B690F938B691093CB69119349
:101DC0000B6A12934B6A13938B6A1493CB6AD0F805
:101DD000089015934369039383690193C36904933E
:101DE0000B6B16934B6B1793CDE906A98B6B18936E
:101DF000CDE908800AAACB6BD0F810B019933AAF9E
:101E000015460292AE6B11213046FFF70DF91321F2
:101E100004463046FFF708F9444084EA9628A9466C
:101E20006E6A55F804AF07215046FFF7FDF81221FE
:101E300004465046FFF7F8F8D9F8003044401E44F5
:101E400084EADA0446443444BD42EC63DAD1DDE985
:101E50000886019F044BCDF804B0DDF814B0DDE92D
:101E600006A9069602E000BF40500008019D0593B8
:101E700006212846FFF7D8F80B2104462846FFF72D
:101E8000D3F8192144402846FFF7CEF8059B019569
:101E90001A68029B84EA000616441A68049C1644D9
:101EA000039A7A402A407A40022158461644FFF7A6
:101EB000BBF826440D2104465846FFF7B5F8162115
:101EC00044405846FFF7B0F84BEA08050BEA080211
:101ED00005EA09051543B24460403544054406212E
:101EE0005046FFF7A1F80B2104465046FFF79CF837
:101EF000192144405046FFF797F8059B04935A6810
:101F0000029B019984EA0006164403985A683E44ED
:101F1000164481EA000202EA0A02424002212846EF
:101F20001644FFF781F80D2104462846FFF77CF898
:101F3000162144402846FFF777F8B14445EA0B07DD
:101F400005EA0B02444007EA080706214846174302
:101F5000FFF76AF8344427440B2104464846FFF74C
:101F600063F8192144404846FFF75EF8049B019945
:101F70009A68029B84EA0006039816449A6806440D
:101F800016448AEA010202EA09024A40384602215E
:101F90001644FFF749F80D2104463846FFF744F888
:101FA000162144403846FFF73FF884EA00023244E5
:101FB00006EB080445EA070605EA070106EA0B06F0
:101FC0000E43204606211644FFF72EF80B218046CB
:101FD0002046FFF729F8192188EA00082046FFF774
:101FE00023F8049B0393D968029B88EA00020A4401
:101FF00001990A44D9680A448AEA0901214081EA20
:102000000A010A44304602210192FFF70DF80D2122
:1020100080463046FFF708F8162188EA0008304667
:10202000FFF702F8019A88EA00089344904447EACF
:10203000060207EA06012A400A434244062158469E
:102040000192FEF7F1FF0B2180465846FEF7ECFFA8
:10205000192188EA00085846FEF7E6FF039B1A6933
:10206000029B88EA000890441A690198904489EA22
:10207000040202EA0B0282EA0902C24402219244EB
:10208000FEF7D2FF0D2180460198FEF7CDFF162105
:1020900088EA00080198FEF7C7FF019A88EA00085D
:1020A0005544D04446EA020A0AEA070A32400621A9
:1020B00028464AEA020AFEF7B7FFC244A8460B21A7
:1020C00005464046FEF7B0FF192145404046CDF891
:1020D0001080FEF7A9FF039B04995A69029B85EAC9
:1020E000000890445A69904484EA0B020A40624016
:1020F000C844022150469044FEF796FF0D21054644
:102100005046FEF791FF162145405046FEF78CFFE2
:10211000019A474442EA0A09454002EA0A0209EAEA
:1021200006090621384649EA0209FEF77DFF4544C3
:10213000A9440B2105463846FEF776FF1921454094
:102140003846FEF771FF039B05939A69029B049939
:10215000454015449A6915448BEA01023A4082EAE7
:102160000B022544022148461544FEF75DFF0D2170
:1021700004464846FEF758FF162144404846FEF7FD
:1021800053FF44407019019E62194AEA09040AEAA1
:10219000090134400C43062104EB02080546FEF712
:1021A00043FF0B2104462846FEF73EFF1921444019
:1021B00028460395FEF738FF059B029DDA69049BCC
:1021C00044401444EA690398144483EA0702024035
:1021D0005A40A344022140469344FEF725FF0D21B7
:1021E00004464046FEF720FF162144404046FEF7D5
:1021F0001BFF05F12002029249EA080206EB0B03DD
:10220000444002EA0A0209EA08010A435C440193D5
:10221000059B02EB040B134A20339A427FF426AE4F
:10222000069E33685A46134433607368DDF804B081
:10223000039A43447360B3684B44B360F3685344F8
:10224000F36033695B44336173691344B26973614A
:102250003A44F369B261049A1344F3614BB0BDE8A8
:10226000F08F00BF40510008002869D02DE9F047E9
:102270008946904600293BD0016E3F295DD8436EC8
:10228000D318436602D3836E01338366064600F19A
:10229000200481BBB8F13F0F1DD94FEA981707F111
:1022A000FF3A4D4609EB8717294640222046FEF7A4
:1022B00021FE4022214620461544FEF7B9FE214664
:1022C0003046FFF765FDBD42EED109F1400908F047
:1022D0003F0809EB8A19B8F1000F0AD04246494677
:1022E0002046FEF707FEC6F860800020BDE8F087B4
:1022F00002BB0020FAE7C1F140014046FEF700FFB3
:1023000005460246306E49462044FEF7F3FD336E23
:10231000EA18402AA944A8EB05083266BAD121463A
:102320002046FEF785FE21463046FFF731FD0023AB
:102330003366AFE76FF0AC00D8E76FF08300D5E706
:102340006FF0AC00704700BF002876D0002974D031
:10235000036E3F2B74D870B55A1C00F1200502663D
:102360008022EA54036E382B0E4604460FD93F2BC9
:102370005CD9402229462846FEF75AFE20462946C7
:10238000FFF706FD002338222366284602E0E818FE
:10239000C3F138020021FEF783FDD4E919315A0F49
:1023A00002EBC102DB00C4E9193229462846382273
:1023B000FEF73EFE04F16801042204F15800FEF726
:1023C00099FD042204F1640104F15C00FEF792FD22
:1023D00029462046FFF7DCFC214620462022FEF756
:1023E00027FE214620223046FEF784FD20220021D0
:1023F0002046FEF755FD144A144BC4E90023144A45
:10240000144BC4E90223144A144BC4E90423144BAB
:10241000144A0021C4E90623216640222846FEF71B
:102420003FFD0021C4E91911084670BDC3F1400207
:10243000E8180021FEF734FD9BE76FF0AC00704711
:102440006FF0BF00704700BF67E6096A85AE67BBE3
:1024500072F36E3C3AF54FA57F520E518C68059B86
:1024600019CDE05BABD9831F10B310B5202200213A
:102470000446FEF715FD1048104B114AC4E900034D
:10248000104B1148C4E90223104B114AC4E904035C
:10249000104B0021C4E906232166402204F12000EC
:1024A000FEF7FEFC0021C4E91911E166084610BDE3
:1024B0006FF0AC00704700BF67E6096A85AE67BB86
:1024C00072F36E3C3AF54FA57F520E518C68059B16
:1024D000ABD9831F19CDE05B10B17021FEF7BABDF7
:1024E000704700BF094A13680BB10948704700B52F
:1024F00083B007480193FFF7D5FB28B9034A044886
:102500000123136003B000BD0198FBE71C200020ED
:10251000202000202DE9F04FBBB007460E46904624
:1025200099464FF0000A32AC202221464846FFF778
:10253000BFFB0028C0F20C823AAB02E0A34200F0DD
:10254000F38113F8012DFF2AF8D022AB4846202250
:1025500019460493FFF7ACFB0390002840F0F68186
:102560009DF8A72096F804B0357B31780D9502F0E0
:102570007F0209928DF8A72072780A92727B0E92E0
:10258000F27B0692327C07923846727CB7780597C8
:102590000892F7789DF88C20B57B0B9796F805A0EC
:1025A00096F8069096F809E096F80AC0377A0C91EA
:1025B0004346F17A96F807800F958BEA02020B9D4D
:1025C00082EA4B0282EAD5159DF88D2010958AEAA1
:1025D000020282EA4A0282EADB1211929DF88E2000
:1025E0000D9D89EA020282EA490282EADA12129217
:1025F0009DF88F2088EA020282EA480282EAD91214
:1026000013929DF890207A4082EA470282EAD8121B
:1026100014929DF891208EEA020282EA4E0282EA2A
:10262000D7179DF8922015978CEA020282EA4C0295
:1026300082EADE179DF8932016974A4082EA41020B
:1026400082EADC179DF8942017976A4082EA4502D7
:102650000E9F96F812E082EAD1119DF895200D9117
:102660007A4082EA470282EAD5110F9D9DF89620B2
:102670000E916A4082EA450282EAD711069F9DF8D0
:1026800097200F917A4082EA470282EAD511377D7E
:10269000327F1891317E9DF898C0079D96F815B04D
:1026A00096F819A096F81D8085EA0C0C8CEA450C6A
:1026B000069D8CEAD5159DF89CC0199587EA0C0CEF
:1026C0008CEA47099DF8A0C081EA0C0C8CEA410510
:1026D0009DF8A4C0069582EA0C0C8CEA42051E9572
:1026E0009DF899C0089D85EA0C0C8CEA450C079D65
:1026F0008CEAD5159DF89DC01A958BEA0C0C8CEAD6
:102700004B0C8CEAD7171B979DF8A17096F817C051
:102710008AEA070787EA4A0787EAD1179DF8A510D2
:102720001D9788EA010181EA480181EAD2170C99D4
:102730009DF888201F974A4082EA41070A9A20970D
:1027400082EAD1112191F17C079189EAD111B77DFB
:102750000C910699B27E069281EADC111E9A1C91B8
:10276000F17E96F81E90F67F089D009482EAD112C1
:102770001E92099A724082EA460282EAD9169DF8B0
:102780009A2009968EEA020282EA4E0282EAD51562
:102790009DF89E2008957A4082EA4702069D219E78
:1027A00082EADB1B9DF8A2206A4082EA450282EAA7
:1027B000DA1A9DF8A6200A9D89EA020282EA4902F5
:1027C00082EAD8189DF88920724082EA4509059E60
:1027D0009DF88A20724082EA460282EAD5120A9265
:1027E000079D9DF89B206A4082EA450282EADE1E30
:1027F0009DF89F200B9D8CEA020282EA4C0282EA3D
:10280000D7129DF8A3704F4087EA4107069987EADF
:10281000D1179DF88B10059E694081EA450181EA38
:10282000D611039E109DB44665F3070C119D65F308
:102830000F2C129D65F3174C139D65F31F6C149DAF
:10284000CDF8ACC0B44665F3070C159D65F30F2CAD
:10285000169D65F3174C179D65F31F6C0D9DCDF804
:10286000B0C0B44665F3070C0E9D65F30F2C0F9DA9
:1028700065F3174C189D65F31F6C199DCDF8B4C016
:10288000B44665F3070C1A9D65F30F2C089D65F39C
:10289000174C0C9D6EF31F6CCDF8B8C0B44665F3B1
:1028A00007061B9D65F30F266BF3174662F31F6641
:1028B0002F961C9E1D9D624666F3070265F30F224C
:1028C0006AF317421E9D099E67F31F6230921F9F95
:1028D000624665F3070267F30F2268F31742209FF1
:1028E00066F31F626546319267F307050A9A69F33A
:1028F0000F2562F317452AAE61F31F65049A2A95E6
:10290000314601F037FD039004982021FEF7A2FB29
:1029100030462021FEF79EFB20462021FEF79AFB41
:1029200003983BB0BDE8F08F9DF8C830EC2B7FF6E4
:102930000CAE0AF1010ABAF10A0F7FF4F5AD6FF09F
:10294000C603039322AB2AAE0493DDE72AAEDBE78E
:1029500022AB03902AAE0493D6E700BF202845D1CE
:10296000202A43D1002941D0002B3FD038B5049A0A
:102970003AB31A78520724D1DA7F02F0C002402A13
:102980001FD11D460C4600F017FA049B194A294630
:102990002046FFF7BFFD80B904F120021F2301E0AC
:1029A000013B0BD012F8011D0029F9D094F91F301A
:1029B000E27F002B17DB7F2A06D038BD2378012B5E
:1029C000F4D86FF0A90038BD04F11F021E2301E006
:1029D000013B04D012F8011DFF29F9D038BD23783E
:1029E000EB2BEED838BD6FF0D80038BD6FF0A900E2
:1029F000704700BF40510008202828D1202A26D146
:102A000029B323B31878400721D1D87F00F0C00044
:102A100040281CD170B58AB005A81E4615460C4644
:102A2000FFF740F9034610B118460AB070BD05AB78
:102A300000932A46334621462846FFF78FFF03902E
:102A400005A8FFF775F9039B18460AB070BD6FF033
:102A5000A9031846704700BF002A3CD000283AD08E
:102A6000202935D130B5144685B004F129030A4632
:102A70000391194605460293FFF71AF930BB94F803
:102A80002910009594F84800039A029B21F0070151
:102A900084F8291094F8541000F07F0040F04000B2
:102AA00041F0020184F8480084F85410104604F103
:102AB0000801FFF753FF00B9256594F85420B0FAD8
:102AC00080F35B0963F3000284F8542005B030BD45
:102AD0006FF0A90070476FF0AC0070472DE9F0412E
:102AE0008AB0002863D0002961D0002A5FD0002B73
:102AF0005DD01C681F2C5AD991F85440E50753D576
:102B000090F85440A4074FD591F92740002C4BDB97
:102B1000064601AC0D4690460021212220461F4664
:102B2000FEF7BEF905F10802336D06F129012046D2
:102B3000FFF7F0FC0546D0B9DDE901321A43039BEB
:102B40001A43049B1A43059B1A43069B1A43079B8F
:102B50001A43089B1A43C2F307231343C2F30741E6
:102B60000B4343EA1263DBB24BB96FF0D805212166
:102B70002046FEF76FFA28460AB0BDE8F081109BA8
:102B8000012B0BD109AB08F1FF3213F8011D02F83C
:102B9000011F9C42F9D120233B60E8E720224046F8
:102BA0002146FEF7A7F9F6E76FF0A905E3E76FF016
:102BB000AC05E0E72DE9F04184B000283FD00029C2
:102BC0003DD0002A3BD014681F2C3BD91E4690F8FC
:102BD0005430DB0715468846044619D5002700F116
:102BE0000801012E0FD104F1280308F1FF3413F876
:102BF00001CD04F801CF8B42F9D120232B60384658
:102C000004B0BDE8F08120224046FEF773F9F4E7F6
:102C1000036D0093202200F1080100F12903104602
:102C20000391FFF79BFE94F854200399B0FA80F3C8
:102C30005B0963F30002074684F85420D1E76FF084
:102C4000AC07DCE7202313606FF0A907D7E700BFCC
:102C500022B318B320291ED1012B10B5144613D16D
:102C600000F1200302F1070C13F801ED0CF801EF5D
:102C70009842F9D194F854300A4A626043F0010353
:102C800084F85430002010BD0A46014604F10800C3
:102C9000FEF730F9EEE76FF0A90070476FF0AC0077
:102CA000704700BF6051000860B359B352B310B50C
:102CB00090F85440A40722D514681F2C1DD9012B6D
:102CC00014468C460FD101F1FF3C00F1490300F19D
:102CD000290113F8010D0CF8010F8B42F9D12023C3
:102CE0002360002010BD00F1290120226046FEF77C
:102CF00001F9202323600020F4E7202313606FF004
:102D0000A90010BD6FF0AC00704700BF92B388B34C
:102D100020292CD1012B10B5144621D100F120031C
:102D200002F1280C13F801ED0CF801EF9842F9D1EB
:102D300094F8483094F8292094F854100F486060B3
:102D400003F07F0322F0070243F0400341F0020149
:102D500084F8292084F8483084F85410002010BDED
:102D60000A46014604F12900FEF7C4F8E0E76FF0D7
:102D7000A90070476FF0AC00704700BF60510008B9
:102D800070B100B583B0002158220190FEF788F899
:102D9000019B054A5A6000F00FF8002003B000BD07
:102DA0006FF0AC00704700BF6051000810B15821AF
:102DB000FEF750B9704700BF704700BF2DE9F04FD4
:102DC000D1E9014399B026220693D1E908370D973E
:102DD00002FB07F703970B9403EBC30764001790FC
:102DE0000094D1E90680CC680A9303EB4703099469
:102DF0000493069B0E680590D1E904540999039F3A
:102E00000295580007904B00059808EBC80108EBA5
:102E1000410B690002FB00FC0E914000610008912B
:102E20000F9000980C9480FB07177500079801938A
:102E3000C6FB0617049EC0FB06170E9EC3FB0C17AD
:102E400004FB02F2C6FB0B17C4FB021711F1007260
:102E50004FEA926902F07C421092039E069A0B9C04
:102E600082FB0662C5FB0462049CC3FB0462029BF6
:102E7000089C47F1000AC3FB0C62C4FB0B6249EAE1
:102E80008A1919EB060942EBAA621192109A0B9E5D
:102E9000009B8A1A129267EB0A021392069A049F09
:102EA00086FB0310039E019BC5FB02100E9AC3FB19
:102EB0000610C7FB0210C4FB0C100A461946009B03
:102EC00083FB0171029BC5FB0371069B0695C3FB47
:102ED0000371C4FB0671049CC8FB0B204FEA480E2B
:102EE0000B92C4FB0E7132461C46059E009BC6FB2E
:102EF0000C7184FB0364099BC5FB0364029B089D62
:102F0000C3FB0264049BC5FB0364029B009DC8FBDA
:102F10000C64109683FB05C6069D0C9BC5FB03C67F
:102F2000099B079DC3FB05C617F1007B049B009D11
:102F3000C8FB02C60F9A41F1000A4FEA9B6EC2FB22
:102F400003C64EEA8A1E1EEB0C0E0BF07C4B119A48
:102F500046EBAA66B7EB0B03149361EB0A0319F176
:102F6000807C0B99159342F100024FEA5C6A4AEAB1
:102F7000C21A1AEB01010CF07E4C40EB6260B9EB17
:102F80000C021192089A029B0B9185FB022C069D64
:102F90000799099FC5FB082CC3FB012C019B039DCE
:102FA0000A99C7FB032C0F9F1EF18079C7FB052CE4
:102FB000049D46F100064FEA596AC1FB052C4AEA16
:102FC000C61A1AEB020215460B9A09F07E494CEB21
:102FD000666CBEEB090612F1007240F10000099622
:102FE00010990495960E46EA8016761844EBA06474
:102FF00002F07C4015F10072009D0F9602F07C46B5
:103000000A99109016964FEA926085FB0762069D1A
:103010000D9FC5FB01620799039DC8FB01620899DA
:10302000C3FB0162029B0C99C3FB0362B346C7FB5F
:1030300005B2009D079B88FB05E6DDE90575C5FB2C
:1030400007E6C1FB03E6DDE90153C3FB05E60A9B86
:10305000039D0D9F4CF1000CC3FB05E640EA8C106C
:10306000009D10EB0E0046EBAC6683FB05C3069D8E
:10307000C5FB07C3059F079DC7FB05C3019D149FA3
:10308000C8FB05C30E9DC1FB05C30F9DE24615F1AC
:10309000807C44F1000E4FEA5C6444EACE14E419EB
:1030A000159F47EB6E6110F1807946F100064FEAFB
:1030B000596E4EEAC61E1EEB0B0E0CF07E4742EB1D
:1030C000666214F10076019741F100071EF1007865
:1030D00042F100024FEA986C4CEA821C1CEB0A0C8D
:1030E000009743EBA2631CF1807743F100034FEAA2
:1030F000576B4BEAC31B5B164FEAC30A4FEACB027E
:1031000012EB0B024AEA5B7A129943EB0A0A921815
:103110004AEB0A0A12EB0B0243EB0A03521813990B
:1031200041EB030312F1007B119943F100034FEAD5
:103130009B6A4AEA831A0BF07C4BB2EB0B020B9BA7
:103140001AEB010A10995B1A0199B5EB010B17995B
:10315000049DC1E9002A009AC1E9023BB30E43EA8B
:103160008213099A06F07C46A61B9B18169A09F052
:103170007E4908F07C4807F07E47AC1AB0EB0900A6
:10318000BEEB0802BCEB0707C1E90463C1E90640D6
:10319000C1E9082719B0BDE8F08F00BF2DE9F04F55
:1031A0004C6AD1F80890D1F80C80D1F810C04D6964
:1031B000D1F818E0D1E900A204EBC40304EB430307
:1031C00003F180730AEB636302EBA36309EB6363B0
:1031D00008EBA363D1E907760CEB636305EBA3630C
:1031E0000EEB636307EBA36306EB636304EBA3637C
:1031F0005B1603EBC30103EB4103534402EBA362F1
:1032000009EB626108EBA1680CEB686C05EBAC653F
:103210000EEB656E07EBAE6706EB676689B004EBF5
:10322000A66424F07E44069425F07E450395069D11
:1032300028F07E4422F07E42019426F07C4627F05E
:103240007E47AD01059721F07C41019F029645EA3A
:10325000165B4FF00009951165F3070900264D1321
:103260002EF07C4465F307067D01049445EA515530
:103270004FEA8C1444EAD74465F30F26002564F323
:103280000705039C07964FF00008059E64F30708A6
:10329000049C4FEA663EE411029E002764F3070790
:1032A00000246EF307044FEA061E059E4EEA565EA2
:1032B00023F07C436EF30F244FF0000A4FF0000E12
:1032C00063F3070A6BF3070E4FEA232B6BF30F2A06
:1032D0004FEAA23B6BF30F294FEAC10B4BEA925B1B
:1032E000920042EA13621B1463F3174A62F31F6AE7
:1032F0006BF31749039AC0F800A0491161F31F69E5
:10330000CCF397030499C0F8049063F30F251312CC
:1033100063F30F28CB1363F30F27F30043EAD15372
:1033200063F317474B0043EA1263121462F3174822
:1033300063F31F68731163F31F67C0F81080476160
:10334000069A019F079E931063F30F2EFB1063F301
:103350001746FB1263F31F668660029ECCF38F2331
:1033600063F31745331163F31744331363F31F6497
:103370009312CCF3874C63F3174E93146CF31F65D1
:1033800063F31F6EC5608461C0F81CE009B0BDE83E
:10339000F08F00BF2DE9F04F8E794B798A7F91F83D
:1033A00009C00C7991F80BE091F80790360446EAD1
:1033B0000326CB7F120242EA03424B7F1A430B7A69
:1033C00092004FEA0C4C4CEA032C22F07E420B7B1D
:1033D00022F0030202F1807734431B0443EA0E23F8
:1033E000A40107F07E4EB2EB0E02B60E14F1807E01
:1033F00046F1000ACE7B4CEA09094FEA06484FEA3B
:103400005E668BB04FEA491946EACA1616EB090602
:10341000059201968A7A4FEA6A660EF07E4E46EB76
:10342000DC6BB4EB0E0406941A438C7B91F80DE030
:10343000D20048EA042612F1807C4FEA53738C7D57
:1034400043F1000346EA0E0E4FEA5C6848EAC318EF
:103450004FEA8E0E4FEA04490CF07E4C18EB0E0436
:103460004FEA6363D1F810E0029443EB96734E7D0C
:103470000393B2EB0C0207920A7D4B7E0C7E91F80F
:103480001C801EF1807C49EA06264FF0000545F1BC
:10349000000A32434FEA5C69D20149EACA1919EBC2
:1034A000020A0CF07E4C4FEA03434FEA566643EAA9
:1034B000042346F10006CC7DBEEB0C02089291F885
:1034C0001BE0D1F800C01C434FEA084848EA0E2E22
:1034D000640191F81A80DB0E14F1807143F100034E
:1034E0004EEA08084A0E4FEA081842EAC31212EBE5
:1034F000080201F07E414FEA636343EB1E737F0EC7
:10350000641A1321C7FB01C50199029F09941CF19C
:10351000007445F1000511F1007903994BF1000B9E
:1035200017F1007841F100074FEA946E03974EEAD5
:10353000851E1AF10077069D46F1000104F07C44D7
:1035400012F1007643F10003BCEB04041EEB050509
:10355000C0E900450491019D07994FEA996444EA46
:103560008B1409F07C49B5EB09056418C0E90254D5
:10357000039D08994FEA986444EA8514029D08F077
:103580007C48B5EB080564180499C0E90454BC0EE6
:1035900044EA8114099907F07C47BAEB07076418DD
:1035A000B10E41EA8311059B06F07C46921BC918B7
:1035B000C0E90674C0E908210BB0BDE8F08F00BF78
:1035C0002DE9F04FD1E90074A9B0D2E908650A9459
:1035D0006400129405EBC5038C681C9505EB43034E
:1035E0000294CD680B9506EBC60406EB44050795DF
:1035F00015691A901B96D0695669059306962B4655
:103600000E690B9DD2F818C0039600EBC0044E69FA
:1036100011900C9600EB44006E00D2F800B00990B7
:103620000CEBCC0450681396D568D2F808E00893E8
:103630000CEB44060D962E46069D109605EBC50232
:1036400005EB42021792D1E9065214460C9A0E94E9
:103650005200149203EBC30203EB4202199206EBF1
:10366000C60206EB420218920A6A04924A6A059B55
:103670000F9261005400129A169482FB0326029C5A
:10368000079B0197C7FB0B26C4FB0326139F099CCE
:103690001591C7FB0426039C0D9FC4FB0726149CB1
:1036A000179FC4FB0726199FC5FB0726159F189C6B
:1036B000059BC7FB04260EEBCE0A049F169C0EEB5F
:1036C0004A0AC7FB0A2600EBC00117460A9A00EB1C
:1036D0004101C4FB01768BFB0241019A1D97C2FB9D
:1036E0000041029AC3FB0241079A0B9BC2FB0341B4
:1036F000099B039AC3FB0241DDE90C23C3FB024192
:10370000179A199BC2FB05410E9AC3FB0241189BF5
:10371000049A17F10078C3FB02410F9A46F10009A1
:103720004FEA9867CAFB024147EA89173B191D9F78
:10373000129A1E9308F07C4841EBA961B7EB08048C
:1037400066EB09062196109E1F912094019986FB35
:103750000224089EC1FB0624029ECEFB0624139E73
:10376000C0FB0624039E059B1499079FCBFB0624F0
:10377000C3FB0124C7FB05241599099F069BC7FBC2
:1037800001240D99049FC1FB072490460A9F089AC3
:1037900082FB072A019FC7FB032A109B029FC3FBE2
:1037A000072A0B9B039FCEFB032A0C9BC0FB072A17
:1037B000CBFB032A059B0E9FDDE91661C3FB052A9F
:1037C000079BC3FB072A099B049FC1FB0684414654
:1037D000C3FB072A18F100780D9F0F9B44F10009E5
:1037E0004FEA9866C7FB032A46EA8916B61808F01E
:1037F0007C481E9F4AEBA96AB1EB0802229264EB57
:1038000009041F9A239417F1807442F10008129A58
:10381000019F80FB0221C7FB0E21029F059BCBFB72
:103820000721139FC3FB0721079B039FC3FB0721AE
:10383000099F149BC7FB03210D9F179BC7FB052105
:10384000159FC3FB0721199B049FC3FB0721189FEA
:10385000169B18954FEA5469C7FB032149EAC8191A
:103860001E9F089B19EB020204F07E4441EB686145
:103870003C1B1F922494129A069C16F180774AF101
:10388000000884FB022A019CC4FB0C2A029CC3FB97
:10389000042A109B139CC3FB042A039C059BCEFBAC
:1038A000042A149CC0FB042ACBFB052A159D049C0A
:1038B000C3FB052A079DC5FB042A099D169C4FEAF8
:1038C0005769C5FB042A49EAC81919EB020207F037
:1038D0007E474AEB686AF61B25961F9E1E9216F1DC
:1038E000007241F10007910E1D9741EA871102F025
:1038F0007C46DDE911721B9D26910199279687FB75
:103900000236029A069CC1FB0536139DCCFB02369B
:10391000C4FB0536089C039DC4FB0536109C149D12
:10392000C4FB0536189DCEFB0536159DC0FB05363C
:10393000049DCBFB05369846169D059BC3FB05866B
:1039400010961B9D0A9E85FB06531C9EC1FB0653C9
:10395000A9461D46C7FB02950B9F16464B462A46B5
:10396000CCFB0732039D069FC7FB05320C9F089DC9
:10397000C5FB0732189D0A9FC4FB05320E9DCEFB86
:103980000532049DC0FB05321D460F9BCBFB035245
:1039900012958CFB0753119FC1FB0753069F9C4652
:1039A000C7FB065C089B0B9F019EC3FB075C039B48
:1039B0000A9FC4FB035C0C9BCEFB035C8EFB0731B0
:1039C000C6FB0431029E0B9F059CC0FB0631039E83
:1039D000CBFB0731C4FB06310C9F079C189EC4FB30
:1039E0000731099F059CC7FB0631C0FB065CDDE97A
:1039F0000D70049EC7FB0031179FCBFB005CC7FB1B
:103A00000631C4FB065C0F9E079C199FC4FB065C35
:103A1000269CC7FB06311D9FE41841EBA7611E9F42
:103A2000229E17F100704AF100034FEA906E4EEAB1
:103A3000831E1EEB050E00F07C404CEBA36303904D
:103A400014F1807041F10001450E45EAC115AD1930
:103A5000239E129F46EB61611EF1807943F10003C2
:103A60004FEA596C109E4CEAC31C1CEB080C46EB49
:103A7000636315F1007641F1000100F07E401CF116
:103A80000078029043F100034FEA986040EA831007
:103A9000C01942EBA36310F1807743F100034FEAB2
:103AA000576B4BEAC31B5B164FEAC30A4FEACB02C4
:103AB00012EB0B024AEA5B7A019143EB0A0A209966
:103AC00092184AEB0A0A12EB0B0243EB0A03521854
:103AD000219941EB030312F1007B43F100034FEA0C
:103AE0009B6A4AEA831A249B27990BF07C4BB2EB22
:103AF0000B021AEB030A1F9B5B1A0299641A1A99AC
:103B0000C1E9002A019AC1E90234B30E43EA8213E3
:103B1000259A06F07C46AE1B99181E9B039A1A9DA7
:103B200009F07E4908F07C4807F07E479C1ABEEBFE
:103B30000902BCEB0803C01BC5E90461C5E90642E4
:103B4000C5E9083029B0BDE8F08F00BF2DE9F04F7E
:103B5000C1B00D4628220021044622A8FDF7A0F995
:103B6000282200212CA8FDF79BF92822002136A845
:103B7000FDF796F92822002118A8FDF791F92946AA
:103B800022A8FFF71BF922A92CA8FFF717F92CA9E7
:103B90000846FFF713F92CAA29461046FFF710FD37
:103BA00022A92CAA0846FFF70BFD22A936A8FFF789
:103BB00005F92CA9084636AAFFF702FD2CA936A85C
:103BC000FFF7FCF8042536A90846FFF7F7F8013D92
:103BD000F9D12CAA104636A9FFF7F2FC2CA936A879
:103BE000FFF7ECF8092536A90846FFF7E7F8013D8D
:103BF000F9D136A908462CAAFFF7E2FC36A918A885
:103C0000FFF7DCF8132518A90846FFF7D7F8013DA0
:103C1000F9D136AA104618A9FFF7D2FC36A90846F2
:103C2000FFF7CCF8092536A90846FFF7C7F8013D8C
:103C3000F9D12CAA104636A9FFF7C2FC2CA936A848
:103C4000FFF7BCF8312536A90846FFF7B7F8013D64
:103C5000F9D136A92CAA0846FFF7B2FC18A836A954
:103C6000FFF7ACF8DDE91A620A92DDE91C02029264
:103C7000DDE91E82632310930B92DDE918B3209ACD
:103C80000492219A0D92059008961794049D0D991F
:103C90000A9C05EBC50005EB400601965A00089EFC
:103CA0000B980392262202FB01F77100059E0C91EE
:103CB00002FB00F102980097770007910E974100F0
:103CC00002FB00F70B980691460000980C990F969E
:103CD0005A00019E82FB000CCBFB0B0CC1FB060CB7
:103CE00007990E9A640008EBC80508EB4505C4FB6C
:103CF000010CC2FB050C029AC2FB070C009F089A3C
:103D00004FEA4B0E82FB0772CEFB0372C4FB0672B6
:103D1000059E10F1007BC6FB01720699089E4CF1CE
:103D2000000A4FEA9B69C1FB057249EA8A1919EB3F
:103D300007090BF07C4B42EBAA67B0EB0B026CEB74
:103D40000A0015905800139783FB0003009F1492FC
:103D5000CEFB0603019E0E9A0994C4FB0703C6FB23
:103D60000203079A089EC1FB0203C8FB0503CDE9C5
:103D70001103039B019A83FB0450059CCEFB045066
:103D8000C6FB0650C1FB07504FEA48030799089E3F
:103D90000B9FC2FB0350039BC7FB015086FB03171D
:103DA0000A9BCEFB03172346009CC3FB0417069C0B
:103DB000C4FB02170A460799029CC8FB0127194653
:103DC000039B089281FB0316CEFB04160A9B0C9CF6
:103DD000C3FB0416009C0F9B15F1007BC8FB041667
:103DE000019C40F1000A4FEA9B6CC3FB04164CEAAD
:103DF0008A1C1CEB010C0BF07C4B1399119B46EBBE
:103E0000AA66B5EB0B0B60EB0A0019F1807A41F161
:103E100000024FEA5A61129D169041EAC211CB1876
:103E20000AF07E4A45EB62610793B9EB0A031193EE
:103E3000069B03980C9D80FB03230598CEFB08236B
:103E4000C0FB0523DDE90945C5FB04230F9D009C4C
:103E50001CF18079C5FB0423019C049D46F10006FA
:103E60004FEA596AC5FB04234AEAC61A1AEB020252
:103E700009F07E4943EB6663BCEB09061296079E88
:103E8000089D144616F1007241F10001960E46EAB3
:103E90008116761947EBA165059602F07C4614F170
:103EA000007202F07C4703990A964FEA92660F9AD5
:103EB0000895049D019481FB0212CEFB05120C9D16
:103EC000099C1397069FC8FB0512C4FB0712C0FB91
:103ED0000012009C0B9F89460D99C1FB0492039927
:103EE000029C88FB01C1CEFB07C1C4FB05C1099C34
:103EF000C0FB04C10498009C43F10003C0FB04C153
:103F000046EA831616EB0C0641EBA36103460398C1
:103F100083FB00430D98CEFB00430998C7FB054384
:103F2000C8FB00430E9F0298A446C0FB07C3059838
:103F300010F1807A08984FEA5A6740F1000447EA86
:103F4000C417169817EB0B0740EB646016F18078E6
:103F500041F100014FEA586545EAC11515EB090525
:103F600042EB616217F1007908F07E4440F10000F5
:103F700015F1007E42F1000200944FEA9E6444EA8B
:103F8000821414EB0C0443EBA26314F1807C43F124
:103F900000034FEA5C6B4BEAC31B5B16DA004FEA87
:103FA000CB0111EB0B0142EA5B7243EB02024918B1
:103FB000524111EB0B0143EB020B149A159B89182C
:103FC00043EB0B0B11F100724BF1000B930E02F05F
:103FD0007C4243EA8B13B1EB020B11990A9A5B18EE
:103FE00007998A1A059908920AF07E4AB1EB0A02EB
:103FF0004FEA996A09F07C490A92B7EB09024AEA4A
:10400000801A01991298139F0592009A1AEB0000EA
:104010000EF07C4EB1EB0708B21A0CF07E4C0B92FE
:10402000B5EB0E020492B4EB0C020D92109A0290C2
:10403000013A10927FF42AAE0598089E179C1A96B2
:10404000CDE918B30A9BCDE91B30029BCDE91D38A1
:104050000B9B1F9336AA049B209310460D9B219324
:1040600018A9FFF7ADFA36A90846FEF7A7FE3125D5
:1040700036A90846FEF7A2FE013DF9D12CAA10464A
:1040800036A9FFF79DFA2CA90846FEF797FE0425EE
:104090002CA90846FEF792FE013DF9D122AA2CA9CF
:1040A0002046FFF78DFA41B0BDE8F08F2DE9F04FC3
:1040B00085B0CC690194D0E900C34C6A02940C68C5
:1040C000D1F820B0D1E901A952428CEA040E0EEADF
:1040D000020E8CEA0E0CD1E90387D1E90565C0F820
:1040E00000C083EA0A0C0CEA020C83EA0C0343606A
:1040F000836884EA0E04039483EA09038468134006
:1041000084EA030E89EA0309C368C0F808E083EA79
:10411000080E0EEA020E83EA0E03C360036988EA02
:104120000E0E83EA070808EA020883EA080303611F
:10413000436987EA080783EA060808EA020883EA6F
:1041400008034361836986EA080683EA050808EAEA
:10415000020883EA08038361C369019C85EA0805B4
:1041600083EA040808EA020883EA0803C361036AD1
:104170008AEA0C0C8BEA030384EA080A046A1340F7
:1041800084EA03088BEA030B029C436AC0F8208090
:1041900083EA040808EA020883EA0802426284EA21
:1041A0000802039CC1E9029EC1E9004CC1E9047602
:1041B000C1E9065AC1E908B205B0BDE8F08F00BFF9
:1041C0002DE9F04F0B686A4D0F46496A81FB05C126
:1041D0001CF1807641F100014FEA566949EAC119A4
:1041E0004916CC004FEAC90212EB090244EA59749D
:1041F00041EB0404921883FB058E644112EB090223
:104200008BB07B6841EB040106F07E4612EB08029E
:104210004EEB010BBCEB060104920591FA6883FB9F
:10422000051E11F1807682FB052C06F07E447B6929
:104230004EF1000E0C1B12F1807909F07E480694B5
:104240004CF1000C83FB0534B2EB0802079213F12A
:10425000807202F07E4A44F10004B3EB0A03089333
:10426000760EBB68F96946EACE164FEA6E6EC3FB5E
:10427000056E4FEA596981FB0581019649EACC191F
:104280003E69520E18F180734FEA646A42EAC41222
:104290004FEA6C6C4C46C6FB054C03F07E4641F180
:1042A0000001B8EB06060996BE6902945446C6FBA7
:1042B00005245B0E3E6A039243EAC113049A029FEF
:1042C0004916C6FB0531019D12F100764BF1000B3A
:1042D00015F1007A039D4EF1000E17F100794CF1B3
:1042E000000C15F1007844F10004B50E13F10077CD
:1042F00006F07C4641F10001961B069A45EA8B15B3
:10430000AD18C0E90065079A019E4FEA9A6545EA33
:104310008E150AF07C4AB6EB0A06AD18C0E90265B4
:10432000089A029E4FEA996545EA8C1509F07C4986
:10433000B6EB0906AD18C0E90465039A099E4FEA79
:10434000986545EA841508F07C48B2EB0802AD197F
:10435000C0E90625BA0E42EA8112059907F07C47AA
:10436000DB1B5218C0E908320BB0BDE8F08F00BF6C
:1043700042DB01002DE9F04FEFB02790259128A8EE
:1043800019462692FFF706F8DDE92ABADDE92C98EE
:10439000DDE92E76DDE93054289A299B789902923E
:1043A00050A80193FEF7F6FF029A019B469246A998
:1043B00002460846CDE9473BCDE949A9CDE94B87FF
:1043C000CDE94D654F94FFF7FBF8269BDD7F002478
:1043D0000123EA0946A932A8CDE93344CDE93544A1
:1043E000CDE93744CDE939443B943293FFF75EFE83
:1043F000329B0293339B0393349B0493359B059329
:10440000369B0693379B0793389B0893399B1193F0
:104410003A9B12933B9B1393469B1493CDE93C44E8
:10442000CDE93E44CDE94044CDE94244CDE94444A0
:10443000479B1593489B1693499B17934A9B189348
:104440004B9B19934C9B1A934D9B1B934E9B1C9318
:10445000EA094F9B1D9350A93CA8FFF727FEFF23B5
:10446000529A01933C9B1E9310923D9B539A1F932B
:104470000F923E9B549A20930E923F9B559A219304
:104480000D92409B569A22930C92DDE9413B579A3C
:10449000DDF80CA1DDF81481509F44990B92589AD5
:1044A000519D0A92599A0992D1463E4607241F46C9
:1044B0008A465B46C3464FF01F082393029B329304
:1044C000039B3393049B3493059B3593069B369350
:1044D000079B3793089B3893119B3993129B3A9310
:1044E000139B3B93149B4693159B4793169B4893B2
:1044F000179B4993189B4A93199B4B931A9B4C9378
:104500001B9B4D931C9B4E931D9B4F93259B13F818
:10451000082022FA04F404F0010246A932A8FFF7A9
:10452000C5FD1E9B3C931F9B3D93209B3E93219B6F
:104530003F93229BCDE94037239B369F0897CDE9D7
:10454000506504F00102349D339C359E0594CDE9FD
:104550004239379C329B0695389D0493CDE944AB94
:10456000119412950796399E469B02934F9B039395
:10457000109B52930F9B53930E9B54930D9B5593FB
:104580000C9B56930B9B3A9F3B9C57930A9B13960D
:10459000DDE947BADDE9499850A93CA8149715947C
:1045A000DDE94B76DDE94D545893099B5993FFF7AC
:1045B0007DFDDDE950C0029BDDE95212A3EB0C0E3C
:1045C00063440293ABEB00035B938344AAEB0103C8
:1045D00054985C93A9EB02035D93A8EB000380441D
:1045E00055985E933B1A074456985F93331A0644D6
:1045F000579860932B1A0544589861938A44231A5C
:104600000399629304445998CDF868E10B1A9144D8
:104610000144049A3C986393039113183D99329393
:10462000101A059A049053183393531A0D93069B4E
:104630003E9A3F9940989A1834923E9A9A1A059257
:10464000079B3F9A9A18591A3592089B409A0691EF
:104650009A18181A3692119B419A419907909A1804
:10466000591A3792129B429A429808919A18181A2E
:104670004399139B3892439A09909A185B1A0A93AC
:104680003992149B449A44999A185B1A0B933A9264
:10469000159B459A45999A183B925B1A32AA5AA9DA
:1046A00050A80C93FEF78CFF029B03990498459148
:1046B000CDE93C3B0D9B65930A9B069964906B93F7
:1046C00007980B9B059A67916890089909986C93D5
:1046D0000C9B4494CDE93EA9CDE94087CDE94265E4
:1046E000669269916A903CA96D93509B529C539D30
:1046F000549E559F0E930846519B109464AA569C55
:1047000011951296579D589E1397599F0D93149487
:10471000159516961797FEF753FFDDE94274DDE90C
:1047200040921994DDE9445464A95AA8DDE93C6833
:10473000DDE93EBA18920294FEF740FB5A9A5C9C5F
:10474000039205945B9A5E9C049207945D9A609C28
:10475000069209945F9A629C089232A9619A0B941E
:1047600064A8639C0A920C94FEF728FB649C1A943C
:10477000659C689B1B94669C1C941E93679C6A9B1B
:104780001D942093699C6D9B1F9423936B9C0E9B9F
:1047900021946C9C22949C199B1B24930D9B0E943A
:1047A00003EB0804A3EB0808109B0F9403EB0B0426
:1047B000A3EB0B0B119B109403EB0A04A3EB0A0A67
:1047C000129B119403EB09041294A3EB0909139BA8
:1047D000189C1E1913961E1B149B199C0D96DE190E
:1047E000DF1B159B14961E1915961E1B169B5C1934
:1047F00016945D1B029C179B1C191794029C5AAAC5
:1048000064A932A81C1BFEF7DBFE0D99249B0698B9
:104810004594CDE93C38CDE94117CDE94365039B8B
:104820001A9D1D9F05991C9E049ACDF80091EC1AC3
:104830003F1A079B1E981B9DA0EB0308761A1F9832
:104840000899209BA0EB01090998CDE93EBAAD1A61
:10485000A3EB000A0A9A21980B9BA0EB020B22986B
:10486000C31A0D9323980C99421A3CA93CA80292B2
:10487000FEF7A4FACDE9666764AF394650AF0D9BE9
:10488000029A6C933846CDE96445CDE96889CDE953
:104890006AAB6D92FFF794FC0E9D46950F9D479570
:1048A000109D4895119D139E4995129D4A954B96D2
:1048B000169D149E509A519B4C964E95159E179D91
:1048C0004D9646A946A8DDE952BADDE95498DDE9DE
:1048D00056764F950292DDE958540D93FEF76EFA25
:1048E000DDE9022313440599049A02930D9B06986F
:1048F00013448B4408990393079B0A9A8244884483
:1049000009980C9999440B9B074416440C443CAA03
:1049100028A950A81D44FEF753FE029B5A93039BFF
:1049200063945AAA64A93CA8CDE95B3BCDE95F87B3
:10493000CDE96165CDE95DA9FEF742FE019B269AAE
:10494000013B4FEAD30803F0070412F80850019323
:10495000E54005F0010246A932A8FFF7A7FB05F0E4
:104960000102329D0295339D0395349D0495359D3A
:104970000595369D0695379D0795389D0895399D77
:1049800011953A9D12953B9D1395469D1495479D13
:104990001595489D1695499D17954A9D18954B9DCF
:1049A00019954C9D1A954D9D1B954E9D1C9550A992
:1049B0004F9D1D953CA8FFF779FB3C991E913D99B1
:1049C0001F913E9920913F992191409922915299AE
:1049D000109153990F9154990E9155990D915699A3
:1049E0000C9157990B9158990A915999DDF814B186
:1049F000DDE94173DDE9439ADDE950650991019AEA
:104A0000002A7FF45AAD259B1C7846A904F00102C8
:104A100032A8FFF74BFB3CA804F0010250A9FFF7B6
:104A200045FB0146FFF792F832A93CAA0846FEF77B
:104A3000C7FD279832A9FEF7B1FB01986FB0BDE81A
:104A4000F08F00BF5B4F4B5D0A0000005B4D495388
:104A50004D415443485D0A00212120556E7265671F
:104A600069737465726564204B455820616C676F8B
:104A7000726974686D2021210A00000021212048FC
:104A8000656170204F4F4D20696E204B4558206264
:104A9000656E63686D61726B2021210A0000000061
:104AA0002D3E20000A2020205B54696D696E675DF1
:104AB0000A0000002020204B657967656E3A2020AF
:104AC00020202020202000002063792028617667A4
:104AD000206F7665722000002072756E73290A00BF
:104AE0002020205368617265645365637265743A6F
:104AF0002020000020202072313D00002020207264
:104B0000323D00000A00000020202073735F613AEC
:104B1000200000000A20202073735F623A2000000A
:104B200020202021212043414E41525920554E54EE
:104B30004F5543484544202D207368617265645F7A
:104B400073656372657420646964206E6F74207786
:104B500072697465206F75747075742021210A0064
:104B6000202020212120414C4C2D5A45524F2053CA
:104B70004543524554202D20646567656E6572611A
:104B800074652F6661696C75726520726573756CEA
:104B9000742021210A0000002020205353204D6161
:104BA0007463683A20202020200000002020205B31
:104BB0004D656D6F72795D0A00000000202020486D
:104BC000656170205065616B3A20200020420A0028
:104BD000202020537461636B2048574D3A202000F9
:104BE000202020537461746963204253533A20009B
:104BF000202020466C61736820436F64653A200072
:104C000020420A0A000000005B4B45585D0A000084
:104C10002020206D616B655F707562207265743D48
:104C200000000000202020696D706F72745F707545
:104C3000626C69632873656C6629207265743D0037
:104C400020202041465445523A20707269762E70D9
:104C50007269765365743D00202020707269762E4B
:104C60007075625365743D00202020707269762E45
:104C700064703D002020207075622E64703D00003D
:104C8000202020707269762E707269765365743DAB
:104C9000000000002020207075622E70726976532B
:104CA00065743D002020207075622E70756253651A
:104CB000743D00002020207373286F7574293D0017
:104CC00020202073734C656E3D000000202020439F
:104CD0005552564532353531395F4B455953495A4E
:104CE000453D00002121207368617265645F736532
:104CF000637265745F6578206661696C65642C20F9
:104D00007265743D00000000583235353139202875
:104D1000776F6C6663727970742900000A21212113
:104D2000204841524457415245204641554C542059
:104D3000434155474854202121210A000A3D3D3D69
:104D40003D3D3D3D3D3D3D3D3D3D3D3D3D3D3D3D93
:104D50003D3D3D3D3D3D3D3D3D3D3D3D3D3D3D3D83
:104D60003D3D3D3D3D3D0A0020204D756C74692D53
:104D7000416C676F726974686D2048657465726F05
:104D800067656E656F7573204672616D65776F72CA
:104D90006B200A003D3D3D3D3D3D3D3D3D3D3D3DA2
:104DA0003D3D3D3D3D3D3D3D3D3D3D3D3D3D3D3D33
:104DB0003D3D3D3D3D3D3D3D3D3D3D3D3D0A0A00C6
:104DC0005B4D656D6F7279204D61705D0A0000006A
:104DD0002020466C6173683A20200000202031308A
:104DE00034383537362042202831303234204B4297
:104DF000290A0000202052414D3A202020200000A6
:104E000020202031333130373220422028313238CF
:104E1000204B42290A00000020204253533A202010
:104E20002020202020202020202020200000000002
:104E30002020486561703A202020000020202000BA
:104E40002042202862756D7020616C6C6F63617404
:104E50006F72290A000000002020537461636B3ACE
:104E6000202000002042202867726F777320646F33
:104E7000776E77617264290A0000000053756974C7
:104E80006520636F6D706C6574652E0A000000000C
:104E90004355525645323535313900001300000074
:104EA000084D0008550800087106000830313233FB
:104EB0003435363738394142434445460000000016
:104EC000D3E160C35B99F340B2628264D175106034
:104ED000E0045DA383FF57A57D73A673D2B8D80DF8
:104EE000AAF6A6C35A91BB4579D73FD0C8FED111C7
:104EF000B0391306828ADFED528F018121B3FEBDE6
:104F0000C343E797B87DBB63DB1333DED9D1ECE154
:104F100077CFA6B71FE8AB1DA46624ED6415E51C8A
:104F2000CDE2C7CA86E283990EEAEB9112041552CC
:104F30008B2295910281B02DD431F4C9F70427DF7B
:104F4000A65AD0F345DB4E0EFFE875C3A2E71F4219
:104F5000C7129D620FF5C119A9EF55F05185E0FB0D
:104F60008581F9317517276E06E9607DDBCBCC2E84
:104F700004EEC63BB231DF2C630A1AFBE724949D92
:104F8000005A587851E1AA795E477347C8B0566213
:104F90001C18BDDCDD8D99FC5FC2B92053D8CFACA5
:104FA000FB0BB8831205FAD1DDD6C071318A6018C7
:104FB000F03B73F5EDE4D4D071F9DE03FD7AEA102D
:104FC0005D9299B8AF99AA075BDB4DB9AA28C18D4C
:104FD000174B56EE2A014D098896FF2282C955A823
:104FE0001969E069FA8CE007A180183A07DFAE176B
:104FF000E62B8A8EE8F141B6980566E3BFE3C04927
:1050000003DAD4AC2CDF9F2280010A6739BC83D33A
:1050100063363377E41E86468DEB0AB4A8ED683F0D
:105020006A134E47E014C700454E81E95358A569FD
:10503000808AA38F2A72A62359915A9F8A04CA682C
:10504000982F8A4291443771CFFBC0B5A5DBB5E9F3
:105050005BC25639F111F159A4823F92D55E1CAB67
:1050600098AA07D8015B8312BE853124C37D0C55F5
:10507000745DBE72FEB1DE80A706DC9B74F19BC13D
:10508000C1699BE48647BEEFC69DC10FCCA10C242D
:105090006F2CE92DAA84744ADCA9B05CDA88F97611
:1050A00052513E986DC631A8C82703B0C77F59BF7B
:1050B000F30BE0C64791A7D55163CA0667292914A7
:1050C000850AB72738211B2EFC6D2C4D130D385344
:1050D00054730A65BB0A6A762EC9C281852C729206
:1050E000A1E8BFA24B661AA8708B4BC2A3516CC734
:1050F00019E892D1240699D685350EF470A06A106D
:1051000016C1A419086C371E4C774827B5BCB034BB
:10511000B30C1C394AAAD84E4FCA9C5BF36F2E6859
:10512000EE828F746F63A5781478C8840802C78CE8
:10513000FAFFBE90EB6C50A4F7A3F9BEF27871C6EB
:105140000900000000000000000000000000000056
:10515000000000000000000000000000000000004F
:0851600020000000904E000841
:0400000508000000EF
:00000001FF
