:020000040800F2
:100000000000022015410008E13B0008E13B000828
:10001000E13B0008E13B0008E13B000848B103B1C7
:100020003AB108B504F026F9003818BF0120404263
:1000300008BD4FF0FF30704718000000A4460008CC
:1000400001000000200000001D000008000000006A
:1000500000000000000000000000000000000000A0
:100060002DE9F007036847688468D0F80C800569BB
:10007000D0F814908669D0F81CA045F26212CBF239
:10008000E172574003EBF77387EA3367534003EBA2
:10009000774387EA73475340DB1987EAF377534086
:1000A00003EB376387EA3347534045F68002CBF6CC
:1000B000717204EBF87488EA3468544004EB7844B5
:1000C00088EA74485440444488EAF478544004EB85
:1000D000386488EA344854404DF65622C3F6B402D8
:1000E00005EBF97589EA3569554005EB794589EAEB
:1000F000754955404D4489EAF579554005EB396518
:1001000089EA3549554047F23872C3F24E2206EB70
:10011000FA768AEA366A564006EB7A468AEA764AE0
:10012000564056448AEAF67A564006EB3A668AEA20
:10013000364A564083EA040287EA080C82EA024201
:100140008CEA0C4C89EA324985EA3C458AEA32421B
:1001500086EA3C4C89EA07095D4088EA020A84EA9B
:100160000C0645F68002CBF671728AEA020A89F023
:10017000010905EBF97589EA3569554005EB7945C3
:1001800089EA754955404D4489EAF579554005EBB2
:10019000396589EA3549554045F26212CBF2E17280
:1001A00006EBFA768AEA366A564006EB7A468AEA1F
:1001B000764A564056448AEAF67A564006EB3A6644
:1001C0008AEA364A56404DF65622C3F6B40203EB8D
:1001D000F77387EA3367534003EB774387EA734744
:1001E0005340DB1987EAF377534003EB376387EA21
:1001F0003347534047F23872C3F24E2204EBF8748F
:1002000088EA3468544004EB784488EA74485440DF
:10021000444488EAF478544004EB386488EA34486B
:10022000544086EA05028AEA090C82EA02428CEA14
:100230000C4C87EA324783EA3C4388EA324284EA3C
:100240003C4C87EA0A07734089EA020885EA0C04F5
:100250004DF65622C3F6B40288EA020887F0020778
:1002600006EBFA768AEA366A564006EB7A468AEA5E
:10027000764A564056448AEAF67A564006EB3A6683
:100280008AEA364A564045F26212CBF2E17204EB3A
:10029000F87488EA3468544004EB784488EA744877
:1002A0005440444488EAF478544004EB386488EAC3
:1002B0003448544045F68002CBF6717203EBF77375
:1002C00087EA3367534003EB774387EA734753402A
:1002D000DB1987EAF377534003EB376387EA334749
:1002E000534047F23872C3F24E2205EBF97589EAA2
:1002F0003569554005EB794589EA754955404D44C6
:1003000089EAF579554005EB396589EA3549554063
:1003100084EA030288EA070C82EA02428CEA0C4C67
:100320008AEA324A86EA3C4689EA324285EA3C4C0D
:100330008AEA080A664087EA020983EA0C0547F25E
:100340003872C3F24E2289EA02098AF0030A03EBEB
:10035000F77387EA3367534003EB774387EA7347C2
:100360005340DB1987EAF377534003EB376387EA9F
:100370003347534045F26212CBF2E17205EBF97557
:1003800089EA3569554005EB794589EA7549554053
:100390004D4489EAF579554005EB396589EA3549D7
:1003A000554045F68002CBF6717206EBFA768AEA82
:1003B000366A564006EB7A468AEA764A56405644F2
:1003C0008AEAF67A564006EB3A668AEA364A564098
:1003D0004DF65622C3F6B40204EBF87488EA34688A
:1003E000544004EB784488EA74485440444488EA12
:1003F000F478544004EB386488EA3448544085EA81
:10040000060289EA0A0C82EA02428CEA0C4C88EA6B
:10041000324884EA3C4487EA324283EA3C4C88EA28
:1004200009086C408AEA020786EA0C0348F2EB529C
:10043000CBF61132574088F0040845F26212CBF235
:10044000E17203EBF77387EA3367534003EB7743BB
:1004500087EA73475340DB1987EAF377534003EB8E
:10046000376387EA3347534045F68002CBF6717213
:1004700004EBF87488EA3468544004EB784488EA62
:1004800074485440444488EAF478544004EB386497
:1004900088EA344854404DF65622C3F6B40205EBC0
:1004A000F97589EA3569554005EB794589EA754959
:1004B00055404D4489EAF579554005EB396589EA9F
:1004C0003549554047F23872C3F24E2206EBFA76B0
:1004D0008AEA366A564006EB7A468AEA764A5640F7
:1004E00056448AEAF67A564006EB3A668AEA364A73
:1004F000564083EA040287EA080C82EA02428CEA48
:100500000C4C89EA324985EA3C458AEA324286EA5D
:100510003C4C89EA07095D4088EA020A84EA0C0635
:1005200047F65732C4F67C728AEA020A89F0050956
:1005300045F26212CBF2E17206EBFA768AEA366A8B
:10054000564006EB7A468AEA764A564056448AEA8C
:10055000F67A564006EB3A668AEA364A564045F63F
:100560008002CBF6717205EBF97589EA3569554061
:1005700005EB794589EA754955404D4489EAF57995
:10058000554005EB396589EA354955404DF6562207
:10059000C3F6B40203EBF77387EA3367534003EB08
:1005A000774387EA73475340DB1987EAF377534071
:1005B00003EB376387EA3347534047F23872C3F29D
:1005C0004E2204EBF87488EA3468544004EB784413
:1005D00088EA74485440444488EAF478544004EB70
:1005E000386488EA3448544086EA05028AEA090CED
:1005F00082EA02428CEA0C4C87EA324783EA3C43A7
:1006000088EA324284EA3C4C87EA0A07734089EA66
:10061000020885EA0C044AF2C812CCF6BF7288EAD6
:10062000020887F0060745F26212CBF2E17204EB92
:10063000F87488EA3468544004EB784488EA7448D3
:100640005440444488EAF478544004EB386488EA1F
:100650003448544045F68002CBF6717203EBF773D1
:1006600087EA3367534003EB774387EA7347534086
:10067000DB1987EAF377534003EB376387EA3347A5
:1006800053404DF65622C3F6B40206EBFA768AEAD8
:10069000366A564006EB7A468AEA764A564056440F
:1006A0008AEAF67A564006EB3A668AEA364A5640B5
:1006B00047F23872C3F24E2205EBF97589EA3569C3
:1006C000554005EB794589EA754955404D4489EA1D
:1006D000F579554005EB396589EA3549554084EA95
:1006E000030288EA070C82EA02428CEA0C4C8AEA8E
:1006F000324A86EA3C4689EA324285EA3C4C8AEA3A
:10070000080A664087EA020983EA0C0507290BD12B
:100710000560C0F804908660C0F80CA00461C0F8C1
:1007200014808361C76172E142F63D12CCF2B322BC
:1007300089EA02098AF0070A45F26212CBF2E172F5
:1007400005EBF97589EA3569554005EB794589EA84
:10075000754955404D4489EAF579554005EB3965B1
:1007600089EA3549554045F68002CBF6717206EBB1
:10077000FA768AEA366A564006EB7A468AEA764A7A
:10078000564056448AEAF67A564006EB3A668AEABA
:10079000364A56404DF65622C3F6B40204EBF874BE
:1007A00088EA3468544004EB784488EA744854403A
:1007B000444488EAF478544004EB386488EA3448C6
:1007C000544047F23872C3F24E2203EBF77387EAC4
:1007D0003367534003EB774387EA73475340DB1992
:1007E00087EAF377534003EB376387EA3347534095
:1007F00085EA060289EA0A0C82EA02428CEA0C4C7B
:1008000088EA324884EA3C4487EA324283EA3C4C34
:1008100088EA09086C408AEA020786EA0C0345F276
:100820006212CBF2E172574088F0080803EBF773CD
:1008300087EA3367534003EB774387EA73475340B4
:10084000DB1987EAF377534003EB376387EA3347D3
:10085000534045F68002CBF6717204EBF87488EAD7
:100860003468544004EB784488EA74485440444463
:1008700088EAF478544004EB386488EA34485440F9
:100880004DF65622C3F6B40205EBF97589EA3569CF
:10089000554005EB794589EA754955404D4489EA4B
:1008A000F579554005EB396589EA3549554047F2F8
:1008B0003872C3F24E2206EBFA768AEA366A56405E
:1008C00006EB7A468AEA764A564056448AEAF67A2F
:1008D000564006EB3A668AEA364A564083EA0402F4
:1008E00087EA080C82EA02428CEA0C4C89EA324917
:1008F00085EA3C458AEA324286EA3C4C89EA0709A5
:100900005D4088EA020A84EA0C0645F68002CBF6CE
:1009100071728AEA020A89F0090905EBF97589EA18
:100920003569554005EB794589EA754955404D448F
:1009300089EAF579554005EB396589EA354955402D
:1009400045F26212CBF2E17206EBFA768AEA366A77
:10095000564006EB7A468AEA764A564056448AEA78
:10096000F67A564006EB3A668AEA364A56404DF623
:100970005622C3F6B40203EBF77387EA336753409A
:1009800003EB774387EA73475340DB1987EAF37732
:10099000534003EB376387EA3347534047F23872DB
:1009A000C3F24E2204EBF87488EA3468544004EB36
:1009B000784488EA74485440444488EAF4785440BF
:1009C00004EB386488EA3448544086EA05028AEA2F
:1009D000090C82EA02428CEA0C4C87EA324783EA2D
:1009E0003C4388EA324284EA3C4C87EA0A07734077
:1009F00089EA020885EA0C040460C0F80480836078
:100A0000C7600661C0F814A08561C0F81C90BDE8FD
:100A1000F00770472DE9F04F01B402B40368D0F835
:100A200004908468D0F80CA00569D0F814B08669E9
:100A3000D0F81CE0076A426AD0F82880C16A45F203
:100A40006210CBF2E17089EA000903EBF97389EADD
:100A50003369434003EB794389EA734943404B448C
:100A600089EAF379434003EB396389EA3349434028
:100A700045F68000CBF6717004EBFA748AEA346AAA
:100A8000444004EB7A448AEA744A444054448AEA73
:100A9000F47A444004EB3A648AEA344A44404DF61E
:100AA0005620C3F6B40005EBFB758BEA356B454069
:100AB00005EB7B458BEA754B45405D448BEAF57B46
:100AC000454005EB3B658BEA354B454047F23870B6
:100AD000C3F24E2006EBFE768EEA366E464006EBFB
:100AE0007E468EEA764E464076448EEAF67E464054
:100AF00006EB3E668EEA364E464048F2EB50CBF6A9
:100B0000113007EBF27782EA3762474007EB724712
:100B100082EA77424740BF1882EAF772474007EB04
:100B2000326782EA3742474047F65730C4F67C7056
:100B300008EBF17881EA386188EA000808EB71482F
:100B400081EA784188EA0008884481EAF87188EAF5
:100B5000000808EB316881EA384188EA000883EA36
:100B6000040089EA0A0C68408CEA0B0C80EA004019
:100B70008CEA0C4C8EEA304E82EA304286EA3C46E1
:100B800087EA3C4781EA304088EA3C4C8EEA090E0D
:100B90005E4082EA0A0267408BEA000185EA0C089F
:100BA00045F68000CBF67170424081F0010108EB00
:100BB000F17881EA386188EA000808EB714881EA37
:100BC000784188EA0008884481EAF87188EA0008D8
:100BD00008EB316881EA384188EA000845F2621082
:100BE000CBF2E17007EBF27782EA3762474007EB1E
:100BF000724782EA77424740BF1882EAF77247405D
:100C000007EB326782EA374247404DF65620C3F67B
:100C1000B40006EBFE768EEA366E464006EB7E4664
:100C20008EEA764E464076448EEAF67E464006EBE5
:100C30003E668EEA364E464047F23870C3F24E208A
:100C400003EBF97389EA3369434003EB794389EA9B
:100C5000734943404B4489EAF379434003EB3963DA
:100C600089EA3349434048F2EB50CBF6113004EBAC
:100C7000FA748AEA346A444004EB7A448AEA744A91
:100C8000444054448AEAF47A444004EB3A648AEAE1
:100C9000344A444047F65730C4F67C7005EBFB7588
:100CA0008BEA356B454005EB7B458BEA754B454040
:100CB0005D448BEAF57B454005EB3B658BEA354BA4
:100CC000454087EA080082EA010C70408CEA0E0C6D
:100CD00080EA00408CEA0C4C89EA30498AEA304AC2
:100CE00083EA3C4384EA3C448BEA304085EA3C4C4E
:100CF00089EA02097B408AEA010A84EA08048EEA4A
:100D0000000B86EA0C054DF65620C3F6B4008AEABD
:100D1000000A8BF0020B03EBF97389EA3369434055
:100D200003EB794389EA734943404B4489EAF379F9
:100D3000434003EB396389EA3349434045F262108B
:100D4000CBF2E17004EBFA748AEA346A444004EBB3
:100D50007A448AEA744A444054448AEAF47A444021
:100D600004EB3A648AEA344A444045F68000CBF604
:100D7000717005EBFB758BEA356B454005EB7B45E8
:100D80008BEA754B45405D448BEAF57B454005EBAE
:100D90003B658BEA354B454047F23870C3F24E2035
:100DA00007EBF27782EA3762474007EB724782EA45
:100DB00077424740BF1882EAF772474007EB326735
:100DC00082EA3742474048F2EB50CBF6113008EB4D
:100DD000F17881EA386188EA000808EB714881EA15
:100DE000784188EA0008884481EAF87188EA0008B6
:100DF00008EB316881EA384188EA000847F6573045
:100E0000C4F67C7006EBFE768EEA366E464006EB44
:100E10007E468EEA764E464076448EEAF67E464020
:100E200006EB3E668EEA364E464084EA05008AEAC4
:100E30000B0C58408CEA090C80EA00408CEA0C4C00
:100E400082EA304281EA304187EA3C4788EA3C48FE
:100E50008EEA304086EA3C4C82EA0A02674081EA28
:100E60000B0188EA050889EA000E83EA0C0647F2BE
:100E70003870C3F24E2041408EF0030E04EBFA743A
:100E80008AEA346A444004EB7A448AEA744A444069
:100E900054448AEAF47A444004EB3A648AEA344AD5
:100EA000444045F26210CBF2E17008EBF17881EA40
:100EB000386188EA000808EB714881EA784188EADD
:100EC0000008884481EAF87188EA000808EB316874
:100ED00081EA384188EA000845F68000CBF6717057
:100EE00006EBFE768EEA366E464006EB7E468EEACE
:100EF000764E464076448EEAF67E464006EB3E66E7
:100F00008EEA364E46404DF65620C3F6B40007EB47
:100F1000F27782EA3762474007EB724782EA77420C
:100F20004740BF1882EAF772474007EB326782EA10
:100F30003742474048F2EB50CBF6113005EBFB75DA
:100F40008BEA356B454005EB7B458BEA754B45409D
:100F50005D448BEAF57B454005EB3B658BEA354B01
:100F6000454047F65730C4F67C7003EBF97389EAC5
:100F70003369434003EB794389EA734943404B4467
:100F800089EAF379434003EB396389EA3349434003
:100F900088EA060081EA0E0C78408CEA020C80EAAE
:100FA00000408CEA0C4C8AEA304A8BEA304B84EAE7
:100FB0003C4485EA3C4589EA304083EA3C4C8AEA75
:100FC000010A84EA08048BEA0E0B754082EA0009E4
:100FD00087EA0C0348F2EB50CBF611308BEA000B9A
:100FE00089F0040906EBFE768EEA366E464006EB83
:100FF0007E468EEA764E464076448EEAF67E46403F
:1010000006EB3E668EEA364E464045F26210CBF263
:10101000E17005EBFB758BEA356B454005EB7B45D5
:101020008BEA754B45405D448BEAF57B454005EB0B
:101030003B658BEA354B454045F68000CBF6717039
:1010400003EBF97389EA3369434003EB794389EA97
:10105000734943404B4489EAF379434003EB3963D6
:1010600089EA334943404DF65620C3F6B40004EBF9
:10107000FA748AEA346A444004EB7A448AEA744A8D
:10108000444054448AEAF47A444004EB3A648AEADD
:10109000344A444047F23870C3F24E2008EBF178EE
:1010A00081EA386188EA000808EB714881EA7841F2
:1010B00088EA0008884481EAF87188EA000808EBA9
:1010C000316881EA384188EA000847F65730C4F6AB
:1010D0007C7007EBF27782EA3762474007EB724792
:1010E00082EA77424740BF1882EAF772474007EB2F
:1010F000326782EA3742474085EA03008BEA090CEF
:1011000060408CEA0A0C80EA00408CEA0C4C81EAD0
:1011100030418EEA304E88EA3C4886EA3C4682EA14
:10112000304087EA3C4C81EA0B0188EA05088EEAE8
:10113000090E5E408AEA000284EA0C0747F657303F
:10114000C4F67C708EEA000E82F0050204EBFA749D
:101150008AEA346A444004EB7A448AEA744A444096
:1011600054448AEAF47A444004EB3A648AEA344A02
:10117000444045F26210CBF2E17006EBFE768EEA57
:10118000366E464006EB7E468EEA764E4640764404
:101190008EEAF67E464006EB3E668EEA364E4640C6
:1011A00045F68000CBF6717007EBF27782EA376282
:1011B000474007EB724782EA77424740BF1882EA0E
:1011C000F772474007EB326782EA374247404DF6F5
:1011D0005620C3F6B40008EBF17881EA386188EA5A
:1011E000000808EB714881EA784188EA00088844E1
:1011F00081EAF87188EA000808EB316881EA384131
:1012000088EA000847F23870C3F24E2005EBFB7500
:101210008BEA356B454005EB7B458BEA754B4540CA
:101220005D448BEAF57B454005EB3B658BEA354B2E
:10123000454048F2EB50CBF6113003EBF97389EAE5
:101240003369434003EB794389EA734943404B4494
:1012500089EAF379434003EB396389EA3349434030
:1012600086EA07008EEA020C80EA08008CEA010C8C
:1012700080EA00408CEA0C4C8BEA304B89EA30491A
:1012800085EA3C4583EA3C438AEA304084EA3C4CA8
:101290008BEA0E0B754089EA02097B4081EA000A5D
:1012A00088EA0C044AF2C810CCF6BF7089EA00093B
:1012B0008AF0060A45F26210CBF2E17003EBF97393
:1012C00089EA3369434003EB794389EA7349434030
:1012D0004B4489EAF379434003EB396389EA3349A4
:1012E000434045F68000CBF6717004EBFA748AEA4D
:1012F000346A444004EB7A448AEA744A44405444D1
:101300008AEAF47A444004EB3A648AEA344A444074
:101310004DF65620C3F6B40005EBFB758BEA356B32
:10132000454005EB7B458BEA754B45405D448BEAB8
:10133000F57B454005EB3B658BEA354B454047F275
:101340003870C3F24E2006EBFE768EEA366E4640CB
:1013500006EB7E468EEA764E464076448EEAF67E70
:10136000464006EB3E668EEA364E464048F2EB506B
:10137000CBF6113007EBF27782EA3762474007EB92
:10138000724782EA77424740BF1882EAF7724740C5
:1013900007EB326782EA3742474047F65730C4F6D8
:1013A0007C7008EBF17881EA386188EA000808EB84
:1013B000714881EA784188EA0008884481EAF87136
:1013C00088EA000808EB316881EA384188EA0008B9
:1013D00083EA040089EA0A0C68408CEA0B0C80EA74
:1013E00000408CEA0C4C8EEA304E82EA304286EAAB
:1013F0003C4687EA3C4781EA304088EA3C4C8EEA2A
:10140000090E5E4082EA0A0267408BEA000185EA23
:101410000C0801BC072812D101BC07604260C0F86B
:101420000880C1600661C0F814E08361C0F81C90B8
:101430000462C0F824A08562C0F82CB0E3E242F652
:101440003D10CCF2B320424081F0070145F262101A
:10145000CBF2E17007EBF27782EA3762474007EBA5
:10146000724782EA77424740BF1882EAF7724740E4
:1014700007EB326782EA3742474045F68000CBF6F9
:10148000717008EBF17881EA386188EA000808EBAE
:10149000714881EA784188EA0008884481EAF87155
:1014A00088EA000808EB316881EA384188EA0008D8
:1014B0004DF65620C3F6B40006EBFE768EEA366E85
:1014C000464006EB7E468EEA764E464076448EEAED
:1014D000F67E464006EB3E668EEA364E464047F2C2
:1014E0003870C3F24E2003EBF97389EA3369434045
:1014F00003EB794389EA734943404B4489EAF37922
:10150000434003EB396389EA3349434048F2EB50E7
:10151000CBF6113004EBFA748AEA346A444004EBE7
:101520007A448AEA744A444054448AEAF47A444049
:1015300004EB3A648AEA344A444047F65730C4F62A
:101540007C7005EBFB758BEA356B454005EB7B4505
:101550008BEA754B45405D448BEAF57B454005EBD6
:101560003B658BEA354B454087EA080082EA010C6F
:1015700070408CEA0E0C80EA00408CEA0C4C89EA40
:1015800030498AEA304A83EA3C4384EA3C448BEAA5
:10159000304085EA3C4C89EA02097B408AEA010A2C
:1015A00084EA08048EEA000B86EA0C0545F2621014
:1015B000CBF2E1708AEA000A8BF0080B04EBFA74B4
:1015C0008AEA346A444004EB7A448AEA744A444022
:1015D00054448AEAF47A444004EB3A648AEA344A8E
:1015E000444045F68000CBF6717005EBFB758BEA45
:1015F000356B454005EB7B458BEA754B45405D44BB
:101600008BEAF57B454005EB3B658BEA354B454066
:101610004DF65620C3F6B40003EBF97389EA33693B
:10162000434003EB794389EA734943404B4489EAD9
:10163000F379434003EB396389EA3349434047F286
:101640003870C3F24E2007EBF27782EA37624740E8
:1016500007EB724782EA77424740BF1882EAF77287
:10166000474007EB326782EA3742474048F2EB5087
:10167000CBF6113008EBF17881EA386188EA00088E
:1016800008EB714881EA784188EA0008884481EAD9
:10169000F87188EA000808EB316881EA384188EA85
:1016A000000847F65730C4F67C7006EBFE768EEAEB
:1016B000366E464006EB7E468EEA764E46407644CF
:1016C0008EEAF67E464006EB3E668EEA364E464091
:1016D00084EA05008AEA0B0C58408CEA090C80EA7F
:1016E00000408CEA0C4C82EA304281EA304187EAC1
:1016F0003C4788EA3C488EEA304086EA3C4C82EA25
:101700000A02674081EA0B0188EA050889EA000EAF
:1017100083EA0C0645F68000CBF6717041408EF0EE
:10172000090E06EBFE768EEA366E464006EB7E46E6
:101730008EEA764E464076448EEAF67E464006EBCA
:101740003E668EEA364E464045F26210CBF2E170BC
:1017500008EBF17881EA386188EA000808EB714803
:1017600081EA784188EA0008884481EAF87188EAC9
:10177000000808EB316881EA384188EA00084DF634
:101780005620C3F6B40007EBF27782EA376247408F
:1017900007EB724782EA77424740BF1882EAF77246
:1017A000474007EB326782EA3742474047F23870DA
:1017B000C3F24E2004EBFA748AEA346A444004EB24
:1017C0007A448AEA744A444054448AEAF47A4440A7
:1017D00004EB3A648AEA344A444048F2EB50CBF6D0
:1017E000113005EBFB758BEA356B454005EB7B450E
:1017F0008BEA754B45405D448BEAF57B454005EB34
:101800003B658BEA354B454047F65730C4F67C7054
:1018100003EBF97389EA3369434003EB794389EABF
:10182000734943404B4489EAF379434003EB3963FE
:1018300089EA3349434088EA060081EA0E0C784081
:101840008CEA020C80EA00408CEA0C4C8AEA304AAE
:101850008BEA304B84EA3C4485EA3C4589EA3040D7
:1018600083EA3C4C8AEA010A84EA08048BEA0E0BFC
:10187000754082EA000987EA0C034DF65620C3F64C
:10188000B4008BEA000B89F00A0904EBFA748AEAC7
:10189000346A444004EB7A448AEA744A444054442B
:1018A0008AEAF47A444004EB3A648AEA344A4440CF
:1018B00045F26210CBF2E17005EBFB758BEA356BFC
:1018C000454005EB7B458BEA754B45405D448BEA13
:1018D000F57B454005EB3B658BEA354B454045F6CE
:1018E0008000CBF6717003EBF97389EA33694340EA
:1018F00003EB794389EA734943404B4489EAF3791E
:10190000434003EB396389EA3349434047F2387077
:10191000C3F24E2008EBF17881EA386188EA0008CA
:1019200008EB714881EA784188EA0008884481EA36
:10193000F87188EA000808EB316881EA384188EAE2
:10194000000848F2EB50CBF6113006EBFE768EEA3B
:10195000366E464006EB7E468EEA764E464076442C
:101960008EEAF67E464006EB3E668EEA364E4640EE
:1019700047F65730C4F67C7007EBF27782EA37629D
:10198000474007EB724782EA77424740BF1882EA36
:10199000F772474007EB326782EA3742474085EAF1
:1019A00003008BEA090C60408CEA0A0C80EA0040D4
:1019B0008CEA0C4C81EA30418EEA304E88EA3C4891
:1019C00086EA3C4682EA304087EA3C4C81EA0B01D9
:1019D00088EA05088EEA090E5E408AEA000284EA77
:1019E0000C0701BC0660C0F804E08760C260C0F864
:1019F000108041618561C0F81CB00362C0F824907A
:101A00008462C0F82CA0BDE8F08F00BF2DE9F04F34
:101A100002B40368D0F804808468D0F80C9005699B
:101A2000D0F814A08669D0F81CB0076AD0F824E07A
:101A300045F2621CCBF2E17C88EA0C0803EBF873F8
:101A400088EA336883EA0C0303EB784388EA734837
:101A500083EA0C03434488EAF37883EA0C0303EB3C
:101A6000386388EA334883EA0C0345F6800CCBF6EA
:101A7000717C04EBF97489EA346984EA0C0404EBA0
:101A8000794489EA744984EA0C044C4489EAF4797B
:101A900084EA0C0404EB396489EA344984EA0C04CE
:101AA0004DF6562CC3F6B40C05EBFA758AEA356A86
:101AB00085EA0C0505EB7A458AEA754A85EA0C0544
:101AC00055448AEAF57A85EA0C0505EB3A658AEA17
:101AD000354A85EA0C0547F2387CC3F24E2C06EBFA
:101AE000FB768BEA366B86EA0C0606EB7B468BEAC6
:101AF000764B86EA0C065E448BEAF67B86EA0C0699
:101B000006EB3B668BEA364B86EA0C0648F2EB5C4A
:101B1000CBF6113C07EBFE778EEA376E87EA0C07AF
:101B200007EB7E478EEA774E87EA0C0777448EEA0A
:101B3000F77E87EA0C0707EB3E678EEA374E87EAA7
:101B40000C0783EA040188EA0902694082EA0A0272
:101B5000714082EA0B0281EA014182EA02428EEA86
:101B6000314E87EA32470360C0F804808460C0F8D1
:101B70000C900561C0F814A0846AD0F82C90056B15
:101B8000D0F834A0836BD0F83C8047F6573CC4F6BD
:101B90007C7C04EBF97489EA346984EA0C0404EB74
:101BA000794489EA744984EA0C044C4489EAF4795A
:101BB00084EA0C0404EB396489EA344984EA0C04AD
:101BC0004AF2C81CCCF6BF7C05EBFA758AEA356A86
:101BD00085EA0C0505EB7A458AEA754A85EA0C0523
:101BE00055448AEAF57A85EA0C0505EB3A658AEAF6
:101BF000354A85EA0C0542F63D1CCCF2B32C03EBCA
:101C0000F87388EA336883EA0C0303EB784388EAC5
:101C1000734883EA0C03434488EAF37883EA0C03AD
:101C200003EB386388EA334883EA0C0389EA3149D5
:101C300084EA32448AEA314A85EA324588EA314107
:101C400083EA3242C0F83CB08663D0F8048003686F
:101C50008EEA080B87EA0306C6461F46D0F80CC07A
:101C600089EA0C08C0F82CC0D0F808C084EA0C033C
:101C7000C0F828C0D0F814C08AEA0C09C0F834C0F3
:101C8000D0F810C085EA0C04C0F830C0D0F83CA0F1
:101C9000856B8AEA010A554045F6800CCBF6717CCB
:101CA00088EA0C0889F0010904EBF97489EA3469BF
:101CB00084EA0C0404EB794489EA744984EA0C044C
:101CC0004C4489EAF47984EA0C0404EB396489EA27
:101CD000344984EA0C0445F2621CCBF2E17C03EB4C
:101CE000F87388EA336883EA0C0303EB784388EAE5
:101CF000734883EA0C03434488EAF37883EA0C03CD
:101D000003EB386388EA334883EA0C034DF6562C1C
:101D1000C3F6B40C05EBFA758AEA356A85EA0C0558
:101D200005EB7A458AEA754A85EA0C0555448AEA44
:101D3000F57A85EA0C0505EB3A658AEA354A85EAC3
:101D40000C0547F2387CC3F24E2C06EBFB768BEA8F
:101D5000366B86EA0C0606EB7B468BEA764B86EA08
:101D60000C065E448BEAF67B86EA0C0606EB3B66C5
:101D70008BEA364B86EA0C0648F2EB5CCBF6113C5C
:101D800007EBFE778EEA376E87EA0C0707EB7E4794
:101D90008EEA774E87EA0C0777448EEAF77E87EA69
:101DA0000C0707EB3E678EEA374E87EA0C0783EA9B
:101DB000040188EA0902694082EA0A02714082EA63
:101DC0000B0281EA014182EA02428EEA314E87EA41
:101DD00032470360C0F804808460C0F80C9005614D
:101DE000C0F814A0846AD0F82C90056BD0F834A009
:101DF000836BD0F83C8047F6573CC4F67C7C04EB00
:101E0000F97489EA346984EA0C0404EB794489EAB8
:101E1000744984EA0C044C4489EAF47984EA0C0499
:101E200004EB396489EA344984EA0C044AF2C81C98
:101E3000CCF6BF7C05EBFA758AEA356A85EA0C05B3
:101E400005EB7A458AEA754A85EA0C0555448AEA23
:101E5000F57A85EA0C0505EB3A658AEA354A85EAA2
:101E60000C0542F63D1CCCF2B32C03EBF87388EA68
:101E7000336883EA0C0303EB784388EA734883EA08
:101E80000C03434488EAF37883EA0C0303EB3863DA
:101E900088EA334883EA0C0389EA314984EA324408
:101EA0008AEA314A85EA324588EA314183EA324298
:101EB000C0F83CB08663D0F8048003688EEA080B53
:101EC00087EA0306C6461F46D0F80CC089EA0C080C
:101ED000C0F82CC0D0F808C084EA0C03C0F828C0B1
:101EE000D0F814C08AEA0C09C0F834C0D0F810C089
:101EF00085EA0C04C0F830C0D0F83CA0856B8AEAB3
:101F0000010A55404DF6562CC3F6B40C88EA0C086D
:101F100089F0020905EBFA758AEA356A85EA0C054B
:101F200005EB7A458AEA754A85EA0C0555448AEA42
:101F3000F57A85EA0C0505EB3A658AEA354A85EAC1
:101F40000C0545F2621CCBF2E17C03EBF87388EAE6
:101F5000336883EA0C0303EB784388EA734883EA27
:101F60000C03434488EAF37883EA0C0303EB3863F9
:101F700088EA334883EA0C0345F6800CCBF6717C83
:101F800004EBF97489EA346984EA0C0404EB7944BB
:101F900089EA744984EA0C044C4489EAF47984EAB5
:101FA0000C0404EB396489EA344984EA0C0447F2EE
:101FB000387CC3F24E2C06EBFB768BEA366B86EA56
:101FC0000C0606EB7B468BEA764B86EA0C065E44F3
:101FD0008BEAF67B86EA0C0606EB3B668BEA364B11
:101FE00086EA0C0648F2EB5CCBF6113C07EBFE7779
:101FF0008EEA376E87EA0C0707EB7E478EEA774E4C
:1020000087EA0C0777448EEAF77E87EA0C0707EB2E
:102010003E678EEA374E87EA0C0783EA040188EAB6
:102020000902694082EA0A02714082EA0B0281EAEF
:10203000014182EA02428EEA314E87EA324703606A
:10204000C0F804808460C0F80C900561C0F814A04A
:10205000846AD0F82C90056BD0F834A0836BD0F84C
:102060003C8047F6573CC4F67C7C04EBF97489EA63
:10207000346984EA0C0404EB794489EA744984EAFB
:102080000C044C4489EAF47984EA0C0404EB3964C6
:1020900089EA344984EA0C044AF2C81CCCF6BF7CB5
:1020A00005EBFA758AEA356A85EA0C0505EB7A458F
:1020B0008AEA754A85EA0C0555448AEAF57A85EA82
:1020C0000C0505EB3A658AEA354A85EA0C0542F6C5
:1020D0003D1CCCF2B32C03EBF87388EA336883EA37
:1020E0000C0303EB784388EA734883EA0C03434408
:1020F00088EAF37883EA0C0303EB386388EA334811
:1021000083EA0C0389EA314984EA32448AEA314A93
:1021100085EA324588EA314183EA3242C0F83CB070
:102120008663D0F8048003688EEA080B87EA03060A
:10213000C6461F46D0F80CC089EA0C08C0F82CC06F
:10214000D0F808C084EA0C03C0F828C0D0F814C046
:102150008AEA0C09C0F834C0D0F810C085EA0C0433
:10216000C0F830C0D0F83CA0856B8AEA010A55401F
:1021700047F2387CC3F24E2C88EA0C0889F0030938
:1021800006EBFB768BEA366B86EA0C0606EB7B46A3
:102190008BEA764B86EA0C065E448BEAF67B86EA8F
:1021A0000C0606EB3B668BEA364B86EA0C0645F2DC
:1021B000621CCBF2E17C03EBF87388EA336883EAB4
:1021C0000C0303EB784388EA734883EA0C03434427
:1021D00088EAF37883EA0C0303EB386388EA334830
:1021E00083EA0C0345F6800CCBF6717C04EBF974A2
:1021F00089EA346984EA0C0404EB794489EA744975
:1022000084EA0C044C4489EAF47984EA0C0404EB73
:10221000396489EA344984EA0C044DF6562CC3F635
:10222000B40C05EBFA758AEA356A85EA0C0505EB0C
:102230007A458AEA754A85EA0C0555448AEAF57AB0
:1022400085EA0C0505EB3A658AEA354A85EA0C050C
:1022500048F2EB5CCBF6113C07EBFE778EEA376E6B
:1022600087EA0C0707EB7E478EEA774E87EA0C0772
:1022700077448EEAF77E87EA0C0707EB3E678EEA23
:10228000374E87EA0C0783EA040188EA09026940AD
:1022900082EA0A02714082EA0B0281EA014182EA83
:1022A00002428EEA314E87EA32470360C0F804806A
:1022B0008460C0F80C900561C0F814A0846AD0F85E
:1022C0002C90056BD0F834A0836BD0F83C8047F697
:1022D000573CC4F67C7C04EBF97489EA346984EADF
:1022E0000C0404EB794489EA744984EA0C044C44F4
:1022F00089EAF47984EA0C0404EB396489EA344904
:1023000084EA0C044AF2C81CCCF6BF7C05EBFA75D3
:102310008AEA356A85EA0C0505EB7A458AEA754A48
:1023200085EA0C0555448AEAF57A85EA0C0505EB41
:102330003A658AEA354A85EA0C0542F63D1CCCF23C
:10234000B32C03EBF87388EA336883EA0C0303EBDE
:10235000784388EA734883EA0C03434488EAF378B5
:1023600083EA0C0303EB386388EA334883EA0C03FF
:1023700089EA314984EA32448AEA314A85EA3245B7
:1023800088EA314183EA3242C0F83CB08663D0F833
:10239000048003688EEA080B87EA0306C6461F46D8
:1023A000D0F80CC089EA0C08C0F82CC0D0F808C0DE
:1023B00084EA0C03C0F828C0D0F814C08AEA0C09DB
:1023C000C0F834C0D0F810C085EA0C04C0F830C0A2
:1023D000D0F83CA0856B8AEA010A554048F2EB5CD4
:1023E000CBF6113C88EA0C0889F0040907EBFE776C
:1023F0008EEA376E87EA0C0707EB7E478EEA774E48
:1024000087EA0C0777448EEAF77E87EA0C0707EB2A
:102410003E678EEA374E87EA0C0745F2621CCBF224
:10242000E17C03EBF87388EA336883EA0C0303EB7F
:10243000784388EA734883EA0C03434488EAF378D4
:1024400083EA0C0303EB386388EA334883EA0C031E
:1024500045F6800CCBF6717C04EBF97489EA34699B
:1024600084EA0C0404EB794489EA744984EA0C0494
:102470004C4489EAF47984EA0C0404EB396489EA6F
:10248000344984EA0C044DF6562CC3F6B40C05EB23
:10249000FA758AEA356A85EA0C0505EB7A458AEA17
:1024A000754A85EA0C0555448AEAF57A85EA0C05F1
:1024B00005EB3A658AEA354A85EA0C0547F2387C2D
:1024C000C3F24E2C06EBFB768BEA366B86EA0C06E3
:1024D00006EB7B468BEA764B86EA0C065E448BEA7B
:1024E000F67B86EA0C0606EB3B668BEA364B86EA01
:1024F0000C0683EA040188EA0902694082EA0A02BA
:10250000714082EA0B0281EA014182EA02428EEACC
:10251000314E87EA32470360C0F804808460C0F817
:102520000C900561C0F814A0846AD0F82C90056B5B
:10253000D0F834A0836BD0F83C8047F6573CC4F603
:102540007C7C04EBF97489EA346984EA0C0404EBBA
:10255000794489EA744984EA0C044C4489EAF479A0
:1025600084EA0C0404EB396489EA344984EA0C04F3
:102570004AF2C81CCCF6BF7C05EBFA758AEA356ACC
:1025800085EA0C0505EB7A458AEA754A85EA0C0569
:1025900055448AEAF57A85EA0C0505EB3A658AEA3C
:1025A000354A85EA0C0542F63D1CCCF2B32C03EB10
:1025B000F87388EA336883EA0C0303EB784388EA0C
:1025C000734883EA0C03434488EAF37883EA0C03F4
:1025D00003EB386388EA334883EA0C0389EA31491C
:1025E00084EA32448AEA314A85EA324588EA31414E
:1025F00083EA3242C0F83CB08663D0F804800368B6
:102600008EEA080B87EA0306C6461F46D0F80CC0C0
:1026100089EA0C08C0F82CC0D0F808C084EA0C0382
:10262000C0F828C0D0F814C08AEA0C09C0F834C039
:10263000D0F810C085EA0C04C0F830C0D0F83CA037
:10264000856B8AEA010A554047F6573CC4F67C7C04
:1026500088EA0C0889F0050945F2621CCBF2E17C9E
:1026600003EBF87388EA336883EA0C0303EB7843DF
:1026700088EA734883EA0C03434488EAF37883EAE0
:102680000C0303EB386388EA334883EA0C0345F60E
:10269000800CCBF6717C04EBF97489EA346984EA26
:1026A0000C0404EB794489EA744984EA0C044C4430
:1026B00089EAF47984EA0C0404EB396489EA344940
:1026C00084EA0C044DF6562CC3F6B40C05EBFA75EF
:1026D0008AEA356A85EA0C0505EB7A458AEA754A85
:1026E00085EA0C0555448AEAF57A85EA0C0505EB7E
:1026F0003A658AEA354A85EA0C0547F2387CC3F226
:102700004E2C06EBFB768BEA366B86EA0C0606EB64
:102710007B468BEA764B86EA0C065E448BEAF67BB8
:1027200086EA0C0606EB3B668BEA364B86EA0C061D
:1027300048F2EB5CCBF6113C07EBFE778EEA376E86
:1027400087EA0C0707EB7E478EEA774E87EA0C078D
:1027500077448EEAF77E87EA0C0707EB3E678EEA3E
:10276000374E87EA0C0783EA040188EA09026940C8
:1027700082EA0A02714082EA0B0281EA014182EA9E
:1027800002428EEA314E87EA32470360C0F8048085
:102790008460C0F80C900561C0F814A0846AD0F879
:1027A0002C90056BD0F834A0836BD0F83C8047F6B2
:1027B000573CC4F67C7C04EBF97489EA346984EAFA
:1027C0000C0404EB794489EA744984EA0C044C440F
:1027D00089EAF47984EA0C0404EB396489EA34491F
:1027E00084EA0C044AF2C81CCCF6BF7C05EBFA75EF
:1027F0008AEA356A85EA0C0505EB7A458AEA754A64
:1028000085EA0C0555448AEAF57A85EA0C0505EB5C
:102810003A658AEA354A85EA0C0542F63D1CCCF257
:10282000B32C03EBF87388EA336883EA0C0303EBF9
:10283000784388EA734883EA0C03434488EAF378D0
:1028400083EA0C0303EB386388EA334883EA0C031A
:1028500089EA314984EA32448AEA314A85EA3245D2
:1028600088EA314183EA3242C0F83CB08663D0F84E
:10287000048003688EEA080B87EA0306C6461F46F3
:10288000D0F80CC089EA0C08C0F82CC0D0F808C0F9
:1028900084EA0C03C0F828C0D0F814C08AEA0C09F6
:1028A000C0F834C0D0F810C085EA0C04C0F830C0BD
:1028B000D0F83CA0856B8AEA010A55404AF2C81C50
:1028C000CCF6BF7C88EA0C0889F0060945F2621C48
:1028D000CBF2E17C03EBF87388EA336883EA0C03FC
:1028E00003EB784388EA734883EA0C03434488EA9D
:1028F000F37883EA0C0303EB386388EA334883EA0E
:102900000C0345F6800CCBF6717C04EBF97489EA74
:10291000346984EA0C0404EB794489EA744984EA52
:102920000C044C4489EAF47984EA0C0404EB39641D
:1029300089EA344984EA0C044DF6562CC3F6B40CEB
:1029400005EBFA758AEA356A85EA0C0505EB7A45E6
:102950008AEA754A85EA0C0555448AEAF57A85EAD9
:102960000C0505EB3A658AEA354A85EA0C0547F21B
:10297000387CC3F24E2C06EBFB768BEA366B86EA8C
:102980000C0606EB7B468BEA764B86EA0C065E4429
:102990008BEAF67B86EA0C0606EB3B668BEA364B47
:1029A00086EA0C0648F2EB5CCBF6113C07EBFE77AF
:1029B0008EEA376E87EA0C0707EB7E478EEA774E82
:1029C00087EA0C0777448EEAF77E87EA0C0707EB65
:1029D0003E678EEA374E87EA0C0783EA040188EAED
:1029E0000902694082EA0A02714082EA0B0281EA26
:1029F000014182EA02428EEA314E87EA32470360A1
:102A0000C0F804808460C0F80C900561C0F814A080
:102A1000846AD0F82C90056BD0F834A0836BD0F882
:102A20003C8047F6573CC4F67C7C04EBF97489EA99
:102A3000346984EA0C0404EB794489EA744984EA31
:102A40000C044C4489EAF47984EA0C0404EB3964FC
:102A500089EA344984EA0C044AF2C81CCCF6BF7CEB
:102A600005EBFA758AEA356A85EA0C0505EB7A45C5
:102A70008AEA754A85EA0C0555448AEAF57A85EAB8
:102A80000C0505EB3A658AEA354A85EA0C0542F6FB
:102A90003D1CCCF2B32C03EBF87388EA336883EA6D
:102AA0000C0303EB784388EA734883EA0C0343443E
:102AB00088EAF37883EA0C0303EB386388EA334847
:102AC00083EA0C0389EA314984EA32448AEA314ACA
:102AD00085EA324588EA314183EA3242C0F83CB0A7
:102AE0008663D0F8048003688EEA080B87EA030641
:102AF000C6461F46D0F80CC089EA0C08C0F82CC0A6
:102B0000D0F808C084EA0C03C0F828C0D0F814C07C
:102B10008AEA0C09C0F834C0D0F810C085EA0C0469
:102B2000C0F830C0D0F83CA0856B8AEA010A554055
:102B300042F63D1CCCF2B32C88EA0C0889F0070958
:102B400045F2621CCBF2E17C03EBF87388EA336850
:102B500083EA0C0303EB784388EA734883EA0C03A7
:102B6000434488EAF37883EA0C0303EB386388EA8A
:102B7000334883EA0C0345F6800CCBF6717C04EBFA
:102B8000F97489EA346984EA0C0404EB794489EA2B
:102B9000744984EA0C044C4489EAF47984EA0C040C
:102BA00004EB396489EA344984EA0C044DF6562C66
:102BB000C3F6B40C05EBFA758AEA356A85EA0C05AA
:102BC00005EB7A458AEA754A85EA0C0555448AEA96
:102BD000F57A85EA0C0505EB3A658AEA354A85EA15
:102BE0000C0547F2387CC3F24E2C06EBFB768BEAE1
:102BF000366B86EA0C0606EB7B468BEA764B86EA5A
:102C00000C065E448BEAF67B86EA0C0606EB3B6616
:102C10008BEA364B86EA0C0648F2EB5CCBF6113CAD
:102C200007EBFE778EEA376E87EA0C0707EB7E47E5
:102C30008EEA774E87EA0C0777448EEAF77E87EABA
:102C40000C0707EB3E678EEA374E87EA0C0783EAEC
:102C5000040188EA0902694082EA0A02714082EAB4
:102C60000B0281EA014182EA02428EEA314E87EA92
:102C700032470360C0F804808460C0F80C9005619E
:102C8000C0F814A0846AD0F82C90056BD0F834A05A
:102C9000836BD0F83C8047F6573CC4F67C7C04EB51
:102CA000F97489EA346984EA0C0404EB794489EA0A
:102CB000744984EA0C044C4489EAF47984EA0C04EB
:102CC00004EB396489EA344984EA0C044AF2C81CEA
:102CD000CCF6BF7C05EBFA758AEA356A85EA0C0505
:102CE00005EB7A458AEA754A85EA0C0555448AEA75
:102CF000F57A85EA0C0505EB3A658AEA354A85EAF4
:102D00000C0542F63D1CCCF2B32C03EBF87388EAB9
:102D1000336883EA0C0303EB784388EA734883EA59
:102D20000C03434488EAF37883EA0C0303EB38632B
:102D300088EA334883EA0C0389EA314984EA324459
:102D40008AEA314A85EA324588EA314183EA3242E9
:102D5000C0F83CB08663D0F8048003688EEA080BA4
:102D600087EA0306C6461F46D0F80CC089EA0C085D
:102D7000C0F82CC0D0F808C084EA0C03C0F828C002
:102D8000D0F814C08AEA0C09C0F834C0D0F810C0DA
:102D900085EA0C04C0F830C0D0F83CA0856B8AEA04
:102DA000010A554002BC082900F0DC8445F2621C8F
:102DB000CBF2E17C88EA0C0889F0080903EBF87390
:102DC00088EA336883EA0C0303EB784388EA7348A4
:102DD00083EA0C03434488EAF37883EA0C0303EBA9
:102DE000386388EA334883EA0C0345F6800CCBF657
:102DF000717C04EBF97489EA346984EA0C0404EB0D
:102E0000794489EA744984EA0C044C4489EAF479E7
:102E100084EA0C0404EB396489EA344984EA0C043A
:102E20004DF6562CC3F6B40C05EBFA758AEA356AF2
:102E300085EA0C0505EB7A458AEA754A85EA0C05B0
:102E400055448AEAF57A85EA0C0505EB3A658AEA83
:102E5000354A85EA0C0547F2387CC3F24E2C06EB66
:102E6000FB768BEA366B86EA0C0606EB7B468BEA32
:102E7000764B86EA0C065E448BEAF67B86EA0C0605
:102E800006EB3B668BEA364B86EA0C0648F2EB5CB7
:102E9000CBF6113C07EBFE778EEA376E87EA0C071C
:102EA00007EB7E478EEA774E87EA0C0777448EEA77
:102EB000F77E87EA0C0707EB3E678EEA374E87EA14
:102EC0000C0783EA040188EA0902694082EA0A02DF
:102ED000714082EA0B0281EA014182EA02428EEAF3
:102EE000314E87EA32470360C0F804808460C0F83E
:102EF0000C900561C0F814A0846AD0F82C90056B82
:102F0000D0F834A0836BD0F83C8047F6573CC4F629
:102F10007C7C04EBF97489EA346984EA0C0404EBE0
:102F2000794489EA744984EA0C044C4489EAF479C6
:102F300084EA0C0404EB396489EA344984EA0C0419
:102F40004AF2C81CCCF6BF7C05EBFA758AEA356AF2
:102F500085EA0C0505EB7A458AEA754A85EA0C058F
:102F600055448AEAF57A85EA0C0505EB3A658AEA62
:102F7000354A85EA0C0542F63D1CCCF2B32C03EB36
:102F8000F87388EA336883EA0C0303EB784388EA32
:102F9000734883EA0C03434488EAF37883EA0C031A
:102FA00003EB386388EA334883EA0C0389EA314942
:102FB00084EA32448AEA314A85EA324588EA314174
:102FC00083EA3242C0F83CB08663D0F804800368DC
:102FD0008EEA080B87EA0306C6461F46D0F80CC0E7
:102FE00089EA0C08C0F82CC0D0F808C084EA0C03A9
:102FF000C0F828C0D0F814C08AEA0C09C0F834C060
:10300000D0F810C085EA0C04C0F830C0D0F83CA05D
:10301000856B8AEA010A554045F6800CCBF6717C37
:1030200088EA0C0889F0090904EBF97489EA346923
:1030300084EA0C0404EB794489EA744984EA0C04B8
:103040004C4489EAF47984EA0C0404EB396489EA93
:10305000344984EA0C0445F2621CCBF2E17C03EBB8
:10306000F87388EA336883EA0C0303EB784388EA51
:10307000734883EA0C03434488EAF37883EA0C0339
:1030800003EB386388EA334883EA0C034DF6562C89
:10309000C3F6B40C05EBFA758AEA356A85EA0C05C5
:1030A00005EB7A458AEA754A85EA0C0555448AEAB1
:1030B000F57A85EA0C0505EB3A658AEA354A85EA30
:1030C0000C0547F2387CC3F24E2C06EBFB768BEAFC
:1030D000366B86EA0C0606EB7B468BEA764B86EA75
:1030E0000C065E448BEAF67B86EA0C0606EB3B6632
:1030F0008BEA364B86EA0C0648F2EB5CCBF6113CC9
:1031000007EBFE778EEA376E87EA0C0707EB7E4700
:103110008EEA774E87EA0C0777448EEAF77E87EAD5
:103120000C0707EB3E678EEA374E87EA0C0783EA07
:10313000040188EA0902694082EA0A02714082EACF
:103140000B0281EA014182EA02428EEA314E87EAAD
:1031500032470360C0F804808460C0F80C900561B9
:10316000C0F814A0846AD0F82C90056BD0F834A075
:10317000836BD0F83C8047F6573CC4F67C7C04EB6C
:10318000F97489EA346984EA0C0404EB794489EA25
:10319000744984EA0C044C4489EAF47984EA0C0406
:1031A00004EB396489EA344984EA0C044AF2C81C05
:1031B000CCF6BF7C05EBFA758AEA356A85EA0C0520
:1031C00005EB7A458AEA754A85EA0C0555448AEA90
:1031D000F57A85EA0C0505EB3A658AEA354A85EA0F
:1031E0000C0542F63D1CCCF2B32C03EBF87388EAD5
:1031F000336883EA0C0303EB784388EA734883EA75
:103200000C03434488EAF37883EA0C0303EB386346
:1032100088EA334883EA0C0389EA314984EA324474
:103220008AEA314A85EA324588EA314183EA324204
:10323000C0F83CB08663D0F8048003688EEA080BBF
:1032400087EA0306C6461F46D0F80CC089EA0C0878
:10325000C0F82CC0D0F808C084EA0C03C0F828C01D
:10326000D0F814C08AEA0C09C0F834C0D0F810C0F5
:1032700085EA0C04C0F830C0D0F83CA0856B8AEA1F
:10328000010A55404DF6562CC3F6B40C88EA0C08DA
:1032900089F00A0905EBFA758AEA356A85EA0C05B0
:1032A00005EB7A458AEA754A85EA0C0555448AEAAF
:1032B000F57A85EA0C0505EB3A658AEA354A85EA2E
:1032C0000C0545F2621CCBF2E17C03EBF87388EA53
:1032D000336883EA0C0303EB784388EA734883EA94
:1032E0000C03434488EAF37883EA0C0303EB386366
:1032F00088EA334883EA0C0345F6800CCBF6717CF0
:1033000004EBF97489EA346984EA0C0404EB794427
:1033100089EA744984EA0C044C4489EAF47984EA21
:103320000C0404EB396489EA344984EA0C0447F25A
:10333000387CC3F24E2C06EBFB768BEA366B86EAC2
:103340000C0606EB7B468BEA764B86EA0C065E445F
:103350008BEAF67B86EA0C0606EB3B668BEA364B7D
:1033600086EA0C0648F2EB5CCBF6113C07EBFE77E5
:103370008EEA376E87EA0C0707EB7E478EEA774EB8
:1033800087EA0C0777448EEAF77E87EA0C0707EB9B
:103390003E678EEA374E87EA0C0783EA040188EA23
:1033A0000902694082EA0A02714082EA0B0281EA5C
:1033B000014182EA02428EEA314E87EA32470360D7
:1033C000C0F804808460C0F80C900561C0F814A0B7
:1033D000846AD0F82C90056BD0F834A0836BD0F8B9
:1033E0003C8047F6573CC4F67C7C04EBF97489EAD0
:1033F000346984EA0C0404EB794489EA744984EA68
:103400000C044C4489EAF47984EA0C0404EB396432
:1034100089EA344984EA0C044AF2C81CCCF6BF7C21
:1034200005EBFA758AEA356A85EA0C0505EB7A45FB
:103430008AEA754A85EA0C0555448AEAF57A85EAEE
:103440000C0505EB3A658AEA354A85EA0C0542F631
:103450003D1CCCF2B32C03EBF87388EA336883EAA3
:103460000C0303EB784388EA734883EA0C03434474
:1034700088EAF37883EA0C0303EB386388EA33487D
:1034800083EA0C0389EA314984EA32448AEA314A00
:1034900085EA324588EA314183EA3242C0F83CB0DD
:1034A0008663D0F8048003688EEA080B87EA030677
:1034B000C6461F46D0F80CC089EA0C08C0F82CC0DC
:1034C000D0F808C084EA0C03C0F828C0D0F814C0B3
:1034D0008AEA0C09C0F834C0D0F810C085EA0C04A0
:1034E000C0F830C0D0F83CA0856B8AEA010A55408C
:1034F00047F2387CC3F24E2C88EA0C0889F00B099D
:1035000045F2621CCBF2E17C03EBF87388EA336886
:1035100083EA0C0303EB784388EA734883EA0C03DD
:10352000434488EAF37883EA0C0303EB386388EAC0
:10353000334883EA0C0345F6800CCBF6717C04EB30
:10354000F97489EA346984EA0C0404EB794489EA61
:10355000744984EA0C044C4489EAF47984EA0C0442
:1035600004EB396489EA344984EA0C044DF6562C9C
:10357000C3F6B40C05EBFA758AEA356A85EA0C05E0
:1035800005EB7A458AEA754A85EA0C0555448AEACC
:10359000F57A85EA0C0505EB3A658AEA354A85EA4B
:1035A0000C0547F2387CC3F24E2C06EBFB768BEA17
:1035B000366B86EA0C0606EB7B468BEA764B86EA90
:1035C0000C065E448BEAF67B86EA0C0606EB3B664D
:1035D0008BEA364B86EA0C0648F2EB5CCBF6113CE4
:1035E00007EBFE778EEA376E87EA0C0707EB7E471C
:1035F0008EEA774E87EA0C0777448EEAF77E87EAF1
:103600000C0707EB3E678EEA374E87EA0C0783EA22
:10361000040188EA0902694082EA0A02714082EAEA
:103620000B0281EA014182EA02428EEA314E87EAC8
:1036300032470360C0F804808460C0F80C900561D4
:10364000C0F814A0846AD0F82C90056BD0F834A090
:10365000836BD0F83C8047F6573CC4F67C7C04EB87
:10366000F97489EA346984EA0C0404EB794489EA40
:10367000744984EA0C044C4489EAF47984EA0C0421
:1036800004EB396489EA344984EA0C044AF2C81C20
:10369000CCF6BF7C05EBFA758AEA356A85EA0C053B
:1036A00005EB7A458AEA754A85EA0C0555448AEAAB
:1036B000F57A85EA0C0505EB3A658AEA354A85EA2A
:1036C0000C0542F63D1CCCF2B32C03EBF87388EAF0
:1036D000336883EA0C0303EB784388EA734883EA90
:1036E0000C03434488EAF37883EA0C0303EB386362
:1036F00088EA334883EA0C0389EA314984EA324490
:103700008AEA314A85EA324588EA314183EA32421F
:10371000C0F83CB08663D0F8048003688EEA080BDA
:1037200087EA0306C6461F46D0F80CC089EA0C0893
:10373000C0F82CC0D0F808C084EA0C03C0F828C038
:10374000D0F814C08AEA0C09C0F834C0D0F810C010
:1037500085EA0C04C0F830C0D0F83CA0856B8AEA3A
:10376000010A55400360C0F804808460C0F80C90E2
:103770000561C0F814A08661C0F81CB00762C0F8EB
:1037800024E0BDE8F08F00BF08B500F027FA00F094
:1037900001F900F01DFA00F00DFA00F01BFABDE887
:1037A000084000F019BA00BF074A13682BB1074858
:1037B000074A03600021116070470649064B07481D
:1037C00013600860F3E700BF0C0000200400002035
:1037D0000000002008000020100000201040002001
:1037E0001D4AD2F800C010B50346BCF1000F1CD032
:1037F000DFF878E0194ADEF800001168073323F09B
:103800000703C2188A4224D8CEF800202BB1034601
:10381000002103F8011B9A42FBD1114B1968A2EB5E
:103820000C02914200D21A6010BD0E4C0B480E499A
:10383000146007330A4A016023F007032046C2F8E8
:1038400000C0DFF828E0C2188A42A446CEF8004043
:10385000DAD9002010BD00BF0C00002008000020B5
:103860000000002010000020104000200400002074
:10387000014B1868704700BF00000020094A136818
:103880001BB1094A1068C01A704710B4074911608B
:10389000074A0848044C1160074A20601360401A28
:1038A00010BC70470C000020080000201000002011
:1038B00004000020104000200000002010B40C4C38
:1038C0000023224602E00133152B0DD011788142EE
:1038D00002F10C02F7D103EB430304EB8304D4E9B8
:1038E000013010BCC01A7047002010BC704700BFE8
:1038F00028440008084B094A93420BD2013AD21AD5
:1039000022F00302043206481A4419460433934253
:103910000860FAD1704700BF10400020000002206C
:10392000EFBEADDE82B06B4601930199054B994223
:1039300005D905481A46043399421060FAD802B0F6
:10394000704700BF10400020EFBEADDE0648074ABA
:10395000904207D2064902E00430904202D2036846
:103960008B42F9D0101A704710400020000002204E
:10397000EFBEADDE014B0248C01A704700000020C8
:1039800010000020014B0248C01A70471040002070
:1039900000000220704700BF2DE9F04F704D89B044
:1039A00004460190FFF7BEFFFFF7FEFE2B78A3420F
:1039B00005D06C4809B0BDE8F04F00F023B92B7A70
:1039C000E96869480391002B4FF0100306934FF00C
:1039D000140307934FF040020CBF012305234FF45B
:1039E0008064CDE90424009300F00CF9686800F0CD
:1039F00009F95E4800F006F92046FFF7F1FE064699
:103A0000002800F0AB80421E002302F8013F013382
:103A1000B3F5806FF9D1DDF80CB05846FFF7E0FE42
:103A20000DF10C0A0024804600286ED000F01EFA2A
:103A3000594681464FF4806332462F694046B84765
:103A4000834600F013FA48453CBF00F1FF1000F533
:103A50007F40A0EB0909BBF1000F45D1002C58D0E5
:103A6000012C79D0022C75D0032C62D0404800F094
:103A7000C9F8484600F0D4F83E4800F0C3F80120E9
:103A800000F0CEF83C4800F0BDF83C4800F0BAF831
:103A90003B4800F0B7F8FFF7EBFE00F0C1F83948FB
:103AA00000F0B0F8384800F0ADF8FFF74FFF00F035
:103AB000B7F8344800F0A6F8344800F0A3F8FFF750
:103AC00059FF00F0ADF82F4800F09CF8304800F0A6
:103AD00099F80198FFF7F2FE00F0A2F82D4809B01E
:103AE000BDE8F04F00F08EB82B4800F08BF8009B3B
:103AF0000134A342C9D0DAF804B05846FFF770FE8B
:103B00000AF1040A8046002890D1244800F07AF88F
:103B1000EDE7234800F076F8484600F081F81548B4
:103B200000F070F8012000F07BF8134800F06AF80C
:103B3000DDE71C4800F066F8484600F071F80D48D3
:103B400000F060F8012000F06BF80B4800F05AF824
:103B50000134D0E71448EDE71448EBE7144829E7AF
:103B6000380000082445000844450008484500087E
:103B7000CC450008B4450008C44500083846000894
:103B800048460008584600085C4600086C46000895
:103B90007C4600088C4600081C4600087C4500084E
:103BA000A045000808460008F4450008E045000864
:103BB0005845000808B5044800F024F8034B18786D
:103BC000BDE80840FFF7E8BE94460008380000084A
:103BD000704700BF704700BF704700BF704700BF0D
:103BE0000649074A0A2001F11F0C13681B06FCD581
:103BF000506011F8010F6145F7D1FEE7B8460008A3
:103C000000100140017841B1044A13681B06FCD53D
:103C1000516010F8011F0029F7D1704700100140D2
:103C200000B585B000238DF80E30002800F0A38089
:103C3000624BA3FB0012D20802EB8201A0EB410110
:103C40003031C9B209288DF80D1040F29F80A3FBD6
:103C5000021C4FEADC0C0CEB8C01A2EB410230326F
:103C6000D1B263288DF80C1040F29380A3FB0C2E88
:103C70004FEADE0E0EEB8E02ACEB42023032D1B2D6
:103C8000B0F57A7F8DF80B10C0F08680A3FB0E2C68
:103C90004FEADC0C0CEB8C02AEEB42023032D1B2BC
:103CA00042F20F7290428DF80A1078D9A3FB0C2EC5
:103CB0004FEADE0E0EEB8E02ACEB4202DFF808C1DB
:103CC0003032D1B260458DF809105CD9A3FB0E2CBF
:103CD0004FEADC0C0CEB8C02AEEB4202DFF8ECE0BE
:103CE0003032D1B270458DF808105BD9A3FB0C2E91
:103CF0004FEADE0E0EEB8E02ACEB4202DFF8D0C0D4
:103D00003032D1B260458DF807104ED3A3FB0E2C94
:103D10004FEADC0C0CEB8C02AEEB4202DFF8B4E0B5
:103D20003032D1B270458DF8061041D9A3FB0C2377
:103D3000DB0803EB8303224AACEB43033033D9B2F5
:103D400090428DF8051036D91C4BA3FB0C23DB08E1
:103D500003F130014FF0000E8DF8041001A8194A4C
:103D6000704413681B06FCD5516010F8011F002930
:103D7000F7D105B000BD134A13681906FCD53023EE
:103D8000536005B000BD4FF0050EE7E74FF0090E98
:103D9000E4E74FF0080EE1E74FF0070EDEE74FF0E3
:103DA000060EDBE74FF0040ED8E74FF0030ED5E721
:103DB0004FF0020ED2E74FF0010ECFE7CDCCCCCCC6
:103DC000FFC99A3B001001409F8601003F420F004F
:103DD00080969800FFE0F505224B010FC0F30362C7
:103DE00000B513F801E09A5C00216EF30701C0F3FF
:103DF000035C62F30F21C0F3034213F80CE013F8E5
:103E000002C000F00F0285B09A5C8DF80D206EF3B1
:103E10001741C0F303226CF31F61C0F3031CC0F30E
:103E200003309A5C13F80CC08DF80B201B5C0E4A13
:103E3000CDF8061047F630004FF0000EADF8040044
:103E40008DF80EE08DF80CC08DF80A30302101A8F5
:103E500013681B06FCD5516010F8011F0029F7D12B
:103E600005B000BD2C480008001001404FF0E023D1
:103E70009869C04320F07F40704700BF08B54FF0FD
:103E8000E0239049D3F8882D8F4C42F47002C3F898
:103E9000882DD1F8442842F01002C1F8442842F29B
:103EA000080000226FF07F4140F28365A560E0606A
:103EB0001A61596105219A611961FFF775FCFFF7D5
:103EC00019FD824A0A2102F12B0023681B06FCD54A
:103ED000616012F8011F8242F7D17D497A4A2020A1
:103EE00001F12B0413681E06FCD5506011F8010F78
:103EF000A142F7D17749744A3D2001F12B041368A0
:103F00001D06FCD5506011F8010FA142F7D1FFF753
:103F1000B5FC0546FFF736FD0446FFF72BFD6E495D
:103F2000694A064601F10D0C5B2013681B06FCD59F
:103F3000506011F8010F6145F7D16849624A2020AD
:103F400001F10A0C13681B06FCD5506011F8010F33
:103F50006145F7D14FF00060FFF73EFF60495A4AD4
:103F6000202001F1160C13681B06FCD5506011F8D7
:103F7000010F6145F7D15B49534A202001F10A0C3A
:103F800013681B06FCD5506011F8010F6145F7D18D
:103F90004FF00050FFF720FF53494B4A202001F11A
:103FA000150C13681B06FCD5506011F8010F614514
:103FB000F7D14E49444A202001F1140C13681B0626
:103FC000FCD5506011F8010F6145F7D13046FFF77D
:103FD00027FE47493C4A2020CE1C13681B06FCD50F
:103FE000506011F8010FB142F7D14249364A202002
:103FF00001F10A0613681B06FCD5506011F8010F89
:10400000B142F7D13C48FFF7E7FE3C492E4A202059
:10401000CE1C13681B06FCD5506011F8010FB1428D
:10402000F7D12846FFF7FCFD3549274A202001F14A
:10403000140513681B06FCD5506011F8010FA94246
:10404000F7D13049204A202001F10A0513681B06E8
:10405000FCD5506011F8010FA942F7D12A48FFF7AB
:10406000BBFE2649184A202013681B06FCD5506069
:1040700011F8010FB142F7D12046FFF7D1FD2349D6
:10408000114A202001F1140413681D06FCD550606C
:1040900011F8010FA142F7D10B4A13681906FCD59C
:1040A0000A235360FFF770FB1949074A532001F1B7
:1040B000100413681B06FCD5506011F8010FA142D3
:1040C000F7D1FEE70030024000100140D84600085A
:1040D00004470008304700085C4700086C470008A8
:1040E00078470008904700089C470008B44700083C
:1040F00058460008CC47000810000020D8470008A8
:10410000DC470008F4470008104000200048000881
:104110001848000838B5244C244B9C4221D2013B5E
:104120001B1B032B22463BD99B08214D03F1010C9D
:104130004FEA5C0E2B4605EBCE0ED3E900010833A7
:104140009E45C2E9000102F10802F6D11CF0010F00
:1041500007D02CF0010C04EB8C0405EB8C052B68CC
:104160002360144C14498C4218D20139091B0329CD
:10417000234617D989080131480804EBC000002202
:10418000C3E9002208338342FAD1CB0706D521F0D8
:10419000010104EB810C0023CCF80030FFF76EFE28
:1041A000034DDCE7A446F6E70000002000000020F5
:1041B00040480008000000201000002030B50446F0
:1041C00012B3501E0228C9B220D94FF0000C61F37F
:1041D000070C61F30F2C61F3174C22F0030561F318
:1041E0001F6C234604EB050E43F804CB9E45FBD120
:1041F000AA4209D0401B8EF8001028B101288EF881
:10420000011018BF8EF80210204630BDA646F2E716
:1042100072B3F0B5541E052C164620D9451A013D3F
:10422000022D84460B461AD922F0030597086A1816
:1042300053F804EB4CF804EB9342F9D1AE420DD0A5
:1042400011F8272000F82720641B00EB050205D099
:1042500059785170012C01D09B789370F0BD441EA9
:104260008B1911F8012B04F8012F8B42F9D1F0BD05
:10427000704700BF2DE9F04F91B0144681463022BF
:104280008B4604A80021FFF799FF102C98BF6E46BB
:1042900048D9A4F111084FEA181808F101050BEBF1
:1042A0000515DA466E46514610223046FFF7B0FF3C
:1042B0009DE80A10049F039A81EA0C0081EA070E28
:1042C0000599079F5940534080EA004083EA034321
:1042D0008EEA334E81EA3041CDE904E106998CEA59
:1042E000010C8CEA33417A400691089F099982EAD1
:1042F000304281EA304C87EA3343072104A80AF1AF
:10430000100ACDE90723CDF824C0FCF783FBAA45AA
:10431000C9D1C8EB0878103C0BF1100704EB081466
:10432000A7EB081B102C51D0224659463046FFF708
:104330006FFF0DEB04038022601C1A700021C4F192
:104340000F023044FFF73AFFDDE90315009C0298A5
:10435000019B84EA00026C40059D5D404B4083EA6E
:10436000034384EA33440494069C604080EA33406B
:10437000069007984140089880EA3340099B82EAFA
:10438000024285EA324581EA324183EA32430595A9
:10439000079183F0A063CDE908030B2104A8FCF783
:1043A00039FB10220DEB02014846FFF731FF04A84C
:1043B0000721FCF72FFB10220DEB020109EB020095
:1043C000FFF726FF002011B0BDE8F08F22465946C6
:1043D0003046FFF71DFFDDE90315009C0298019BA5
:1043E00084EA00026C40059D5D404B4083EA034334
:1043F00084EA33440494069C604080EA334006908B
:1044000007984140089880EA3340099B82EA0242BB
:1044100085EA324581EA324183EA324305950791C4
:1044200083F0C063B7E700BF000000001C00000875
:104430001C000008010000001C0000081C0000080F
:10444000020000001C0000081C000008030000001F
:104450001C0000081C000008040000001C000008EC
:104460001C000008060000001C0000081C000008DA
:10447000090000001C0000081C0000080A000000E1
:104480001C0000081C0000080C0000001C000008B4
:104490001C000008070000001C0000081C000008A9
:1044A0000B0000001C0000081C0000080F000000AA
:1044B0001C0000081C000008100000001C00000880
:1044C0001C000008140000001C0000081C0000086C
:1044D000150000001C0000081C000008130000006C
:1044E0001C0000081C000008160000001C0000084A
:1044F0001C000008170000001C0000081C00000839
:10450000180000001C0000086000000819000000EE
:1045100060000008600000081A0000006000000849
:1045200060000008212120556E726567697374650B
:1045300072656420486173682F584F462021210A14
:10454000000000002D3E20000A2020205B54696DF1
:10455000696E675D0A0000002121204865617020B6
:104560004F4F4D20616C6C6F636174696E67206999
:104570006E7075742021210A00000000212120485E
:10458000656170204F4F4D20616C6C6F6361746981
:104590006E67206F75747075742021210A00000009
:1045A00020202044656661756C742F3332423A20B6
:1045B000000000002063792028617667206F76650F
:1045C000722000002072756E73290A00202020538B
:1045D000717A203230423A20202020200000000052
:1045E00020202053717565657A65203634423A2063
:1045F0000000000020202053717A203130323442F4
:104600003A2020200000000020202053717A203121
:1046100036423A2020202020000000002020205B8D
:104620004572726F7220657865637574696E672074
:10463000686173685D0A00002020205B4D656D6F26
:1046400072795D0A0000000020202048656170201A
:104650005065616B3A20200020420A002020205340
:104660007461636B2048574D3A202000202020536E
:104670007461746963204253533A2000202020461D
:104680006C61736820436F64653A200020420A0A17
:10469000000000005B48617368202F20584F465D82
:1046A0000A000000535041524B4C452D584F4620B4
:1046B000286C7763290000000A21212120484152FB
:1046C0004457415245204641554C5420434155479B
:1046D0004854202121210A000A3D3D3D3D3D3D3DFC
:1046E0003D3D3D3D3D3D3D3D3D3D3D3D3D3D3D3DFA
:1046F0003D3D3D3D3D3D3D3D3D3D3D3D3D3D3D3DEA
:104700003D3D0A0020204D756C74692D416C676F2A
:10471000726974686D2048657465726F67656E654F
:104720006F7573204672616D65776F726B200A003A
:104730003D3D3D3D3D3D3D3D3D3D3D3D3D3D3D3DA9
:104740003D3D3D3D3D3D3D3D3D3D3D3D3D3D3D3D99
:104750003D3D3D3D3D3D3D3D3D0A0A005B4D656DA6
:104760006F7279204D61705D0A0000002020466C58
:104770006173683A2020000020203130343835370A
:10478000362042202831303234204B42290A0000A2
:10479000202052414D3A20202020000020202031AE
:1047A000333130373220422028313238204B4229F1
:1047B0000A00000020204253533A202020202020CD
:1047C00020202020202020200000000020204865FC
:1047D00061703A2020200000202020002042202864
:1047E00062756D7020616C6C6F6361746F72290A01
:1047F000000000002020537461636B3A2020000009
:104800002042202867726F777320646F776E77611C
:104810007264290A00000000537569746520636F93
:104820006D706C6574652E0A000000003031323303
:10483000343536373839414243444546000000009C
:0400000508000000EF
:00000001FF
