:020000040800F2
:1000000000000220F5670008C1620008C162000814
:10001000C1620008C1620008C1620008000000005F
:1000200010B58AB09FED107B00930C9B02930D9B43
:1000300004930E9B069394460F9B079300220C4655
:1000400005920192634608A98DED087B09F098FCA2
:100050000CB1089B2360003818BF012040420AB051
:1000600010BD00BFAFF300800000000000000000E2
:1000700010B58CB09FED0E7B00930023CDE90533C6
:1000800001930F9B0493109B0E9C0793119B02946A
:1000900008930C460AA98DED0A7B09F0C1FB0CB14F
:1000A0000A9B2360003818BF012040420CB010BDED
:1000B000000000000000000010B50C46142108F0FC
:1000C00041F840B91021204608F03CF8003818BF2C
:1000D0000120404210BD4FF0FF3010BD0100000074
:1000E00058DB0008140000001000000010000000A1
:1000F00019810008B90000087100000821000008FB
:100100000F2B17D930B5A3F1100485B01319CDE921
:1001100002300D46CDE90024DDE90A10DDE90823AF
:1001200009F0B4F805B12C60003818BF0120404236
:1001300005B030BD4FF0FF30704700BF30B585B01F
:100140001C46C3180D46CDE9014003930092DDE93A
:100150000A10099B089A08F0E3FF0DB110342C60D7
:10016000003818BF0120404205B030BD10B50C4624
:10017000202107F0E7FF40B90C21204607F0E2FFFD
:10018000003818BF0120404210BD4FF0FF3010BDB5
:100190000600000044DB0008200000000C00000006
:1001A00010000000198100086D0100083D010008E1
:1001B0000101000830B587B04FF0000C0B9D019590
:1001C0000C9D0A9C02950D9D009403950C4605A973
:1001D000CDF814C00BF038FF0CB1059B236000383C
:1001E00018BF0120404207B030BD00BF30B587B016
:1001F0004FF0000C0B9D01950C9D0A9C02950D9DE6
:10020000009403950C4605A9CDF814C00BF08EFBA5
:100210000CB1059B2360003818BF0120404207B095
:1002200030BD00BF10B50C46202107F08BFF40B950
:100230002021204607F086FF003818BF01204042E9
:1002400010BD4FF0FF3010BD1600000064DB000849
:10025000200000002000000020000000198100089C
:1002600025020008ED010008B501000830B587B08F
:100270004FF0000C0B9D01950C9D0A9C02950D9D65
:10028000009403950C4605A9CDF814C00BF04EF967
:100290000CB1059B2360003818BF0120404207B015
:1002A00030BD00BF30B587B04FF0000C0B9D0195FD
:1002B0000C9D0A9C02950D9D009403950C4605A982
:1002C000CDF814C00AF064FF0CB1059B2360003820
:1002D00018BF0120404207B030BD00BF10B50C462A
:1002E000182107F02FFF40B91821204607F02AFFF8
:1002F000003818BF0120404210BD4FF0FF3010BD44
:10030000170000007CDB0008180000001800000047
:100310001800000019810008DD020008A50200088D
:100320006D02000830B587B04FF0000C0B9D0195B1
:100330000C9D0A9C02950D9D009403950C4605A901
:10034000CDF814C00DF0CCF80CB1059B236000383B
:1003500018BF0120404207B030BD00BF30B587B0A4
:100360004FF0000C0B9D01950C9D0A9C02950D9D74
:10037000009403950C4605A9CDF814C00CF07EFE40
:100380000CB1059B2360003818BF0120404207B024
:1003900030BD00BF10B50C46142107F0D3FE40B9A4
:1003A0001021204607F0CEFE003818BF0120404241
:1003B00010BD4FF0FF3010BD1B00000094DB0008A3
:1003C0001400000010000000100000001981000857
:1003D000950300085D030008250300082DE9F007D8
:1003E000036847688468D0F80C800569D0F81490D9
:1003F0008669D0F81CA045F26212CBF2E172574038
:1004000003EBF77387EA3367534003EB774387EADD
:1004100073475340DB1987EAF377534003EB3763A5
:1004200087EA3347534045F68002CBF6717204EBFE
:10043000F87488EA3468544004EB784488EA7448D5
:100440005440444488EAF478544004EB386488EA21
:10045000344854404DF65622C3F6B40205EBF97504
:1004600089EA3569554005EB794589EA7549554072
:100470004D4489EAF579554005EB396589EA3549F6
:10048000554047F23872C3F24E2206EBFA768AEAFA
:10049000366A564006EB7A468AEA764A5640564411
:1004A0008AEAF67A564006EB3A668AEA364A5640B7
:1004B00083EA040287EA080C82EA02428CEA0C4CC6
:1004C00089EA324985EA3C458AEA324286EA3C4C6E
:1004D00089EA07095D4088EA020A84EA0C0645F6C3
:1004E0008002CBF671728AEA020A89F0010905EBF3
:1004F000F97589EA3569554005EB794589EA754909
:1005000055404D4489EAF579554005EB396589EA4E
:100510003549554045F26212CBF2E17206EBFA76AC
:100520008AEA366A564006EB7A468AEA764A5640A6
:1005300056448AEAF67A564006EB3A668AEA364A22
:1005400056404DF65622C3F6B40203EBF77387EA22
:100550003367534003EB774387EA73475340DB1914
:1005600087EAF377534003EB376387EA3347534017
:1005700047F23872C3F24E2204EBF87488EA34680A
:10058000544004EB784488EA74485440444488EA70
:10059000F478544004EB386488EA3448544086EADE
:1005A00005028AEA090C82EA02428CEA0C4C87EACC
:1005B000324783EA3C4388EA324284EA3C4C87EA89
:1005C0000A07734089EA020885EA0C044DF65622B0
:1005D000C3F6B40288EA020887F0020706EBFA764F
:1005E0008AEA366A564006EB7A468AEA764A5640E6
:1005F00056448AEAF67A564006EB3A668AEA364A62
:10060000564045F26212CBF2E17204EBF87488EACC
:100610003468544004EB784488EA744854404444B5
:1006200088EAF478544004EB386488EA344854404B
:1006300045F68002CBF6717203EBF77387EA3367F6
:10064000534003EB774387EA73475340DB1987EA4C
:10065000F377534003EB376387EA3347534047F25E
:100660003872C3F24E2205EBF97589EA35695540B7
:1006700005EB794589EA754955404D4489EAF57994
:10068000554005EB396589EA3549554084EA03024E
:1006900088EA070C82EA02428CEA0C4C8AEA324A67
:1006A00086EA3C4689EA324285EA3C4C8AEA080AF4
:1006B000664087EA020983EA0C0547F23872C3F202
:1006C0004E2289EA02098AF0030A03EBF77387EAEC
:1006D0003367534003EB774387EA73475340DB1993
:1006E00087EAF377534003EB376387EA3347534096
:1006F00045F26212CBF2E17205EBF97589EA3569D0
:10070000554005EB794589EA754955404D4489EADC
:10071000F579554005EB396589EA3549554045F687
:100720008002CBF6717206EBFA768AEA366A564098
:1007300006EB7A468AEA764A564056448AEAF67AC0
:10074000564006EB3A668AEA364A56404DF656223D
:10075000C3F6B40204EBF87488EA3468544004EB3E
:10076000784488EA74485440444488EAF478544011
:1007700004EB386488EA3448544085EA060289EA82
:100780000A0C82EA02428CEA0C4C88EA324884EA7B
:100790003C4487EA324283EA3C4C88EA09086C40D0
:1007A0008AEA020786EA0C0348F2EB52CBF61132D2
:1007B000574088F0040845F26212CBF2E17203EB75
:1007C000F77387EA3367534003EB774387EA73474E
:1007D0005340DB1987EAF377534003EB376387EA2B
:1007E0003347534045F68002CBF6717204EBF87440
:1007F00088EA3468544004EB784488EA74485440EA
:10080000444488EAF478544004EB386488EA344875
:1008100054404DF65622C3F6B40205EBF97589EA49
:100820003569554005EB794589EA754955404D4490
:1008300089EAF579554005EB396589EA354955402E
:1008400047F23872C3F24E2206EBFA768AEA366A2B
:10085000564006EB7A468AEA764A564056448AEA79
:10086000F67A564006EB3A668AEA364A564083EAFA
:10087000040287EA080C82EA02428CEA0C4C89EAFC
:10088000324985EA3C458AEA324286EA3C4C89EAAA
:1008900007095D4088EA020A84EA0C0647F65732E7
:1008A000C4F67C728AEA020A89F0050945F26212EE
:1008B000CBF2E17206EBFA768AEA366A564006EB2C
:1008C0007A468AEA764A564056448AEAF67A56408A
:1008D00006EB3A668AEA364A564045F68002CBF67F
:1008E000717205EBF97589EA3569554005EB794573
:1008F00089EA754955404D4489EAF579554005EB3B
:10090000396589EA354955404DF65622C3F6B40299
:1009100003EBF77387EA3367534003EB774387EAC8
:1009200073475340DB1987EAF377534003EB376390
:1009300087EA3347534047F23872C3F24E2204EB42
:10094000F87488EA3468544004EB784488EA7448C0
:100950005440444488EAF478544004EB386488EA0C
:100960003448544086EA05028AEA090C82EA0242C7
:100970008CEA0C4C87EA324783EA3C4388EA3242ED
:1009800084EA3C4C87EA0A07734089EA020885EA50
:100990000C044AF2C812CCF6BF7288EA020887F04B
:1009A000060745F26212CBF2E17204EBF87488EAB2
:1009B0003468544004EB784488EA74485440444412
:1009C00088EAF478544004EB386488EA34485440A8
:1009D00045F68002CBF6717203EBF77387EA336753
:1009E000534003EB774387EA73475340DB1987EAA9
:1009F000F377534003EB376387EA334753404DF6B1
:100A00005622C3F6B40206EBFA768AEA366A5640F4
:100A100006EB7A468AEA764A564056448AEAF67ADD
:100A2000564006EB3A668AEA364A564047F2387232
:100A3000C3F24E2205EBF97589EA3569554005EB9D
:100A4000794589EA754955404D4489EAF57955401B
:100A500005EB396589EA3549554084EA030288EA9D
:100A6000070C82EA02428CEA0C4C8AEA324A86EA95
:100A70003C4689EA324285EA3C4C8AEA080A6640EA
:100A800087EA020983EA0C0507290BD10560C0F843
:100A900004908660C0F80CA00461C0F814808361E3
:100AA000C76172E142F63D12CCF2B32289EA020933
:100AB0008AF0070A45F26212CBF2E17205EBF97592
:100AC00089EA3569554005EB794589EA754955400C
:100AD0004D4489EAF579554005EB396589EA354990
:100AE000554045F68002CBF6717206EBFA768AEA3B
:100AF000366A564006EB7A468AEA764A56405644AB
:100B00008AEAF67A564006EB3A668AEA364A564050
:100B10004DF65622C3F6B40204EBF87488EA346842
:100B2000544004EB784488EA74485440444488EACA
:100B3000F478544004EB386488EA3448544047F26F
:100B40003872C3F24E2203EBF77387EA33675340E0
:100B500003EB774387EA73475340DB1987EAF37760
:100B6000534003EB376387EA3347534085EA060275
:100B700089EA0A0C82EA02428CEA0C4C88EA324882
:100B800084EA3C4487EA324283EA3C4C88EA09081A
:100B90006C408AEA020786EA0C0345F26212CBF245
:100BA000E172574088F0080803EBF77387EA336770
:100BB000534003EB774387EA73475340DB1987EAD7
:100BC000F377534003EB376387EA3347534045F6E7
:100BD0008002CBF6717204EBF87488EA34685440F2
:100BE00004EB784488EA74485440444488EAF47832
:100BF000544004EB386488EA344854404DF6562299
:100C0000C3F6B40205EBF97589EA3569554005EB81
:100C1000794589EA754955404D4489EAF579554049
:100C200005EB396589EA3549554047F23872C3F218
:100C30004E2206EBFA768AEA366A564006EB7A4688
:100C40008AEA764A564056448AEAF67A564006EBD5
:100C50003A668AEA364A564083EA040287EA080C72
:100C600082EA02428CEA0C4C89EA324985EA3C4528
:100C70008AEA324286EA3C4C89EA07095D4088EA02
:100C8000020A84EA0C0645F68002CBF671728AEA03
:100C9000020A89F0090905EBF97589EA35695540B9
:100CA00005EB794589EA754955404D4489EAF5795E
:100CB000554005EB396589EA3549554045F26212E0
:100CC000CBF2E17206EBFA768AEA366A564006EB18
:100CD0007A468AEA764A564056448AEAF67A564076
:100CE00006EB3A668AEA364A56404DF65622C3F675
:100CF000B40203EBF77387EA3367534003EB7743A0
:100D000087EA73475340DB1987EAF377534003EBD5
:100D1000376387EA3347534047F23872C3F24E22B3
:100D200004EBF87488EA3468544004EB784488EAA9
:100D300074485440444488EAF478544004EB3864DE
:100D400088EA3448544086EA05028AEA090C82EAB5
:100D500002428CEA0C4C87EA324783EA3C4388EA39
:100D6000324284EA3C4C87EA0A07734089EA020867
:100D700085EA0C040460C0F804808360C7600661E3
:100D8000C0F814A08561C0F81C90BDE8F00770475A
:100D90002DE9F04F01B402B40368D0F804908468E0
:100DA000D0F80CA00569D0F814B08669D0F81CE022
:100DB000076A426AD0F82880C16A45F26210CBF215
:100DC000E17089EA000903EBF97389EA336943406A
:100DD00003EB794389EA734943404B4489EAF37949
:100DE000434003EB396389EA3349434045F68000C9
:100DF000CBF6717004EBFA748AEA346A444004EB6F
:100E00007A448AEA744A444054448AEAF47A444070
:100E100004EB3A648AEA344A44404DF65620C3F65D
:100E2000B40005EBFB758BEA356B454005EB7B4564
:100E30008BEA754B45405D448BEAF57B454005EBFD
:100E40003B658BEA354B454047F23870C3F24E2084
:100E500006EBFE768EEA366E464006EB7E468EEA5E
:100E6000764E464076448EEAF67E464006EB3E6677
:100E70008EEA364E464048F2EB50CBF6113007EB87
:100E8000F27782EA3762474007EB724782EA77429D
:100E90004740BF1882EAF772474007EB326782EAA1
:100EA0003742474047F65730C4F67C7008EBF1787C
:100EB00081EA386188EA000808EB714881EA7841E4
:100EC00088EA0008884481EAF87188EA000808EB9B
:100ED000316881EA384188EA000883EA040089EA37
:100EE0000A0C68408CEA0B0C80EA00408CEA0C4C3F
:100EF0008EEA304E82EA304286EA3C4687EA3C4738
:100F000081EA304088EA3C4C8EEA090E5E4082EA73
:100F10000A0267408BEA000185EA0C0845F680006A
:100F2000CBF67170424081F0010108EBF17881EA63
:100F3000386188EA000808EB714881EA784188EA5C
:100F40000008884481EAF87188EA000808EB3168F3
:100F500081EA384188EA000845F26210CBF2E1707C
:100F600007EBF27782EA3762474007EB724782EA83
:100F700077424740BF1882EAF772474007EB326773
:100F800082EA374247404DF65620C3F6B40006EBDE
:100F9000FE768EEA366E464006EB7E468EEA764E4A
:100FA000464076448EEAF67E464006EB3E668EEA82
:100FB000364E464047F23870C3F24E2003EBF973C9
:100FC00089EA3369434003EB794389EA7349434033
:100FD0004B4489EAF379434003EB396389EA3349A7
:100FE000434048F2EB50CBF6113004EBFA748AEA36
:100FF000346A444004EB7A448AEA744A44405444D4
:101000008AEAF47A444004EB3A648AEA344A444077
:1010100047F65730C4F67C7005EBFB758BEA356BF1
:10102000454005EB7B458BEA754B45405D448BEABB
:10103000F57B454005EB3B658BEA354B454087EA40
:10104000080082EA010C70408CEA0E0C80EA004035
:101050008CEA0C4C89EA30498AEA304A83EA3C43FC
:1010600084EA3C448BEA304085EA3C4C89EA020938
:101070007B408AEA010A84EA08048EEA000B86EAC9
:101080000C054DF65620C3F6B4008AEA000A8BF030
:10109000020B03EBF97389EA3369434003EB7943AD
:1010A00089EA734943404B4489EAF379434003EBAF
:1010B000396389EA3349434045F26210CBF2E1706B
:1010C00004EBFA748AEA346A444004EB7A448AEA0C
:1010D000744A444054448AEAF47A444004EB3A6443
:1010E0008AEA344A444045F68000CBF6717005EB3D
:1010F000FB758BEA356B454005EB7B458BEA754B01
:1011000045405D448BEAF57B454005EB3B658BEA4A
:10111000354B454047F23870C3F24E2007EBF2776B
:1011200082EA3762474007EB724782EA77424740DC
:10113000BF1882EAF772474007EB326782EA37420C
:10114000474048F2EB50CBF6113008EBF17881EADA
:10115000386188EA000808EB714881EA784188EA3A
:101160000008884481EAF87188EA000808EB3168D1
:1011700081EA384188EA000847F65730C4F67C70A7
:1011800006EBFE768EEA366E464006EB7E468EEA2B
:10119000764E464076448EEAF67E464006EB3E6644
:1011A0008EEA364E464084EA05008AEA0B0C584027
:1011B0008CEA090C80EA00408CEA0C4C82EA30424E
:1011C00081EA304187EA3C4788EA3C488EEA304071
:1011D00086EA3C4C82EA0A02674081EA0B0188EA0F
:1011E000050889EA000E83EA0C0647F23870C3F25C
:1011F0004E2041408EF0030E04EBFA748AEA346A02
:10120000444004EB7A448AEA744A444054448AEAEB
:10121000F47A444004EB3A648AEA344A444045F2A2
:101220006210CBF2E17008EBF17881EA386188EA6C
:10123000000808EB714881EA784188EA0008884490
:1012400081EAF87188EA000808EB316881EA3841E0
:1012500088EA000845F68000CBF6717006EBFE7652
:101260008EEA366E464006EB7E468EEA764E464065
:1012700076448EEAF67E464006EB3E668EEA364EB1
:1012800046404DF65620C3F6B40007EBF27782EAEB
:101290003762474007EB724782EA77424740BF1800
:1012A00082EAF772474007EB326782EA37424740EB
:1012B00048F2EB50CBF6113005EBFB758BEA356B42
:1012C000454005EB7B458BEA754B45405D448BEA19
:1012D000F57B454005EB3B658BEA354B454047F6D2
:1012E0005730C4F67C7003EBF97389EA33694340E5
:1012F00003EB794389EA734943404B4489EAF37924
:10130000434003EB396389EA3349434088EA0600E6
:1013100081EA0E0C78408CEA020C80EA00408CEAEC
:101320000C4C8AEA304A8BEA304B84EA3C4485EA2A
:101330003C4589EA304083EA3C4C8AEA010A84EA67
:1013400008048BEA0E0B754082EA000987EA0C0359
:1013500048F2EB50CBF611308BEA000B89F0040910
:1013600006EBFE768EEA366E464006EB7E468EEA49
:10137000764E464076448EEAF67E464006EB3E6662
:101380008EEA364E464045F26210CBF2E17005EB34
:10139000FB758BEA356B454005EB7B458BEA754B5E
:1013A00045405D448BEAF57B454005EB3B658BEAA8
:1013B000354B454045F68000CBF6717003EBF97371
:1013C00089EA3369434003EB794389EA734943402F
:1013D0004B4489EAF379434003EB396389EA3349A3
:1013E00043404DF65620C3F6B40004EBFA748AEA83
:1013F000346A444004EB7A448AEA744A44405444D0
:101400008AEAF47A444004EB3A648AEA344A444073
:1014100047F23870C3F24E2008EBF17881EA386168
:1014200088EA000808EB714881EA784188EA0008F8
:10143000884481EAF87188EA000808EB316881EA9B
:10144000384188EA000847F65730C4F67C7007EB4D
:10145000F27782EA3762474007EB724782EA7742C7
:101460004740BF1882EAF772474007EB326782EACB
:101470003742474085EA03008BEA090C60408CEA5A
:101480000A0C80EA00408CEA0C4C81EA30418EEA7A
:10149000304E88EA3C4886EA3C4682EA304087EA99
:1014A0003C4C81EA0B0188EA05088EEA090E5E4091
:1014B0008AEA000284EA0C0747F65730C4F67C70CB
:1014C0008EEA000E82F0050204EBFA748AEA346AAE
:1014D000444004EB7A448AEA744A444054448AEA19
:1014E000F47A444004EB3A648AEA344A444045F2D0
:1014F0006210CBF2E17006EBFE768EEA366E464065
:1015000006EB7E468EEA764E464076448EEAF67EBE
:10151000464006EB3E668EEA364E464045F6800073
:10152000CBF6717007EBF27782EA3762474007EB40
:10153000724782EA77424740BF1882EAF772474013
:1015400007EB326782EA374247404DF65620C3F632
:10155000B40008EBF17881EA386188EA000808EB0A
:10156000714881EA784188EA0008884481EAF87184
:1015700088EA000808EB316881EA384188EA000807
:1015800047F23870C3F24E2005EBFB758BEA356BE2
:10159000454005EB7B458BEA754B45405D448BEA46
:1015A000F57B454005EB3B658BEA354B454048F202
:1015B000EB50CBF6113003EBF97389EA3369434002
:1015C00003EB794389EA734943404B4489EAF37951
:1015D000434003EB396389EA3349434086EA070015
:1015E0008EEA020C80EA08008CEA010C80EA0040D6
:1015F0008CEA0C4C8BEA304B89EA304985EA3C4551
:1016000083EA3C438AEA304084EA3C4C8BEA0E0B86
:10161000754089EA02097B4081EA000A88EA0C04E5
:101620004AF2C810CCF6BF7089EA00098AF0060AAF
:1016300045F26210CBF2E17003EBF97389EA33698A
:10164000434003EB794389EA734943404B4489EAB9
:10165000F379434003EB396389EA3349434045F664
:101660008000CBF6717004EBFA748AEA346A444065
:1016700004EB7A448AEA744A444054448AEAF47A8D
:10168000444004EB3A648AEA344A44404DF656201A
:10169000C3F6B40005EBFB758BEA356B454005EBF3
:1016A0007B458BEA754B45405D448BEAF57B4540B5
:1016B00005EB3B658BEA354B454047F23870C3F28A
:1016C0004E2006EBFE768EEA366E464006EB7E46F0
:1016D0008EEA764E464076448EEAF67E464006EB2B
:1016E0003E668EEA364E464048F2EB50CBF611305D
:1016F00007EBF27782EA3762474007EB724782EAEC
:1017000077424740BF1882EAF772474007EB3267DB
:1017100082EA3742474047F65730C4F67C7008EB00
:10172000F17881EA386188EA000808EB714881EABB
:10173000784188EA0008884481EAF87188EA00085C
:1017400008EB316881EA384188EA000883EA04003E
:1017500089EA0A0C68408CEA0B0C80EA00408CEAAB
:101760000C4C8EEA304E82EA304286EA3C4687EAEA
:101770003C4781EA304088EA3C4C8EEA090E5E40E4
:1017800082EA0A0267408BEA000185EA0C0801BC84
:10179000072812D101BC07604260C0F80880C16010
:1017A0000661C0F814E08361C0F81C900462C0F8C0
:1017B00024A08562C0F82CB0E3E242F63D10CCF2E2
:1017C000B320424081F0070145F26210CBF2E17094
:1017D00007EBF27782EA3762474007EB724782EA0B
:1017E00077424740BF1882EAF772474007EB3267FB
:1017F00082EA3742474045F68000CBF6717008EB2D
:10180000F17881EA386188EA000808EB714881EADA
:10181000784188EA0008884481EAF87188EA00087B
:1018200008EB316881EA384188EA00084DF6562015
:10183000C3F6B40006EBFE768EEA366E464006EB43
:101840007E468EEA764E464076448EEAF67E4640E6
:1018500006EB3E668EEA364E464047F23870C3F2DB
:101860004E2003EBF97389EA3369434003EB794374
:1018700089EA734943404B4489EAF379434003EBD7
:10188000396389EA3349434048F2EB50CBF61130D3
:1018900004EBFA748AEA346A444004EB7A448AEA34
:1018A000744A444054448AEAF47A444004EB3A646B
:1018B0008AEA344A444047F65730C4F67C7005EB58
:1018C000FB758BEA356B454005EB7B458BEA754B29
:1018D00045405D448BEAF57B454005EB3B658BEA73
:1018E000354B454087EA080082EA010C70408CEADB
:1018F0000E0C80EA00408CEA0C4C89EA30498AEAF6
:10190000304A83EA3C4384EA3C448BEA304085EA2F
:101910003C4C89EA02097B408AEA010A84EA08040D
:101920008EEA000B86EA0C0545F26210CBF2E170FC
:101930008AEA000A8BF0080B04EBFA748AEA346A2C
:10194000444004EB7A448AEA744A444054448AEAA4
:10195000F47A444004EB3A648AEA344A444045F657
:101960008000CBF6717005EBFB758BEA356B45405B
:1019700005EB7B458BEA754B45405D448BEAF57B77
:10198000454005EB3B658BEA354B45404DF656200F
:10199000C3F6B40003EBF97389EA3369434003EB00
:1019A000794389EA734943404B4489EAF3794340D8
:1019B00003EB396389EA3349434047F23870C3F295
:1019C0004E2007EBF27782EA3762474007EB724717
:1019D00082EA77424740BF1882EAF772474007EB36
:1019E000326782EA3742474048F2EB50CBF611307B
:1019F00008EBF17881EA386188EA000808EB714861
:101A000081EA784188EA0008884481EAF87188EA26
:101A1000000808EB316881EA384188EA000847F697
:101A20005730C4F67C7006EBFE768EEA366E464082
:101A300006EB7E468EEA764E464076448EEAF67E89
:101A4000464006EB3E668EEA364E464084EA050086
:101A50008AEA0B0C58408CEA090C80EA00408CEAB8
:101A60000C4C82EA304281EA304187EA3C4788EAFE
:101A70003C488EEA304086EA3C4C82EA0A026740E3
:101A800081EA0B0188EA050889EA000E83EA0C0660
:101A900045F68000CBF6717041408EF0090E06EBE2
:101AA000FE768EEA366E464006EB7E468EEA764E2F
:101AB000464076448EEAF67E464006EB3E668EEA67
:101AC000364E464045F26210CBF2E17008EBF178F9
:101AD00081EA386188EA000808EB714881EA7841B8
:101AE00088EA0008884481EAF87188EA000808EB6F
:101AF000316881EA384188EA00084DF65620C3F67D
:101B0000B40007EBF27782EA3762474007EB72478F
:101B100082EA77424740BF1882EAF772474007EBF4
:101B2000326782EA3742474047F23870C3F24E20AC
:101B300004EBFA748AEA346A444004EB7A448AEA91
:101B4000744A444054448AEAF47A444004EB3A64C8
:101B50008AEA344A444048F2EB50CBF6113005EBA8
:101B6000FB758BEA356B454005EB7B458BEA754B86
:101B700045405D448BEAF57B454005EB3B658BEAD0
:101B8000354B454047F65730C4F67C7003EBF9738C
:101B900089EA3369434003EB794389EA7349434057
:101BA0004B4489EAF379434003EB396389EA3349CB
:101BB000434088EA060081EA0E0C78408CEA020C69
:101BC00080EA00408CEA0C4C8AEA304A8BEA304BBF
:101BD00084EA3C4485EA3C4589EA304083EA3C4C4F
:101BE0008AEA010A84EA08048BEA0E0B754082EA4D
:101BF000000987EA0C034DF65620C3F6B4008BEAC1
:101C0000000B89F00A0904EBFA748AEA346A44404A
:101C100004EB7A448AEA744A444054448AEAF47AE7
:101C2000444004EB3A648AEA344A444045F2621084
:101C3000CBF2E17005EBFB758BEA356B454005EBAC
:101C40007B458BEA754B45405D448BEAF57B45400F
:101C500005EB3B658BEA354B454045F68000CBF6FE
:101C6000717003EBF97389EA3369434003EB7943FD
:101C700089EA734943404B4489EAF379434003EBD3
:101C8000396389EA3349434047F23870C3F24E2042
:101C900008EBF17881EA386188EA000808EB7148BE
:101CA00081EA784188EA0008884481EAF87188EA84
:101CB000000808EB316881EA384188EA000848F2F8
:101CC000EB50CBF6113006EBFE768EEA366E4640D0
:101CD00006EB7E468EEA764E464076448EEAF67EE7
:101CE000464006EB3E668EEA364E464047F6573093
:101CF000C4F67C7007EBF27782EA3762474007EB65
:101D0000724782EA77424740BF1882EAF77247403B
:101D100007EB326782EA3742474085EA03008BEAE5
:101D2000090C60408CEA0A0C80EA00408CEA0C4CFA
:101D300081EA30418EEA304E88EA3C4886EA3C46E9
:101D400082EA304087EA3C4C81EA0B0188EA0508C8
:101D50008EEA090E5E408AEA000284EA0C0701BCA2
:101D60000660C0F804E08760C260C0F8108041617E
:101D70008561C0F81CB00362C0F824908462C0F88A
:101D80002CA0BDE8F08F00BF2DE9F04F02B403682E
:101D9000D0F804808468D0F80C900569D0F814A0BD
:101DA0008669D0F81CB0076AD0F824E045F2621CBE
:101DB000CBF2E17C88EA0C0803EBF87388EA33681D
:101DC00083EA0C0303EB784388EA734883EA0C0345
:101DD000434488EAF37883EA0C0303EB386388EA28
:101DE000334883EA0C0345F6800CCBF6717C04EB98
:101DF000F97489EA346984EA0C0404EB794489EAC9
:101E0000744984EA0C044C4489EAF47984EA0C04A9
:101E100004EB396489EA344984EA0C044DF6562C03
:101E2000C3F6B40C05EBFA758AEA356A85EA0C0547
:101E300005EB7A458AEA754A85EA0C0555448AEA33
:101E4000F57A85EA0C0505EB3A658AEA354A85EAB2
:101E50000C0547F2387CC3F24E2C06EBFB768BEA7E
:101E6000366B86EA0C0606EB7B468BEA764B86EAF7
:101E70000C065E448BEAF67B86EA0C0606EB3B66B4
:101E80008BEA364B86EA0C0648F2EB5CCBF6113C4B
:101E900007EBFE778EEA376E87EA0C0707EB7E4783
:101EA0008EEA774E87EA0C0777448EEAF77E87EA58
:101EB0000C0707EB3E678EEA374E87EA0C0783EA8A
:101EC000040188EA0902694082EA0A02714082EA52
:101ED0000B0281EA014182EA02428EEA314E87EA30
:101EE00032470360C0F804808460C0F80C9005613C
:101EF000C0F814A0846AD0F82C90056BD0F834A0F8
:101F0000836BD0F83C8047F6573CC4F67C7C04EBEE
:101F1000F97489EA346984EA0C0404EB794489EAA7
:101F2000744984EA0C044C4489EAF47984EA0C0488
:101F300004EB396489EA344984EA0C044AF2C81C87
:101F4000CCF6BF7C05EBFA758AEA356A85EA0C05A2
:101F500005EB7A458AEA754A85EA0C0555448AEA12
:101F6000F57A85EA0C0505EB3A658AEA354A85EA91
:101F70000C0542F63D1CCCF2B32C03EBF87388EA57
:101F8000336883EA0C0303EB784388EA734883EAF7
:101F90000C03434488EAF37883EA0C0303EB3863C9
:101FA00088EA334883EA0C0389EA314984EA3244F7
:101FB0008AEA314A85EA324588EA314183EA324287
:101FC000C0F83CB08663D0F8048003688EEA080B42
:101FD00087EA0306C6461F46D0F80CC089EA0C08FB
:101FE000C0F82CC0D0F808C084EA0C03C0F828C0A0
:101FF000D0F814C08AEA0C09C0F834C0D0F810C078
:1020000085EA0C04C0F830C0D0F83CA0856B8AEAA1
:10201000010A554045F6800CCBF6717C88EA0C0825
:1020200089F0010904EBF97489EA346984EA0C0443
:1020300004EB794489EA744984EA0C044C4489EA43
:10204000F47984EA0C0404EB396489EA344984EABB
:102050000C0445F2621CCBF2E17C03EBF87388EAD6
:10206000336883EA0C0303EB784388EA734883EA16
:102070000C03434488EAF37883EA0C0303EB3863E8
:1020800088EA334883EA0C034DF6562CC3F6B40CA9
:1020900005EBFA758AEA356A85EA0C0505EB7A459F
:1020A0008AEA754A85EA0C0555448AEAF57A85EA92
:1020B0000C0505EB3A658AEA354A85EA0C0547F2D4
:1020C000387CC3F24E2C06EBFB768BEA366B86EA45
:1020D0000C0606EB7B468BEA764B86EA0C065E44E2
:1020E0008BEAF67B86EA0C0606EB3B668BEA364B00
:1020F00086EA0C0648F2EB5CCBF6113C07EBFE7768
:102100008EEA376E87EA0C0707EB7E478EEA774E3A
:1021100087EA0C0777448EEAF77E87EA0C0707EB1D
:102120003E678EEA374E87EA0C0783EA040188EAA5
:102130000902694082EA0A02714082EA0B0281EADE
:10214000014182EA02428EEA314E87EA3247036059
:10215000C0F804808460C0F80C900561C0F814A039
:10216000846AD0F82C90056BD0F834A0836BD0F83B
:102170003C8047F6573CC4F67C7C04EBF97489EA52
:10218000346984EA0C0404EB794489EA744984EAEA
:102190000C044C4489EAF47984EA0C0404EB3964B5
:1021A00089EA344984EA0C044AF2C81CCCF6BF7CA4
:1021B00005EBFA758AEA356A85EA0C0505EB7A457E
:1021C0008AEA754A85EA0C0555448AEAF57A85EA71
:1021D0000C0505EB3A658AEA354A85EA0C0542F6B4
:1021E0003D1CCCF2B32C03EBF87388EA336883EA26
:1021F0000C0303EB784388EA734883EA0C034344F7
:1022000088EAF37883EA0C0303EB386388EA3348FF
:1022100083EA0C0389EA314984EA32448AEA314A82
:1022200085EA324588EA314183EA3242C0F83CB05F
:102230008663D0F8048003688EEA080B87EA0306F9
:10224000C6461F46D0F80CC089EA0C08C0F82CC05E
:10225000D0F808C084EA0C03C0F828C0D0F814C035
:102260008AEA0C09C0F834C0D0F810C085EA0C0422
:10227000C0F830C0D0F83CA0856B8AEA010A55400E
:102280004DF6562CC3F6B40C88EA0C0889F0020906
:1022900005EBFA758AEA356A85EA0C0505EB7A459D
:1022A0008AEA754A85EA0C0555448AEAF57A85EA90
:1022B0000C0505EB3A658AEA354A85EA0C0545F2D4
:1022C000621CCBF2E17C03EBF87388EA336883EAA3
:1022D0000C0303EB784388EA734883EA0C03434416
:1022E00088EAF37883EA0C0303EB386388EA33481F
:1022F00083EA0C0345F6800CCBF6717C04EBF97491
:1023000089EA346984EA0C0404EB794489EA744963
:1023100084EA0C044C4489EAF47984EA0C0404EB62
:10232000396489EA344984EA0C0447F2387CC3F200
:102330004E2C06EBFB768BEA366B86EA0C0606EB38
:102340007B468BEA764B86EA0C065E448BEAF67B8C
:1023500086EA0C0606EB3B668BEA364B86EA0C06F1
:1023600048F2EB5CCBF6113C07EBFE778EEA376E5A
:1023700087EA0C0707EB7E478EEA774E87EA0C0761
:1023800077448EEAF77E87EA0C0707EB3E678EEA12
:10239000374E87EA0C0783EA040188EA090269409C
:1023A00082EA0A02714082EA0B0281EA014182EA72
:1023B00002428EEA314E87EA32470360C0F8048059
:1023C0008460C0F80C900561C0F814A0846AD0F84D
:1023D0002C90056BD0F834A0836BD0F83C8047F686
:1023E000573CC4F67C7C04EBF97489EA346984EACE
:1023F0000C0404EB794489EA744984EA0C044C44E3
:1024000089EAF47984EA0C0404EB396489EA3449F2
:1024100084EA0C044AF2C81CCCF6BF7C05EBFA75C2
:102420008AEA356A85EA0C0505EB7A458AEA754A37
:1024300085EA0C0555448AEAF57A85EA0C0505EB30
:102440003A658AEA354A85EA0C0542F63D1CCCF22B
:10245000B32C03EBF87388EA336883EA0C0303EBCD
:10246000784388EA734883EA0C03434488EAF378A4
:1024700083EA0C0303EB386388EA334883EA0C03EE
:1024800089EA314984EA32448AEA314A85EA3245A6
:1024900088EA314183EA3242C0F83CB08663D0F822
:1024A000048003688EEA080B87EA0306C6461F46C7
:1024B000D0F80CC089EA0C08C0F82CC0D0F808C0CD
:1024C00084EA0C03C0F828C0D0F814C08AEA0C09CA
:1024D000C0F834C0D0F810C085EA0C04C0F830C091
:1024E000D0F83CA0856B8AEA010A554047F2387C57
:1024F000C3F24E2C88EA0C0889F0030906EBFB7640
:102500008BEA366B86EA0C0606EB7B468BEA764B4B
:1025100086EA0C065E448BEAF67B86EA0C0606EB3E
:102520003B668BEA364B86EA0C0645F2621CCBF220
:10253000E17C03EBF87388EA336883EA0C0303EB6E
:10254000784388EA734883EA0C03434488EAF378C3
:1025500083EA0C0303EB386388EA334883EA0C030D
:1025600045F6800CCBF6717C04EBF97489EA34698A
:1025700084EA0C0404EB794489EA744984EA0C0483
:102580004C4489EAF47984EA0C0404EB396489EA5E
:10259000344984EA0C044DF6562CC3F6B40C05EB12
:1025A000FA758AEA356A85EA0C0505EB7A458AEA06
:1025B000754A85EA0C0555448AEAF57A85EA0C05E0
:1025C00005EB3A658AEA354A85EA0C0548F2EB5C88
:1025D000CBF6113C07EBFE778EEA376E87EA0C07E5
:1025E00007EB7E478EEA774E87EA0C0777448EEA40
:1025F000F77E87EA0C0707EB3E678EEA374E87EADD
:102600000C0783EA040188EA0902694082EA0A02A7
:10261000714082EA0B0281EA014182EA02428EEABB
:10262000314E87EA32470360C0F804808460C0F806
:102630000C900561C0F814A0846AD0F82C90056B4A
:10264000D0F834A0836BD0F83C8047F6573CC4F6F2
:102650007C7C04EBF97489EA346984EA0C0404EBA9
:10266000794489EA744984EA0C044C4489EAF4798F
:1026700084EA0C0404EB396489EA344984EA0C04E2
:102680004AF2C81CCCF6BF7C05EBFA758AEA356ABB
:1026900085EA0C0505EB7A458AEA754A85EA0C0558
:1026A00055448AEAF57A85EA0C0505EB3A658AEA2B
:1026B000354A85EA0C0542F63D1CCCF2B32C03EBFF
:1026C000F87388EA336883EA0C0303EB784388EAFB
:1026D000734883EA0C03434488EAF37883EA0C03E3
:1026E00003EB386388EA334883EA0C0389EA31490B
:1026F00084EA32448AEA314A85EA324588EA31413D
:1027000083EA3242C0F83CB08663D0F804800368A4
:102710008EEA080B87EA0306C6461F46D0F80CC0AF
:1027200089EA0C08C0F82CC0D0F808C084EA0C0371
:10273000C0F828C0D0F814C08AEA0C09C0F834C028
:10274000D0F810C085EA0C04C0F830C0D0F83CA026
:10275000856B8AEA010A554048F2EB5CCBF6113CE6
:1027600088EA0C0889F0040907EBFE778EEA376ED9
:1027700087EA0C0707EB7E478EEA774E87EA0C075D
:1027800077448EEAF77E87EA0C0707EB3E678EEA0E
:10279000374E87EA0C0745F2621CCBF2E17C03EB73
:1027A000F87388EA336883EA0C0303EB784388EA1A
:1027B000734883EA0C03434488EAF37883EA0C0302
:1027C00003EB386388EA334883EA0C0345F6800C50
:1027D000CBF6717C04EBF97489EA346984EA0C0461
:1027E00004EB794489EA744984EA0C044C4489EA8C
:1027F000F47984EA0C0404EB396489EA344984EA04
:102800000C044DF6562CC3F6B40C05EBFA758AEAA7
:10281000356A85EA0C0505EB7A458AEA754A85EA48
:102820000C0555448AEAF57A85EA0C0505EB3A650C
:102830008AEA354A85EA0C0547F2387CC3F24E2C09
:1028400006EBFB768BEA366B86EA0C0606EB7B46DC
:102850008BEA764B86EA0C065E448BEAF67B86EAC8
:102860000C0606EB3B668BEA364B86EA0C0683EADF
:10287000040188EA0902694082EA0A02714082EA98
:102880000B0281EA014182EA02428EEA314E87EA76
:1028900032470360C0F804808460C0F80C90056182
:1028A000C0F814A0846AD0F82C90056BD0F834A03E
:1028B000836BD0F83C8047F6573CC4F67C7C04EB35
:1028C000F97489EA346984EA0C0404EB794489EAEE
:1028D000744984EA0C044C4489EAF47984EA0C04CF
:1028E00004EB396489EA344984EA0C044AF2C81CCE
:1028F000CCF6BF7C05EBFA758AEA356A85EA0C05E9
:1029000005EB7A458AEA754A85EA0C0555448AEA58
:10291000F57A85EA0C0505EB3A658AEA354A85EAD7
:102920000C0542F63D1CCCF2B32C03EBF87388EA9D
:10293000336883EA0C0303EB784388EA734883EA3D
:102940000C03434488EAF37883EA0C0303EB38630F
:1029500088EA334883EA0C0389EA314984EA32443D
:102960008AEA314A85EA324588EA314183EA3242CD
:10297000C0F83CB08663D0F8048003688EEA080B88
:1029800087EA0306C6461F46D0F80CC089EA0C0841
:10299000C0F82CC0D0F808C084EA0C03C0F828C0E6
:1029A000D0F814C08AEA0C09C0F834C0D0F810C0BE
:1029B00085EA0C04C0F830C0D0F83CA0856B8AEAE8
:1029C000010A554047F6573CC4F67C7C88EA0C085F
:1029D00089F0050945F2621CCBF2E17C03EBF87348
:1029E00088EA336883EA0C0303EB784388EA734888
:1029F00083EA0C03434488EAF37883EA0C0303EB8D
:102A0000386388EA334883EA0C0345F6800CCBF63A
:102A1000717C04EBF97489EA346984EA0C0404EBF0
:102A2000794489EA744984EA0C044C4489EAF479CB
:102A300084EA0C0404EB396489EA344984EA0C041E
:102A40004DF6562CC3F6B40C05EBFA758AEA356AD6
:102A500085EA0C0505EB7A458AEA754A85EA0C0594
:102A600055448AEAF57A85EA0C0505EB3A658AEA67
:102A7000354A85EA0C0547F2387CC3F24E2C06EB4A
:102A8000FB768BEA366B86EA0C0606EB7B468BEA16
:102A9000764B86EA0C065E448BEAF67B86EA0C06E9
:102AA00006EB3B668BEA364B86EA0C0648F2EB5C9B
:102AB000CBF6113C07EBFE778EEA376E87EA0C0700
:102AC00007EB7E478EEA774E87EA0C0777448EEA5B
:102AD000F77E87EA0C0707EB3E678EEA374E87EAF8
:102AE0000C0783EA040188EA0902694082EA0A02C3
:102AF000714082EA0B0281EA014182EA02428EEAD7
:102B0000314E87EA32470360C0F804808460C0F821
:102B10000C900561C0F814A0846AD0F82C90056B65
:102B2000D0F834A0836BD0F83C8047F6573CC4F60D
:102B30007C7C04EBF97489EA346984EA0C0404EBC4
:102B4000794489EA744984EA0C044C4489EAF479AA
:102B500084EA0C0404EB396489EA344984EA0C04FD
:102B60004AF2C81CCCF6BF7C05EBFA758AEA356AD6
:102B700085EA0C0505EB7A458AEA754A85EA0C0573
:102B800055448AEAF57A85EA0C0505EB3A658AEA46
:102B9000354A85EA0C0542F63D1CCCF2B32C03EB1A
:102BA000F87388EA336883EA0C0303EB784388EA16
:102BB000734883EA0C03434488EAF37883EA0C03FE
:102BC00003EB386388EA334883EA0C0389EA314926
:102BD00084EA32448AEA314A85EA324588EA314158
:102BE00083EA3242C0F83CB08663D0F804800368C0
:102BF0008EEA080B87EA0306C6461F46D0F80CC0CB
:102C000089EA0C08C0F82CC0D0F808C084EA0C038C
:102C1000C0F828C0D0F814C08AEA0C09C0F834C043
:102C2000D0F810C085EA0C04C0F830C0D0F83CA041
:102C3000856B8AEA010A55404AF2C81CCCF6BF7C73
:102C400088EA0C0889F0060945F2621CCBF2E17CA7
:102C500003EBF87388EA336883EA0C0303EB7843E9
:102C600088EA734883EA0C03434488EAF37883EAEA
:102C70000C0303EB386388EA334883EA0C0345F618
:102C8000800CCBF6717C04EBF97489EA346984EA30
:102C90000C0404EB794489EA744984EA0C044C443A
:102CA00089EAF47984EA0C0404EB396489EA34494A
:102CB00084EA0C044DF6562CC3F6B40C05EBFA75F9
:102CC0008AEA356A85EA0C0505EB7A458AEA754A8F
:102CD00085EA0C0555448AEAF57A85EA0C0505EB88
:102CE0003A658AEA354A85EA0C0547F2387CC3F230
:102CF0004E2C06EBFB768BEA366B86EA0C0606EB6F
:102D00007B468BEA764B86EA0C065E448BEAF67BC2
:102D100086EA0C0606EB3B668BEA364B86EA0C0627
:102D200048F2EB5CCBF6113C07EBFE778EEA376E90
:102D300087EA0C0707EB7E478EEA774E87EA0C0797
:102D400077448EEAF77E87EA0C0707EB3E678EEA48
:102D5000374E87EA0C0783EA040188EA09026940D2
:102D600082EA0A02714082EA0B0281EA014182EAA8
:102D700002428EEA314E87EA32470360C0F804808F
:102D80008460C0F80C900561C0F814A0846AD0F883
:102D90002C90056BD0F834A0836BD0F83C8047F6BC
:102DA000573CC4F67C7C04EBF97489EA346984EA04
:102DB0000C0404EB794489EA744984EA0C044C4419
:102DC00089EAF47984EA0C0404EB396489EA344929
:102DD00084EA0C044AF2C81CCCF6BF7C05EBFA75F9
:102DE0008AEA356A85EA0C0505EB7A458AEA754A6E
:102DF00085EA0C0555448AEAF57A85EA0C0505EB67
:102E00003A658AEA354A85EA0C0542F63D1CCCF261
:102E1000B32C03EBF87388EA336883EA0C0303EB03
:102E2000784388EA734883EA0C03434488EAF378DA
:102E300083EA0C0303EB386388EA334883EA0C0324
:102E400089EA314984EA32448AEA314A85EA3245DC
:102E500088EA314183EA3242C0F83CB08663D0F858
:102E6000048003688EEA080B87EA0306C6461F46FD
:102E7000D0F80CC089EA0C08C0F82CC0D0F808C003
:102E800084EA0C03C0F828C0D0F814C08AEA0C0900
:102E9000C0F834C0D0F810C085EA0C04C0F830C0C7
:102EA000D0F83CA0856B8AEA010A554042F63D1CE9
:102EB000CCF2B32C88EA0C0889F0070945F2621CB1
:102EC000CBF2E17C03EBF87388EA336883EA0C0306
:102ED00003EB784388EA734883EA0C03434488EAA7
:102EE000F37883EA0C0303EB386388EA334883EA18
:102EF0000C0345F6800CCBF6717C04EBF97489EA7F
:102F0000346984EA0C0404EB794489EA744984EA5C
:102F10000C044C4489EAF47984EA0C0404EB396427
:102F200089EA344984EA0C044DF6562CC3F6B40CF5
:102F300005EBFA758AEA356A85EA0C0505EB7A45F0
:102F40008AEA754A85EA0C0555448AEAF57A85EAE3
:102F50000C0505EB3A658AEA354A85EA0C0547F225
:102F6000387CC3F24E2C06EBFB768BEA366B86EA96
:102F70000C0606EB7B468BEA764B86EA0C065E4433
:102F80008BEAF67B86EA0C0606EB3B668BEA364B51
:102F900086EA0C0648F2EB5CCBF6113C07EBFE77B9
:102FA0008EEA376E87EA0C0707EB7E478EEA774E8C
:102FB00087EA0C0777448EEAF77E87EA0C0707EB6F
:102FC0003E678EEA374E87EA0C0783EA040188EAF7
:102FD0000902694082EA0A02714082EA0B0281EA30
:102FE000014182EA02428EEA314E87EA32470360AB
:102FF000C0F804808460C0F80C900561C0F814A08B
:10300000846AD0F82C90056BD0F834A0836BD0F88C
:103010003C8047F6573CC4F67C7C04EBF97489EAA3
:10302000346984EA0C0404EB794489EA744984EA3B
:103030000C044C4489EAF47984EA0C0404EB396406
:1030400089EA344984EA0C044AF2C81CCCF6BF7CF5
:1030500005EBFA758AEA356A85EA0C0505EB7A45CF
:103060008AEA754A85EA0C0555448AEAF57A85EAC2
:103070000C0505EB3A658AEA354A85EA0C0542F605
:103080003D1CCCF2B32C03EBF87388EA336883EA77
:103090000C0303EB784388EA734883EA0C03434448
:1030A00088EAF37883EA0C0303EB386388EA334851
:1030B00083EA0C0389EA314984EA32448AEA314AD4
:1030C00085EA324588EA314183EA3242C0F83CB0B1
:1030D0008663D0F8048003688EEA080B87EA03064B
:1030E000C6461F46D0F80CC089EA0C08C0F82CC0B0
:1030F000D0F808C084EA0C03C0F828C0D0F814C087
:103100008AEA0C09C0F834C0D0F810C085EA0C0473
:10311000C0F830C0D0F83CA0856B8AEA010A55405F
:1031200002BC082900F0DC8445F2621CCBF2E17C91
:1031300088EA0C0889F0080903EBF87388EA336819
:1031400083EA0C0303EB784388EA734883EA0C03B1
:10315000434488EAF37883EA0C0303EB386388EA94
:10316000334883EA0C0345F6800CCBF6717C04EB04
:10317000F97489EA346984EA0C0404EB794489EA35
:10318000744984EA0C044C4489EAF47984EA0C0416
:1031900004EB396489EA344984EA0C044DF6562C70
:1031A000C3F6B40C05EBFA758AEA356A85EA0C05B4
:1031B00005EB7A458AEA754A85EA0C0555448AEAA0
:1031C000F57A85EA0C0505EB3A658AEA354A85EA1F
:1031D0000C0547F2387CC3F24E2C06EBFB768BEAEB
:1031E000366B86EA0C0606EB7B468BEA764B86EA64
:1031F0000C065E448BEAF67B86EA0C0606EB3B6621
:103200008BEA364B86EA0C0648F2EB5CCBF6113CB7
:1032100007EBFE778EEA376E87EA0C0707EB7E47EF
:103220008EEA774E87EA0C0777448EEAF77E87EAC4
:103230000C0707EB3E678EEA374E87EA0C0783EAF6
:10324000040188EA0902694082EA0A02714082EABE
:103250000B0281EA014182EA02428EEA314E87EA9C
:1032600032470360C0F804808460C0F80C900561A8
:10327000C0F814A0846AD0F82C90056BD0F834A064
:10328000836BD0F83C8047F6573CC4F67C7C04EB5B
:10329000F97489EA346984EA0C0404EB794489EA14
:1032A000744984EA0C044C4489EAF47984EA0C04F5
:1032B00004EB396489EA344984EA0C044AF2C81CF4
:1032C000CCF6BF7C05EBFA758AEA356A85EA0C050F
:1032D00005EB7A458AEA754A85EA0C0555448AEA7F
:1032E000F57A85EA0C0505EB3A658AEA354A85EAFE
:1032F0000C0542F63D1CCCF2B32C03EBF87388EAC4
:10330000336883EA0C0303EB784388EA734883EA63
:103310000C03434488EAF37883EA0C0303EB386335
:1033200088EA334883EA0C0389EA314984EA324463
:103330008AEA314A85EA324588EA314183EA3242F3
:10334000C0F83CB08663D0F8048003688EEA080BAE
:1033500087EA0306C6461F46D0F80CC089EA0C0867
:10336000C0F82CC0D0F808C084EA0C03C0F828C00C
:10337000D0F814C08AEA0C09C0F834C0D0F810C0E4
:1033800085EA0C04C0F830C0D0F83CA0856B8AEA0E
:10339000010A554045F6800CCBF6717C88EA0C0892
:1033A00089F0090904EBF97489EA346984EA0C04A8
:1033B00004EB794489EA744984EA0C044C4489EAB0
:1033C000F47984EA0C0404EB396489EA344984EA28
:1033D0000C0445F2621CCBF2E17C03EBF87388EA43
:1033E000336883EA0C0303EB784388EA734883EA83
:1033F0000C03434488EAF37883EA0C0303EB386355
:1034000088EA334883EA0C034DF6562CC3F6B40C15
:1034100005EBFA758AEA356A85EA0C0505EB7A450B
:103420008AEA754A85EA0C0555448AEAF57A85EAFE
:103430000C0505EB3A658AEA354A85EA0C0547F240
:10344000387CC3F24E2C06EBFB768BEA366B86EAB1
:103450000C0606EB7B468BEA764B86EA0C065E444E
:103460008BEAF67B86EA0C0606EB3B668BEA364B6C
:1034700086EA0C0648F2EB5CCBF6113C07EBFE77D4
:103480008EEA376E87EA0C0707EB7E478EEA774EA7
:1034900087EA0C0777448EEAF77E87EA0C0707EB8A
:1034A0003E678EEA374E87EA0C0783EA040188EA12
:1034B0000902694082EA0A02714082EA0B0281EA4B
:1034C000014182EA02428EEA314E87EA32470360C6
:1034D000C0F804808460C0F80C900561C0F814A0A6
:1034E000846AD0F82C90056BD0F834A0836BD0F8A8
:1034F0003C8047F6573CC4F67C7C04EBF97489EABF
:10350000346984EA0C0404EB794489EA744984EA56
:103510000C044C4489EAF47984EA0C0404EB396421
:1035200089EA344984EA0C044AF2C81CCCF6BF7C10
:1035300005EBFA758AEA356A85EA0C0505EB7A45EA
:103540008AEA754A85EA0C0555448AEAF57A85EADD
:103550000C0505EB3A658AEA354A85EA0C0542F620
:103560003D1CCCF2B32C03EBF87388EA336883EA92
:103570000C0303EB784388EA734883EA0C03434463
:1035800088EAF37883EA0C0303EB386388EA33486C
:1035900083EA0C0389EA314984EA32448AEA314AEF
:1035A00085EA324588EA314183EA3242C0F83CB0CC
:1035B0008663D0F8048003688EEA080B87EA030666
:1035C000C6461F46D0F80CC089EA0C08C0F82CC0CB
:1035D000D0F808C084EA0C03C0F828C0D0F814C0A2
:1035E0008AEA0C09C0F834C0D0F810C085EA0C048F
:1035F000C0F830C0D0F83CA0856B8AEA010A55407B
:103600004DF6562CC3F6B40C88EA0C0889F00A096A
:1036100005EBFA758AEA356A85EA0C0505EB7A4509
:103620008AEA754A85EA0C0555448AEAF57A85EAFC
:103630000C0505EB3A658AEA354A85EA0C0545F240
:10364000621CCBF2E17C03EBF87388EA336883EA0F
:103650000C0303EB784388EA734883EA0C03434482
:1036600088EAF37883EA0C0303EB386388EA33488B
:1036700083EA0C0345F6800CCBF6717C04EBF974FD
:1036800089EA346984EA0C0404EB794489EA7449D0
:1036900084EA0C044C4489EAF47984EA0C0404EBCF
:1036A000396489EA344984EA0C0447F2387CC3F26D
:1036B0004E2C06EBFB768BEA366B86EA0C0606EBA5
:1036C0007B468BEA764B86EA0C065E448BEAF67BF9
:1036D00086EA0C0606EB3B668BEA364B86EA0C065E
:1036E00048F2EB5CCBF6113C07EBFE778EEA376EC7
:1036F00087EA0C0707EB7E478EEA774E87EA0C07CE
:1037000077448EEAF77E87EA0C0707EB3E678EEA7E
:10371000374E87EA0C0783EA040188EA0902694008
:1037200082EA0A02714082EA0B0281EA014182EADE
:1037300002428EEA314E87EA32470360C0F80480C5
:103740008460C0F80C900561C0F814A0846AD0F8B9
:103750002C90056BD0F834A0836BD0F83C8047F6F2
:10376000573CC4F67C7C04EBF97489EA346984EA3A
:103770000C0404EB794489EA744984EA0C044C444F
:1037800089EAF47984EA0C0404EB396489EA34495F
:1037900084EA0C044AF2C81CCCF6BF7C05EBFA752F
:1037A0008AEA356A85EA0C0505EB7A458AEA754AA4
:1037B00085EA0C0555448AEAF57A85EA0C0505EB9D
:1037C0003A658AEA354A85EA0C0542F63D1CCCF298
:1037D000B32C03EBF87388EA336883EA0C0303EB3A
:1037E000784388EA734883EA0C03434488EAF37811
:1037F00083EA0C0303EB386388EA334883EA0C035B
:1038000089EA314984EA32448AEA314A85EA324512
:1038100088EA314183EA3242C0F83CB08663D0F88E
:10382000048003688EEA080B87EA0306C6461F4633
:10383000D0F80CC089EA0C08C0F82CC0D0F808C039
:1038400084EA0C03C0F828C0D0F814C08AEA0C0936
:10385000C0F834C0D0F810C085EA0C04C0F830C0FD
:10386000D0F83CA0856B8AEA010A554047F2387CC3
:10387000C3F24E2C88EA0C0889F00B0945F2621C51
:10388000CBF2E17C03EBF87388EA336883EA0C033C
:1038900003EB784388EA734883EA0C03434488EADD
:1038A000F37883EA0C0303EB386388EA334883EA4E
:1038B0000C0345F6800CCBF6717C04EBF97489EAB5
:1038C000346984EA0C0404EB794489EA744984EA93
:1038D0000C044C4489EAF47984EA0C0404EB39645E
:1038E00089EA344984EA0C044DF6562CC3F6B40C2C
:1038F00005EBFA758AEA356A85EA0C0505EB7A4527
:103900008AEA754A85EA0C0555448AEAF57A85EA19
:103910000C0505EB3A658AEA354A85EA0C0547F25B
:10392000387CC3F24E2C06EBFB768BEA366B86EACC
:103930000C0606EB7B468BEA764B86EA0C065E4469
:103940008BEAF67B86EA0C0606EB3B668BEA364B87
:1039500086EA0C0648F2EB5CCBF6113C07EBFE77EF
:103960008EEA376E87EA0C0707EB7E478EEA774EC2
:1039700087EA0C0777448EEAF77E87EA0C0707EBA5
:103980003E678EEA374E87EA0C0783EA040188EA2D
:103990000902694082EA0A02714082EA0B0281EA66
:1039A000014182EA02428EEA314E87EA32470360E1
:1039B000C0F804808460C0F80C900561C0F814A0C1
:1039C000846AD0F82C90056BD0F834A0836BD0F8C3
:1039D0003C8047F6573CC4F67C7C04EBF97489EADA
:1039E000346984EA0C0404EB794489EA744984EA72
:1039F0000C044C4489EAF47984EA0C0404EB39643D
:103A000089EA344984EA0C044AF2C81CCCF6BF7C2B
:103A100005EBFA758AEA356A85EA0C0505EB7A4505
:103A20008AEA754A85EA0C0555448AEAF57A85EAF8
:103A30000C0505EB3A658AEA354A85EA0C0542F63B
:103A40003D1CCCF2B32C03EBF87388EA336883EAAD
:103A50000C0303EB784388EA734883EA0C0343447E
:103A600088EAF37883EA0C0303EB386388EA334887
:103A700083EA0C0389EA314984EA32448AEA314A0A
:103A800085EA324588EA314183EA3242C0F83CB0E7
:103A90008663D0F8048003688EEA080B87EA030681
:103AA000C6461F46D0F80CC089EA0C08C0F82CC0E6
:103AB000D0F808C084EA0C03C0F828C0D0F814C0BD
:103AC0008AEA0C09C0F834C0D0F810C085EA0C04AA
:103AD000C0F830C0D0F83CA0856B8AEA010A554096
:103AE0000360C0F804808460C0F80C900561C0F8E1
:103AF00014A08661C0F81CB00762C0F824E0BDE8DD
:103B0000F08F00BF2DE9F04F07684268D0F80880B9
:103B1000C368D0F810904469D0F818A0C569D0F8EF
:103B200020B0466A3FBA12BA98FA88F81BBA99FAD6
:103B300089F924BA9AFA8AFA2DBA9BFA8BFB36BA1B
:103B400001B4062900F0B28300291FD0042900F037
:103B50007D820B2900F0A2860A2900F00786092938
:103B600000F06C85082900F0D184072900F0368424
:103B7000052900F00383032900F0D081022900F019
:103B80003581012900F09A8000F020BF84F0F00414
:103B9000724087EA0B076E408BEA0A0B5C4089EAA9
:103BA000080923EA020024EA030C25EA040E83EA4A
:103BB0000E0322EA060E82EA0C0226EA050C84EACB
:103BC0000C0485EA0E05464028EA070029EA080C9D
:103BD0002AEA090E88EA0E0827EA0B0E87EA0C0784
:103BE0002BEA0A0C89EA0C098AEA0E0A8BEA000B16
:103BF000534088EA0708724087EA0B0765408AEA63
:103C0000090AE4436FEA09091000390082EAD04248
:103C100087EAD14782EA413287EA403782EA107266
:103C200087EA117782EA011287EA001718004146F5
:103C300083EA517388EA507883EAC00388EAC108AE
:103C400083EAD11388EAD01883EA406388EA41689E
:103C50002000494684EA500489EA510984EAC17483
:103C600089EAC07984EA901489EA911984EA816426
:103C700089EA80692800514685EA90258AEA912AD6
:103C800085EA81558AEA805A85EA50458AEA514A8E
:103C900085EAC1358AEAC03A3000594686EAD0162C
:103CA0008BEAD11B86EA41668BEA406B86EA512695
:103CB0008BEA502B86EAC0568BEAC15B84F0E104A4
:103CC000724087EA0B076E408BEA0A0B5C4089EA78
:103CD000080923EA020024EA030C25EA040E83EA19
:103CE0000E0322EA060E82EA0C0226EA050C84EA9A
:103CF0000C0485EA0E05464028EA070029EA080C6C
:103D00002AEA090E88EA0E0827EA0B0E87EA0C0752
:103D10002BEA0A0C89EA0C098AEA0E0A8BEA000BE4
:103D2000534088EA0708724087EA0B0765408AEA31
:103D3000090AE4436FEA09091000390082EAD04217
:103D400087EAD14782EA413287EA403782EA107235
:103D500087EA117782EA011287EA001718004146C4
:103D600083EA517388EA507883EAC00388EAC1087D
:103D700083EAD11388EAD01883EA406388EA41686D
:103D80002000494684EA500489EA510984EAC17452
:103D900089EAC07984EA901489EA911984EA8164F5
:103DA00089EA80692800514685EA90258AEA912AA5
:103DB00085EA81558AEA805A85EA50458AEA514A5D
:103DC00085EAC1358AEAC03A3000594686EAD016FB
:103DD0008BEAD11B86EA41668BEA406B86EA512664
:103DE0008BEA502B86EAC0568BEAC15B84F0D20482
:103DF000724087EA0B076E408BEA0A0B5C4089EA47
:103E0000080923EA020024EA030C25EA040E83EAE7
:103E10000E0322EA060E82EA0C0226EA050C84EA68
:103E20000C0485EA0E05464028EA070029EA080C3A
:103E30002AEA090E88EA0E0827EA0B0E87EA0C0721
:103E40002BEA0A0C89EA0C098AEA0E0A8BEA000BB3
:103E5000534088EA0708724087EA0B0765408AEA00
:103E6000090AE4436FEA09091000390082EAD042E6
:103E700087EAD14782EA413287EA403782EA107204
:103E800087EA117782EA011287EA00171800414693
:103E900083EA517388EA507883EAC00388EAC1084C
:103EA00083EAD11388EAD01883EA406388EA41683C
:103EB0002000494684EA500489EA510984EAC17421
:103EC00089EAC07984EA901489EA911984EA8164C4
:103ED00089EA80692800514685EA90258AEA912A74
:103EE00085EA81558AEA805A85EA50458AEA514A2C
:103EF00085EAC1358AEAC03A3000594686EAD016CA
:103F00008BEAD11B86EA41668BEA406B86EA512632
:103F10008BEA502B86EAC0568BEAC15B84F0C3045F
:103F2000724087EA0B076E408BEA0A0B5C4089EA15
:103F3000080923EA020024EA030C25EA040E83EAB6
:103F40000E0322EA060E82EA0C0226EA050C84EA37
:103F50000C0485EA0E05464028EA070029EA080C09
:103F60002AEA090E88EA0E0827EA0B0E87EA0C07F0
:103F70002BEA0A0C89EA0C098AEA0E0A8BEA000B82
:103F8000534088EA0708724087EA0B0765408AEACF
:103F9000090AE4436FEA09091000390082EAD042B5
:103FA00087EAD14782EA413287EA403782EA1072D3
:103FB00087EA117782EA011287EA00171800414662
:103FC00083EA517388EA507883EAC00388EAC1081B
:103FD00083EAD11388EAD01883EA406388EA41680B
:103FE0002000494684EA500489EA510984EAC174F0
:103FF00089EAC07984EA901489EA911984EA816493
:1040000089EA80692800514685EA90258AEA912A42
:1040100085EA81558AEA805A85EA50458AEA514AFA
:1040200085EAC1358AEAC03A3000594686EAD01698
:104030008BEAD11B86EA41668BEA406B86EA512601
:104040008BEA502B86EAC0568BEAC15B84F0B4043D
:10405000724087EA0B076E408BEA0A0B5C4089EAE4
:10406000080923EA020024EA030C25EA040E83EA85
:104070000E0322EA060E82EA0C0226EA050C84EA06
:104080000C0485EA0E05464028EA070029EA080CD8
:104090002AEA090E88EA0E0827EA0B0E87EA0C07BF
:1040A0002BEA0A0C89EA0C098AEA0E0A8BEA000B51
:1040B000534088EA0708724087EA0B0765408AEA9E
:1040C000090AE4436FEA09091000390082EAD04284
:1040D00087EAD14782EA413287EA403782EA1072A2
:1040E00087EA117782EA011287EA00171800414631
:1040F00083EA517388EA507883EAC00388EAC108EA
:1041000083EAD11388EAD01883EA406388EA4168D9
:104110002000494684EA500489EA510984EAC174BE
:1041200089EAC07984EA901489EA911984EA816461
:1041300089EA80692800514685EA90258AEA912A11
:1041400085EA81558AEA805A85EA50458AEA514AC9
:1041500085EAC1358AEAC03A3000594686EAD01667
:104160008BEAD11B86EA41668BEA406B86EA5126D0
:104170008BEA502B86EAC0568BEAC15B84F0A5041B
:10418000724087EA0B076E408BEA0A0B5C4089EAB3
:10419000080923EA020024EA030C25EA040E83EA54
:1041A0000E0322EA060E82EA0C0226EA050C84EAD5
:1041B0000C0485EA0E05464028EA070029EA080CA7
:1041C0002AEA090E88EA0E0827EA0B0E87EA0C078E
:1041D0002BEA0A0C89EA0C098AEA0E0A8BEA000B20
:1041E000534088EA0708724087EA0B0765408AEA6D
:1041F000090AE4436FEA09091000390082EAD04253
:1042000087EAD14782EA413287EA403782EA107270
:1042100087EA117782EA011287EA001718004146FF
:1042200083EA517388EA507883EAC00388EAC108B8
:1042300083EAD11388EAD01883EA406388EA4168A8
:104240002000494684EA500489EA510984EAC1748D
:1042500089EAC07984EA901489EA911984EA816430
:1042600089EA80692800514685EA90258AEA912AE0
:1042700085EA81558AEA805A85EA50458AEA514A98
:1042800085EAC1358AEAC03A3000594686EAD01636
:104290008BEAD11B86EA41668BEA406B86EA51269F
:1042A0008BEA502B86EAC0568BEAC15B84F09604F9
:1042B000724087EA0B076E408BEA0A0B5C4089EA82
:1042C000080923EA020024EA030C25EA040E83EA23
:1042D0000E0322EA060E82EA0C0226EA050C84EAA4
:1042E0000C0485EA0E05464028EA070029EA080C76
:1042F0002AEA090E88EA0E0827EA0B0E87EA0C075D
:104300002BEA0A0C89EA0C098AEA0E0A8BEA000BEE
:10431000534088EA0708724087EA0B0765408AEA3B
:10432000090AE4436FEA09091000390082EAD04221
:1043300087EAD14782EA413287EA403782EA10723F
:1043400087EA117782EA011287EA001718004146CE
:1043500083EA517388EA507883EAC00388EAC10887
:1043600083EAD11388EAD01883EA406388EA416877
:104370002000494684EA500489EA510984EAC1745C
:1043800089EAC07984EA901489EA911984EA8164FF
:1043900089EA80692800514685EA90258AEA912AAF
:1043A00085EA81558AEA805A85EA50458AEA514A67
:1043B00085EAC1358AEAC03A3000594686EAD01605
:1043C0008BEAD11B86EA41668BEA406B86EA51266E
:1043D0008BEA502B86EAC0568BEAC15B84F08704D7
:1043E000724087EA0B076E408BEA0A0B5C4089EA51
:1043F000080923EA020024EA030C25EA040E83EAF2
:104400000E0322EA060E82EA0C0226EA050C84EA72
:104410000C0485EA0E05464028EA070029EA080C44
:104420002AEA090E88EA0E0827EA0B0E87EA0C072B
:104430002BEA0A0C89EA0C098AEA0E0A8BEA000BBD
:10444000534088EA0708724087EA0B0765408AEA0A
:10445000090AE4436FEA09091000390082EAD042F0
:1044600087EAD14782EA413287EA403782EA10720E
:1044700087EA117782EA011287EA0017180041469D
:1044800083EA517388EA507883EAC00388EAC10856
:1044900083EAD11388EAD01883EA406388EA416846
:1044A0002000494684EA500489EA510984EAC1742B
:1044B00089EAC07984EA901489EA911984EA8164CE
:1044C00089EA80692800514685EA90258AEA912A7E
:1044D00085EA81558AEA805A85EA50458AEA514A36
:1044E00085EAC1358AEAC03A3000594686EAD016D4
:1044F0008BEAD11B86EA41668BEA406B86EA51263D
:104500008BEA502B86EAC0568BEAC15B84F07804B4
:10451000724087EA0B076E408BEA0A0B5C4089EA1F
:10452000080923EA020024EA030C25EA040E83EAC0
:104530000E0322EA060E82EA0C0226EA050C84EA41
:104540000C0485EA0E05464028EA070029EA080C13
:104550002AEA090E88EA0E0827EA0B0E87EA0C07FA
:104560002BEA0A0C89EA0C098AEA0E0A8BEA000B8C
:10457000534088EA0708724087EA0B0765408AEAD9
:10458000090AE4436FEA09091000390082EAD042BF
:1045900087EAD14782EA413287EA403782EA1072DD
:1045A00087EA117782EA011287EA0017180041466C
:1045B00083EA517388EA507883EAC00388EAC10825
:1045C00083EAD11388EAD01883EA406388EA416815
:1045D0002000494684EA500489EA510984EAC174FA
:1045E00089EAC07984EA901489EA911984EA81649D
:1045F00089EA80692800514685EA90258AEA912A4D
:1046000085EA81558AEA805A85EA50458AEA514A04
:1046100085EAC1358AEAC03A3000594686EAD016A2
:104620008BEAD11B86EA41668BEA406B86EA51260B
:104630008BEA502B86EAC0568BEAC15B84F0690492
:10464000724087EA0B076E408BEA0A0B5C4089EAEE
:10465000080923EA020024EA030C25EA040E83EA8F
:104660000E0322EA060E82EA0C0226EA050C84EA10
:104670000C0485EA0E05464028EA070029EA080CE2
:104680002AEA090E88EA0E0827EA0B0E87EA0C07C9
:104690002BEA0A0C89EA0C098AEA0E0A8BEA000B5B
:1046A000534088EA0708724087EA0B0765408AEAA8
:1046B000090AE4436FEA09091000390082EAD0428E
:1046C00087EAD14782EA413287EA403782EA1072AC
:1046D00087EA117782EA011287EA0017180041463B
:1046E00083EA517388EA507883EAC00388EAC108F4
:1046F00083EAD11388EAD01883EA406388EA4168E4
:104700002000494684EA500489EA510984EAC174C8
:1047100089EAC07984EA901489EA911984EA81646B
:1047200089EA80692800514685EA90258AEA912A1B
:1047300085EA81558AEA805A85EA50458AEA514AD3
:1047400085EAC1358AEAC03A3000594686EAD01671
:104750008BEAD11B86EA41668BEA406B86EA5126DA
:104760008BEA502B86EAC0568BEAC15B84F05A0470
:10477000724087EA0B076E408BEA0A0B5C4089EABD
:10478000080923EA020024EA030C25EA040E83EA5E
:104790000E0322EA060E82EA0C0226EA050C84EADF
:1047A0000C0485EA0E05464028EA070029EA080CB1
:1047B0002AEA090E88EA0E0827EA0B0E87EA0C0798
:1047C0002BEA0A0C89EA0C098AEA0E0A8BEA000B2A
:1047D000534088EA0708724087EA0B0765408AEA77
:1047E000090AE4436FEA09091000390082EAD0425D
:1047F00087EAD14782EA413287EA403782EA10727B
:1048000087EA117782EA011287EA00171800414609
:1048100083EA517388EA507883EAC00388EAC108C2
:1048200083EAD11388EAD01883EA406388EA4168B2
:104830002000494684EA500489EA510984EAC17497
:1048400089EAC07984EA901489EA911984EA81643A
:1048500089EA80692800514685EA90258AEA912AEA
:1048600085EA81558AEA805A85EA50458AEA514AA2
:1048700085EAC1358AEAC03A3000594686EAD01640
:104880008BEAD11B86EA41668BEA406B86EA5126A9
:104890008BEA502B86EAC0568BEAC15B84F04B044E
:1048A000724087EA0B076E408BEA0A0B5C4089EA8C
:1048B000080923EA020024EA030C25EA040E83EA2D
:1048C0000E0322EA060E82EA0C0226EA050C84EAAE
:1048D0000C0485EA0E05464028EA070029EA080C80
:1048E0002AEA090E88EA0E0827EA0B0E87EA0C0767
:1048F0002BEA0A0C89EA0C098AEA0E0A8BEA000BF9
:10490000534088EA0708724087EA0B0765408AEA45
:10491000090AE4436FEA09091000390082EAD0422B
:1049200087EAD14782EA413287EA403782EA107249
:1049300087EA117782EA011287EA001718004146D8
:1049400083EA517388EA507883EAC00388EAC10891
:1049500083EAD11388EAD01883EA406388EA416881
:104960002000494684EA500489EA510984EAC17466
:1049700089EAC07984EA901489EA911984EA816409
:1049800089EA80692800514685EA90258AEA912AB9
:1049900085EA81558AEA805A85EA50458AEA514A71
:1049A00085EAC1358AEAC03A3000594686EAD0160F
:1049B0008BEAD11B86EA41668BEA406B86EA512678
:1049C0008BEA502B86EAC0568BEAC15B01BC3FBA2A
:1049D00012BA98FA88F81BBA99FA89F924BA9AFA9D
:1049E0008AFA2DBA9BFA8BFB36BA07604260C0F890
:1049F0000880C360C0F810904461C0F818A0C56179
:104A0000C0F820B04662BDE8F08F00BF2DE9F04F3E
:104A1000026847688368D0F80C800469D0F8149065
:104A20008569D0F81CA0066AD0F824B001B4062924
:104A300000F08B8200291ED0042900F0B8810B29D8
:104A400000F086840A2900F01C84092900F0B28352
:104A5000082900F04883072900F0DE82052900F0CC
:104A60000D82032900F03C81022900F0D280012947
:104A700068D000F0D4BC84F00C0489F00C097240BA
:104A800087EA0B076E408BEA0A0B5C4089EA08094B
:104A900023EA020024EA030C25EA040E83EA0E034B
:104AA00022EA060E82EA0C0226EA050C84EA0C04CD
:104AB00085EA0E05464028EA070029EA080C2AEA9A
:104AC000090E88EA0E0827EA0B0E87EA0C072BEA84
:104AD0000A0C89EA0C098AEA0E0A8BEA000B534099
:104AE00088EA0708724087EA0B0765408AEA090AE4
:104AF000E4436FEA090982EA371087EA721187EA0C
:104B0000B02782EA712283EAF32088EAF82188EA52
:104B1000305883EAF14384EAB90089EAF40189EA6A
:104B200070094C4085EAFA008AEA351185EA701569
:104B30008AEA711A86EA76408BEA7B418BEA301B5F
:104B400086EAF10684F0090489F00C09724087EACC
:104B50000B076E408BEA0A0B5C4089EA080923EADE
:104B6000020024EA030C25EA040E83EA0E0322EA7B
:104B7000060E82EA0C0226EA050C84EA0C0485EA99
:104B80000E05464028EA070029EA080C2AEA090E21
:104B900088EA0E0827EA0B0E87EA0C072BEA0A0CB4
:104BA00089EA0C098AEA0E0A8BEA000B534088EA6C
:104BB0000708724087EA0B0765408AEA090AE4435E
:104BC0006FEA090982EA371087EA721187EAB0278B
:104BD00082EA712283EAF32088EAF82188EA3058D1
:104BE00083EAF14384EAB90089EAF40189EA7009A9
:104BF0004C4085EAFA008AEA351185EA70158AEA9E
:104C0000711A86EA76408BEA7B418BEA301B86EA92
:104C1000F10684F00C0489F00909724087EA0B0759
:104C20006E408BEA0A0B5C4089EA080923EA02001D
:104C300024EA030C25EA040E83EA0E0322EA060E98
:104C400082EA0C0226EA050C84EA0C0485EA0E05C9
:104C5000464028EA070029EA080C2AEA090E88EAF1
:104C60000E0827EA0B0E87EA0C072BEA0A0C89EAE2
:104C70000C098AEA0E0A8BEA000B534088EA0708FF
:104C8000724087EA0B0765408AEA090AE4436FEA43
:104C9000090982EA371087EA721187EAB02782EAA7
:104CA000712283EAF32088EAF82188EA305883EAFF
:104CB000F14384EAB90089EAF40189EA70094C40B9
:104CC00085EAFA008AEA351185EA70158AEA711ACE
:104CD00086EA76408BEA7B418BEA301B86EAF10656
:104CE00084F0090489F00909724087EA0B076E40D5
:104CF0008BEA0A0B5C4089EA080923EA020024EAED
:104D0000030C25EA040E83EA0E0322EA060E82EA69
:104D10000C0226EA050C84EA0C0485EA0E054640DE
:104D200028EA070029EA080C2AEA090E88EA0E0890
:104D300027EA0B0E87EA0C072BEA0A0C89EA0C0912
:104D40008AEA0E0A8BEA000B534088EA0708724091
:104D500087EA0B0765408AEA090AE4436FEA090912
:104D600082EA371087EA721187EAB02782EA712255
:104D700083EAF32088EAF82188EA305883EAF1438D
:104D800084EAB90089EAF40189EA70094C4085EAAD
:104D9000FA008AEA351185EA70158AEA711A86EAFC
:104DA00076408BEA7B418BEA301B86EAF10684F081
:104DB000060489F00C09724087EA0B076E408BEA03
:104DC0000A0B5C4089EA080923EA020024EA030C82
:104DD00025EA040E83EA0E0322EA060E82EA0C029A
:104DE00026EA050C84EA0C0485EA0E05464028EA0A
:104DF000070029EA080C2AEA090E88EA0E0827EAC1
:104E00000B0E87EA0C072BEA0A0C89EA0C098AEADE
:104E10000E0A8BEA000B534088EA0708724087EAC3
:104E20000B0765408AEA090AE4436FEA090982EA46
:104E3000371087EA721187EAB02782EA712283EA83
:104E4000F32088EAF82188EA305883EAF14384EABB
:104E5000B90089EAF40189EA70094C4085EAFA0050
:104E60008AEA351185EA70158AEA711A86EA76406F
:104E70008BEA7B418BEA301B86EAF10684F003045F
:104E800089F00C09724087EA0B076E408BEA0A0B27
:104E90005C4089EA080923EA020024EA030C25EAB7
:104EA000040E83EA0E0322EA060E82EA0C0226EAC8
:104EB000050C84EA0C0485EA0E05464028EA070042
:104EC00029EA080C2AEA090E88EA0E0827EA0B0EDE
:104ED00087EA0C072BEA0A0C89EA0C098AEA0E0A0F
:104EE0008BEA000B534088EA0708724087EA0B07F9
:104EF00065408AEA090AE4436FEA090982EA371041
:104F000087EA721187EAB02782EA712283EAF320E6
:104F100088EAF82188EA305883EAF14384EAB90044
:104F200089EAF40189EA70094C4085EAFA008AEAC4
:104F3000351185EA70158AEA711A86EA76408BEA9D
:104F40007B418BEA301B86EAF10684F0060489F087
:104F50000909724087EA0B076E408BEA0A0B5C4036
:104F600089EA080923EA020024EA030C25EA040E70
:104F700083EA0E0322EA060E82EA0C0226EA050CF8
:104F800084EA0C0485EA0E05464028EA070029EA6F
:104F9000080C2AEA090E88EA0E0827EA0B0E87EAAF
:104FA0000C072BEA0A0C89EA0C098AEA0E0A8BEA3A
:104FB000000B534088EA0708724087EA0B076540F8
:104FC0008AEA090AE4436FEA090982EA371087EAA4
:104FD000721187EAB02782EA712283EAF32088EA15
:104FE000F82188EA305883EAF14384EAB90089EA73
:104FF000F40189EA70094C4085EAFA008AEA351121
:1050000085EA70158AEA711A86EA76408BEA7B4156
:105010008BEA301B86EAF10684F0030489F0090963
:10502000724087EA0B076E408BEA0A0B5C4089EA04
:10503000080923EA020024EA030C25EA040E83EAA5
:105040000E0322EA060E82EA0C0226EA050C84EA26
:105050000C0485EA0E05464028EA070029EA080CF8
:105060002AEA090E88EA0E0827EA0B0E87EA0C07DF
:105070002BEA0A0C89EA0C098AEA0E0A8BEA000B71
:10508000534088EA0708724087EA0B0765408AEABE
:10509000090AE4436FEA090982EA371087EA7211C4
:1050A00087EAB02782EA712283EAF32088EAF821AE
:1050B00088EA305883EAF14384EAB90089EAF401C6
:1050C00089EA70094C4085EAFA008AEA351185EAD6
:1050D00070158AEA711A86EA76408BEA7B418BEA80
:1050E000301B86EAF10684F00C0489F00609724050
:1050F00087EA0B076E408BEA0A0B5C4089EA0809D5
:1051000023EA020024EA030C25EA040E83EA0E03D4
:1051100022EA060E82EA0C0226EA050C84EA0C0456
:1051200085EA0E05464028EA070029EA080C2AEA23
:10513000090E88EA0E0827EA0B0E87EA0C072BEA0D
:105140000A0C89EA0C098AEA0E0A8BEA000B534022
:1051500088EA0708724087EA0B0765408AEA090A6D
:10516000E4436FEA090982EA371087EA721187EA95
:10517000B02782EA712283EAF32088EAF82188EADC
:10518000305883EAF14384EAB90089EAF40189EAF4
:1051900070094C4085EAFA008AEA351185EA7015F3
:1051A0008AEA711A86EA76408BEA7B418BEA301BE9
:1051B00086EAF10684F0090489F00609724087EA5C
:1051C0000B076E408BEA0A0B5C4089EA080923EA68
:1051D000020024EA030C25EA040E83EA0E0322EA05
:1051E000060E82EA0C0226EA050C84EA0C0485EA23
:1051F0000E05464028EA070029EA080C2AEA090EAB
:1052000088EA0E0827EA0B0E87EA0C072BEA0A0C3D
:1052100089EA0C098AEA0E0A8BEA000B534088EAF5
:105220000708724087EA0B0765408AEA090AE443E7
:105230006FEA090982EA371087EA721187EAB02714
:1052400082EA712283EAF32088EAF82188EA30585A
:1052500083EAF14384EAB90089EAF40189EA700932
:105260004C4085EAFA008AEA351185EA70158AEA27
:10527000711A86EA76408BEA7B418BEA301B86EA1C
:10528000F10684F00C0489F00309724087EA0B07E9
:105290006E408BEA0A0B5C4089EA080923EA0200A7
:1052A00024EA030C25EA040E83EA0E0322EA060E22
:1052B00082EA0C0226EA050C84EA0C0485EA0E0553
:1052C000464028EA070029EA080C2AEA090E88EA7B
:1052D0000E0827EA0B0E87EA0C072BEA0A0C89EA6C
:1052E0000C098AEA0E0A8BEA000B534088EA070889
:1052F000724087EA0B0765408AEA090AE4436FEACD
:10530000090982EA371087EA721187EAB02782EA30
:10531000712283EAF32088EAF82188EA305883EA88
:10532000F14384EAB90089EAF40189EA70094C4042
:1053300085EAFA008AEA351185EA70158AEA711A57
:1053400086EA76408BEA7B418BEA301B86EAF106DF
:1053500084F0090489F00309724087EA0B076E4064
:105360008BEA0A0B5C4089EA080923EA020024EA76
:10537000030C25EA040E83EA0E0322EA060E82EAF3
:105380000C0226EA050C84EA0C0485EA0E05464068
:1053900028EA070029EA080C2AEA090E88EA0E081A
:1053A00027EA0B0E87EA0C072BEA0A0C89EA0C099C
:1053B0008AEA0E0A8BEA000B534088EA070872401B
:1053C00087EA0B0765408AEA090AE4436FEA09099C
:1053D00082EA371087EA721187EAB02782EA7122DF
:1053E00083EAF32088EAF82188EA305883EAF14317
:1053F00084EAB90089EAF40189EA70094C4085EA37
:10540000FA008AEA351185EA70158AEA711A86EA85
:1054100076408BEA7B418BEA301B86EAF10601BCC1
:10542000026047608360C0F80C800461C0F814908B
:105430008561C0F81CA00662C0F824B0BDE8F08FFA
:105440000168426881EA510382EA520C03F0223378
:105450000CF0223C594082EA0C0281EA430182EAC4
:105460004C0281EA910382EA920C03F00C330CF0B7
:105470000C3C594082EA0C0281EA830182EA8C02E8
:1054800081EA113382EA123C03F00F130CF00F1C77
:10549000594082EA0C0281EA033182EA0C3281EA45
:1054A000116382EA126C03F0FF030CF0FF0C594009
:1054B00082EA0C0281EA036182EA0C6293B243EA57
:1054C0000143090C03605FEA014C4CEA124CC0F83E
:1054D00004C08168C26881EA510382EA520C03F079
:1054E00022330CF0223C594082EA0C0281EA43014B
:1054F00082EA4C0281EA910382EA920C03F00C33B7
:105500000CF00C3C594082EA0C0281EA830182EAE9
:105510008C0281EA113382EA123C03F00F130CF083
:105520000F1C594082EA0C0281EA033182EA0C32F4
:1055300081EA116382EA126C03F0FF030CF0FF0CA6
:10554000594082EA0C0281EA036182EA0C6293B25A
:1055500043EA0143090C83605FEA014C4CEA124CB8
:10556000C0F80CC00169426981EA510382EA520C19
:1055700003F022330CF0223C594082EA0C0281EA0B
:10558000430182EA4C0281EA910382EA920C03F021
:105590000C330CF00C3C594082EA0C0281EA830186
:1055A00082EA8C0281EA113382EA123C03F00F1383
:1055B0000CF00F1C594082EA0C0281EA033182EAA6
:1055C0000C3281EA116382EA126C03F0FF030CF0E3
:1055D000FF0C594082EA0C0281EA036182EA0C6204
:1055E00093B243EA0143090C03615FEA014C4CEAC0
:1055F000124CC0F814C08169C26981EA510382EA81
:10560000520C03F022330CF0223C594082EA0C0287
:1056100081EA430182EA4C0281EA910382EA920C18
:1056200003F00C330CF00C3C594082EA0C0281EA86
:10563000830182EA8C0281EA113382EA123C03F090
:105640000F130CF00F1C594082EA0C0281EA03315F
:1056500082EA0C3281EA116382EA126C03F0FF03E2
:105660000CF0FF0C594082EA0C0281EA036182EAE5
:105670000C6293B243EA0143090C83615FEA014C77
:105680004CEA124CC0F81CC0016A426A81EA51031C
:1056900082EA520C03F022330CF0223C594082EA99
:1056A0000C0281EA430182EA4C0281EA910382EA18
:1056B000920C03F00C330CF00C3C594082EA0C02C3
:1056C00081EA830182EA8C0281EA113382EA123C88
:1056D00003F00F130CF00F1C594082EA0C0281EA10
:1056E000033182EA0C3281EA116382EA126C03F020
:1056F000FF030CF0FF0C594082EA0C0281EA0361BF
:1057000082EA0C6293B243EA0143090C03625FEA46
:10571000014C4CEA124CC0F824C0704710B4016828
:105720004268130C1B041FFA81FC43EA11414CEA46
:1057300002424AF6AA2481EAD13382EAD23C2340CB
:105740000CEA040C594082EA0C0281EAC33182EA75
:10575000CC324CF6CC4481EA913382EA923C23402D
:105760000CEA040C594082EA0C0281EA833182EA95
:105770008C324FF2F00481EA113382EA123C23406A
:105780000CEA040C594082EA0C0281EA033182EAF5
:105790000C3281EA116382EA126C03F0FF030CF011
:1057A000FF0C594082EA0C0281EA036182EA0C6232
:1057B000016042608168C268130C1B041FFA81FCFF
:1057C00043EA11414CEA02424AF6AA2481EAD13363
:1057D00082EAD23C23400CEA040C594082EA0C02D3
:1057E00081EAC33182EACC324CF6CC4481EA91336F
:1057F00082EA923C23400CEA040C594082EA0C02F3
:1058000081EA833182EA8C324FF2F00481EA11336B
:1058100082EA123C23400CEA040C594082EA0C0252
:1058200081EA033182EA0C3281EA116382EA126C66
:1058300003F0FF030CF0FF0C594082EA0C0281EAEE
:10584000036182EA0C628160C26001694269130CE3
:105850001B041FFA81FC43EA11414CEA02424AF65A
:10586000AA2481EAD13382EAD23C23400CEA040C18
:10587000594082EA0C0281EAC33182EACC324CF60A
:10588000CC4481EA913382EA923C23400CEA040C36
:10589000594082EA0C0281EA833182EA8C324FF26B
:1058A000F00481EA113382EA123C23400CEA040C32
:1058B000594082EA0C0281EA033182EA0C3281EA21
:1058C000116382EA126C03F0FF030CF0FF0C5940E5
:1058D00082EA0C0281EA036182EA0C6201614261A0
:1058E0008169C269130C1B041FFA81FC43EA114150
:1058F0004CEA02424AF6AA2481EAD13382EAD23C37
:1059000023400CEA040C594082EA0C0281EAC331BC
:1059100082EACC324CF6CC4481EA913382EA923C62
:1059200023400CEA040C594082EA0C0281EA8331DC
:1059300082EA8C324FF2F00481EA113382EA123C9F
:1059400023400CEA040C594082EA0C0281EA03313C
:1059500082EA0C3281EA116382EA126C03F0FF03DF
:105960000CF0FF0C594082EA0C0281EA036182EAE2
:105970000C628161C261016A426A130C1B041FFA46
:1059800081FC43EA11414CEA02424AF6AA2481EA28
:10599000D13382EAD23C23400CEA040C594082EA1B
:1059A0000C0281EAC33182EACC324CF6CC4481EA63
:1059B000913382EA923C23400CEA040C594082EA7B
:1059C0000C0281EA833182EA8C324FF2F00481EAE0
:1059D000113382EA123C23400CEA040C594082EA5B
:1059E0000C0281EA033182EA0C3281EA116382EA15
:1059F000126C03F0FF030CF0FF0C594082EA0C021A
:105A000081EA036182EA0C620162426210BC704763
:105A100053B94AB9002908BF00281CBF4FF0FF3115
:105A20004FF0FF3000F09CB9ADF1080C6DE904CEE9
:105A300000F006F8DDF804E0DDE9022304B0704769
:105A40002DE9F04782B00646DDF828E00846B44666
:105A50000D46002B4ED18A4214466DD9B2FA82F21D
:105A600042B1C2F12003954026FA03F394401D434E
:105A700006FA02FC260CA7B2B5FBF6F14FEA1C436E
:105A800006FB115543EA054301FB07F0984209D98B
:105A9000E31801F1FF3580F00381984240F2008164
:105AA000023923441B1A1FFA8CFCB3FBF6F006FBE9
:105AB00010334CEA034C00FB07F363450AD914EB9F
:105AC0000C0C00F1FF3580F0ED80634540F2EA8078
:105AD000A444023840EA0140ACEB030C0021BEF1C3
