:020000040800F2
:1000000000000220D54800089943000899430008E1
:1000100099430008994300089943000820FB000019
:100020002DE9F04FDFF8F029DFF8F039DFF8B415EB
:10003000B1EC071A00EE101A00F1800A04EE90AA43
:10004000D0F80050D0F88060D0F80071D0F88081EE
:10005000D0F80042D0F880B2D0F800C3D0F880E3E6
:1000600011EE101A84FB019409FB02FACAFB0394F7
:100070008BFB019B09FB02FACAFB039B8CFB019CD7
:1000800009FB02FACAFB039C8EFB019E09FB02FAE4
:10009000CAFB039E25445E446744F044A5EB440438
:1000A000A6EB4B0BA7EB4C0CA8EB4E0E11EE901AE7
:1000B00087FB019709FB02FACAFB039788FB0198AB
:1000C00009FB02FACAFB039812EE101A8CFB019C82
:1000D00009FB02FACAFB039C8EFB019E09FB02FA94
:1000E000CAFB039E3D4446446444F344A5EB4707E2
:1000F000A6EB4808A4EB4C0CABEB4E0E12EE901A9C
:1001000086FB019609FB02FACAFB039613EE101A4E
:1001100088FB019809FB02FACAFB039813EE901AB8
:100120008BFB019B09FB02FACAFB039B14EE101A1E
:100130008EFB019E09FB02FACAFB039E354447442D
:100140005C44F444A5EB4606A7EB4808A4EB4B0B34
:10015000ACEB4E0EC0F88060C0F80071C0F8808132
:10016000C0F80042C0F880B2C0F800C3C0F880E315
:1001700040F8045BD0F80050D0F88060D0F80071EF
:10018000D0F88081D0F80042D0F880B2D0F800C317
:10019000D0F880E311EE101A84FB019409FB02FAF7
:1001A000CAFB03948BFB019B09FB02FACAFB039B6E
:1001B0008CFB019C09FB02FACAFB039C8EFB019E8F
:1001C00009FB02FACAFB039E25445E446744F044DF
:1001D000A5EB4404A6EB4B0BA7EB4C0CA8EB4E0E87
:1001E00011EE901A87FB019709FB02FACAFB0397ED
:1001F00088FB019809FB02FACAFB039812EE101A59
:100200008CFB019C09FB02FACAFB039C8EFB019E3E
:1002100009FB02FACAFB039E3D4446446444F3448E
:10022000A5EB4707A6EB4808A4EB4C0CABEB4E0E36
:1002300012EE901A86FB019609FB02FACAFB03969E
:1002400013EE101A88FB019809FB02FACAFB039807
:1002500013EE901A8BFB019B09FB02FACAFB039B6E
:1002600014EE101A8EFB019E09FB02FACAFB039ED4
:10027000354447445C44F444A5EB4606A7EB4808E4
:10028000A4EB4B0BACEB4E0EC0F88060C0F80071D5
:10029000C0F88081C0F80042C0F880B2C0F800C346
:1002A000C0F880E340F8045B14EE90AAB0EB0A0FAC
:1002B0007FF4C6AEA0F1800000F5806A04EE90AA3B
:1002C00000F1100A05EE10AA10EE101AB1EC071A90
:1002D00000EE101AD0F80050D0F81060D0F820705E
:1002E000D0F83080D0F84040D0F850B0D0F860C09E
:1002F000D0F870E011EE101A84FB019409FB02FAA9
:10030000CAFB03948BFB019B09FB02FACAFB039B0C
:100310008CFB019C09FB02FACAFB039C8EFB019E2D
:1003200009FB02FACAFB039E25445E446744F0447D
:10033000A5EB4404A6EB4B0BA7EB4C0CA8EB4E0E25
:1003400011EE901A87FB019709FB02FACAFB03978B
:1003500088FB019809FB02FACAFB039812EE101AF7
:100360008CFB019C09FB02FACAFB039C8EFB019EDD
:1003700009FB02FACAFB039E3D4446446444F3442D
:10038000A5EB4707A6EB4808A4EB4C0CABEB4E0ED5
:1003900012EE901A86FB019609FB02FACAFB03963D
:1003A00013EE101A88FB019809FB02FACAFB0398A6
:1003B00013EE901A8BFB019B09FB02FACAFB039B0D
:1003C00014EE101A8EFB019E09FB02FACAFB039E73
:1003D000354447445C44F444A5EB4606A7EB480883
:1003E000A4EB4B0BACEB4E0EC0F81060C0F82070C5
:1003F000C0F83080C0F84040C0F850B0C0F860C0CD
:10040000C0F870E040F8045BD0F80050D0F81060FD
:10041000D0F82070D0F83080D0F84040D0F850B0FC
:10042000D0F860C0D0F870E011EE101A84FB01948F
:1004300009FB02FACAFB03948BFB019B09FB02FA3E
:10044000CAFB039B8CFB019C09FB02FACAFB039CC1
:100450008EFB019E09FB02FACAFB039E25445E4403
:100460006744F044A5EB4404A6EB4B0BA7EB4C0C04
:10047000A8EB4E0E11EE901A87FB019709FB02FACA
:10048000CAFB039788FB019809FB02FACAFB039891
:1004900012EE101A8CFB019C09FB02FACAFB039CAA
:1004A0008EFB019E09FB02FACAFB039E3D444644B3
:1004B0006444F344A5EB4707A6EB4808A4EB4C0CB7
:1004C000ABEB4E0E12EE901A86FB019609FB02FA78
:1004D000CAFB039613EE101A88FB019809FB02FA77
:1004E000CAFB039813EE901A8BFB019B09FB02FADF
:1004F000CAFB039B14EE101A8EFB019E09FB02FA45
:10050000CAFB039E354447445C44F444A5EB4606CD
:10051000A7EB4808A4EB4B0BACEB4E0EC0F81060F9
:10052000C0F82070C0F83080C0F84040C0F850B02B
:10053000C0F860C0C0F870E040F8045B15EE10AA87
:10054000B0EB0A0F7FF4C6AE00F1700014EE90AA73
:10055000B0EB0A0F7FF4B4AEA0F5806010EE101A75
:1005600000F58064D1F804C0D1F808E051F80CBB64
:10057000D0F80050D0F80460D0F80870D0F80C80A3
:1005800087FB0B9709FB02FACAFB039788FB0B98C2
:1005900009FB02FACAFB03983D444644A5EB470712
:1005A000A6EB480886FB0C9609FB02FACAFB0396E9
:1005B00088FB0E9809FB02FACAFB039835444744AE
:1005C000A5EB4606A7EB4808C0F80460C0F8087021
:1005D000C0F80C8040F8105BB4EB000F7FF4C2AFA2
:1005E000BDE8F08FCC7C00082DE9F04FDFF828241F
:1005F000DFF82834DFF82814B1EC071A00EE101ADF
:1006000000F5806A04EE90AAD0F81040D0F814608B
:10061000D0F818C0D0F81C803444C444A4EB46067B
:10062000ACEB480804EB0C04A4EB4C0C13EE109A52
:1006300014EE10AA86FB095BC8FB0A5B05FB02F1FE
:10064000C1FB035B86FB0A7EC8FB097E07FB02F148
:10065000C1FB037ED0F80050D0F80460D0F80870D9
:10066000D0F80C8035444744A5EB4606A7EB480874
:1006700012EE101A88FB019809FB02FACAFB0398D4
:100680003D444644A5EB4707A6EB48088CFB019C7C
:1006900009FB02FACAFB039C25445E446744F0440C
:1006A000A5EB4404A6EB4B0BA7EB4C0CA8EB4E0EB2
:1006B000C0F80460C0F80870C0F80C80C0F81040A2
:1006C000C0F814B0C0F818C0C0F81CE040F8205BB7
:1006D00014EE90AAB0EB0A0F7FF496AFA0F58060FD
:1006E00040F2040A00F5806A05EE10AA10EE101A16
:1006F000B1EC071A00EE101AD0F88040D0F8A060D4
:10070000D0F8C0C0D0F8E0803444C444A4EB46061E
:10071000ACEB480804EB0C04A4EB4C0C13EE109A61
:1007200014EE10AA86FB095BC8FB0A5B05FB02F10D
:10073000C1FB035B86FB0A7EC8FB097E07FB02F157
:10074000C1FB037ED0F80050D0F82060D0F8407094
:10075000D0F8608035444744A5EB4606A7EB48082F
:1007600012EE101A88FB019809FB02FACAFB0398E3
:100770003D444644A5EB4707A6EB48088CFB019C8B
:1007800009FB02FACAFB039C25445E446744F0441B
:10079000A5EB4404A6EB4B0BA7EB4C0CA8EB4E0EC1
:1007A000C0F82060C0F84070C0F86080C0F8804099
:1007B000C0F8A0B0C0F8C0C0C0F8E0E0C0F8005079
:1007C00000F5807015EE10AABAEB000F7FF494AF1D
:1007D000A0F57F7000F11C0A04EE90AA00F5806A73
:1007E00005EE10AA10EE101AB1EC071A00EE101A5E
:1007F000D0F80050D0F82060D0F84070D0F8608079
:10080000D0F88040D0F8A0B0D0F8C0C0D0F8E0E078
:1008100011EE101A86FB019609FB02FACAFB039639
:1008200088FB019809FB02FACAFB03988BFB019B2A
:1008300009FB02FACAFB039B8EFB019E09FB02FA2D
:10084000CAFB039E354447445C44F444A5EB46068A
:10085000A7EB4808A4EB4B0BACEB4E0E11EE901A35
:1008600087FB019709FB02FACAFB03978CFB019CEB
:1008700009FB02FACAFB039C12EE101A88FB0198CE
:1008800009FB02FACAFB03988EFB019E09FB02FAE0
:10089000CAFB039E3D4446446444F344A5EB47072A
:1008A000A6EB4808A4EB4C0CABEB4E0E12EE901AE4
:1008B00084FB019409FB02FACAFB039413EE101A9D
:1008C0008BFB019B09FB02FACAFB039B13EE901AF8
:1008D0008CFB019C09FB02FACAFB039C14EE101A64
:1008E0008EFB019E09FB02FACAFB039E25445E446F
:1008F0006744F044A5EB4404A6EB4B0BA7EB4C0C70
:10090000A8EB4E0EC0F82060C0F84070C0F86080C0
:10091000C0F88040C0F8A0B0C0F8C0C0C0F8E0E0A7
:10092000C0F8005000F5807015EE10AAB0EB0A0F69
:100930007FF45EAFA0F57F7014EE90AABAEB000FC3
:100940007FF44CAFA0F1200010EE101A00F5807477
:1009500004EE904AD1F804C0D1F808E051F80CBB7D
:10096000D0F80050D0F80061D0F80072D0F80083C1
:1009700086FB0B9609FB02FACAFB039688FB0B98D1
:1009800009FB02FACAFB039835444744A5EB460627
:10099000A7EB480887FB0C9709FB02FACAFB0397F1
:1009A00088FB0E9809FB02FACAFB03983D444644B3
:1009B000A5EB4707A6EB4808D1F804C0D1F808E03A
:1009C000D1F80CB051F8104B85FB049509FB02FAE5
:1009D000CAFB039586FB0C9609FB02FACAFB039639
:1009E00087FB0E9709FB02FACAFB039788FB0B985B
:1009F00009FB02FACAFB0398C0F80061C0F8007254
:100A0000C0F8008340F8045B14EE904AB4EB000F8A
:100A10007FF4A0AFBDE8F08FFFDF7FFC01E07F0037
:100A2000C88000082DE9F04F4DF6FF73CFF67F43E5
:100A30004EF20104C0F27F0440F2550CD1F804607C
:100A4000D1F8087051F80C5BD2F80490D2F808A0E5
:100A500052F80C8B85FB085E05FB03F8C8FB045EAF
:100A600040F804EB86FB096E06FB03F9C9FB046E34
:100A700040F804EB87FB0A7E07FB03FACAFB047EFF
:100A800040F804EBBCF1010C7FF4D8AFD1F8005072
:100A9000D2F8008085FB085E05FB03F8C8FB045E06
:100AA000C0F800E0BDE8F08F2DE9F04F4DF6FF7380
:100AB000CFF67F434EF20104C0F27F0440F2550CA2
:100AC000D1F80460D1F8087051F80C5BD2F80490AA
:100AD000D2F808A052F80C8B85FB085E05FB03F8E2
:100AE000C8FB045E86FB096506FB03F9C9FB0465C8
:100AF00087FB0A7607FB03FACAFB0476D0F800806E
:100B0000D0F80490D0F808A00EEB080E40F80CEBDB
:100B100005EB090540F8085C06EB0A0640F8046C92
:100B2000BCF1010C7FF4CCAFD1F80050D2F80080BA
:100B3000D0F8006085FB085E05FB03F8C8FB045E87
:100B40000EEB060EC0F800E0BDE8F08F2DE9F04F87
:100B50002DED098AC0F2013CB1EC0F4A00F1200EE4
:100B60000CEE10EA0BEE900AD0F82020D0F860309E
:100B7000D0F8A040D0F8E050D0F82061D0F86071F3
:100B8000D0F8A081D0F8E09146F2200014EE10AA2F
:100B90003AFB06FE3AFB16F61EFB1C0E16FB1C0665
:100BA000C6EA2E4ED2FA4EF692FA4EF23AFB07FE03
:100BB0003AFB17F71EFB1C0E17FB1C07C7EA2E4E4D
:100BC000D3FA4EF793FA4EF33AFB08FE3AFB18F8C5
:100BD0001EFB1C0E18FB1C08C8EA2E4ED4FA4EF859
:100BE00094FA4EF43AFB09FE3AFB19F91EFB1C0E6F
:100BF00019FB1C09C9EA2E4ED5FA4EF995FA4EF5A5
:100C000014EE90AA15EE10BA3AFB04FE3AFB14F467
:100C10001EFB1C0E14FB1C04C4EA2E4ED2FA4EF42A
:100C200092FA4EF23AFB05FE3AFB15F51EFB1C0E3E
:100C300015FB1C05C5EA2E4ED3FA4EF593FA4EF37A
:100C40003BFB08FE3BFB18F81EFB1C0E18FB1C08A8
:100C5000C8EA2E4ED6FA4EF896FA4EF63BFB09FE3F
:100C60003BFB19F91EFB1C0E19FB1C09C9EA2E4E91
:100C7000D7FA4EF997FA4EF715EE90AA16EE10BA7B
:100C80003AFB03FE3AFB13F31EFB1C0E13FB1C0383
:100C9000C3EA2E4ED2FA4EF392FA4EF23BFB05FE19
:100CA0003BFB15F51EFB1C0E15FB1C05C5EA2E4E65
:100CB000D4FA4EF594FA4EF416EE90AA17EE10BA46
:100CC0003AFB07FE3AFB17F71EFB1C0E17FB1C072F
:100CD000C7EA2E4ED6FA4EF796FA4EF63BFB09FEC1
:100CE0003BFB19F91EFB1C0E19FB1C09C9EA2E4E11
:100CF000D8FA4EF998FA4EF817EE90AA18EE10BAF4
:100D00003AFB02FE3AFB12F21EFB1C0E12FB1C0207
:100D1000C2EA2E423BFB03FE3BFB13F31EFB1C0E01
:100D200013FB1C03C3EA2E4318EE90AA19EE10BA67
:100D30003AFB04FE3AFB14F41EFB1C0E14FB1C04CD
:100D4000C4EA2E443BFB05FE3BFB15F51EFB1C0EC7
:100D500015FB1C05C5EA2E4519EE90AA1AEE10BA2D
:100D60003AFB06FE3AFB16F61EFB1C0E16FB1C0693
:100D7000C6EA2E463BFB07FE3BFB17F71EFB1C0E8D
:100D800017FB1C07C7EA2E471AEE90AA1BEE10BAF3
:100D90003AFB08FE3AFB18F81EFB1C0E18FB1C0859
:100DA000C8EA2E483BFB09FE3BFB19F91EFB1C0E53
:100DB00019FB1C09C9EA2E4900EE102A00EE903AF0
:100DC00001EE104A01EE905A02EE106A02EE907A9D
:100DD00003EE108A03EE909A1BEE900AD0F80020E2
:100DE000D0F84030D0F88040D0F8C050D0F8006142
:100DF000D0F84071D0F88081D0F8C09146F2200040
:100E000014EE10AA3AFB06FE3AFB16F61EFB1C0E69
:100E100016FB1C06C6EA2E4ED2FA4EF692FA4EF297
:100E20003AFB07FE3AFB17F71EFB1C0E17FB1C07CD
:100E3000C7EA2E4ED3FA4EF793FA4EF33AFB08FE6A
:100E40003AFB18F81EFB1C0E18FB1C08C8EA2E4EB5
:100E5000D4FA4EF894FA4EF43AFB09FE3AFB19F92B
:100E60001EFB1C0E19FB1C09C9EA2E4ED5FA4EF9C1
:100E700095FA4EF514EE90AA15EE10BA3AFB04FE60
:100E80003AFB14F41EFB1C0E14FB1C04C4EA2E4E89
:100E9000D2FA4EF492FA4EF23AFB05FE3AFB15F501
:100EA0001EFB1C0E15FB1C05C5EA2E4ED3FA4EF593
:100EB00093FA4EF33BFB08FE3BFB18F81EFB1C0E9F
:100EC00018FB1C08C8EA2E4ED6FA4EF896FA4EF6D3
:100ED0003BFB09FE3BFB19F91EFB1C0E19FB1C0911
:100EE000C9EA2E4ED7FA4EF997FA4EF715EE90AAA8
:100EF00016EE10BA3AFB03FE3AFB13F31EFB1C0E70
:100F000013FB1C03C3EA2E4ED2FA4EF392FA4EF2B2
:100F10003BFB05FE3BFB15F51EFB1C0E15FB1C05E4
:100F2000C5EA2E4ED4FA4EF594FA4EF416EE90AA77
:100F300017EE10BA3AFB07FE3AFB17F71EFB1C0E22
:100F400017FB1C07C7EA2E4ED6FA4EF796FA4EF656
:100F50003BFB09FE3BFB19F91EFB1C0E19FB1C0990
:100F6000C9EA2E4ED8FA4EF998FA4EF81BEE900ABE
:100F700010EE90AA93FA4AFED3FA4AF3C0F840E082
:100F8000C0F8603011EE90AA95FA4AFED5FA4AF5FB
:100F9000C0F8C0E0C0F8E05012EE90AA97FA4AFEFE
:100FA000D7FA4AF7C0F840E1C0F8607113EE90AA92
:100FB00099FA4AFED9FA4AF9C0F8C0E1C0F8E091BE
:100FC00011EE105A94FA45FED4FA45FAC0F880E0C2
:100FD000C0F8A0A012EE107A96FA47FED6FA47FAA9
:100FE000C0F800E1C0F820A113EE109A98FA49FE6B
:100FF000D8FA49FAC0F880E1C0F8A0A110EE103A82
:1010000092FA43FED2FA43FAC0F820A040F804EB6B
:101010001CEE10EAB0EB0E0F7FF4A4ADA0F120009F
:1010200000F5007E06EE90EA0BEE900AD0F8002064
:10103000D0F80430D0F80840D0F80C50D0F8106048
:10104000D0F81470D0F81880D0F81C9046F2200028
:1010500051F804AB3AFB06FE3AFB16F61EFB1C0EDB
:1010600016FB1C06C6EA2E4ED2FA4EF692FA4EF245
:101070003AFB07FE3AFB17F71EFB1C0E17FB1C077B
:10108000C7EA2E4ED3FA4EF793FA4EF33AFB08FE18
:101090003AFB18F81EFB1C0E18FB1C08C8EA2E4E63
:1010A000D4FA4EF894FA4EF43AFB09FE3AFB19F9D9
:1010B0001EFB1C0E19FB1C09C9EA2E4ED5FA4EF96F
:1010C00095FA4EF5F1E802AB3AFB04FE3AFB14F454
:1010D0001EFB1C0E14FB1C04C4EA2E4ED2FA4EF466
:1010E00092FA4EF23AFB05FE3AFB15F51EFB1C0E7A
:1010F00015FB1C05C5EA2E4ED3FA4EF593FA4EF3B6
:101100003BFB08FE3BFB18F81EFB1C0E18FB1C08E3
:10111000C8EA2E4ED6FA4EF896FA4EF63BFB09FE7A
:101120003BFB19F91EFB1C0E19FB1C09C9EA2E4ECC
:10113000D7FA4EF997FA4EF7F1E802AB3AFB03FE05
:101140003AFB13F31EFB1C0E13FB1C03C3EA2E4ECB
:10115000D2FA4EF392FA4EF23BFB05FE3BFB15F53D
:101160001EFB1C0E15FB1C05C5EA2E4ED4FA4EF5CF
:1011700094FA4EF4F1E802AB3AFB07FE3AFB17F79C
:101180001EFB1C0E17FB1C07C7EA2E4ED6FA4EF7A5
:1011900096FA4EF63BFB09FE3BFB19F91EFB1C0EB3
:1011A00019FB1C09C9EA2E4ED8FA4EF998FA4EF8E6
:1011B0001BEE900AC0F81060C0F81470C0F81880D8
:1011C000C0F81C90C0F80430C0F80840C0F80C50BB
:1011D00040F8202B16EE90EAB0EB0E0F7FF424AF10
:1011E000BDEC098ABDE8F08F2DE9F04F2DED088A9E
:1011F000C0F2013CB1EC0F4A00F5007E04EE10EAAB
:101200000BEE900AD0F82020D0F82430D0F82840F7
:10121000D0F82C50D0F83060D0F83470D0F8388046
:10122000D0F83C9046F2200092FA03FED2FA03F383
:1012300094FA05FBD4FA05F596FA07F2D6FA07F701
:1012400098FA09F4D8FA09F99EFA0BF8DEFA0BFBC2
:1012500092FA04F6D2FA04F415EE10AA3AFB05FE4F
:101260003AFB15F51EFB1C0E15FB1C05C5EA2E4EA0
:10127000D3FA4EF593FA4EF33AFB09FE3AFB19F90D
:101280001EFB1C0E19FB1C09C9EA2E4ED7FA4EF99B
:1012900097FA4EF798FA06F2D8FA06F616EE10AA62
:1012A0003AFB07FE3AFB17F71EFB1C0E17FB1C0749
:1012B000C7EA2E4ED3FA4EF793FA4EF316EE90AAE3
:1012C0003AFB04FE3AFB14F41EFB1C0E14FB1C0438
:1012D000C4EA2E4EDBFA0EF89BFA0EF417EE10AAB3
:1012E0003AFB09FE3AFB19F91EFB1C0E19FB1C09FF
:1012F000C9EA2E4ED5FA4EF995FA4EF518EE10BA07
:101300003BFB03FE3BFB13F31EFB1C0E13FB1C03FA
:10131000C3EA2E4318EE90AA19EE10BA3AFB04FE67
:101320003AFB14F41EFB1C0E14FB1C04C4EA2E44EE
:101330003BFB05FE3BFB15F51EFB1C0E15FB1C05C0
:10134000C5EA2E4519EE90AA1AEE10BA3AFB06FE2F
:101350003AFB16F61EFB1C0E16FB1C06C6EA2E46B2
:101360003BFB07FE3BFB17F71EFB1C0E17FB1C0786
:10137000C7EA2E471AEE90AA1BEE10BA3AFB08FEF7
:101380003AFB18F81EFB1C0E18FB1C08C8EA2E4876
:101390003BFB09FE3BFB19F91EFB1C0E19FB1C094C
:1013A000C9EA2E4900EE102A00EE903A01EE104AEA
:1013B00001EE905A02EE106A02EE907A03EE108A65
:1013C00003EE909A1BEE900AD0F80020D0F804307B
:1013D000D0F80840D0F80C50D0F81060D0F8147055
:1013E000D0F81880D0F81C9046F2200092FA03FE44
:1013F000D2FA03F394FA05FBD4FA05F596FA07F24C
:10140000D6FA07F798FA09F4D8FA09F99EFA0BF810
:10141000DEFA0BFB92FA04F6D2FA04F415EE10AAE7
:101420003AFB05FE3AFB15F51EFB1C0E15FB1C05D1
:10143000C5EA2E4ED3FA4EF593FA4EF33AFB09FE67
:101440003AFB19F91EFB1C0E19FB1C09C9EA2E4EAA
:10145000D7FA4EF997FA4EF798FA06F2D8FA06F646
:1014600016EE10AA3AFB07FE3AFB17F71EFB1C0EFE
:1014700017FB1C07C7EA2E4ED3FA4EF793FA4EF32A
:1014800016EE90AA3AFB04FE3AFB14F41EFB1C0E67
:1014900014FB1C04C4EA2E4EDBFA0EF89BFA0EF481
:1014A00017EE10AA3AFB09FE3AFB19F91EFB1C0EB7
:1014B00019FB1C09C9EA2E4ED5FA4EF995FA4EF5DC
:1014C0001BEE900A10EE90BA93FA4BFED3FA4BF350
:1014D000C0F804E0C0F8243011EE90BA95FA4BFE43
:1014E000D5FA4BF5C0F80CE0C0F82C5012EE90BACB
:1014F00097FA4BFED7FA4BF7C0F814E0C0F83470F7
:1015000013EE90BA99FA4BFED9FA4BF9C0F81CE0E9
:10151000C0F83C9011EE105A94FA45FED4FA45FBFF
:10152000C0F808E0C0F828B012EE107A96FA47FE2C
:10153000D6FA47FBC0F810E0C0F830B013EE109AAE
:1015400098FA49FED8FA49FBC0F818E0C0F838B05C
:1015500010EE103A92FA43FED2FA43FBC0F820B0E4
:1015600040F840EB14EE10EAB0EB0E0F7FF448AEFB
:10157000A0F5007003EE100AD0F80020D0F840303B
:10158000D0F88040D0F8C050D0F80061D0F8407159
:10159000D0F88081D0F8C091B1EC060A46F2200064
:1015A00092FA03FED2FA03F394FA05FBD4FA05F596
:1015B00096FA07F2D6FA07F798FA09F4D8FA09F971
:1015C0009EFA0BF8DEFA0BFB92FA04F6D2FA04F458
:1015D00010EE90AA3AFB05FE3AFB15F51EFB1C0E19
:1015E00015FB1C05C5EA2E4ED3FA4EF593FA4EF3C1
:1015F0003AFB09FE3AFB19F91EFB1C0E19FB1C09EC
:10160000C9EA2E4ED7FA4EF997FA4EF798FA06F233
:10161000D8FA06F611EE90AA3AFB07FE3AFB17F746
:101620001EFB1C0E17FB1C07C7EA2E4ED3FA4EF703
:1016300093FA4EF312EE10AA3AFB04FE3AFB14F4AE
:101640001EFB1C0E14FB1C04C4EA2E4EDBFA0EF823
:101650009BFA0EF412EE90AA3AFB09FE3AFB19F936
:101660001EFB1C0E19FB1C09C9EA2E4ED5FA4EF9B9
:1016700095FA4EF5F1E802AB3AFB02FE3AFB12F2A4
:101680001EFB1C0E12FB1C02C2EA2E423BFB03FE99
:101690003BFB13F31EFB1C0E13FB1C03C3EA2E4380
:1016A000F1E802AB3AFB04FE3AFB14F41EFB1C0EFD
:1016B00014FB1C04C4EA2E443BFB05FE3BFB15F562
:1016C0001EFB1C0E15FB1C05C5EA2E45F1E802ABFE
:1016D0003AFB06FE3AFB16F61EFB1C0E16FB1C061A
:1016E000C6EA2E463BFB07FE3BFB17F71EFB1C0E14
:1016F00017FB1C07C7EA2E47F1E802AB3AFB08FECE
:101700003AFB18F81EFB1C0E18FB1C08C8EA2E48F2
:101710003BFB09FE3BFB19F91EFB1C0E19FB1C09C8
:10172000C9EA2E4913EE100AC0F80061C0F84071F2
:10173000C0F88081C0F8C091C0F84030C0F8804047
:10174000C0F8C05040F8042B00F13C0E07EE10EA40
:1017500003EE100AD0F80020D0F84030D0F88040D6
:10176000D0F8C050D0F80061D0F84071D0F8808136
:10177000D0F8C09146F2200051F804AB3AFB03FECA
:101780003AFB13F31EFB1C0E13FB1C03C3EA2E4E85
:10179000D2FA4EF392FA4EF23AFB05FE3AFB15F5F9
:1017A0001EFB1C0E15FB1C05C5EA2E4ED4FA4EF589
:1017B00094FA4EF43AFB07FE3AFB17F71EFB1C0E99
:1017C00017FB1C07C7EA2E4ED6FA4EF796FA4EF6CE
:1017D0003AFB09FE3AFB19F91EFB1C0E19FB1C090A
:1017E000C9EA2E4ED8FA4EF998FA4EF8F1E802AB53
:1017F0003AFB04FE3AFB14F41EFB1C0E14FB1C0403
:10180000C4EA2E4ED2FA4EF492FA4EF23BFB05FE9B
:101810003BFB15F51EFB1C0E15FB1C05C5EA2E4EE9
:10182000D3FA4EF593FA4EF33AFB08FE3AFB18F85A
:101830001EFB1C0E18FB1C08C8EA2E4ED6FA4EF8EA
:1018400096FA4EF63BFB09FE3BFB19F91EFB1C0EFC
:1018500019FB1C09C9EA2E4ED7FA4EF997FA4EF732
:10186000F1E802AB3AFB06FE3AFB16F61EFB1C0E35
:1018700016FB1C06C6EA2E4ED2FA4EF692FA4EF22D
:101880003BFB07FE3BFB17F71EFB1C0E17FB1C0761
:10189000C7EA2E4ED3FA4EF793FA4EF3F1E802ABB5
:1018A0003AFB08FE3AFB18F81EFB1C0E18FB1C083E
:1018B000C8EA2E4ED4FA4EF894FA4EF43BFB09FED9
:1018C0003BFB19F91EFB1C0E19FB1C09C9EA2E4E25
:1018D000D5FA4EF995FA4EF5F1E802AB3AFB02FE65
:1018E0003AFB12F21EFB1C0E12FB1C02C2EA2E4235
:1018F0003BFB03FE3BFB13F31EFB1C0E13FB1C0305
:10190000C3EA2E43F1E802AB3AFB04FE3AFB14F4BF
:101910001EFB1C0E14FB1C04C4EA2E443BFB05FEFC
:101920003BFB15F51EFB1C0E15FB1C05C5EA2E45E1
:10193000F1E802AB3AFB06FE3AFB16F61EFB1C0E64
:1019400016FB1C06C6EA2E463BFB07FE3BFB17F7C1
:101950001EFB1C0E17FB1C07C7EA2E47F1E802AB63
:101960003AFB08FE3AFB18F81EFB1C0E18FB1C087D
:10197000C8EA2E483BFB09FE3BFB19F91EFB1C0E77
:1019800019FB1C09C9EA2E4913EE100AC0F80061C0
:10199000C0F84071C0F88081C0F8C091C0F84030F4
:1019A000C0F88040C0F8C05040F8042B17EE10EA91
:1019B000B0EB0E0F7FF4CCAEBDEC088ABDE8F08F23
:1019C0002DE9F04F46F2200EC0F2013C02F5807383
:1019D000D1F80870D1F80C80D2F80490D1F80450F6
:1019E00051F8104B52F8086B36FB14FA1AFB1CEA3C
:1019F000C4EA0A04C6F1000636FB15FA1AFB1CEA13
:101A0000C5EA0A05C0F8045040F8084B39FB17FA3C
:101A10001AFB1CEAC7EA0A07C9F1000939FB18FAE0
:101A20001AFB1CEAC8EA0A08C0F8048040F8087BE0
:101A3000B2EB030F7FF4CCAFBDE8F08F2DE9F04F90
:101A400046F2200EC0F2013C4FF6015BCEF2085B7D
:101A500000F5007AD1F8047051F8084BD2F80480F0
:101A600052F8085BD3F8049053F8086B24FB06F691
:101A700006FB0BF616FB3CE624FB15F505FB0BF508
:101A800015FB3CE5C5EA264540F8045B27FB09F653
:101A900006FB0BF616FB3CE627FB18F808FB0BF8D9
:101AA00018FB3CE8C8EA264840F8048BB0EB0A0F64
:101AB0007FF4D0AFBDE8F08F2DE9F0074EF2010CB6
:101AC000C0F27F0C40F2200AD0F80010D0F80420B9
:101AD000D0F80830D0F80C40D0F81050D0F814608E
:101AE000D0F81870D0F81C8001F580095FEAE95938
:101AF00009FB1C1102F580095FEAE95909FB1C2268
:101B000003F580095FEAE95909FB1C3304F58009F4
:101B10005FEAE95909FB1C4405F580095FEAE959C8
:101B200009FB1C5506F580095FEAE95909FB1C66AB
:101B300007F580095FEAE95909FB1C7708F5800978
:101B40005FEAE95909FB1C88C0F80420C0F8083096
:101B5000C0F80C40C0F81050C0F81460C0F81870FD
:101B6000C0F81C8040F8201BBAF1010A7FF4ACAF2A
:101B7000BDE8F007704700BF2DE9F05F43F6ED09BF
:101B8000C0F2550940F2013A40F2200CD0F80010A2
:101B9000D0F80420D0F80830D0F80C40D0F810501D
:101BA000D0F81460D0F81870D0F81C8051FB19FBE5
:101BB0000BFB1A1152FB19FB0BFB1A2253FB19FBEF
:101BC0000BFB1A3354FB19FB0BFB1A4455FB19FB97
:101BD0000BFB1A5556FB19FB0BFB1A6657FB19FB3F
:101BE0000BFB1A7758FB19FB0BFB1A88C0F8042073
:101BF000C0F80830C0F80C40C0F81050C0F81460AD
:101C0000C0F81870C0F81C8040F8201BBCF1010C13
:101C10007FF4BCAFBDE8F09F2DE9F0074EF2010C58
:101C2000C0F27F0C40F2200AD0F80010D0F8042057
:101C3000D0F80830D0F80C40D0F81050D0F814602C
:101C4000D0F81870D0F81C800CEAE17949440CEA0D
:101C5000E2794A440CEAE3794B440CEAE4794C44D7
:101C60000CEAE5794D440CEAE6794E440CEAE77952
:101C70004F440CEAE879C844C0F80420C0F80830A2
:101C8000C0F80C40C0F81050C0F81460C0F81870CC
:101C9000C0F81C8040F8201BBAF1010A7FF4C4AFE1
:101CA000BDE8F007704700BF2DE970004DF8041D36
:101CB0004EF2000CC0F27F0C00EB810602EB030336
:101CC000A3F10203B3EB020F40F30A8052F8035B67
:101CD000C5F316056545D8BF40F8045BB042F1D1A5
:101CE0005DF8045BA6EB0000A5EB9000BDE870007A
:101CF000704700BF0000000000000000000000006E
:101D0000704700BFAFF30080AFF30080AFF30080F7
:101D1000AFF30080AFF30080AFF30080AFF300803B
:101D2000AFF30080AFF30080AFF30080AFF300802B
:101D3000AFF30080AFF30080AFF30080AFF300801B
:101D4000AFF30080AFF30080AFF30080AFF300800B
:101D5000AFF30080AFF30080AFF30080AFF30080FB
:101D6000AFF30080AFF30080AFF30080AFF30080EB
:101D7000AFF30080AFF30080AFF30080AFF30080DB
:101D8000AFF30080AFF30080AFF30080AFF30080CB
:101D9000AFF30080AFF30080AFF30080AFF30080BB
:101DA000AFF30080AFF30080AFF30080AFF30080AB
:101DB000AFF30080AFF30080AFF30080AFF300809B
:101DC000AFF30080AFF30080AFF30080AFF300808B
:101DD000AFF30080AFF30080AFF30080AFF300807B
:101DE000AFF30080AFF30080AFF30080AFF300806B
:101DF000AFF30080AFF30080AFF30080AFF300805B
:101E000003B32DE9F04122F00704001912F0070294
:101E10000BD01C00C2F10805AC4200DD2C00A3EB86
:101E20000408230000F0ECF84346DA0804D0984692
:101E300000F066F808F0070313B1002200F0E0F8A4
:101E4000BDE8F081704700BFAFF30080AFF30080C2
:101E5000AFF30080AFF30080AFF30080AFF30080FA
:101E6000AFF30080AFF30080AFF30080AFF30080EA
:101E7000AFF30080AFF30080AFF30080AFF30080DA
:101E8000AFF30080AFF30080AFF30080AFF30080CA
:101E9000AFF30080AFF30080AFF30080AFF30080BA
:101EA000AFF30080AFF30080AFF30080AFF30080AA
:101EB000AFF30080AFF30080AFF30080AFF300809A
:101EC000AFF30080AFF30080AFF30080AFF300808A
:101ED000AFF30080AFF30080AFF30080AFF300807A
:101EE000AFF30080AFF30080AFF30080AFF300806A
:101EF000AFF30080AFF30080AFF30080AFF300805A
:101F000051F8044B51F8045BD0E9006704F05533F5
:101F100043EA530303F0333343EA930303F00F33ED
:101F200043EA131303F0FF1363F30F2386EA132628
:101F300005F0553343EA530303F0333343EA930385
:101F400003F00F3343EA131303F0FF1343EA1323A1
:101F500086EA034604F0AA3343EA430303F0CC3392
:101F600043EA830303F0F03343EA031303F0FF2350
:101F700043EA032387EA134705F0AA3343EA4303FE
:101F800003F0CC3343EA830303F0F03343EA031353
:101F900003F0FF2343EA03236FF30F035F40E0E8FE
:101FA0000267013AACD17047AFF30080AFF3008015
:101FB000AFF30080AFF30080AFF30080AFF3008099
:101FC000AFF30080AFF30080AFF30080AFF3008089
:101FD000AFF30080AFF30080AFF30080AFF3008079
:101FE000AFF30080AFF30080AFF30080AFF3008069
:101FF000AFF30080AFF30080AFF30080AFF3008059
:102000000024002530B46A4411F8015B02F8015B3A
:10201000013BF9D130BCD0E9006704F0553343EA05
:10202000530303F0333343EA930303F00F3343EADC
:10203000131303F0FF1363F30F2386EA132605F04F
:10204000553343EA530303F0333343EA930303F076
:102050000F3343EA131303F0FF1343EA132386EA13
:10206000034604F0AA3343EA430303F0CC3343EAC4
:10207000830303F0F03343EA031303F0FF2343EA3F
:10208000032387EA134705F0AA3343EA430303F027
:10209000CC3343EA830303F0F03343EA031303F042
:1020A000FF2343EA03236FF30F035F40E0E8026777
:1020B000704700BFAFF30080AFF30080AFF3008044
:1020C000AFF30080AFF30080AFF30080AFF3008088
:1020D000AFF30080AFF30080AFF30080AFF3008078
:1020E000AFF30080AFF30080AFF30080AFF3008068
:1020F000AFF30080AFF30080AFF30080AFF3008058
:1021000003B32DE9F04122F00704001912F0070291
:102110000BD01C00C2F10805AC4200DD2C00A3EB83
:102120000408230000F0ECF84346DA0804D098468F
:1021300000F066F808F0070313B1002200F0E0F8A1
:10214000BDE8F081704700BFAFF30080AFF30080BF
:10215000AFF30080AFF30080AFF30080AFF30080F7
:10216000AFF30080AFF30080AFF30080AFF30080E7
:10217000AFF30080AFF30080AFF30080AFF30080D7
:10218000AFF30080AFF30080AFF30080AFF30080C7
:10219000AFF30080AFF30080AFF30080AFF30080B7
:1021A000AFF30080AFF30080AFF30080AFF30080A7
:1021B000AFF30080AFF30080AFF30080AFF3008097
:1021C000AFF30080AFF30080AFF30080AFF3008087
:1021D000AFF30080AFF30080AFF30080AFF3008077
:1021E000AFF30080AFF30080AFF30080AFF3008067
:1021F000AFF30080AFF30080AFF30080AFF3008057
:10220000F0E80245230065F31F446FF30F0545EA2C
:10221000134584EA142303F47F435C4084EA0324D7
:1022200084EA141303F0F0135C4084EA031484EA94
:10223000940303F00C335C4084EA830484EA54037F
:1022400003F022335C4084EA430485EA152303F457
:102250007F435D4085EA032585EA151303F0F013FB
:102260005D4085EA031585EA950303F00C335D4074
:1022700085EA830585EA550303F022335D4085EA4C
:10228000430541F8044B013A41F8045BB8D170476B
:10229000AFF30080AFF30080AFF30080AFF30080B6
:1022A000AFF30080AFF30080AFF30080AFF30080A6
:1022B000AFF30080AFF30080AFF30080AFF3008096
:1022C000AFF30080AFF30080AFF30080AFF3008086
:1022D000AFF30080AFF30080AFF30080AFF3008076
:1022E000AFF30080AFF30080AFF30080AFF3008066
:1022F000AFF30080AFF30080AFF30080AFF3008056
:10230000F0E80245260065F31F446FF30F0545EA28
:10231000164584EA142606F47F46744084EA0624AF
:1023200084EA141606F0F016744084EA061484EA6F
:10233000940606F00C36744084EA860484EA540657
:1023400006F02236744084EA460485EA152606F42F
:102350007F46754085EA062585EA151606F0F016D3
:10236000754085EA061585EA950606F00C36754037
:1023700085EA860585EA550606F02236754085EA27
:10238000460530B46A4412F8014B013B01F8014B99
:10239000F9D102B0704700BFAFF30080AFF3008007
:1023A000AFF30080AFF30080AFF30080AFF30080A5
:1023B000AFF30080AFF30080AFF30080AFF3008095
:1023C000AFF30080AFF30080AFF30080AFF3008085
:1023D000AFF30080AFF30080AFF30080AFF3008075
:1023E000AFF30080AFF30080AFF30080AFF3008065
:1023F000AFF30080AFF30080AFF30080AFF3008055
:102400000100000000000000000000008900000042
:10241000000000008B000080000000008080008031
:10242000010000008B00000001000000008000009F
:102430000100000088800080010000008200008010
:10244000000000000B000000000000000A00000077
:1024500001000000828000000000000003800000F6
:10246000010000008B800000010000000B000080D4
:10247000010000008A00008001000000810000804F
:1024800000000000810000800000000008000080C3
:1024900000000000830000000000000003800080B6
:1024A000010000008880008000000000880000809B
:1024B0000100000000800000000000008280008019
:1024C000FF000000AFF30080AFF30080AFF30080A7
:1024D000AFF30080AFF30080AFF30080AFF3008074
:1024E000AFF30080AFF30080AFF30080AFF3008064
:1024F000AFF30080AFF30080AFF30080AFF3008054
:10250000AFF204112DE9F05F86B00591D0F82030CC
:10251000D0F84810D0F87050D0F898B0D0F8C0C0BB
:1025200083EA010383EA050383EA0B0383EA0C03CE
:10253000D0F80C70D0F83410D0F85C50D0F884B0DB
:10254000D0F8ACC087EA010787EA050787EA0B07DE
:1025500087EA0C0783EAF776D0F81440D0F83C10ED
:10256000D0F86450D0F88CB0D0F8B4C0CDF800608A
:1025700084EA010484EA050484EA0B0484EA0C0476
:1025800083EA0406D0F81830D0F84010D0F868502C
:10259000D0F890B0D0F8B8C0CDF80C6083EA010351
:1025A00083EA050383EA0B0383EA0C0387EA030249
:1025B000D0F80070D0F82810D0F85050D0F878B08B
:1025C000D0F8A0C087EA010787EA050787EA0B076A
:1025D00087EA0C0787EAF47AD0F81C40D0F8441058
:1025E000D0F86C50D0F894B0D0F8BCC084EA0104A4
:1025F00084EA050484EA0B0484EA0C0484EA070EE6
:10260000D0F80870D0F83010D0F85850D0F880B01A
:10261000D0F8A8C087EA010787EA050787EA0B0711
:1026200087EA0C0787EAF476D0F82440D0F84C10FB
:10263000D0F87450D0F89CB0D0F8C4C0CDF8106079
:1026400084EA010484EA050484EA0B0484EA0C04A5
:1026500084EA0708D0F81070D0F83810D0F860502D
:10266000D0F888B0D0F8B0C0CDF8048087EA010770
:1026700087EA050787EA0B0787EA0C0787EAF479F8
:10268000D0F80440D0F82C10D0F85450D0F87CB0DA
:10269000D0F8A4C0CDF8089084EA010484EA0504C7
:1026A00084EA0B0484EA0C0484EA070B83EAF47CD2
:1026B000D0F81830D0F84840D0F85450D0F88460A2
:1026C000D0F8B470C0F8541089EA03038CEA04040B
:1026D00088EA05058BEA060682EA070725EA3461DF
:1026E00081EA3351C0F8541026EA755181EA7431F9
:1026F000C0F8841027EA362181EA7571C0F8B41059
:1027000023EAF73181EAF651C0F8181024EA337150
:1027100081EAF721D0F80830D0F83C40D0F8685072
:10272000D0F89C60D0F8A470C0F848108AEA03037F
:1027300082EA040489EA05058EEA060688EA0707A4
:1027400025EA742181EA3331C0F8A41026EA356104
:1027500081EA7401C0F8081027EA761181EA7571E0
:10276000C0F83C1023EAF75181EA3671C0F86810CE
:1027700024EAF30181EAB761DDF80080D0F8243063
:10278000D0F82840D0F85850D0F88C60D0F8B87005
:10279000C0F89C108EEA030388EA04048AEA05055F
:1027A00082EA060689EA070725EAF44181EAF3513D
:1027B000C0F8281026EAF50181EAB451C0F8581093
:1027C00027EA365181EAF551C0F88C1023EAB74167
:1027D00081EAB611C0F8B81024EA331181EAB75182
:1027E000D0F81430D0F84040D0F87050D0F878606D
:1027F000D0F8AC70C0F8241082EA030389EA04041C
:102800008CEA050588EA06068BEA070725EA3461A3
:1028100081EA3351C0F8781026EA750181EA7461C3
:10282000C0F8AC1027EA763181EAB531C0F814104F
:1028300023EAB77181EAF621C0F8401024EA337127
:1028400081EAB761DDF80C90D0F80030046B456E7A
:10285000D0F89460D0F8C070C0F8701088EA030314
:102860008AEA040482EA050589EA06068CEA070773
:1028700026EA755181EA7451C0F8301027EA3671A2
:1028800081EA7541C0F8641023EA776181EA7651E4
:10289000C0F8941024EAB35181EAF731C0F8C010AF
:1028A00025EA040505990C6883EAB52384EA030147
:1028B000DDF81020D0F81C30D0F84C40D0F8505043
:1028C000D0F88060D0F8B070C0F8001089EA030337
:1028D0008EEA040488EA05058AEA060682EA070702
:1028E00025EAF45181EAF341C0F8501026EA755107
:1028F00081EA3431C0F8801027EA362181EA757107
:10290000C0F8B01023EA374181EA3661C0F81C10E4
:1029100024EA337181EA3731D0F80C30D0F83840EE
:10292000D0F86C50D0F89860D0F8A070C0F84C1077
:102930008BEA030382EA040489EA05058CEA0606A9
:1029400088EA070725EAB42181EA3331C0F8A010EC
:1029500026EAF55181EA7401C0F80C1027EA7611D5
:1029600081EA3571C0F8381023EA376181EA76715F
:10297000C0F86C1024EAB30181EAB761DDF8048085
:10298000D0F82030D0F82C40D0F85C50D0F88860D7
:10299000D0F8BC70C0F898108CEA030388EA0404ED
:1029A0008BEA050582EA060689EA070725EAF4416B
:1029B00081EA3361C0F82C1026EAB50181EA74512E
:1029C000C0F85C1027EA765181EAF551C0F888100A
:1029D00023EA774181EAB611C0F8BC1024EA7311EA
:1029E00081EAB751D0F81030D0F84440D0F8745094
:1029F000D0F87C60D0F8A870C0F8201082EA0303F9
:102A000089EA04048EEA050588EA06068AEA0707C9
:102A100025EA346181EA7351C0F87C1026EA750119
:102A200081EA7461C0F8A81027EA363181EA75316D
:102A3000C0F8101023EAB77181EAB621C0F844103B
:102A400024EA737181EAF761DDF80890D0F8043068
:102A5000446B056ED0F89060D0F8C470C0F8741064
:102A600088EA03038BEA040482EA050589EA06067C
:102A70008EEA070726EA755181EA3451C0F834100E
:102A800027EA767181EAB541C0F8601023EA7761E0
:102A900081EAB651C0F8901024EAB35181EAF731C7
:102AA000C0F8C41025EAF47505994C6883EAF5234B
:102AB00084EA030ED0F8C030D0F84810D0F898500F
:102AC000D0F824B0D0F874C0C0F804E083EA313301
:102AD00083EAF54383EA3B1383EABC63D0F834709E
:102AE000D0F88010D0F80850D0F85CB0D0F8ACC066
:102AF00087EA315787EAB51787EAFB0787EABC57A9
:102B00004FEAB32383EA7756D0F86040D0F8B0108C
:102B1000D0F83C50D0F888B0D0F814C0CDF80060A0
:102B200084EA712484EAB57484EAFB2484EABC1440
:102B300083EA7466D0F89430D0F81810D0F86C504E
:102B4000D0F8B8B0D0F844C0CDF80C6083EAB143F7
:102B500083EAF57383EABB4383EA7C0383EAB752D3
:102B6000D0F80070D0F85410D0F8A050D0F828B0A9
:102B7000D0F87CC087EAB17787EAF54787EAFB6738
:102B800087EA3C3787EA346AD0F89040D0F81C10C6
:102B9000D0F86850D0F8BCB0D0F840C084EAB14456
:102BA00084EA050484EAFB4484EA7C0484EA070E90
:102BB000D0F83070D0F88410D0F80C50D0F858B05D
:102BC000D0F8A8C087EA315787EAF51787EAFB07EC
:102BD00087EABC574FEA775787EAF476D0F8C440C3
:102BE000D0F84C10D0F89C50D0F820B0D0F870C07D
:102BF000CDF8106084EA313484EAF54484EA3B1469
:102C000084EAFC6487EAB428D0F86470D0F8B41081
:102C1000D0F83850D0F88CB0D0F810C0CDF804807F
:102C200087EA312787EAB57787EAFB2787EABC1767
:102C30004FEA776787EA7429D0F80440D0F850103B
:102C4000D0F8A450D0F82CB0D0F878C0CDF80890C7
:102C500084EAF17484EA355484EAFB6484EA7C34BF
:102C600084EA070B83EAF47CD0F89430D0F848402B
:102C7000D0F8A450D0F85C60D0F81470C0F8A4105C
:102C800089EA03038CEAB45488EA35558BEA766600
:102C900082EAF77725EA346181EA3351C0F8A4105B
:102CA00026EA755181EA7431C0F85C1027EA3621B2
:102CB00081EA7571C0F8141023EAF73181EAF65100
:102CC000C0F8941024EA337181EAF721D0F830304B
:102CD000D0F8B040D0F86C50D0F82060D0F87870C0
:102CE000C0F848108AEA735382EAB40489EAF57599
:102CF0008EEAB63688EA773725EA742181EA3331DD
:102D0000C0F8781026EA356181EA7401C0F8301005
:102D100027EA761181EA7571C0F8B01023EAF751FD
:102D200081EA3671C0F86C1024EAF30181EAB761D8
:102D3000DDF80080D0F8C430D0F85440D0F80C5002
:102D4000D0F88860D0F84470C0F820108EEAB32321
:102D500088EAB4748AEA357582EA361689EA770712
:102D600025EAF44181EAF351C0F8541026EAF5014E
:102D700081EAB451C0F80C1027EA365181EAF551C6
:102D8000C0F8881023EAB74181EAB611C0F84410B0
:102D900024EA331181EAB751D0F86030D0F81840F6
:102DA000D0F89850D0F82860D0F8AC70C0F8C410B3
:102DB00082EA736389EAB4448CEA757588EAF66638
:102DC0008BEA373725EA346181EA3351C0F828109D
:102DD00026EA750181EA7461C0F8AC1027EA763101
:102DE00081EAB531C0F8601023EAB77181EAF621B3
:102DF000C0F8181024EA337181EAB761DDF80C904D
:102E0000D0F80030D0F88440C56BD0F8BC60476F74
:102E1000C0F8981088EA03038AEA742482EAF55518
:102E200089EAF6468CEA371726EA755181EA745129
:102E3000C0F8841027EA367181EA7541C0F83C1069
:102E400023EA776181EA7651C0F8BC1024EAB351D5
:102E500081EAF731C0F8741025EA040505998C68F9
:102E600083EAB52384EA0301DDF81020D0F890301E
:102E7000D0F84C40D0F8A050D0F85860D0F810707E
:102E8000C0F8001089EA03038EEAB45488EAF545D5
:102E90008AEA366682EAF77725EAF45181EAF34155
:102EA000C0F8A01026EA755181EA3431C0F85810F4
:102EB00027EA362181EA7571C0F8101023EA3741FC
:102EC00081EA3661C0F8901024EA337181EA373123
:102ED000D0F83430D0F8B440D0F86850D0F824603E
:102EE000D0F87C70C0F84C108BEAB35382EA7404BB
:102EF00089EA05058CEAB63688EA373725EAB4212F
:102F000081EA3331C0F87C1026EAF55181EA740178
:102F1000C0F8341027EA761181EA3571C0F8B41090
:102F200023EA376181EA7671C0F8681024EAB301B8
:102F300081EAB761DDF80480D0F8C030D0F85040A5
:102F4000D0F80850D0F88C60D0F84070C0F8241049
:102F50008CEAB32388EAF4748BEA357582EA361674
:102F600089EA770725EAF44181EA3361C0F8501015
:102F700026EAB50181EA7451C0F8081027EA7651B3
:102F800081EAF551C0F88C1023EA774181EAB61145
:102F9000C0F8401024EA731181EAB751D0F86430C8
:102FA000D0F81C40D0F89C50D0F82C60D0F8A87015
:102FB000C0F8C01082EA736389EAB4448EEA75757A
:102FC00088EAF6668AEAF72725EA346181EA7351CE
:102FD000C0F82C1026EA750181EA7461C0F8A810C7
:102FE00027EA363181EA7531C0F8641023EAB771F7
:102FF00081EAB621C0F81C1024EA737181EAF761F6
:10300000DDF80890D0F80430D0F88040856BD0F817
:10301000B860076FC0F89C1088EA03038BEAB424F9
:1030200082EAF55589EAB6468EEA771726EA75519F
:1030300081EA3451C0F8801027EA767181EAB541FF
:10304000C0F8381023EA776181EAB651C0F8B810A9
:1030500024EAB35181EAF731C0F8701025EAF4751B
:103060000599CC6883EAF52384EA030ED0F874301E
:10307000D0F84810D0F82450D0F8C4B0D0F89CC094
:10308000C0F804E083EA313383EAF54383EA3B1373
:1030900083EABC63D0F88070D0F85810D0F8305074
:1030A000D0F808B0D0F8ACC087EA315787EAB51736
:1030B00087EAFB0787EABC574FEAB32383EA7756D0
:1030C000D0F83840D0F81010D0F8B050D0F88CB00C
:1030D000D0F860C0CDF8006084EA712484EAB57449
:1030E00084EAFB2484EABC1483EA7466D0F8BC301A
:1030F000D0F89410D0F86850D0F844B0D0F81CC084
:10310000CDF80C6083EAB14383EAF57383EABB43ED
:1031100083EA7C0383EAB752D0F80070D0F8A41099
:10312000D0F87C50D0F854B0D0F82CC087EAB177F2
:1031300087EAF54787EAFB6787EA3C3787EA346A1C
:10314000D0F8B840D0F89010D0F86C50D0F840B01B
:10315000D0F818C084EAB14484EA050484EAFB4448
:1031600084EA7C0484EA070ED0F88470D0F85C10FE
:10317000D0F83450D0F80CB0D0F8A8C087EA315756
:1031800087EAF51787EAFB0787EABC574FEA7757C4
:1031900087EAF476D0F87040D0F84C10D0F8205080
:1031A000D0F8C0B0D0F898C0CDF8106084EA3134BF
:1031B00084EAF54484EA3B1484EAFC6487EAB42890
:1031C000D0F83C70D0F81410D0F8B450D0F888B0D3
:1031D000D0F864C0CDF8048087EA312787EAB57754
:1031E00087EAFB2787EABC174FEA776787EA7429E3
:1031F000D0F80440D0F8A010D0F87850D0F850B0F3
:10320000D0F828C0CDF8089084EAF17484EA3554E7
:1032100084EAFB6484EA7C3484EA070B83EAF47C66
:10322000D0F8BC30D0F84840D0F87850D0F80860DA
:10323000D0F86070C0F8781089EA03038CEAB454BF
:1032400088EA35558BEA766682EAF77725EA3461B3
:1032500081EA3351C0F8781026EA755181EA743159
:10326000C0F8081027EA362181EA7571C0F86010AD
:1032700023EAF73181EAF651C0F8BC1024EA337131
:1032800081EAF721D0F88430D0F81040D0F86850A7
:10329000D0F8C060D0F82870C0F848108AEA73539C
:1032A00082EAB40489EAF5758EEAB63688EA773799
:1032B00025EA742181EA3331C0F8281026EA356105
:1032C00081EA7401C0F8841027EA761181EA7571E9
:1032D000C0F8101023EAF75181EA3671C0F868107F
:1032E00024EAF30181EAB761DDF80080D0F870309C
:1032F000D0F8A440D0F83450D0F88C60D0F81C70CE
:10330000C0F8C0108EEAB32388EAB4748AEA35752F
:1033100082EA361689EA770725EAF44181EAF35111
:10332000C0F8A41026EAF50181EAB451C0F83410BF
:1033300027EA365181EAF551C0F88C1023EAB741EB
:1033400081EAB611C0F81C1024EA331181EAB751A2
:10335000D0F83830D0F89440D0F82450D0F85460E9
:10336000D0F8AC70C0F8701082EA736389EAB44494
:103370008CEA757588EAF6668BEA373725EA346198
:1033800081EA3351C0F8541026EA750181EA74616C
:10339000C0F8AC1027EA763181EAB531C0F83810B0
:1033A00023EAB77181EAF621C0F8941024EA337158
:1033B00081EAB761DDF80C90D0F80030C46DD0F828
:1033C000B050066CD0F89C70C0F8241088EA030353
:1033D0008AEA742482EAF55589EAF6468CEA3717B8
:1033E00026EA755181EA7451C0F85C1027EA3671FB
:1033F00081EA7541C0F8B01023EA776181EA76511D
:10340000C0F8401024EAB35181EAF731C0F89C10AB
:1034100025EA040505990C6983EAB52384EA0301CA
:10342000DDF81020D0F8B830D0F84C40D0F87C50FF
:10343000D0F80C60D0F86470C0F8001089EA03037B
:103440008EEAB45488EAF5458AEA366682EAF77766
:1034500025EAF45181EAF341C0F87C1026EA75515F
:1034600081EA3431C0F80C1027EA362181EA7571FF
:10347000C0F8641023EA374181EA3661C0F8B81019
:1034800024EA337181EA3731D0F88030D0F8144023
:10349000D0F86C50D0F8C460D0F82C70C0F84C1044
:1034A0008BEAB35382EA740489EA05058CEAB636DE
:1034B00088EA373725EAB42181EA3331C0F82C1085
:1034C00026EAF55181EA7401C0F8801027EA7611E6
:1034D00081EA3571C0F8141023EA376181EA767108
:1034E000C0F86C1024EAB30181EAB761DDF804800A
:1034F000D0F87430D0F8A040D0F83050D0F88860C0
:10350000D0F81870C0F8C4108CEAB32388EAF474B9
:103510008BEA357582EA361689EA770725EAF4419F
:1035200081EA3361C0F8A01026EAB50181EA74513E
:10353000C0F8301027EA765181EAF551C0F88810BA
:1035400023EA774181EAB611C0F8181024EA731112
:1035500081EAB751D0F83C30D0F89040D0F82050F4
:10356000D0F85060D0F8A870C0F8741082EA736385
:1035700089EAB4448EEA757588EAF6668AEAF7271E
:1035800025EA346181EA7351C0F8501026EA7501CA
:1035900081EA7461C0F8A81027EA363181EA7531F2
:1035A000C0F83C1023EAB77181EAB621C0F8901048
:1035B00024EA737181EAF761DDF80890D0F80430ED
:1035C000846DD0F8B450466CD0F89870C0F82010D4
:1035D00088EA03038BEAB42482EAF55589EAB64601
:1035E0008EEA771726EA755181EA3451C0F85810EF
:1035F00027EA767181EAB541C0F8B41023EA776111
:1036000081EAB651C0F8441024EAB35181EAF73197
:10361000C0F8981025EAF47505994C6983EAF523FA
:1036200084EA030ED0F89C30D0F84810D0F8C4508B
:10363000D0F870B0D0F820C0C0F804E083EA31338D
:1036400083EAF54383EA3B1383EABC63D0F85870FE
:10365000D0F80C10D0F88450D0F830B0D0F8ACC00E
:1036600087EA315787EAB51787EAFB0787EABC572D
:103670004FEAB32383EA7756D0F8B440D0F8641009
:10368000D0F81050D0F888B0D0F838C0CDF800602D
:1036900084EA712484EAB57484EAFB2484EABC14C5
:1036A00083EA7466D0F84030D0F8BC10D0F86C5083
:1036B000D0F81CB0D0F890C0CDF80C6083EAB143CC
:1036C00083EAF57383EABB4383EA7C0383EAB75258
:1036D000D0F80070D0F87810D0F82C50D0F8A4B002
:1036E000D0F850C087EAB17787EAF54787EAFB67E9
:1036F00087EA3C3787EA346AD0F84440D0F8B810FB
:10370000D0F86850D0F818B0D0F894C084EAB1442A
:1037100084EA050484EAFB4484EA7C0484EA070E14
:10372000D0F85C70D0F80810D0F88050D0F834B0E1
:10373000D0F8A8C087EA315787EAF51787EAFB0770
:1037400087EABC574FEA775787EAF476D0F8984073
:10375000D0F84C10D0F8C050D0F874B0D0F824C0D5
:10376000CDF8106084EA313484EAF54484EA3B14ED
:1037700084EAFC6487EAB428D0F8B070D0F860100E
:10378000D0F81450D0F88CB0D0F83CC0CDF80480FC
:1037900087EA312787EAB57787EAFB2787EABC17EC
:1037A0004FEA776787EA7429D0F80440D0F87C1094
:1037B000D0F82850D0F8A0B0D0F854C0CDF8089078
:1037C00084EAF17484EA355484EAFB6484EA7C3444
:1037D00084EA070B83EAF47CD0F84030D0F8484004
:1037E000D0F82850D0F83060D0F83870C0F82810E1
:1037F00089EA03038CEAB45488EA35558BEA766685
:1038000082EAF77725EA346181EA33514FEAB171F0
:10381000C0F8281026EA755181EA74314FEA712107
:10382000C0F8301027EA362181EA75714FEA71013C
:10383000C0F8381023EAF73181EAF6514FEAB14176
:10384000C0F8401024EA337181EAF7214FEAB15100
:10385000D0F85C30D0F86440D0F86C50D0F8746088
:10386000D0F85470C0F848108AEA735382EAB4045E
:1038700089EAF5758EEAB63688EA773725EA742143
:1038800081EA33314FEA3151C0F8541026EA3561EC
:1038900081EA74014FEA3171C0F85C1027EA7611B1
:1038A00081EA75714FEAF151C0F8641023EAF751CB
:1038B00081EA3671C0F86C1024EAF30181EAB7613D
:1038C0004FEA7171DDF80080D0F89830D0F8784078
:1038D000D0F88050D0F88860D0F89070C0F874109C
:1038E0008EEAB32388EAB4748AEA357582EA36161A
:1038F00089EA770725EAF44181EAF3514FEAF16159
:10390000C0F8781026EAF50181EAB4514FEA316136
:10391000C0F8801027EA365181EAF5514FEA31119B
:10392000C0F8881023EAB74181EAB6114FEAB141E5
:10393000C0F8901024EA331181EAB7514FEAB1314F
:10394000D0F8B430D0F8BC40D0F8C450D0F8A4605F
:10395000D0F8AC70C0F8981082EA736389EAB44476
:103960008CEA757588EAF6668BEA373725EA3461A2
:1039700081EA33514FEA7131C0F8A41026EA75018B
:1039800081EA74614FEA3131C0F8AC1027EA763130
:1039900081EAB5314FEAF171C0F8B41023EAB7718A
:1039A00081EAF6214FEA7101C0F8BC1024EA3371B4
:1039B00081EAB7614FEA7111DDF80C90D0F8003060
:1039C000846805698669076AC0F8C41088EA030339
:1039D0008AEA742482EAF55589EAF6468CEA3717B2
:1039E00026EA755181EA74514FEA7151C0F8081006
:1039F00027EA367181EA75414FEA7161C0F810100B
:103A000023EA776181EA7651C0F8181024EAB351AD
:103A100081EAF7314FEAB121C0F8201025EA040508
:103A200005998C6983EAB52384EA0301DDF8102047
:103A3000D0F84430D0F84C40D0F82C50D0F8346056
:103A4000D0F83C70C0F8001089EA03038EEAB45441
:103A500088EAF5458AEA366682EAF77725EAF4517C
:103A600081EAF3414FEAF171C0F82C1026EA755152
:103A700081EA34314FEAB121C0F8341027EA362107
:103A800081EA75714FEAB101C0F83C1023EA374171
:103A900081EA36614FEAB141C0F8441024EA33713B
:103AA00081EA37314FEAB151D0F85830D0F8604050
:103AB000D0F86850D0F87060D0F85070C0F84C1052
:103AC0008BEAB35382EA740489EA05058CEAB636B8
:103AD00088EA373725EAB42181EA33314FEAF141E8
:103AE000C0F8501026EAF55181EA74014FEA3171AD
:103AF000C0F8581027EA761181EA35714FEAF15182
:103B0000C0F8601023EA376181EA76714FEAF171FB
:103B1000C0F8681024EAB30181EAB7614FEA717115
:103B2000DDF80480D0F89C30D0F87C40D0F8845088
:103B3000D0F88C60D0F89470C0F870108CEAB32381
:103B400088EAF4748BEA357582EA361689EA7707D3
:103B500025EAF44181EA33614FEAF161C0F87C1053
:103B600026EAB50181EA74514FEA7161C0F8841008
:103B700027EA765181EAF5514FEA3111C0F88C10ED
:103B800023EA774181EAB6114FEAF141C0F8941077
:103B900024EA731181EAB7514FEAB131D0F8B0305D
:103BA000D0F8B840D0F8C050D0F8A060D0F8A870D5
:103BB000C0F89C1082EA736389EAB4448EEA757592
:103BC00088EAF6668AEAF72725EA346181EA7351C2
:103BD0004FEA3131C0F8A01026EA750181EA74611C
:103BE0004FEAF121C0F8A81027EA363181EA753191
:103BF0004FEAF171C0F8B01023EAB77181EAB6213B
:103C00004FEA7101C0F8B81024EA737181EAF761D4
:103C10004FEA3111DDF80890D0F80430C4684569E6
:103C2000C669476AC0F8C01088EA03038BEAB42467
:103C300082EAF55589EAB6468EEA771726EA755183
:103C400081EA34514FEAB151C0F80C1027EA76717D
:103C500081EAB5414FEA7161C0F8141023EA776137
:103C600081EAB651C0F81C1024EAB35181EAF73159
:103C70004FEAB121C0F8241025EAF4750599CC6902
:103C800051F8207F0591FF2F83EAF52384EA030191
:103C9000C0F804107EF43AAC06B0BDE8F09F00BF57
:103CA00008B500F0ABFA00F0EDF800F0EFF800F026
:103CB000EBF800F0EDF8BDE8084000F0EBB800BF0D
:103CC000074A13682BB10748074A036000211160B7
:103CD00070470649064B074813600860F3E700BFCA
:103CE0000C0000200400002000000020080000203C
:103CF000A82B0020A86B00201D4AD2F800C010B5E8
:103D00000346BCF1000F1CD0DFF878E0194ADEF85A
:103D100000001168073323F00703C2188A4224D831
:103D2000CEF800202BB10346002103F8011B9A4274
:103D3000FBD1114B1968A2EB0C02914200D21A6020
:103D400010BD0E4C0B480E49146007330A4A01603F
:103D500023F007032046C2F800C0DFF828E0C218AD
:103D60008A42A446CEF80040DAD9002010BD00BF38
:103D70000C0000200800002000000020A82B0020DC
:103D8000A86B002004000020014B1868704700BF9A
:103D900000000020094A13681BB1094A1068C01AC4
:103DA000704710B407491160074A0848044C116075
:103DB000074A20601360401A10BC70470C000020B6
:103DC00008000020A82B002004000020A86B002081
:103DD00000000020014B0248C01A70471C00000878
:103DE00008950008084B094A93420BD2013AD21AAF
:103DF00022F00302043206481A441946043393425F
:103E00000860FAD1704700BFA86B002000000220B4
:103E1000EFBEADDE82B06B4601930199054B99422E
:103E200005D905481A46043399421060FAD802B001
:103E3000704700BFA86B0020EFBEADDE0648074A02
:103E4000904207D2064902E00430904202D2036851
:103E50008B42F9D0101A7047A86B00200000022096
:103E6000EFBEADDE014B0248C01A704700000020D3
:103E7000A82B0020014B0248C01A7047A86B0020F5
:103E800000000220704700BF704700BF704700BFAE
:103E9000704700BF704700BF2DE9F04FC24D91B091
:103EA0000446FFF7B7FFFFF70BFF2B78A34205D0BF
:103EB000BE4811B0BDE8F04F00F080BA0A2B00F008
:103EC0006481092B00F06581072B02D00B2B00F0D9
:103ED000648140F674144FF420664FF4A460FFF739
:103EE0000BFF039007463046FFF706FF0490064697
:103EF0002046FFF701FF0590002F00F04081002EC3
:103F000000F03D81002800F03A81A94BA948002427
:103F1000CDE90E4300F052FA686800F04FFAA64867
:103F200000F04CFAAB680A93EB680B932B690C9387
:103F30003223CDE907440693A246A046099407E040
:103F40001B191C46069B4AF1000A013B069353D0FD
:103F500000F068FB0A9B0646DDE90301984700F084
:103F600061FB864288BF00F1FF10079B88BF00F508
:103F70007F40861BF618089B43F1000BCDE9076BC9
:103F800000F050FB049B0B9F00930EA905460423F1
:103F90000FAA0598B84700F045FB854284BF00F1A1
:103FA000FF1000F57F40099B451B15EB080243F10C
:103FB00000090D929046CDF8249000F033FB039B4E
:103FC0000E990093074604230FAA05980C9DA84755
:103FD00000F028FB8742A0EB070300F1FF1000F57B
:103FE0007F40A0EB0700ABD9069B00194AF1000AFD
:103FF000013B04460693ABD170480D9D704FDFF82E
:10400000F88100F0DBF9320D42EA0B32C2F3130102
:10401000C6F313020A44CBF313210A4402EB1B72CA
:10402000A7FB0201C90801EB810101EB8101521AD2
:10403000B21A644E6BF1000308FB02F006FB0300AA
:10404000A2FB06231844520842EAC07000F0C4F9EB
:104050005D4800F0B3F9322000F0BEF95B4800F093
:10406000ADF95B4800F0AAF92B0D43EA0933C3F31D
:104070001302C5F313031344C9F31322134403EBD0
:104080001973A7FB0312D20802EB820202EB820231
:104090009B1AED1A69F1000908FB05F006FB0900FF
:1040A000A5FB065318446D0845EAC07000F094F96A
:1040B000454800F083F9322000F08EF9434800F0C3
:1040C0007DF9444800F07AF9230D43EA0A33C3F33B
:1040D0001302C4F313031344CAF31322134403EB70
:1040E0001A72A7FB0213DB0803EB830303EB8303C2
:1040F000D31AE41A6AF1000308FB04F006FB03007C
:10410000A4FB06421044640844EAC07000F064F95D
:104110002D4800F053F9322000F05EF92B4800F0F2
:104120004DF92D4800F04AF92C4800F047F9FFF707
:104130002BFE00F051F92A4800F040F9294800F020
:104140003DF9FFF77BFE00F047F9254800F036F90E
:10415000254800F033F9FFF785FE00F03DF92048CF
:1041600000F02CF9214800F029F9FFF733FE00F0A8
:1041700033F91F4800F022F911B0BDE8F08F1D4857
:1041800011B0BDE8F04F00F019B9402426462020B8
:10419000A5E6482461264120A1E640F29A2440F297
:1041A000015640F281309AE6608B0008C48800080E
:1041B00001020304188900081C8900082C890008E2
:1041C0001F85EB51295C8FC2388900084889000897
:1041D000508900085C89000868890008788900080F
:1041E000888900088C8900089C890008AC8900082F
:1041F000BC890008EC880008F5285C8F08B50448E5
:1042000000F0DCF8034B1878BDE80840FFF744BE27
:10421000C4890008608B00082DE9F04186B00024B5
:10422000B3F5807F05947CD8144639B34A1E052A1D
:104230006DD93D4D05F1FF3EAEEB000EBEF1020F14
:10424000844664D921F003074FEA9108C619AE46A7
:104250005CF8042B4EF8042BB445F9D1B9420DD0CB
:1042600010F8282005F828207A1C914206D9023738
:10427000865CAE54B94201D9C25DEA554BB35A1EB1
:10428000052A38D9284D05F1FF3E0EEB0102121B1D
:10429000022A204631D923F0030605EB010C9F08C2
:1042A000A21950F804EB4CF804EB9042F9D1B34258
:1042B0000FD0AA1914F827005054721C9A4208D241
:1042C000A8180236A25C4254B34202D93544A25D1A
:1042D0006A540C9C144A0020CDE9010400900B4460
:1042E000124805A903F07CF9003818BF01204042AC
:1042F00006B0BDE8F081DFF838E0621E8E449C18FD
:1043000012F8010F0EF8010F9442F9D1E1E7421EB5
:1043100005488E1812F8015F00F8015BB242F9D12E
:10432000ACE74FF0FF30E3E7100100201000002061
:104330000F01002008B502F021FE003818BF01204F
:10434000404208BD70B586B00C46B3F5807F4FF093
:10435000000105911BD805460A980091CDE901108E
:104360000C4805A91E4603F011F880B9059B9B1B5C
:10437000236053B107496A1E11F801CB931C02F860
:1043800001CF26685B1B9E42F6D806B070BD4FF089
:10439000FF30FAE7100100200649074A0A2001F120
:1043A0001F0C13681B06FCD5506011F8010F614506
:1043B000F7D1FEE7EC89000800100140017841B117
:1043C000044A13681B06FCD5516010F8011F002930
:1043D000F7D170470010014000B585B000238DF87B
:1043E0000E30002800F0A380624BA3FB0012D2081D
:1043F00002EB8201A0EB41013031C9B209288DF8EE
:104400000D1040F29F80A3FB021C4FEADC0C0CEB6A
:104410008C01A2EB41023032D1B263288DF80C102E
:1044200040F29380A3FB0C2E4FEADE0E0EEB8E02C1
:10443000ACEB42023032D1B2B0F57A7F8DF80B107E
:10444000C0F08680A3FB0E2C4FEADC0C0CEB8C0238
:10445000AEEB42023032D1B242F20F7290428DF88E
:104460000A1078D9A3FB0C2E4FEADE0E0EEB8E025B
:10447000ACEB4202DFF808C13032D1B260458DF8B2
:1044800009105CD9A3FB0E2C4FEADC0C0CEB8C0260
:10449000AEEB4202DFF8ECE03032D1B270458DF87D
:1044A00008105BD9A3FB0C2E4FEADE0E0EEB8E023A
:1044B000ACEB4202DFF8D0C03032D1B260458DF8AB
:1044C00007104ED3A3FB0E2C4FEADC0C0CEB8C0236
:1044D000AEEB4202DFF8B4E03032D1B270458DF875
:1044E000061041D9A3FB0C23DB0803EB8303224A0C
:1044F000ACEB43033033D9B290428DF8051036D976
:104500001C4BA3FB0C23DB0803F130014FF0000E22
:104510008DF8041001A8194A704413681B06FCD5D5
:10452000516010F8011F0029F7D105B000BD134AF2
:1045300013681906FCD53023536005B000BD4FF059
:10454000050EE7E74FF0090EE4E74FF0080EE1E74C
:104550004FF0070EDEE74FF0060EDBE74FF0040EDC
:10456000D8E74FF0030ED5E74FF0020ED2E74FF039
:10457000010ECFE7CDCCCCCCFFC99A3B0010014057
:104580009F8601003F420F0080969800FFE0F505EE
:10459000224B010FC0F3036200B513F801E09A5CEF
:1045A00000216EF30701C0F3035C62F30F21C0F337
:1045B000034213F80CE013F802C000F00F0285B0BC
:1045C0009A5C8DF80D206EF31741C0F303226CF353
:1045D0001F61C0F3031CC0F303309A5C13F80CC0D6
:1045E0008DF80B201B5C0E4ACDF8061047F6300004
:1045F0004FF0000EADF804008DF80EE08DF80CC001
:104600008DF80A30302101A813681B06FCD55160D3
:1046100010F8011F0029F7D105B000BD748B000808
:10462000001001404FF0E0239869C04320F07F4024
:10463000704700BF08B54FF0E0239249D3F8882DAA
:10464000914C42F47002C3F8882DD1F8442842F00E
:104650001002C1F8442842F2080000226FF07F41A6
:1046600040F28365A560E0601A61596105219A6195
:104670001961FFF725FBFFF7B5FB844A0A2102F118
:104680002B0023681B06FCD5616012F8011F8242D3
:10469000F7D17F497C4A202001F12B0413681E06C4
:1046A000FCD5506011F8010FA142F7D17949764A43
:1046B0003D2001F12B0413681D06FCD5506011F854
:1046C000010FA142F7D1FFF7FBFAFFF78BFBFFF7D2
:1046D00061FB0546FFF7CEFB0446FFF7C3FB6E49BF
:1046E000694A064601F10D0C5B2013681B06FCD5D8
:1046F000506011F8010F6145F7D16849624A2020E6
:1047000001F10A0C13681B06FCD5506011F8010F6B
:104710006145F7D14FF00060FFF73AFF60495A4A10
:10472000202001F1160C13681B06FCD5506011F80F
:10473000010F6145F7D15B49534A202001F10A0C72
:1047400013681B06FCD5506011F8010F6145F7D1C5
:104750004FF00050FFF71CFF53494B4A202001F156
:10476000150C13681B06FCD5506011F8010F61454C
:10477000F7D14E49444A202001F1140C13681B065E
:10478000FCD5506011F8010F6145F7D13046FFF7B5
:1047900023FE47493C4A2020CE1C13681B06FCD54B
:1047A000506011F8010FB142F7D14249364A20203A
:1047B00001F10A0613681B06FCD5506011F8010FC1
:1047C000B142F7D13C48FFF7E3FE3C492E4A202096
:1047D000CE1C13681B06FCD5506011F8010FB142C6
:1047E000F7D12846FFF7F8FD3549274A202001F187
:1047F000140513681B06FCD5506011F8010FA9427F
:10480000F7D13049204A202001F10A0513681B0620
:10481000FCD5506011F8010FA942F7D12A48FFF7E3
:10482000B7FE2649184A202013681B06FCD55060A5
:1048300011F8010FB142F7D12046FFF7CDFD234912
:10484000114A202001F1140413681D06FCD55060A4
:1048500011F8010FA142F7D10B4A13681906FCD5D4
:104860000A235360FFF71CFA1949074A532001F144
:10487000100413681B06FCD5506011F8010FA1420B
:10488000F7D1FEE700300240001001400C8A00081A
:10489000388A0008648A0008908A0008A08A000804
:1048A000AC8A0008C48A0008D08A0008E88A000898
:1048B00088890008008B0008A82B00200C8B0008BA
:1048C000108B0008288B0008A86B0020348B000890
:1048D0004C8B000838B5244C244B9C4221D2013B20
:1048E0001B1B032B22463BD99B08214D03F1010CD6
:1048F0004FEA5C0E2B4605EBCE0ED3E900010833E0
:104900009E45C2E9000102F10802F6D11CF0010F38
:1049100007D02CF0010C04EB8C0405EB8C052B6804
:104920002360144C14498C4218D20139091B032905
:10493000234617D989080131480804EBC00000223A
:10494000C3E9002208338342FAD1CB0706D521F010
:10495000010104EB810C0023CCF80030FFF76AFE64
:10496000034DDCE7A446F6E700000020000000202D
:104970000895000800000020A82B002030B5044650
:1049800012B3501E0228C9B220D94FF0000C61F3B7
:10499000070C61F30F2C61F3174C22F0030561F350
:1049A0001F6C234604EB050E43F804CB9E45FBD158
:1049B000AA4209D0401B8EF8001028B101288EF8B9
:1049C000011018BF8EF80210204630BDA646F2E74F
:1049D00072B3F0B5541E052C164620D9451A013D78
:1049E000022D84460B461AD922F0030597086A184F
:1049F00053F804EB4CF804EB9342F9D1AE420DD0DE
:104A000011F8272000F82720641B00EB050205D0D1
:104A100059785170012C01D09B789370F0BD441EE1
:104A20008B1911F8012B04F8012F8B42F9D1F0BD3D
:104A3000704700BF0649C31D0A6823F007031344EB
:104A4000B3F5005F9DBF03480B60801800207047DE
:104A5000840B0020880B0020704700BFDFF8A0C047
:104A6000DCF80030CBB9244AD2F8343843F04003A4
:104A7000C2F83438214AD2F8003843F00403C2F8AF
:104A80000038D2F80438DB07FBD5D2F8043813F02D
:104A9000600F2ED10123CCF80030032911D9174A19
:104AA000D2F80438DB07FBD5D2F8043813F0600FD6
:104AB000A1F104011DD1D2F8083840F8043B0329C4
:104AC000EED8A1B10D4AD2F80438DB07FBD5D2F8F5
:104AD000043813F0600F0CD1D2F8083803700129A4
:104AE00005D01A0A0329427001D11B0C83700020E3
:104AF00070474FF0FF307047003002400000065012
:104B0000882B0020C841704700BA704792080AD02D
:104B10000439043801EB820251F8043F1BBA914278
:104B200040F8043FF8D17047034608BA19BA7047F5
:104B300010B50C468107BFF35B8F07D000239CB3F1
:104B400000F8013B820704F1FF34F8D1032C20D98F
:104B5000231F032B4FEA930127D901F1010E4FEADE
:104B60005E0C034600EBCC0C0022C3E900220833A4
:104B70006345FAD11EF0010F06D02EF0010E00EBB6
:104B80008E0E0023CEF80030043000EB810004F0DC
:104B900003043CB10023012C037003D0022C4370AA
:104BA00018BF8370BFF35B8F10BD8646E9E700BF77
:104BB000002A10DD00B500F1FF3C013962440020FD
:104BC0001CF8013F11F801EF624583EA0E0340EA49
:104BD0000300F5D100BD0020704700BF82B08842BD
:104BE0004FF0FF3338BF00230193019A019B20EA65
:104BF00002000B40184302B0704700BF2DE9F0419E
:104C0000A6B000244FF4DC738DF802400193002815
:104C10006BD018460E469046FFF776FF01230190B1
:104C20008DF803300225372705E00AA801F092F934
:104C3000012D40D001250AA801F054F904460028AE
:104C400039D101220DF103010AA801F04BF8044605
:104C50000028EAD19DF80330042201330DEB020154
:104C60000AA88DF8033001F03DF804460028DCD195
:104C70009DF80230042B2ED1372241460AA801F0BC
:104C800031F804460028D0D102A90AA801F09AF808
:104C900004460AA801F05EF9002CC9D1202F14D9CE
:104CA0003046202202A9FFF793FE012DA7F120072D
:104CB00006F12006BED102A82021FFF739FF201EF1
:104CC00018BF012026B0BDE8F0813A4602A930465F
:104CD000FFF77EFEACE701220DF102010AA801F008
:104CE00001F804460028A0D1C6E7012026B0BDE89F
:104CF000F08100BF2DE9F043A7B004240E464FF425
:104D0000DC718DF802400191002875D00846994663
:104D10009046FFF7F9FE012301908DF8033002253C
:104D2000372705E00AA801F015F9012D4AD0012521
:104D30000AA801F0D7F80446002843D101220DF15A
:104D400003010AA800F0CEFF04460028EAD19DF82E
:104D50000330042201330DEB02010AA88DF8033061
:104D600000F0C0FF04460028DCD19DF80230042B7F
:104D700032D14A4641460AA800F0B4FF0446002852
:104D8000D0D12E9B13B12F9B002B39D1309B13B167
:104D9000319B002B3DD102A90AA801F013F804466B
:104DA0000AA801F0D7F8002CBFD1202F1ED9304619
:104DB000202202A9FFF70CFE012DA7F1200706F122
:104DC0002006B4D102A82021FFF7B2FE201E18BF92
:104DD000012027B0BDE8F08301220DF102010AA8ED
:104DE00000F080FF044600289CD1C2E73A4602A9A1
:104DF0003046FFF7EDFD98E7012027B0BDE8F083CE
:104E00002E991A460AA800F06DFF0446002889D1A1
:104E1000BCE730991A460AA800F064FF044600284F
:104E200080D1B8E72DE9F043A7B001240E464FF436
:104E3000DC718DF802400191002875D00846994632
:104E40009046FFF761FE022501908DF80340372759
:104E500005E00AA801F07EF8012D4BD001250AA833
:104E600001F040F80446002844D101220DF103016D
:104E70000AA800F037FF04460028EAD19DF8033065
:104E8000042201330DEB02010AA88DF8033000F073
:104E900029FF04460028DCD19DF80230042B33D1D1
:104EA000372241460AA800F01DFF04460028D0D151
:104EB000B9F1000F02D02E9B002B39D12F9B13B1DB
:104EC000309B002B3DD102A90AA800F07BFF0446CD
:104ED0000AA801F03FF8002CBED1202F1ED9304681
:104EE000202202A9FFF774FD012DA7F1200706F18A
:104EF0002006B3D102A82021FFF71AFE201E18BFFA
:104F0000012027B0BDE8F08301220DF102010AA8BB
:104F100000F0E8FE044600289BD1C1E73A4602A90A
:104F20003046FFF755FD97E7204627B0BDE8F083F0
:104F30001A4649460AA800F0D5FE0446002888D142
:104F4000BCE72F991A460AA800F0CCFE04460028B8
:104F50007FF47FAFB7E700BF30B595B00446059149
:104F600015460021372206A8FFF708FD0022CDE9EB
:104F70000122059B009504F1080206A92046FFF7CF
:104F800051FF38B1012506A83721FFF7D1FD28468A
:104F900015B030BD372206A904F10800FFF718FD4F
:104FA00004F1080204F13F012046FFF727FE054601
:104FB0000028E7D101220023C4E90023E3E700BF72
:104FC0002DE9F04FDDB0002800F0A6800568C54C43
:104FD000476801970E46AC424FF00001B941AB461D
:104FE000C0F09F801D460323924604468DF817307B
:104FF00015B1669B002B77D106AB04F1080902932B
:10500000BAF1010F38BF4FF0010A1AF01F0718BF9D
:1050100001270DF1580807EB5A1737224946404639
:10502000FFF7D6FC67B13346002556460394BA46CF
:105030001F4640A800F056FF78B140A800F08AFF54
:1050400037214046FFF774FD012502982021FFF724
:105050006FFD28465DB0BDE8F08F3722414640A87D
:1050600000F040FE0028E8D10EA940A800F0AAFEFA
:10507000044640A800F06EFF002CE1D147B136B1E4
:105080001F2E1ED832460EA93846FFF7A1FC002677
:105090000135AA45CDD140463721039CFFF748FD95
:1050A00024A800F01FFF002840D024A800F052FFE1
:1050B0000125D4E90032013342F10002C4E9003293
:1050C000C3E7202238460EA9FFF782FC203E203796
:1050D0000DF18F0212F8013D0133DBB21370002B8A
:1050E000D6D19045F6D1D3E7022324A88DF800311C
:1050F00000F0F8FE80B9012240A924A800F0F2FDDA
:10510000002800F0B18024A800F024FF06AB029331
:1051100002982021FFF70CFD012528465DB0BDE86F
:10512000F08F022528465DB0BDE8F08F0DF1170124
:10513000012224A800F0D6FD0028B6D13722494626
:1051400024A800F0CFFD0028AFD1029924A800F0D8
:1051500039FE054624A800F0FDFE002DA8D104F17B
:105160003F010DF1370608462B460DF1170710F8E1
:1051700001CD16F8012962441344B74203704FEA87
:105180001323F4D104F11F0010F8012D13449BB236
:10519000814503704FEA1323F6D1002311F8012D46
:1051A00091F837000244134449450B704FEA13232A
:1051B000F4D101995846FFF7B7FC94F83E3094F8C3
:1051C0003D2003EB116384F83E30C3F30723C1F3A2
:1051D0000746134494F83C203344C1F30726324475
:1051E00084F83D3002EB132394F83B209BB252FA33
:1051F00081F101EB132184F83C3094F83A3084F8C3
:105200003B1003EB106303EB112394F8391094F86F
:105210003820C3F307260E4499B2C0F307431E4457
:10522000C0F307231A4494F8373002EB162253FADE
:1052300080F0C2F307230344002063F3070092B217
:1052400062F30F2066F3174061F31F6021461B0ACB
:1052500041F8370F11F8012D13449BB249450B70EB
:105260004FEA1323F6D124E704F10809372249460F
:1052700024A800F037FD00287FF445AF669A294640
:1052800024A800F02FFD00287FF43DAF06AB19469F
:1052900024A8029300F096FD054624A800F05AFECB
:1052A000002D7FF435AF2B4604F13F000DF137019F
:1052B0000DF1170510F8017D11F801293A44134446
:1052C000A94203704FEA1323F4D104F11F0111F82E
:1052D000012D13449BB249450B704FEA1323F6D1BD
:1052E0008EE600BF3F420F00F0B585B015460A9C20
:1052F0000F9A8CB30E9C7CB359BB802A59D10446BB
:105300000F4600211E46FFF739FB109BA3670021C3
:10531000CDE90211CDE90056DDE90A2304F10801C7
:105320002046FFF7E7FCD0B14FF0FF352046802143
:10533000FFF7FEFB0022631E04F17F0013F8011F3C
:10534000984242EA0102F9D1002A32D1284605B03A
:10535000F0BD0C9C002CD0D16FF0AC05F6E704F149
:10536000080204F13F012046FFF748FC0028DBD18A
:1053700001220023C4E9002337B1DDE90C122046E5
:10538000FFF7EAFD0028CFD100230E990093802279
:105390002046FFF715FE0028C6D1009003460E995F
:1053A00080222046FFF70CFE051E18BF01256D4226
:1053B000BCE74FF0FF35C9E700286DD003296BD952
:1053C0002DE9F0434F1E0478ADF5017D07440246F8
:1053D00001234FF00008254612F8014FAC4214BFDC
:1053E0000125002503F1010318BF00232B441E2BC8
:1053F000C8BF48F001089742EDD1894606464FF4F0
:1054000000714846FFF7EAFB4FF4007205460021A1
:1054100068466C46FFF7B2FA5DB1721EA81812F822
:10542000011F34F81130904203F1010324F81130C8
:10543000F5D1ADF102030DF5FF71002033F8022F15
:10544000B2F5A27F88BF40F001009942F6D1A9458C
:1054500017D9013E354416F8011F15F8012F34F80D
:105460001130013B24F8113034F8123001339BB273
:10547000B3F5A27F88BF40F00100AF4224F812309C
:10548000E9D1B8F1000F0AD1404518BF6FF493700D
:105490000DF5017DBDE8F0836FF0AC007047014869
:1054A000F6E700BFDAFEFFFFF0B5C9B0204B426857
:1054B0000293204B009330212027802628AC002324
:1054C000CDE905620546019104941A46039701212E
:1054D0000DEB0700FFF708FF18B10326304649B06F
:1054E000F0BD154932462046FFF762FB0028F4D193
:1054F00024212046FFF7B2FA38B1012620462421A4
:10550000FFF716FB304649B0F0BD24212046FFF7D7
:1055100053FF06460028F1D12A7C002AEED1E86824
:105520000028EAD03A4629A9FFF716FD0646E5E726
:10553000B88C0008D88C0008388C00082DE9F04F92
:10554000CDB0002800F0E78004468B461E46154685
:10555000002945D014220021FFF710FA854A666021
:1055600012680023E3602372002A40F0D180002DEE
:1055700044D0202309934FF0240A00232374802071
:10558000FFF758FA0023E060002800F0DF80CDE943
:10559000023330226768DFF8E49101924FF080080F
:1055A0002CAE0697CDF80090CDF8148004961A46DC
:1055B00019460CA8FFF798FE28B351463046FFF76E
:1055C000B7FA257C25B9E06810B1FFF745FAE56028
:1055D000032323726FF0D00948464DB0BDE8F08F29
:1055E000002A40F098801422FFF7C8F9614B6660EA
:1055F0001B68E5602572002B40F08A8030230993F8
:105600004FF0340AB9E75C4942463046FFF7D0FA1A
:105610000028D2D12023CDE9030602900146019350
:10562000CDE90587CDF8009009F120020CA81023E0
:10563000FFF75AFE0028C0D14F4942463046FFF7D7
:10564000B7FA0028B9D151463046FFF707FAA0B1A2
:105650000223237251463046FFF76AFA257C25B9AA
:10566000E06810B1FFF7F8F9E5606FF0C6090223B2
:10567000484623724DB0BDE8F08F51463046FFF7E3
:105680009BFE814658B9217CD1B151463046FFF787
:105690004FFA0123484623724DB0BDE8F08F5146C2
:1056A0003046FFF745FA257C25B9E06810B1FFF7D1
:1056B000D3F9E5600223484623724DB0BDE8F08F70
:1056C0004246D4F80C8063680B9140460A93FFF77A
:1056D00055F90B990A9BC8F878302DAACDE902112B
:1056E000CDE900B5099B08F108014046FFF702FB30
:1056F000A0B151463046FFF71BFA237C002BB4D1F2
:10570000E0680028B1D0FFF7A7F90023E360ACE719
:105710006FF0BF0960E76FF0AC095DE708F13F018A
:1057200008F108024046FFF769FA514630B13046A9
:10573000FFF7FEF9257C002D92D096E70122002389
:10574000C8E900233046FFF7F3F9A2E702232372EA
:1057500051462CA8FFF7ECF9257C3DB9E06828B14B
:10576000FFF77AF96FF07C09E560A3E76FF07C0939
:10577000A0E700BF8C2B0020888B0008088C000855
:1057800000231A461946FFF7D9BE00BF68B361B3BC
:10579000002A38D0B2F5803F27D890F808C0BCF175
:1057A000010F2DD170B5037C82B016460D4604461C
:1057B0002BB102236FF0C600237202B070BD0093BC
:1057C000C068FFF7FDFB022804D00028F1D10020BB
:1057D00002B070BD2046FFF767FE48B10328E8D14C
:1057E00020726FF0D00002B070BD6FF0AC00704757
:1057F000009003463246E0682946FFF7E1FBE4E704
:105800006FF0C60070470020704700BF2DE9F04FD1
:10581000D0E90038CBB0D0F80CA005930B680A9300
:105820004B680B938B680C93CB680D930B690E93AD
:105830004B690F938B691093CB6911930B6A129389
:105840004B6A13938B6A1493CB6AD0F80890159324
:105850004369039383690193C36904930B6B1693A4
:105860004B6B1793CDE906A98B6B1893CDE9088094
:105870000AAACB6BD0F810B019933AAF1546029232
:10588000AE6B11213046FFF73DF913210446304637
:10589000FFF738F9444084EA9628A9466E6A55F81D
:1058A00004AF07215046FFF72DF912210446504658
:1058B000FFF728F9D9F8003044401E4484EADA049E
:1058C00046443444BD42EC63DAD1DDE90886019FE9
:1058D000044BCDF804B0DDF814B0DDE906A9069656
:1058E00002E000BF088D0008019D059306212846AF
:1058F000FFF708F90B2104462846FFF703F91921A1
:1059000044402846FFF7FEF8059B01951A68029B64
:1059100084EA000616441A68049C1644039A7A40E6
:105920002A407A40022158461644FFF7EBF82644F5
:105930000D2104465846FFF7E5F816214440584625
:10594000FFF7E0F84BEA08050BEA080205EA09054B
:105950001543B24460403544054406215046FFF7E4
:10596000D1F80B2104465046FFF7CCF819214440EA
:105970005046FFF7C7F8059B04935A68029B0199AC
:1059800084EA0006164403985A683E44164481EAA5
:10599000000202EA0A024240022128461644FFF7AA
:1059A000B1F80D2104462846FFF7ACF81621444013
:1059B0002846FFF7A7F8B14445EA0B0705EA0B02B2
:1059C000444007EA0807062148461743FFF79AF8BC
:1059D000344427440B2104464846FFF793F8192125
:1059E00044404846FFF78EF8049B01999A68029B51
:1059F00084EA0006039816449A68064416448AEA24
:105A0000010202EA09024A40384602211644FFF721
:105A100079F80D2104463846FFF774F81621444002
:105A20003846FFF76FF884EA0002324406EB0804B8
:105A300045EA070605EA070106EA0B060E4320467B
:105A400006211644FFF75EF80B2180462046FFF73B
:105A500059F8192188EA00082046FFF753F8049BFB
:105A60000393D968029B88EA00020A4401990A4418
:105A7000D9680A448AEA0901214081EA0A010A44F4
:105A8000304602210192FFF73DF80D218046304655
:105A9000FFF738F8162188EA00083046FFF732F899
:105AA000019A88EA00089344904447EA060207EA0C
:105AB00006012A400A434244062158460192FFF754
:105AC00021F80B2180465846FFF71CF8192188EA77
:105AD00000085846FFF716F8039B1A69029B88EAEC
