:020000040800F2
:1000000000000220D9090008A5040008A504000882
:10001000A5040008A5040008A504000858B151B1C2
:1000200008B511461A46002302F00CFE003818BF2E
:100030000120404208BD4FF0FF3070470300000030
:100040005C2D00081D000008074A13682BB1074803
:10005000074A03600021116070470649064B0748B4
:1000600013600860F3E700BF0C00002004000020CC
:100070000000002008000020100000201040002098
:10008000094A13681BB1094A1068C01A704710B4B6
:1000900007491160074A0848044C1160074A20606C
:1000A0001360401A10BC70470C00002008000020AC
:1000B000100000200400002010400020000000205C
:1000C000084B094A93420BD2013AD21A22F003029A
:1000D000043206481A441946043393420860FAD1A0
:1000E000704700BF1040002000000220EFBEADDED0
:1000F000014B0248C01A7047000000201000002089
:10010000014B0248C01A7047104000200000022036
:100110002DE9F04F89B06B4607930799BB4CA1427C
:1001200006D9BB4D23461A46043399421560FAD8C6
:10013000B84B1A688AB1DFF84083B74E98F80030A0
:10014000B64D326000218342296000F04981B448F5
:1001500009B0BDE8F04F00F0B7B9DFF81C83B14932
:1001600098F800C01960AC4EAF4BAC4DAF4F31604A
:1001700084452A601F60EAD101F12003BB4200F2EE
:100180002A81BC460A469E4633601146002701F884
:10019000017B8E45FBD1202129608A46964603F1DA
:1001A0001009E14500F2148100211970597099700D
:1001B000D970197159719971D971197259729972ED
:1001C000D972197359739973D973A9EB0E018A45C2
:1001D000C6F8009001D229608A4609F108076745F0
:1001E00000F2F280002189F8001089F8011089F8E6
:1001F000021089F8031089F8041089F8051089F8AD
:10020000061089F80710A7EB0E015145376001D998
:1002100029608A4607F1200BE34500F2C580C6F845
:1002200000B03946002601F8016B8B45FBD1ABEBE2
:100230000E01514588BF2960002A00F0B580002BCF
:1002400000F0B280B9F1000F00F0AE804FF00B313A
:10025000116051609160D160116151619161D16112
:100260007349196001F10431596001F10431996059
:1002700001F10431D9606F49C9F8001001F108217A
:1002800001F580210631C9F8041006466A48059236
:10029000049300F019F9D8F8040000F015F9674844
:1002A00000F012F900F044FA049B0093D8F80830EB
:1002B000049308230393102301932023059ACDF878
:1002C0000890194682463846049FB84700F030FA35
:1002D000824584BF00F1FF1000F57F40A0EB0A07C4
:1002E000574800F0F1F8384600F0FCF8554800F0A7
:1002F000EBF8554800F0E8F82D68544800F0E4F8B1
:100300002846534D00F0EEF8524800F0DDF8AC42BC
:100310003E4C07D23E4902E00434AC4202D222688D
:100320008A42F9D04C4800F0CFF8281B00F0DAF8E8
:10033000484800F0C9F8494800F0C6F8484B494819
:10034000C01A00F0CFF8434800F0BEF89EB3012E6B
:1003500031D0022E2FD0032E2DD0052E2AD0082EDC
:100360004CD0092E4CD00B2E4ED0062E4AD00A2E41
:1003700000F084800E2E00F083800F2E00F082802B
:10038000122E08BF0C2616D00024374800F09CF827
:10039000204600F0A7F82F4800F096F8334809B03F
:1003A000BDE8F04F00F090B8314809B0BDE8F04F1B
:1003B00000F08AB804262F4B06EB460603EB8603B3
:1003C000D3E90134E41AE0E74F464FF0000921E792
:1003D0009946002301E78E46BC4692460B46DEE670
:1003E000114BD3F800C002F1200363459E467FF60F
:1003F000CBAE134696468A460A46D0E60526DAE78D
:100400000626D8E70826D6E70726D4E710400020BE
:10041000EFBEADDE0C000020040000200000002034
:10042000882C000810000020080000201040002048
:100430000001020362656E63C42C0008C82C00082A
:10044000D82C0008E82C0008F02C0008002D00082B
:1004500000000220102D0008142D0008242D000893
:100460000000002010000020342D0008442D00085A
:10047000A02C0008E82E00083C00000809269AE796
:100480000A2698E70B2696E708B5044800F01CF802
:10049000034B1878BDE80840FFF73ABE482D000826
:1004A0003C0000080649074A0A2001F11F0C1368A6
:1004B0001B06FCD5506011F8010F6145F7D1FEE72E
:1004C000702D000800100140017841B1044A136802
:1004D0001B06FCD5516010F8011F0029F7D17047A9
:1004E0000010014000B585B000238DF80E300028C3
:1004F00000F0A380624BA3FB0012D20802EB820142
:10050000A0EB41013031C9B209288DF80D1040F23D
:100510009F80A3FB021C4FEADC0C0CEB8C01A2EBCE
:1005200041023032D1B263288DF80C1040F2938032
:10053000A3FB0C2E4FEADE0E0EEB8E02ACEB42025A
:100540003032D1B2B0F57A7F8DF80B10C0F08680D2
:10055000A3FB0E2C4FEADC0C0CEB8C02AEEB420240
:100560003032D1B242F20F7290428DF80A1078D92F
:10057000A3FB0C2E4FEADE0E0EEB8E02ACEB42021A
:10058000DFF808C13032D1B260458DF809105CD96E
:10059000A3FB0E2C4FEADC0C0CEB8C02AEEB420200
:1005A000DFF8ECE03032D1B270458DF808105BD93D
:1005B000A3FB0C2E4FEADE0E0EEB8E02ACEB4202DA
:1005C000DFF8D0C03032D1B260458DF807104ED37D
:1005D000A3FB0E2C4FEADC0C0CEB8C02AEEB4202C0
:1005E000DFF8B4E03032D1B270458DF8061041D951
:1005F000A3FB0C23DB0803EB8303224AACEB43038E
:100600003033D9B290428DF8051036D91C4BA3FB7C
:100610000C23DB0803F130014FF0000E8DF80410BD
:1006200001A8194A704413681B06FCD5516010F8E4
:10063000011F0029F7D105B000BD134A1368190640
:10064000FCD53023536005B000BD4FF0050EE7E741
:100650004FF0090EE4E74FF0080EE1E74FF0070E08
:10066000DEE74FF0060EDBE74FF0040ED8E74FF061
:10067000030ED5E74FF0020ED2E74FF0010ECFE7A1
:10068000CDCCCCCCFFC99A3B001001409F86010025
:100690003F420F0080969800FFE0F505224B010FC6
:1006A000C0F3036200B513F801E09A5C00216EF319
:1006B0000701C0F3035C62F30F21C0F3034213F898
:1006C0000CE013F802C000F00F0285B09A5C8DF8C0
:1006D0000D206EF31741C0F303226CF31F61C0F3CA
:1006E000031CC0F303309A5C13F80CC08DF80B2088
:1006F0001B5C0E4ACDF8061047F630004FF0000E96
:10070000ADF804008DF80EE08DF80CC08DF80A30BD
:10071000302101A813681B06FCD5516010F8011F99
:100720000029F7D105B000BD842F0008001001405A
:100730004FF0E0239869C04320F07F40704700BF2E
:1007400008B54FF0E0239049D3F8882D8F4C42F440
:100750007002C3F8882DD1F8442842F01002C1F885
:10076000442842F2080000226FF07F4140F2836586
:10077000A560E0601A61596105219A611961FFF76E
:1007800063FCFFF79DFC824A0A2102F12B002368DB
:100790001B06FCD5616012F8011F8242F7D17D492A
:1007A0007A4A202001F12B0413681E06FCD5506004
:1007B00011F8010FA142F7D17749744A3D2001F1A8
:1007C0002B0413681D06FCD5506011F8010FA142DF
:1007D000F7D1FFF755FC0546FFF792FC0446FFF7FB
:1007E00087FC6E49694A064601F10D0C5B201368CF
:1007F0001B06FCD5506011F8010F6145F7D168491F
:10080000624A202001F10A0C13681B06FCD55060D7
:1008100011F8010F6145F7D14FF00060FFF73EFF7F
:1008200060495A4A202001F1160C13681B06FCD5BA
:10083000506011F8010F6145F7D15B49534A202000
:1008400001F10A0C13681B06FCD5506011F8010F6A
:100850006145F7D14FF00050FFF720FF53494B4A55
:10086000202001F1150C13681B06FCD5506011F80F
:10087000010F6145F7D14E49444A202001F1140C83
:1008800013681B06FCD5506011F8010F6145F7D1C4
:100890003046FFF727FE47493C4A2020CE1C13680C
:1008A0001B06FCD5506011F8010FB142F7D1424947
:1008B000364A202001F10A0613681B06FCD5506059
:1008C00011F8010FB142F7D13C48FFF7E7FE3C4970
:1008D0002E4A2020CE1C13681B06FCD5506011F850
:1008E000010FB142F7D12846FFF7FCFD3549274AF1
:1008F000202001F1140513681B06FCD5506011F887
:10090000010FA942F7D13049204A202001F10A0500
:1009100013681B06FCD5506011F8010FA942F7D1EE
:100920002A48FFF7BBFE2649184A202013681B06F9
:10093000FCD5506011F8010FB142F7D12046FFF706
:10094000D1FD2349114A202001F1140413681D062A
:10095000FCD5506011F8010FA142F7D10B4A136882
:100960001906FCD50A235360FFF78EFD1949074A83
:10097000532001F1100413681B06FCD5506011F8D8
:10098000010FA142F7D1FEE7003002400010014004
:10099000902D0008BC2D0008E82D0008142E00083A
:1009A000242E0008302E0008482E0008542E00087F
:1009B0006C2E0008102D0008842E00081000002066
:1009C000902E0008942E0008AC2E00081040002045
:1009D000B82E0008D02E000838B5244C244B9C4279
:1009E00021D2013B1B1B032B22463BD99B08214DE7
:1009F00003F1010C4FEA5C0E2B4605EBCE0ED3E95A
:100A0000000108339E45C2E9000102F10802F6D157
:100A10001CF0010F07D02CF0010C04EB8C0405EB4B
:100A20008C052B682360144C14498C4218D2013970
:100A3000091B0329234617D989080131480804EB0B
:100A4000C0000022C3E9002208338342FAD1CB0759
:100A500006D521F0010104EB810C0023CCF8003015
:100A6000FFF76EFE034DDCE7A446F6E7000000202A
:100A700000000020A42F000800000020100000202B
:100A800072B3F0B5541E052C164620D9451A013D07
:100A9000022D84460B461AD922F0030597086A18DE
:100AA00053F804EB4CF804EB9342F9D1AE420DD06D
:100AB00011F8272000F82720641B00EB050205D061
:100AC00059785170012C01D09B789370F0BD441E71
:100AD0008B1911F8012B04F8012F8B42F9D1F0BDCD
:100AE000704700BF000000002DE9F04F2DED028B94
:100AF000154D97B09346089306900FCD0CAC0FC4DC
:100B00000FCDDDE924670FC495E80300082E77F1C7
:100B1000000384E80300DDF88880C2F08B800B4B73
:100B2000029708EB06029FED068BCDE904B603920F
:100B30000AAA0793019200961C4609E0AFF30080D1
:100B40000000000000000000602C0008982F000842
:100B5000009B03990198C91A08228DED0A8BFFF7B3
:100B60008FFF0B9B20680A9A1BBA83EA530101404E
:100B700012BA4B4083EA410382EA520101404A40E3
:100B8000606882EA410283EA930101404B4083EAB4
:100B9000810382EA920101404A40A06882EA810210
:100BA00083EA131101404B4083EA011382EA1211D8
:100BB00001404A4082EA011283EA132101F47F4195
:100BC00001EB01214B4082EA122101F47F4101EB4C
:100BD000012151400A0CDDE90C05120442EA1342DE
:100BE0009BB243EA01436A404340DDE90E78DDE908
:100BF0001065DDE91201DDE914EC86F00C0687EAE8
:100C0000060983EA0E0A80EA0E0B60EA0E0E8EEAEF
:100C1000090E80EA070040EA090080EA0A0086EA35
:100C20000A0646EA070686EA0B0627EA0A0787EA63
:100C30000B0743EA0B0383EA090385F00C0588EAF6
:100C4000050982EA0C0A81EA0C0B61EA0C0C8CEAB9
:100C5000090C81EA080141EA090181EA0A0185EAF1
:100C60000A0545EA080585EA0B0528EA0A0888EA24
:100C70000B0842EA0B0282EA090286EA351985EA84
:100C8000761A85EAB92586EA7A2680EAF02981EA89
:100C9000F12A81EA395180EAFA408EEABC098CEAED
:100CA000FE0A8CEA790C8EEA0A0E83EAF20982EADD
:100CB000331A83EA791382EA7A1287EA774988EA53
:100CC000784A88EA391887EAFA078EF0090E80EA2E
:100CD0000E0986EA070A83EA070B63EA070787EA31
:100CE000090783EA000343EA090383EA0A038EEA59
:100CF0000A0E4EEA000E8EEA0B0E20EA0A0080EA87
:100D00000B0046EA0B0686EA09068CF00C0C81EA19
:100D10000C0985EA080A82EA080B62EA080888EAF0
:100D2000090882EA010242EA090282EA0A028CEA1E
:100D30000A0C4CEA010C8CEA0B0C21EA0A0181EA4C
:100D40000B0145EA0B0585EA09058EEA3C198CEA98
:100D50007E1A8CEAB92C8EEA7A2E83EAF32982EA8B
:100D6000F22A82EA395283EAFA4387EAB80988EA22
:100D7000F70A88EA790887EA0A0786EAF50985EA20
:100D8000361A86EA791685EA7A1580EA704981EA88
:100D9000714A81EA391180EAFA0087F00C0783EA88
:100DA00007098EEA000A86EA000B66EA000080EA7C
:100DB000090086EA030646EA090686EA0A0687EA81
:100DC0000A0747EA030787EA0B0723EA0A0383EACD
:100DD0000B034EEA0B0E8EEA090E88F0090882EA30
:100DE00008098CEA010A85EA010B65EA010181EA3A
:100DF000090185EA020545EA090585EA0A0588EA46
:100E00000A0848EA020888EA0B0822EA0A0282EA8B
:100E10000B024CEA0B0C8CEA090C87EA381988EAB9
:100E2000771A88EAB92887EA7A2786EAF62985EACE
:100E3000F52A85EA395586EAFA4680EAB10981EA57
:100E4000F00A81EA790180EA0A008EEAFC098CEA5C
:100E50003E1A8EEA791E8CEA7A1C83EA734982EA8A
:100E6000724A82EA391283EAFA0380F0090086EABC
:100E7000000987EA030A8EEA030B6EEA030383EA9A
:100E800009038EEA060E4EEA090E8EEA0A0E80EA81
:100E90000A0040EA060080EA0B0026EA0A0686EA13
:100EA0000B0647EA0B0787EA090781F0090185EA83
:100EB000010988EA020A8CEA020B6CEA020282EA61
:100EC00009028CEA050C4CEA090C8CEA0A0C81EA4E
:100ED0000A0141EA050181EA0B0125EA0A0585EAD2
:100EE0000B0548EA0B0888EA090880EA311981EA0B
:100EF000701A81EAB92180EA7A208EEAFE298CEA0A
:100F0000FC2A8CEA395C8EEAFA4E83EAB20982EA5C
:100F1000F30A82EA790283EA0A0387EAF80988EA8F
:100F2000371A87EA791788EA7A1886EA764985EACD
:100F3000754A85EA391586EAFA0683F006038EEAD1
:100F4000030980EA060A87EA060B67EA060686EACC
:100F5000090687EA0E0747EA090787EA0A0783EACC
:100F60000A0343EA0E0383EA0B032EEA0A0E8EEA13
:100F70000B0E40EA0B0080EA090082F00C028CEABA
:100F8000020981EA050A88EA050B68EA050585EA8F
:100F9000090588EA0C0848EA090888EA0A0882EA8A
:100FA0000A0242EA0C0282EA0B022CEA0A0C8CEAE0
:100FB0000B0C41EA0B0181EA090183EA321982EA4A
:100FC000731A82EAB92283EA7A2387EAF72988EA40
:100FD000F82A88EA395887EAFA4786EAB50985EA9D
:100FE000F60A85EA790586EA0A0680EAF10981EAC5
:100FF000301A80EA791081EA7A118EEA7E498CEA09
:101000007C4A8CEA391C8EEAFA0E86F0030687EADF
:10101000060983EA0E0A80EA0E0B60EA0E0E8EEADB
:10102000090E80EA070040EA090080EA0A0086EA21
:101030000A0646EA070686EA0B0627EA0A0787EA4F
:101040000B0743EA0B0383EA090385F00C0588EAE2
:10105000050982EA0C0A81EA0C0B61EA0C0C8CEAA5
:10106000090C81EA080141EA090181EA0A0185EADD
:101070000A0545EA080585EA0B0528EA0A0888EA10
:101080000B0842EA0B0282EA090286EA351985EA70
:10109000761A85EAB92586EA7A2680EAF02981EA75
:1010A000F12A81EA395180EAFA408EEABC098CEAD9
:1010B000FE0A8CEA790C8EEA0A0E83EAF20982EAC9
:1010C000331A83EA791382EA7A1287EA774988EA3F
:1010D000784A88EA391887EAFA078EF0060E80EA1D
:1010E0000E0986EA070A83EA070B63EA070787EA1D
:1010F000090783EA000343EA090383EA0A038EEA45
:101100000A0E4EEA000E8EEA0B0E20EA0A0080EA72
:101110000B0046EA0B0686EA09068CF0090C81EA08
:101120000C0985EA080A82EA080B62EA080888EADC
:10113000090882EA010242EA090282EA0A028CEA0A
:101140000A0C4CEA010C8CEA0B0C21EA0A0181EA38
:101150000B0145EA0B0585EA09058EEA3C198CEA84
:101160007E1A8CEAB92C8EEA7A2E83EAF32982EA77
:10117000F22A82EA395283EAFA4387EAB80988EA0E
:10118000F70A88EA790887EA0A0786EAF50985EA0C
:10119000361A86EA791685EA7A1580EA704981EA74
:1011A000714A81EA391180EAFA0087F0030783EA7D
:1011B00007098EEA000A86EA000B66EA000080EA68
:1011C000090086EA030646EA090686EA0A0687EA6D
:1011D0000A0747EA030787EA0B0723EA0A0383EAB9
:1011E0000B034EEA0B0E8EEA090E88F0090882EA1C
:1011F00008098CEA010A85EA010B65EA010181EA26
:10120000090185EA020545EA090585EA0A0588EA31
:101210000A0848EA020888EA0B0822EA0A0282EA77
:101220000B024CEA0B0C8CEA090C87EA381988EAA5
:10123000771A88EAB92887EA7A2786EAF62985EABA
:10124000F52A85EA395586EAFA4680EAB10981EA43
:10125000F00A81EA790180EA0A008EEAFC098CEA48
:101260003E1A8EEA791E8CEA7A1C83EA734982EA76
:10127000724A82EA391283EAFA0380F00C0086EAA5
:10128000000987EA030A8EEA030B6EEA030383EA86
:1012900009038EEA060E4EEA090E8EEA0A0E80EA6D
:1012A0000A0040EA060080EA0B0026EA0A0686EAFF
:1012B0000B0647EA0B0787EA090781F0060185EA72
:1012C000010988EA020A8CEA020B6CEA020282EA4D
:1012D00009028CEA050C4CEA090C8CEA0A0C81EA3A
:1012E0000A0141EA050181EA0B0125EA0A0585EABE
:1012F0000B0548EA0B0888EA090880EA311981EAF7
:10130000701A81EAB92180EA7A208EEAFE298CEAF5
:10131000FC2A8CEA395C8EEAFA4E83EAB20982EA48
:10132000F30A82EA790283EA0A0387EAF80988EA7B
:10133000371A87EA791788EA7A1886EA764985EAB9
:10134000754A85EA391586EAFA0683F009038EEABA
:10135000030980EA060A87EA060B67EA060686EAB8
:10136000090687EA0E0747EA090787EA0A0783EAB8
:101370000A0343EA0E0383EA0B032EEA0A0E8EEAFF
:101380000B0E40EA0B0080EA090082F006028CEAAC
:10139000020981EA050A88EA050B68EA050585EA7B
:1013A000090588EA0C0848EA090888EA0A0882EA76
:1013B0000A0242EA0C0282EA0B022CEA0A0C8CEACC
:1013C0000B0C41EA0B0181EA090183EA321982EA36
:1013D000731A82EAB92283EA7A2387EAF72988EA2C
:1013E000F82A88EA395887EAFA4786EAB50985EA89
:1013F000F60A85EA790586EA0A0680EAF10981EAB1
:10140000301A80EA791081EA7A118EEA7E498CEAF4
:101410007C4A8CEA391C8EEAFA0E83EA0E038EEAC5
:10142000000E86EA07066EEA030986F00C0626EA35
:10143000070A83EA0A0360EA0E0A86EA0A0627EA2E
:10144000030A8EEA0A0E00EA060A87EA0A0780EA19
:10145000090087EA030780EA060083EA0E0382EAAE
:101460000C028CEA010C85F0030585EA08056CEA9C
:10147000020925EA080A82EA0A0261EA0C0A85EAF8
:101480000A0528EA020A8CEA0A0C01EA050A88EA37
:101490000A0881EA090188EA020881EA050182EA6C
:1014A0000C0283EA321982EA731A82EAB92283EAC9
:1014B0007A2387EAF72988EAF82A88EA395887EAF6
:1014C000FA4786EAB50985EAF60A85EA790586EAE1
:1014D0000A0680EAF10981EA301A80EA791081EA85
:1014E0007A118EEA7E498CEA7C4A8CEA391C8EEAB3
:1014F000FA0EA946654683EA0E038EEA000E86EAD6
:1015000007066EEA030C86F0090626EA070A83EA54
:101510000A0360EA0E0A86EA0A0627EA030A8EEA46
:101520000A0E00EA060A87EA0A0780EA0C0087EA40
:10153000030780EA060083EA0E0382EA050285EAD1
:10154000010589F0030989EA080965EA020C29EA1C
:10155000080A82EA0A0261EA050A89EA0A0928EA0F
:10156000020A85EA0A0501EA090A88EA0A0881EA04
:101570000C0188EA020881EA090182EA050283EA8D
:10158000321C82EA731A82EABC2283EA7A2387EA4F
:10159000F72C88EAF82A88EA3C5887EAFA4786EA6C
:1015A000B90C89EAF60A89EA7C0986EA0A0680EA21
:1015B000F10C81EA301A80EA7C1081EA7A118EEA15
:1015C0007E4C85EA754A85EA3C158EEAFA0ECDE92D
:1015D0000C32009B029A083B62F10002082B009338
:1015E00072F10003CDE90E78CDE91069CDE9120161
:1015F000CDE914E50292BFF4ABAADDE904B6DDF84B
:10160000888026F00703984406F0070641463246D4
:10161000019800240025CDE90A45FFF731FA079C1F
:101620000B9A25680A9B029512BA82EA520028405A
:101630001BBA424082EA400283EA530028404340FA
:101640006568A468049483EA400382EA9200284013
:10165000424082EA800283EA93002840434083EAC2
:10166000800382EA12102040424082EA001283EA9C
:1016700013102040434083EA001382EA122000F452
:101680007F4000EB0020504083EA1322C6F107069A
:1016900002F47F4231B202EB0222534089000D9ADC
:1016A000149F039508248C4054401A0C12040C9982
:1016B00042EA104280B240EA034362404B40BC46DB
:1016C000DDE90E6EDDE91054DDE91201159F85F0AC
:1016D0000C0586EA050883EA0C0980EA0C0A60EA30
:1016E0000C0C8CEA080C80EA060040EA080080EA4C
:1016F000090085EA090545EA060585EA0A0526EA9C
:10170000090686EA0A0643EA0A0383EA080384F024
:101710000C048EEA040882EA070981EA070A61EAF2
:10172000070787EA080781EA0E0141EA080181EA12
:10173000090184EA090444EA0E0484EA0A042EEA50
:10174000090E8EEA0A0E42EA0A0282EA080285EAD5
:10175000341884EA751984EAB82485EA792580EA80
:10176000F02881EAF12981EA385180EAF9408CEACF
:10177000B70887EAFC0987EA78078CEA090C83EA4C
:10178000F20882EA331983EA781382EA791286EA48
:1017900076488EEA7E498EEA381E86EAF9068CF093
:1017A000090C80EA0C0885EA060983EA060A63EA5E
:1017B000060686EA080683EA000343EA080383EA8A
:1017C00009038CEA090C4CEA000C8CEA0A0C20EAAA
:1017D000090080EA0A0045EA0A0585EA080587F05B
:1017E0000C0781EA070884EA0E0982EA0E0A62EA17
:1017F0000E0E8EEA080E82EA010242EA080282EA2E
:10180000090287EA090747EA010787EA0A0721EA86
:10181000090181EA0A0144EA0A0484EA08048CEA1C
:10182000371887EA7C1987EAB8278CEA792C83EA8B
:10183000F32882EAF22982EA385283EAF94386EAF7
:10184000BE088EEAF6098EEA780E86EA090685EA6F
:10185000F40884EA351985EA781584EA791480EA6F
:10186000704881EA714981EA381180EAF90086F00E
:101870000C0683EA06088CEA000985EA000A65EA94
:10188000000080EA080085EA030545EA080585EAC4
:10189000090586EA090646EA030686EA0A0623EAF5
:1018A000090383EA0A034CEA0A0C8CEA080C8EF05E
:1018B000090E82EA0E0887EA010984EA010A64EA4D
:1018C000010181EA080184EA020444EA080484EA86
:1018D00009048EEA090E4EEA020E8EEA0A0E22EA88
:1018E000090282EA0A0247EA0A0787EA080786EA43
:1018F0003E188EEA76198EEAB82E86EA792685EAAF
:10190000F52884EAF42984EA385485EAF94580EA1E
:10191000B10881EAF00981EA780180EA09008CEADD
:10192000F70887EA3C198CEA781C87EA791783EA7A
:10193000734882EA724982EA381283EAF90380F036
:10194000090085EA000886EA03098CEA030A6CEAC2
:10195000030383EA08038CEA050C4CEA080C8CEAC2
:10196000090C80EA090040EA050080EA0A0025EA3D
:10197000090585EA0A0546EA0A0686EA080681F0AC
:10198000090184EA01088EEA020987EA020A67EA85
:10199000020282EA080287EA040747EA080787EAA0
:1019A000090781EA090141EA040181EA0A0124EAFE
:1019B000090484EA0A044EEA0A0E8EEA080E80EA56
:1019C000311881EA701981EAB82180EA79208CEA1D
:1019D000FC2887EAF72987EA38578CEAF94C83EA2A
:1019E000B20882EAF30982EA780283EA090386EA06
:1019F000FE088EEA361986EA78168EEA791E85EA9E
:101A0000754884EA744984EA381485EAF90583F054
:101A100006038CEA030880EA050986EA050A66EAF5
:101A2000050585EA080586EA0C0646EA080686EA00
:101A3000090683EA090343EA0C0383EA0A032CEA52
:101A4000090C8CEA0A0C40EA0A0080EA080082F0DD
:101A50000C0287EA020881EA04098EEA040A6EEAA7
:101A6000040484EA08048EEA070E4EEA080E8EEAA1
:101A7000090E82EA090242EA070282EA0A0227EA1A
:101A8000090787EA0A0741EA0A0181EA080183EAAD
:101A9000321882EA731982EAB82283EA792386EA45
:101AA000F6288EEAFE298EEA385E86EAF94685EA4D
:101AB000B40884EAF50984EA780485EA090580EA2D
:101AC000F10881EA301980EA781081EA79118CEA0C
:101AD0007C4887EA774987EA38178CEAF90C85F061
:101AE000030586EA050883EA0C0980EA0C0A60EA25
:101AF0000C0C8CEA080C80EA060040EA080080EA38
:101B0000090085EA090545EA060585EA0A0526EA87
:101B1000090686EA0A0643EA0A0383EA080384F010
:101B20000C048EEA040882EA070981EA070A61EADE
:101B3000070787EA080781EA0E0141EA080181EAFE
:101B4000090184EA090444EA0E0484EA0A042EEA3C
:101B5000090E8EEA0A0E42EA0A0282EA080285EAC1
:101B6000341884EA751984EAB82485EA792580EA6C
:101B7000F02881EAF12981EA385180EAF9408CEABB
:101B8000B70887EAFC0987EA78078CEA090C83EA38
:101B9000F20882EA331983EA781382EA791286EA34
:101BA00076488EEA7E498EEA381E86EAF9068CF07F
:101BB000060C80EA0C0885EA060983EA060A63EA4D
:101BC000060686EA080683EA000343EA080383EA76
:101BD00009038CEA090C4CEA000C8CEA0A0C20EA96
:101BE000090080EA0A0045EA0A0585EA080587F047
:101BF000090781EA070884EA0E0982EA0E0A62EA06
:101C00000E0E8EEA080E82EA010242EA080282EA19
:101C1000090287EA090747EA010787EA0A0721EA72
:101C2000090181EA0A0144EA0A0484EA08048CEA08
:101C3000371887EA7C1987EAB8278CEA792C83EA77
:101C4000F32882EAF22982EA385283EAF94386EAE3
:101C5000BE088EEAF6098EEA780E86EA090685EA5B
:101C6000F40884EA351985EA781584EA791480EA5B
:101C7000704881EA714981EA381180EAF90086F0FA
:101C8000030683EA06088CEA000985EA000A65EA89
:101C9000000080EA080085EA030545EA080585EAB0
:101CA000090586EA090646EA030686EA0A0623EAE1
:101CB000090383EA0A034CEA0A0C8CEA080C8EF04A
:101CC000090E82EA0E0887EA010984EA010A64EA39
:101CD000010181EA080184EA020444EA080484EA72
:101CE00009048EEA090E4EEA020E8EEA0A0E22EA74
:101CF000090282EA0A0247EA0A0787EA080786EA2F
:101D00003E188EEA76198EEAB82E86EA792685EA9A
:101D1000F52884EAF42984EA385485EAF94580EA0A
:101D2000B10881EAF00981EA780180EA09008CEAC9
:101D3000F70887EA3C198CEA781C87EA791783EA66
:101D4000734882EA724982EA381283EAF90380F022
:101D50000C0085EA000886EA03098CEA030A6CEAAB
:101D6000030383EA08038CEA050C4CEA080C8CEAAE
:101D7000090C80EA090040EA050080EA0A0025EA29
:101D8000090585EA0A0546EA0A0686EA080681F098
:101D9000060184EA01088EEA020987EA020A67EA74
:101DA000020282EA080287EA040747EA080787EA8C
:101DB000090781EA090141EA040181EA0A0124EAEA
:101DC000090484EA0A044EEA0A0E8EEA080E80EA42
:101DD000311881EA701981EAB82180EA79208CEA09
:101DE000FC2887EAF72987EA38578CEAF94C83EA16
:101DF000B20882EAF30982EA780283EA090386EAF2
:101E0000FE088EEA361986EA78168EEA791E85EA89
:101E1000754884EA744984EA381485EAF90583F040
:101E200009038CEA030880EA050986EA050A66EADE
:101E3000050585EA080586EA0C0646EA080686EAEC
:101E4000090683EA090343EA0C0383EA0A032CEA3E
:101E5000090C8CEA0A0C40EA0A0080EA080082F0C9
:101E6000060287EA020881EA04098EEA040A6EEA99
:101E7000040484EA08048EEA070E4EEA080E8EEA8D
:101E8000090E82EA090242EA070282EA0A0227EA06
:101E9000090787EA0A0741EA0A0181EA080183EA99
:101EA000321882EA731982EAB82283EA792386EA31
:101EB000F6288EEAFE298EEA385E86EAF94685EA39
:101EC000B40884EAF50984EA780485EA090580EA19
:101ED000F10881EA301980EA781081EA79118CEAF8
:101EE0007C4887EA774987EA38178CEAF90C83EA55
:101EF0000C038CEA000C85EA06056CEA030885F001
:101F00000C0525EA060983EA090360EA0C0985EA5B
:101F1000090526EA03098CEA090C00EA050986EAA4
:101F2000090680EA080086EA030680EA050083EADB
:101F30000C0382EA070287EA010784F0030484EABB
:101F40000E0467EA020824EA0E0982EA090261EA3D
:101F5000070984EA09042EEA020987EA090701EA67
:101F600004098EEA090E81EA08018EEA020E81EA6E
:101F7000040182EA070283EA321882EA731982EACC
:101F8000B82283EA792386EAF6288EEAFE298EEAC9
:101F9000385E86EAF94685EAB40884EAF50984EAF7
:101FA000780485EA090580EAF10881EA301980EAB7
:101FB000781081EA79118CEA7C4887EA774987EAC8
:101FC00038178CEAF90CA046644683EA040384EAD5
:101FD000000485EA060564EA030C85F0090525EA94
:101FE000060983EA090360EA040985EA090526EA85
:101FF000030984EA090400EA050986EA090680EA79
:102000000C0086EA030680EA050083EA040382EAFC
:10201000070287EA010788F0030888EA0E0867EAE2
:10202000020C28EA0E0982EA090261EA070988EA35
:1020300009082EEA020987EA090701EA08098EEA77
:10204000090E81EA0C018EEA020E81EA080182EA99
:10205000070283EA321C82EA731982EABC2283EA0D
:10206000792386EAF62C8EEAFE298EEA3C5E86EA21
:10207000F94685EAB80C88EAF50988EA7C0885EA19
:10208000090580EAF10C81EA301980EA7C1081EAC6
:10209000791184EA744C87EA774987EA3C1784EA25
:1020A000F904CDE90C32089ABBF1090F72F1000373
:1020B000CDE90E6ECDE91058CDE91201CDE91447F6
:1020C000C0F06A85069B00925B445D460593CDF89F
:1020D00024B0DDE90C64B3B243EA0443210C83EA83
:1020E0001322090402F47F4241EA164102EB022264
:1020F0005A4081EA112303F47F43049803EB03233E
:102100004B4082EA121101404A4082EA011283EAFE
:10211000131101404B40039883EA011382EA9201B4
:1021200001404A4082EA810283EA930101404B4028
:10213000029883EA810382EA520101404A4082EA1E
:10214000410212BA0B9283EA53020240534083EADF
:1021500042031BBA0A93059B0199581B0822FEF7FC
:102160008FFC32462346DDE9101EDDE90E48DDE92D
:1021700012C0DDE9147681F00C0184EA010982EADB
:10218000070A8CEA070B6CEA070787EA09078CEA5B
:10219000040C4CEA090C8CEA0A0C81EA0A0141EAB7
:1021A000040181EA0B0124EA0A0484EA0B0442EAEE
:1021B0000B0282EA09028EF00C0E88EA0E0983EA0D
:1021C000060A80EA060B60EA060686EA090680EA45
:1021D000080040EA090080EA0A008EEA0A0E4EEA88
:1021E000080E8EEA0B0E28EA0A0888EA0B0843EA72
:1021F0000B0383EA090381EA3E198EEA711A8EEA1B
:10220000B92E81EA7A218CEAFC2980EAF02A80EA58
:1022100039508CEAFA4C87EAB60986EAF70A86EA68
:10222000790687EA0A0782EAF30983EA321A82EA20
:10223000791283EA7A1384EA744988EA784A88EA48
:10224000391884EAFA0487F009078CEA070981EA59
:10225000040A82EA040B62EA040484EA090482EABA
:102260000C0242EA090282EA0A0287EA0A0747EAFE
:102270000C0787EA0B072CEA0A0C8CEA0B0C41EAE4
:102280000B0181EA090186F00C0680EA06098EEA54
:10229000080A83EA080B63EA080888EA090883EA5F
:1022A000000343EA090383EA0A0386EA0A0646EAC8
:1022B000000686EA0B0620EA0A0080EA0B004EEAD6
:1022C0000B0E8EEA090E87EA361986EA771A86EA35
:1022D000B92687EA7A2782EAF22983EAF32A83EA8F
:1022E000395382EAFA4284EAB80988EAF40A88EAA9
:1022F000790884EA0A0481EAFE098EEA311A81EA41
:1023000079118EEA7A1E8CEA7C4980EA704A80EA6A
:1023100039108CEAFA0C84F00C0482EA040987EA8A
:102320000C0A81EA0C0B61EA0C0C8CEA090C81EABC
:10233000020141EA090181EA0A0184EA0A0444EA45
:10234000020484EA0B0422EA0A0282EA0B0247EA48
:102350000B0787EA090788F0090883EA080986EA73
:10236000000A8EEA000B6EEA000080EA09008EEA9D
:10237000030E4EEA090E8EEA0A0E88EA0A0848EAB7
:10238000030888EA0B0823EA0A0383EA0B0346EAF8
:102390000B0686EA090684EA381988EA741A88EA7C
:1023A000B92884EA7A2481EAF1298EEAFE2A8EEAA3
:1023B000395E81EAFA418CEAB00980EAFC0A80EAD7
:1023C00079008CEA0A0C87EAF60986EA371A87EA66
:1023D000791786EA7A1682EA724983EA734A83EAAF
:1023E000391382EAFA028CF0090C81EA0C0984EABA
:1023F000020A87EA020B67EA020282EA090287EA16
:10240000010747EA090787EA0A078CEA0A0C4CEA3F
:10241000010C8CEA0B0C21EA0A0181EA0B0144EA67
:102420000B0484EA090480F009008EEA000988EAB6
:10243000030A86EA030B66EA030383EA090386EAD2
:102440000E0646EA090686EA0A0680EA0A0040EA1B
:102450000E0080EA0B002EEA0A0E8EEA0B0E48EA06
:102460000B0888EA09088CEA301980EA7C1A80EAAD
:10247000B9208CEA7A2C87EAF72986EAF62A86EAD6
:10248000395687EAFA4782EAB30983EAF20A83EA0D
:10249000790382EA0A0284EAF80988EA341A84EAAB
:1024A000791488EA7A1881EA71498EEA7E4A8EEABE
:1024B000391E81EAFA0182F0060287EA02098CEAF3
:1024C000010A84EA010B64EA010181EA090184EA54
:1024D000070444EA090484EA0A0482EA0A0242EA96
:1024E000070282EA0B0227EA0A0787EA0B074CEA8F
:1024F0000B0C8CEA090C83F00C0386EA030980EAD2
:102500000E0A88EA0E0B68EA0E0E8EEA090E88EAB9
:10251000060848EA090888EA0A0883EA0A0343EA3F
:10252000060383EA0B0326EA0A0686EA0B0640EA5C
:102530000B0080EA090082EA331983EA721A83EAFF
:10254000B92382EA7A2284EAF42988EAF82A88EA16
:10255000395884EAFA4481EABE098EEAF10A8EEA21
:10256000790E81EA0A018CEAF00980EA3C1A8CEAC9
:10257000791C80EA7A1087EA774986EA764A86EA01
:10258000391687EAFA0781F0030184EA010982EA31
:10259000070A8CEA070B6CEA070787EA09078CEA47
:1025A000040C4CEA090C8CEA0A0C81EA0A0141EAA3
:1025B000040181EA0B0124EA0A0484EA0B0442EADA
:1025C0000B0282EA09028EF00C0E88EA0E0983EAF9
:1025D000060A80EA060B60EA060686EA090680EA31
:1025E000080040EA090080EA0A008EEA0A0E4EEA74
:1025F000080E8EEA0B0E28EA0A0888EA0B0843EA5E
:102600000B0383EA090381EA3E198EEA711A8EEA06
:10261000B92E81EA7A218CEAFC2980EAF02A80EA44
:1026200039508CEAFA4C87EAB60986EAF70A86EA54
:10263000790687EA0A0782EAF30983EA321A82EA0C
:10264000791283EA7A1384EA744988EA784A88EA34
:10265000391884EAFA0487F006078CEA070981EA48
:10266000040A82EA040B62EA040484EA090482EAA6
:102670000C0242EA090282EA0A0287EA0A0747EAEA
:102680000C0787EA0B072CEA0A0C8CEA0B0C41EAD0
:102690000B0181EA090186F0090680EA06098EEA43
:1026A000080A83EA080B63EA080888EA090883EA4B
:1026B000000343EA090383EA0A0386EA0A0646EAB4
:1026C000000686EA0B0620EA0A0080EA0B004EEAC2
:1026D0000B0E8EEA090E87EA361986EA771A86EA21
:1026E000B92687EA7A2782EAF22983EAF32A83EA7B
:1026F000395382EAFA4284EAB80988EAF40A88EA95
:10270000790884EA0A0481EAFE098EEA311A81EA2C
:1027100079118EEA7A1E8CEA7C4980EA704A80EA56
:1027200039108CEAFA0C84F0030482EA040987EA7F
:102730000C0A81EA0C0B61EA0C0C8CEA090C81EAA8
:10274000020141EA090181EA0A0184EA0A0444EA31
:10275000020484EA0B0422EA0A0282EA0B0247EA34
:102760000B0787EA090788F0090883EA080986EA5F
:10277000000A8EEA000B6EEA000080EA09008EEA89
:10278000030E4EEA090E8EEA0A0E88EA0A0848EAA3
:10279000030888EA0B0823EA0A0383EA0B0346EAE4
:1027A0000B0686EA090684EA381988EA741A88EA68
:1027B000B92884EA7A2481EAF1298EEAFE2A8EEA8F
:1027C000395E81EAFA418CEAB00980EAFC0A80EAC3
:1027D00079008CEA0A0C87EAF60986EA371A87EA52
:1027E000791786EA7A1682EA724983EA734A83EA9B
:1027F000391382EAFA028CF00C0C81EA0C0984EAA3
:10280000020A87EA020B67EA020282EA090287EA01
:10281000010747EA090787EA0A078CEA0A0C4CEA2B
:10282000010C8CEA0B0C21EA0A0181EA0B0144EA53
:102830000B0484EA090480F006008EEA000988EAA5
:10284000030A86EA030B66EA030383EA090386EABE
:102850000E0646EA090686EA0A0680EA0A0040EA07
:102860000E0080EA0B002EEA0A0E8EEA0B0E48EAF2
:102870000B0888EA09088CEA301980EA7C1A80EA99
:10288000B9208CEA7A2C87EAF72986EAF62A86EAC2
:10289000395687EAFA4782EAB30983EAF20A83EAF9
:1028A000790382EA0A0284EAF80988EA341A84EA97
:1028B000791488EA7A1881EA71498EEA7E4A8EEAAA
:1028C000391E81EAFA0182F0090287EA02098CEADC
:1028D000010A84EA010B64EA010181EA090184EA40
:1028E000070444EA090484EA0A0482EA0A0242EA82
:1028F000070282EA0B0227EA0A0787EA0B074CEA7B
:102900000B0C8CEA090C83F0060386EA030980EAC3
:102910000E0A88EA0E0B68EA0E0E8EEA090E88EAA5
:10292000060848EA090888EA0A0883EA0A0343EA2B
:10293000060383EA0B0326EA0A0686EA0B0640EA48
:102940000B0080EA090082EA331983EA721A83EAEB
:10295000B92382EA7A2284EAF42988EAF82A88EA02
:10296000395884EAFA4481EABE098EEAF10A8EEA0D
:10297000790E81EA0A018CEAF00980EA3C1A8CEAB5
:10298000791C80EA7A1087EA774986EA764A86EAED
:10299000391687EAFA0782EA070287EA0C0781EA12
:1029A000040167EA020981F00C0121EA040A82EAC3
:1029B0000A026CEA070A81EA0A0124EA020A87EAA3
:1029C0000A070CEA010A84EA0A048CEA090C84EA80
:1029D00002048CEA010C82EA070283EA060386EA13
:1029E00000068EF0030E8EEA080E66EA03092EEA50
:1029F000080A83EA0A0360EA060A8EEA0A0E28EA4F
:102A0000030A86EA0A0600EA0E0A88EA0A0880EA49
:102A1000090088EA030880EA0E0083EA060382EAD6
:102A2000331983EA721A83EAB92382EA7A2284EAA2
:102A3000F42988EAF82A88EA395884EAFA4481EACB
:102A4000BE098EEAF10A8EEA790E81EA0A018CEA61
:102A5000F00980EA3C1A8CEA791C80EA7A1087EA4D
:102A6000774986EA764A86EA391687EAFA0782EAD9
:102A7000070287EA0C0781EA040167EA020981F08C
:102A8000090121EA040A82EA0A026CEA070A81EAD9
:102A90000A0124EA020A87EA0A070CEA010A84EA20
:102AA0000A048CEA090C84EA02048CEA010C82EA2A
:102AB000070283EA060386EA00068EF0030E8EEA1A
:102AC000080E66EA03092EEA080A83EA0A0360EAA6
:102AD000060A8EEA0A0E28EA030A86EA0A0600EACD
:102AE0000E0A88EA0A0880EA090088EA030880EAF0
:102AF0000E0083EA060382EA331983EA721A83EA34
:102B0000B92382EA7A2284EAF42988EAF82A88EA50
:102B1000395884EAFA4481EABE098EEAF10A8EEA5B
:102B2000790E81EA0A018CEAF00980EA3C1A8CEA03
:102B3000791C80EA7A1087EA774986EA764A86EA3B
:102B4000391687EAFA07CDE90C23009B083D63F1AB
:102B50000003092D009373F10003CDE90E48CDE980
:102B6000101ECDE912C0CDE91476BFF4B2AADDF88B
:102B700024B0089A0699BBF1090362F10002DB0850
:102B800043EA4273083101EBC3025B420692DB0069
:102B9000BBF1080213EB020B0C9C0D9D079F0199E2
:102BA000BE680698A3B243EA05436FF30F0545EAF2
:102BB000144583EA132404F47F4404EB04245C40AA
:102BC00085EA152303F47F4303EB03236B4084EA78
:102BD000141535406C4084EA051483EA131535401A
:102BE0006B4083EA0513D7E9005784EA94063E4018
:102BF000744084EA860483EA93063E40734083EA85
:102C0000860384EA54062E40744084EA460424BABB
:102C10000B9483EA53042C40634083EA44031BBAB9
:102C20005A460A93FDF72CFF002017B0BDEC028B2B
:102C3000BDE8F08F024B07930AAB0193FEF7E6BCA9
:102C4000982F000800B585B0CDE90223009120221D
:102C50000023FDF749FF002005B000BD0000000083
:102C6000E61A357E818257C72082231D445F047097
:102C7000043F3EA152ABD55DB21D0CC34281373E2D
:102C800056D624B69D183537212120556E726567BA
:102C900069737465726564204B44462021210A00E3
:102CA00021212048656170204F4F4D20696E204BD7
:102CB00044462062656E63686D61726B2021210A53
:102CC000000000002D3E20000A2020205B54696D8A
:102CD000696E675D0A0000002020204465726976F5
:102CE000653A2020000000002063790A00000000FF
:102CF0002020205B4D656D6F72795D0A0000000039
:102D000020202048656170205065616B3A202000CA
:102D100020420A00202020537461636B2048574DE5
:102D20003A202000202020537461746963204253AC
:102D3000533A2000202020466C61736820436F6462
:102D4000653A20000A0000005B4B657920446572FB
:102D500069766174696F6E5D0A0000004153434FEC
:102D60004E2D584F4620286173636F6E2900000076
:102D70000A212121204841524457415245204641D1
:102D8000554C5420434155474854202121210A00E5
:102D90000A3D3D3D3D3D3D3D3D3D3D3D3D3D3D3D96
:102DA0003D3D3D3D3D3D3D3D3D3D3D3D3D3D3D3D53
:102DB0003D3D3D3D3D3D3D3D3D3D0A0020204D75A5
:102DC0006C74692D416C676F726974686D20486519
:102DD0007465726F67656E656F7573204672616D9D
:102DE00065776F726B200A003D3D3D3D3D3D3D3DA9
:102DF0003D3D3D3D3D3D3D3D3D3D3D3D3D3D3D3D03
:102E00003D3D3D3D3D3D3D3D3D3D3D3D3D3D3D3DF2
:102E10003D0A0A005B4D656D6F7279204D61705DF2
:102E20000A0000002020466C6173683A20200000F0
:102E300020203130343835373620422028313032A6
:102E400034204B42290A0000202052414D3A2020D4
:102E50002020000020202031333130373220422022
:102E600028313238204B42290A00000020204253EA
:102E7000533A202020202020202020202020202005
:102E8000000000002020486561703A2020200000EA
:102E9000202020002042202862756D7020616C6C1B
:102EA0006F6361746F72290A000000002020537460
:102EB00061636B3A202000002042202867726F7700
:102EC0007320646F776E77617264290A00000000D6
:102ED000537569746520636F6D706C6574652E0A37
:102EE0000000000000000000000000001C000008BE
:102EF0001C000008010000001C0000081C00000865
:102F0000020000001C0000081C0000080300000074
:102F10001C000008480000080500000048000008E8
:102F200048000008080000004800000848000008A9
:102F30000900000048000008480000080B000000DD
:102F4000480000084800000806000000480000088B
:102F5000480000080A000000480000084800000877
:102F60000E00000048000008480000080F000000A4
:102F7000480000084800000812000000480000084F
:102F80004800000830313233343536373839414261
:102F90004344454600000000222222220C0C0C0C67
:042FA000F000F0004D
:0400000508000000EF
:00000001FF
