:020000040800F2
:1000000000000220FD4F0008C94A0008C94A000844
:10001000C94A0008C94A0008C94A00080F2B17D965
:1000200030B5A3F1100485B01319CDE902300D46A7
:10003000CDE90024DDE90A10DDE9082311F016FE00
:1000400005B12C60003818BF0120404205B030BD1A
:100050004FF0FF30704700BF30B585B01C46C31865
:100060000D46CDE9014003930092DDE90A10099B9A
:10007000089A11F0A7FD0DB110342C60003818BF9C
:100080000120404205B030BD08B5084B1A680AB1DE
:10009000002008BD064805F045FF18B9034B0122B2
:1000A0001A60F5E74FF0FF3008BD00BF28000020C0
:1000B0002C00002038B5104B1A6804460D467AB162
:1000C0000E482022214605F031FF88B90C2229462E
:1000D0000A4805F02BFF003818BF0120404238BD08
:1000E000064805F01FFF044B10B901221A60E7E72C
:1000F0004FF0FF3038BD00BF280000202C0000204A
:100100000400000094490108200000000C000000D9
:100110001000000089000008B50000085900000820
:100120001D000008F0B59FB0044604A80D46164611
:100130001F460AF0FBF908BB249804AA20210AF004
:100140004BFBC0B904AB0DF10C0C0390019320469E
:100150003B4632462946CDF800C00AF0D5F90446A0
:1001600004A80AF0F7F94CB90398013818BF4FF00A
:10017000FF301FB0F0BD04A80AF0ECF94FF0FF30DB
:10018000F7E700BF2DE9F0419EB004AC06462046DB
:100190000D46174698460AF0C9F910BB249A2498D0
:1001A000009420231A4419460AF054FBB0B94023A6
:1001B0003246039300944146384603AB0AF0A2F856
:1001C00006460DB1039B2B6020460AF0C3F9301E92
:1001D00018BF012040421EB0BDE8F08120460AF061
:1001E000B9F94FF0FF30F6E770B51B4C23689CB0AF
:1001F00005460E461BB302A80AF098F948BB1748FB
:1002000002AA202109F09AFE00BB40232022CDE95A
:10021000002329466A4602A80AF03CFA01AA0546CC
:10022000314602A80AF056FA04462C4302A80AF006
:1002300091F9201E18BF012040421CB070BD074834
:1002400005F070FE28B901232360D4E702A80AF064
:1002500081F94FF0FF30F0E710000020140000207B
:100260000800000080490108E90100088501000834
:10027000250100082DE9F04186B00024B3F5807F08
:1002800005947CD8144639B34A1E052A6DD93D4DD4
:1002900005F1FF3EAEEB000EBEF1020F844664D9BD
:1002A00021F003074FEA9108C619AE465CF8042B0B
:1002B0004EF8042BB445F9D1B9420DD010F82820DE
:1002C00005F828207A1C914206D90237865CAE5484
:1002D000B94201D9C25DEA554BB35A1E052A38D935
:1002E000284D05F1FF3E0EEB0102121B022A2046AB
:1002F00031D923F0030605EB010C9F08A21950F831
:1003000004EB4CF804EB9042F9D1B3420FD0AA1998
:1003100014F827005054721C9A4208D2A8180236CA
:10032000A25C4254B34202D93544A25D6A540C9C8B
:10033000144A0020CDE9010400900B44124805A99D
:1003400013F0CAF8003818BF0120404206B0BDE8DB
:10035000F081DFF838E0621E8E449C1812F8010F1D
:100360000EF8010F9442F9D1E1E7421E05488E18BC
:1003700012F8015F00F8015BB242F9D1ACE74FF02F
:10038000FF30E3E75801002058000020570100200B
:1003900008B512F06FFD003818BF0120404208BDBB
:1003A00070B586B00C46B3F5807F4FF00001059123
:1003B0001BD805460A980091CDE901100C4805A903
:1003C0001E4612F05FFF80B9059B9B1B236053B153
:1003D00007496A1E11F801CB931C02F801CF266869
:1003E0005B1B9E42F6D806B070BD4FF0FF30FAE7B7
:1003F0005801002010B50B4B0446186882B00A461D
:1004000030B10948214602B0BDE8104005F08EBD6C
:100410000548019105F086FD024B019A0121196002
:10042000EFE700BF4000002044000020050000006E
:10043000A849010891030008A103000875020008FB
:1004400020FB00002DE9F04FDFF8F029DFF8F0394C
:10045000DFF8B415B1EC071A00EE101A00F1800AAB
:1004600004EE90AAD0F80050D0F88060D0F8007167
:10047000D0F88081D0F80042D0F880B2D0F800C324
:10048000D0F880E311EE101A84FB019409FB02FA04
:10049000CAFB03948BFB019B09FB02FACAFB039B7B
:1004A0008CFB019C09FB02FACAFB039C8EFB019E9C
:1004B00009FB02FACAFB039E25445E446744F044EC
:1004C000A5EB4404A6EB4B0BA7EB4C0CA8EB4E0E94
:1004D00011EE901A87FB019709FB02FACAFB0397FA
:1004E00088FB019809FB02FACAFB039812EE101A66
:1004F0008CFB019C09FB02FACAFB039C8EFB019E4C
:1005000009FB02FACAFB039E3D4446446444F3449B
:10051000A5EB4707A6EB4808A4EB4C0CABEB4E0E43
:1005200012EE901A86FB019609FB02FACAFB0396AB
:1005300013EE101A88FB019809FB02FACAFB039814
:1005400013EE901A8BFB019B09FB02FACAFB039B7B
:1005500014EE101A8EFB019E09FB02FACAFB039EE1
:10056000354447445C44F444A5EB4606A7EB4808F1
:10057000A4EB4B0BACEB4E0EC0F88060C0F80071E2
:10058000C0F88081C0F80042C0F880B2C0F800C353
:10059000C0F880E340F8045BD0F80050D0F88060E9
:1005A000D0F80071D0F88081D0F80042D0F880B245
:1005B000D0F800C3D0F880E311EE101A84FB019448
:1005C00009FB02FACAFB03948BFB019B09FB02FAAD
:1005D000CAFB039B8CFB019C09FB02FACAFB039C30
:1005E0008EFB019E09FB02FACAFB039E25445E4472
:1005F0006744F044A5EB4404A6EB4B0BA7EB4C0C73
:10060000A8EB4E0E11EE901A87FB019709FB02FA38
:10061000CAFB039788FB019809FB02FACAFB0398FF
:1006200012EE101A8CFB019C09FB02FACAFB039C18
:100630008EFB019E09FB02FACAFB039E3D44464421
:100640006444F344A5EB4707A6EB4808A4EB4C0C25
:10065000ABEB4E0E12EE901A86FB019609FB02FAE6
:10066000CAFB039613EE101A88FB019809FB02FAE5
:10067000CAFB039813EE901A8BFB019B09FB02FA4D
:10068000CAFB039B14EE101A8EFB019E09FB02FAB3
:10069000CAFB039E354447445C44F444A5EB46063C
:1006A000A7EB4808A4EB4B0BACEB4E0EC0F88060F8
:1006B000C0F80071C0F88081C0F80042C0F880B274
:1006C000C0F800C3C0F880E340F8045B14EE90AAC1
:1006D000B0EB0A0F7FF4C6AEA0F1800000F5806A8F
:1006E00004EE90AA00F1100A05EE10AA10EE101AFE
:1006F000B1EC071A00EE101AD0F80050D0F81060D4
:10070000D0F82070D0F83080D0F84040D0F850B009
:10071000D0F860C0D0F870E011EE101A84FB01949C
:1007200009FB02FACAFB03948BFB019B09FB02FA4B
:10073000CAFB039B8CFB019C09FB02FACAFB039CCE
:100740008EFB019E09FB02FACAFB039E25445E4410
:100750006744F044A5EB4404A6EB4B0BA7EB4C0C11
:10076000A8EB4E0E11EE901A87FB019709FB02FAD7
:10077000CAFB039788FB019809FB02FACAFB03989E
:1007800012EE101A8CFB019C09FB02FACAFB039CB7
:100790008EFB019E09FB02FACAFB039E3D444644C0
:1007A0006444F344A5EB4707A6EB4808A4EB4C0CC4
:1007B000ABEB4E0E12EE901A86FB019609FB02FA85
:1007C000CAFB039613EE101A88FB019809FB02FA84
:1007D000CAFB039813EE901A8BFB019B09FB02FAEC
:1007E000CAFB039B14EE101A8EFB019E09FB02FA52
:1007F000CAFB039E354447445C44F444A5EB4606DB
:10080000A7EB4808A4EB4B0BACEB4E0EC0F8106006
:10081000C0F82070C0F83080C0F84040C0F850B038
:10082000C0F860C0C0F870E040F8045BD0F8005039
:10083000D0F81060D0F82070D0F83080D0F8404068
:10084000D0F850B0D0F860C0D0F870E011EE101AB7
:1008500084FB019409FB02FACAFB03948BFB019B06
:1008600009FB02FACAFB039B8CFB019C09FB02FA01
:10087000CAFB039C8EFB019E09FB02FACAFB039E86
:1008800025445E446744F044A5EB4404A6EB4B0BBF
:10089000A7EB4C0CA8EB4E0E11EE901A87FB0197BC
:1008A00009FB02FACAFB039788FB019809FB02FACD
:1008B000CAFB039812EE101A8CFB019C09FB02FA8A
:1008C000CAFB039C8EFB019E09FB02FACAFB039E36
:1008D0003D4446446444F344A5EB4707A6EB48086F
:1008E000A4EB4C0CABEB4E0E12EE901A86FB01966D
:1008F00009FB02FACAFB039613EE101A88FB019853
:1009000009FB02FACAFB039813EE901A8BFB019BBA
:1009100009FB02FACAFB039B14EE101A8EFB019E20
:1009200009FB02FACAFB039E354447445C44F44485
:10093000A5EB4606A7EB4808A4EB4B0BACEB4E0E21
:10094000C0F81060C0F82070C0F83080C0F8404097
:10095000C0F850B0C0F860C0C0F870E040F8045B68
:1009600015EE10AAB0EB0A0F7FF4C6AE00F17000CE
:1009700014EE90AAB0EB0A0F7FF4B4AEA0F580603D
:1009800010EE101A00F58064D1F804C0D1F808E028
:1009900051F80CBBD0F80050D0F80460D0F80870C3
:1009A000D0F80C8087FB0B9709FB02FACAFB039770
:1009B00088FB0B9809FB02FACAFB03983D444644A6
:1009C000A5EB4707A6EB480886FB0C9609FB02FA45
:1009D000CAFB039688FB0E9809FB02FACAFB039830
:1009E00035444744A5EB4606A7EB4808C0F8046029
:1009F000C0F80870C0F80C8040F8105BB4EB000F32
:100A00007FF4C2AFBDE8F08FC43B01082DE9F04F81
:100A1000DFF82824DFF82834DFF82814B1EC071AAF
:100A200000EE101A00F5806A04EE90AAD0F810408B
:100A3000D0F81460D0F818C0D0F81C803444C444F6
:100A4000A4EB4606ACEB480804EB0C04A4EB4C0CFE
:100A500013EE109A14EE10AA86FB095BC8FB0A5B22
:100A600005FB02F1C1FB035B86FB0A7EC8FB097E26
:100A700007FB02F1C1FB037ED0F80050D0F8046000
:100A8000D0F80870D0F80C8035444744A5EB4606F2
:100A9000A7EB480812EE101A88FB019809FB02FA2E
:100AA000CAFB03983D444644A5EB4707A6EB48081C
:100AB0008CFB019C09FB02FACAFB039C25445E44A3
:100AC0006744F044A5EB4404A6EB4B0BA7EB4C0C9E
:100AD000A8EB4E0EC0F80460C0F80870C0F80C8097
:100AE000C0F81040C0F814B0C0F818C0C0F81CE03E
:100AF00040F8205B14EE90AAB0EB0A0F7FF496AF9B
:100B0000A0F5806040F2040A00F5806A05EE10AAA4
:100B100010EE101AB1EC071A00EE101AD0F880404F
:100B2000D0F8A060D0F8C0C0D0F8E0803444C4440D
:100B3000A4EB4606ACEB480804EB0C04A4EB4C0C0D
:100B400013EE109A14EE10AA86FB095BC8FB0A5B31
:100B500005FB02F1C1FB035B86FB0A7EC8FB097E35
:100B600007FB02F1C1FB037ED0F80050D0F82060F3
:100B7000D0F84070D0F8608035444744A5EB460675
:100B8000A7EB480812EE101A88FB019809FB02FA3D
:100B9000CAFB03983D444644A5EB4707A6EB48082B
:100BA0008CFB019C09FB02FACAFB039C25445E44B2
:100BB0006744F044A5EB4404A6EB4B0BA7EB4C0CAD
:100BC000A8EB4E0EC0F82060C0F84070C0F86080FE
:100BD000C0F88040C0F8A0B0C0F8C0C0C0F8E0E0E5
:100BE000C0F8005000F5807015EE10AABAEB000FA7
:100BF0007FF494AFA0F57F7000F11C0A04EE90AA78
:100C000000F5806A05EE10AA10EE101AB1EC071A72
:100C100000EE101AD0F80050D0F82060D0F84070E4
:100C2000D0F86080D0F88040D0F8A0B0D0F8C0C034
:100C3000D0F8E0E011EE101A86FB019609FB02FAEB
:100C4000CAFB039688FB019809FB02FACAFB0398CA
:100C50008BFB019B09FB02FACAFB039B8EFB019EE7
:100C600009FB02FACAFB039E354447445C44F44442
:100C7000A5EB4606A7EB4808A4EB4B0BACEB4E0EDE
:100C800011EE901A87FB019709FB02FACAFB039742
:100C90008CFB019C09FB02FACAFB039C12EE101AA2
:100CA00088FB019809FB02FACAFB03988EFB019EA0
:100CB00009FB02FACAFB039E3D4446446444F344E4
:100CC000A5EB4707A6EB4808A4EB4C0CABEB4E0E8C
:100CD00012EE901A84FB019409FB02FACAFB0394FA
:100CE00013EE101A8BFB019B09FB02FACAFB039B54
:100CF00013EE901A8CFB019C09FB02FACAFB039CC1
:100D000014EE101A8EFB019E09FB02FACAFB039E29
:100D100025445E446744F044A5EB4404A6EB4B0B2A
:100D2000A7EB4C0CA8EB4E0EC0F82060C0F840704A
:100D3000C0F86080C0F88040C0F8A0B0C0F8C0C063
:100D4000C0F8E0E0C0F8005000F5807015EE10AA81
:100D5000B0EB0A0F7FF45EAFA0F57F7014EE90AA9F
:100D6000BAEB000F7FF44CAFA0F1200010EE101A88
:100D700000F5807404EE904AD1F804C0D1F808E080
:100D800051F80CBBD0F80050D0F80061D0F80072D8
:100D9000D0F8008386FB0B9609FB02FACAFB039688
:100DA00088FB0B9809FB02FACAFB039835444744B9
:100DB000A5EB4606A7EB480887FB0C9709FB02FA50
:100DC000CAFB039788FB0E9809FB02FACAFB03983B
:100DD0003D444644A5EB4707A6EB4808D1F804C0BC
:100DE000D1F808E0D1F80CB051F8104B85FB049510
:100DF00009FB02FACAFB039586FB0C9609FB02FA73
:100E0000CAFB039687FB0E9709FB02FACAFB0397FE
:100E100088FB0B9809FB02FACAFB0398C0F8006133
:100E2000C0F80072C0F8008340F8045B14EE904AEA
:100E3000B4EB000F7FF4A0AFBDE8F08FFFDF7FFCC5
:100E400001E07F00C03F01082DE9F04F4DF6FF7330
:100E5000CFF67F434EF20104C0F27F0440F2550CFE
:100E6000D1F80460D1F8087051F80C5BD2F8049006
:100E7000D2F808A052F80C8B85FB085E05FB03F83E
:100E8000C8FB045E40F804EB86FB096E06FB03F921
:100E9000C9FB046E40F804EB87FB0A7E07FB03FAEC
:100EA000CAFB047E40F804EBBCF1010C7FF4D8AF20
:100EB000D1F80050D2F8008085FB085E05FB03F8EE
:100EC000C8FB045EC0F800E0BDE8F08F2DE9F04FEC
:100ED0004DF6FF73CFF67F434EF20104C0F27F045C
:100EE00040F2550CD1F80460D1F8087051F80C5B51
:100EF000D2F80490D2F808A052F80C8B85FB085E5B
:100F000005FB03F8C8FB045E86FB096506FB03F9D5
:100F1000C9FB046587FB0A7607FB03FACAFB047664
:100F2000D0F80080D0F80490D0F808A00EEB080E9E
:100F300040F80CEB05EB090540F8085C06EB0A06E7
:100F400040F8046CBCF1010C7FF4CCAFD1F8005038
:100F5000D2F80080D0F8006085FB085E05FB03F83E
:100F6000C8FB045E0EEB060EC0F800E0BDE8F08F93
:100F70002DE9F04F2DED098AC0F2013CB1EC0F4A8A
:100F800000F1200E0CEE10EA0BEE900AD0F82020B3
:100F9000D0F86030D0F8A040D0F8E050D0F8206110
:100FA000D0F86071D0F8A081D0F8E09146F220002E
:100FB00014EE10AA3AFB06FE3AFB16F61EFB1C0EB8
:100FC00016FB1C06C6EA2E4ED2FA4EF692FA4EF2E6
:100FD0003AFB07FE3AFB17F71EFB1C0E17FB1C071C
:100FE000C7EA2E4ED3FA4EF793FA4EF33AFB08FEB9
:100FF0003AFB18F81EFB1C0E18FB1C08C8EA2E4E04
:10100000D4FA4EF894FA4EF43AFB09FE3AFB19F979
:101010001EFB1C0E19FB1C09C9EA2E4ED5FA4EF90F
:1010200095FA4EF514EE90AA15EE10BA3AFB04FEAE
:101030003AFB14F41EFB1C0E14FB1C04C4EA2E4ED7
:10104000D2FA4EF492FA4EF23AFB05FE3AFB15F54F
:101050001EFB1C0E15FB1C05C5EA2E4ED3FA4EF5E1
:1010600093FA4EF33BFB08FE3BFB18F81EFB1C0EED
:1010700018FB1C08C8EA2E4ED6FA4EF896FA4EF621
:101080003BFB09FE3BFB19F91EFB1C0E19FB1C095F
:10109000C9EA2E4ED7FA4EF997FA4EF715EE90AAF6
:1010A00016EE10BA3AFB03FE3AFB13F31EFB1C0EBE
:1010B00013FB1C03C3EA2E4ED2FA4EF392FA4EF201
:1010C0003BFB05FE3BFB15F51EFB1C0E15FB1C0533
:1010D000C5EA2E4ED4FA4EF594FA4EF416EE90AAC6
:1010E00017EE10BA3AFB07FE3AFB17F71EFB1C0E71
:1010F00017FB1C07C7EA2E4ED6FA4EF796FA4EF6A5
:101100003BFB09FE3BFB19F91EFB1C0E19FB1C09DE
:10111000C9EA2E4ED8FA4EF998FA4EF817EE90AA70
:1011200018EE10BA3AFB02FE3AFB12F21EFB1C0E3E
:1011300012FB1C02C2EA2E423BFB03FE3BFB13F3F5
:101140001EFB1C0E13FB1C03C3EA2E4318EE90AAD1
:1011500019EE10BA3AFB04FE3AFB14F41EFB1C0E07
:1011600014FB1C04C4EA2E443BFB05FE3BFB15F5B7
:101170001EFB1C0E15FB1C05C5EA2E4519EE90AA98
:101180001AEE10BA3AFB06FE3AFB16F61EFB1C0ED0
:1011900016FB1C06C6EA2E463BFB07FE3BFB17F779
:1011A0001EFB1C0E17FB1C07C7EA2E471AEE90AA5F
:1011B0001BEE10BA3AFB08FE3AFB18F81EFB1C0E99
:1011C00018FB1C08C8EA2E483BFB09FE3BFB19F93B
:1011D0001EFB1C0E19FB1C09C9EA2E4900EE102A41
:1011E00000EE903A01EE104A01EE905A02EE106ABB
:1011F00002EE907A03EE108A03EE909A1BEE900AAC
:10120000D0F80020D0F84030D0F88040D0F8C0505E
:10121000D0F80061D0F84071D0F88081D0F8C0914A
:1012200046F2200014EE10AA3AFB06FE3AFB16F630
:101230001EFB1C0E16FB1C06C6EA2E4ED2FA4EF6FC
:1012400092FA4EF23AFB07FE3AFB17F71EFB1C0E12
:1012500017FB1C07C7EA2E4ED3FA4EF793FA4EF34C
:101260003AFB08FE3AFB18F81EFB1C0E18FB1C0884
:10127000C8EA2E4ED4FA4EF894FA4EF43AFB09FE20
:101280003AFB19F91EFB1C0E19FB1C09C9EA2E4E6C
:10129000D5FA4EF995FA4EF514EE90AA15EE10BA5D
:1012A0003AFB04FE3AFB14F41EFB1C0E14FB1C0458
:1012B000C4EA2E4ED2FA4EF492FA4EF23AFB05FEF2
:1012C0003AFB15F51EFB1C0E15FB1C05C5EA2E4E40
:1012D000D3FA4EF593FA4EF33BFB08FE3BFB18F8AE
:1012E0001EFB1C0E18FB1C08C8EA2E4ED6FA4EF840
:1012F00096FA4EF63BFB09FE3BFB19F91EFB1C0E52
:1013000019FB1C09C9EA2E4ED7FA4EF997FA4EF787
:1013100015EE90AA16EE10BA3AFB03FE3AFB13F351
:101320001EFB1C0E13FB1C03C3EA2E4ED2FA4EF317
:1013300092FA4EF23BFB05FE3BFB15F51EFB1C0E25
:1013400015FB1C05C5EA2E4ED4FA4EF594FA4EF460
:1013500016EE90AA17EE10BA3AFB07FE3AFB17F703
:101360001EFB1C0E17FB1C07C7EA2E4ED6FA4EF7C3
:1013700096FA4EF63BFB09FE3BFB19F91EFB1C0ED1
:1013800019FB1C09C9EA2E4ED8FA4EF998FA4EF804
:101390001BEE900A10EE90AA93FA4AFED3FA4AF393
:1013A000C0F840E0C0F8603011EE90AA95FA4AFE0D
:1013B000D5FA4AF5C0F8C0E0C0F8E05012EE90AAA5
:1013C00097FA4AFED7FA4AF7C0F840E1C0F86071D0
:1013D00013EE90AA99FA4AFED9FA4AF9C0F8C0E188
:1013E000C0F8E09111EE105A94FA45FED4FA45FA8D
:1013F000C0F880E0C0F8A0A012EE107A96FA47FE7E
:10140000D6FA47FAC0F800E1C0F820A113EE109A0E
:1014100098FA49FED8FA49FAC0F880E1C0F8A0A1CC
:1014200010EE103A92FA43FED2FA43FAC0F820A026
:1014300040F804EB1CEE10EAB0EB0E0F7FF4A4AD05
:10144000A0F1200000F5007E06EE90EA0BEE900A77
:10145000D0F80020D0F80430D0F80840D0F80C5074
:10146000D0F81060D0F81470D0F81880D0F81C9024
:1014700046F2200051F804AB3AFB06FE3AFB16F6A2
:101480001EFB1C0E16FB1C06C6EA2E4ED2FA4EF6AA
:1014900092FA4EF23AFB07FE3AFB17F71EFB1C0EC0
:1014A00017FB1C07C7EA2E4ED3FA4EF793FA4EF3FA
:1014B0003AFB08FE3AFB18F81EFB1C0E18FB1C0832
:1014C000C8EA2E4ED4FA4EF894FA4EF43AFB09FECE
:1014D0003AFB19F91EFB1C0E19FB1C09C9EA2E4E1A
:1014E000D5FA4EF995FA4EF5F1E802AB3AFB04FE57
:1014F0003AFB14F41EFB1C0E14FB1C04C4EA2E4E13
:10150000D2FA4EF492FA4EF23AFB05FE3AFB15F58A
:101510001EFB1C0E15FB1C05C5EA2E4ED3FA4EF51C
:1015200093FA4EF33BFB08FE3BFB18F81EFB1C0E28
:1015300018FB1C08C8EA2E4ED6FA4EF896FA4EF65C
:101540003BFB09FE3BFB19F91EFB1C0E19FB1C099A
:10155000C9EA2E4ED7FA4EF997FA4EF7F1E802ABE8
:101560003AFB03FE3AFB13F31EFB1C0E13FB1C039A
:10157000C3EA2E4ED2FA4EF392FA4EF23BFB05FE30
:101580003BFB15F51EFB1C0E15FB1C05C5EA2E4E7C
:10159000D4FA4EF594FA4EF4F1E802AB3AFB07FEAA
:1015A0003AFB17F71EFB1C0E17FB1C07C7EA2E4E53
:1015B000D6FA4EF796FA4EF63BFB09FE3BFB19F9BD
:1015C0001EFB1C0E19FB1C09C9EA2E4ED8FA4EF957
:1015D00098FA4EF81BEE900AC0F81060C0F814702C
:1015E000C0F81880C0F81C90C0F80430C0F808405B
:1015F000C0F80C5040F8202B16EE90EAB0EB0E0F1E
:101600007FF424AFBDEC098ABDE8F08F2DE9F04FDF
:101610002DED088AC0F2013CB1EC0F4A00F5007EC6
:1016200004EE10EA0BEE900AD0F82020D0F8243017
:10163000D0F82840D0F82C50D0F83060D0F8347072
:10164000D0F83880D0F83C9046F2200092FA03FEA1
:10165000D2FA03F394FA05FBD4FA05F596FA07F2E9
:10166000D6FA07F798FA09F4D8FA09F99EFA0BF8AE
:10167000DEFA0BFB92FA04F6D2FA04F415EE10AA85
:101680003AFB05FE3AFB15F51EFB1C0E15FB1C056F
:10169000C5EA2E4ED3FA4EF593FA4EF33AFB09FE05
:1016A0003AFB19F91EFB1C0E19FB1C09C9EA2E4E48
:1016B000D7FA4EF997FA4EF798FA06F2D8FA06F6E4
:1016C00016EE10AA3AFB07FE3AFB17F71EFB1C0E9C
:1016D00017FB1C07C7EA2E4ED3FA4EF793FA4EF3C8
:1016E00016EE90AA3AFB04FE3AFB14F41EFB1C0E05
:1016F00014FB1C04C4EA2E4EDBFA0EF89BFA0EF41F
:1017000017EE10AA3AFB09FE3AFB19F91EFB1C0E54
:1017100019FB1C09C9EA2E4ED5FA4EF995FA4EF579
:1017200018EE10BA3BFB03FE3BFB13F31EFB1C0E33
:1017300013FB1C03C3EA2E4318EE90AA19EE10BA4D
:101740003AFB04FE3AFB14F41EFB1C0E14FB1C04B3
:10175000C4EA2E443BFB05FE3BFB15F51EFB1C0EAD
:1017600015FB1C05C5EA2E4519EE90AA1AEE10BA13
:101770003AFB06FE3AFB16F61EFB1C0E16FB1C0679
:10178000C6EA2E463BFB07FE3BFB17F71EFB1C0E73
:1017900017FB1C07C7EA2E471AEE90AA1BEE10BAD9
:1017A0003AFB08FE3AFB18F81EFB1C0E18FB1C083F
:1017B000C8EA2E483BFB09FE3BFB19F91EFB1C0E39
:1017C00019FB1C09C9EA2E4900EE102A00EE903AD6
:1017D00001EE104A01EE905A02EE106A02EE907A83
:1017E00003EE108A03EE909A1BEE900AD0F80020C8
:1017F000D0F80430D0F80840D0F80C50D0F8106081
:10180000D0F81470D0F81880D0F81C9046F2200060
:1018100092FA03FED2FA03F394FA05FBD4FA05F523
:1018200096FA07F2D6FA07F798FA09F4D8FA09F9FE
:101830009EFA0BF8DEFA0BFB92FA04F6D2FA04F4E5
:1018400015EE10AA3AFB05FE3AFB15F51EFB1C0E21
:1018500015FB1C05C5EA2E4ED3FA4EF593FA4EF34E
:101860003AFB09FE3AFB19F91EFB1C0E19FB1C0979
:10187000C9EA2E4ED7FA4EF997FA4EF798FA06F2C1
:10188000D8FA06F616EE10AA3AFB07FE3AFB17F74F
:101890001EFB1C0E17FB1C07C7EA2E4ED3FA4EF791
:1018A00093FA4EF316EE90AA3AFB04FE3AFB14F4B8
:1018B0001EFB1C0E14FB1C04C4EA2E4EDBFA0EF8B1
:1018C0009BFA0EF417EE10AA3AFB09FE3AFB19F93F
:1018D0001EFB1C0E19FB1C09C9EA2E4ED5FA4EF947
:1018E00095FA4EF51BEE900A10EE90BA93FA4BFE65
:1018F000D3FA4BF3C0F804E0C0F8243011EE90BAEC
:1019000095FA4BFED5FA4BF5C0F80CE0C0F82C5018
:1019100012EE90BA97FA4BFED7FA4BF7C0F814E0E4
:10192000C0F8347013EE90BA99FA4BFED9FA4BF91D
:10193000C0F81CE0C0F83C9011EE105A94FA45FE35
:10194000D4FA45FBC0F808E0C0F828B012EE107ACF
:1019500096FA47FED6FA47FBC0F810E0C0F830B060
:1019600013EE109A98FA49FED8FA49FBC0F818E02D
:10197000C0F838B010EE103A92FA43FED2FA43FBA8
:10198000C0F820B040F840EB14EE10EAB0EB0E0FB8
:101990007FF448AEA0F5007003EE100AD0F80020E6
:1019A000D0F84030D0F88040D0F8C050D0F8006176
:1019B000D0F84071D0F88081D0F8C091B1EC060A1F
:1019C00046F2200092FA03FED2FA03F394FA05FBE2
:1019D000D4FA05F596FA07F2D6FA07F798FA09F459
:1019E000D8FA09F99EFA0BF8DEFA0BFB92FA04F624
:1019F000D2FA04F410EE90AA3AFB05FE3AFB15F574
:101A00001EFB1C0E15FB1C05C5EA2E4ED3FA4EF527
:101A100093FA4EF33AFB09FE3AFB19F91EFB1C0E32
:101A200019FB1C09C9EA2E4ED7FA4EF997FA4EF760
:101A300098FA06F2D8FA06F611EE90AA3AFB07FEDB
:101A40003AFB17F71EFB1C0E17FB1C07C7EA2E4EAE
:101A5000D3FA4EF793FA4EF312EE10AA3AFB04FEB5
:101A60003AFB14F41EFB1C0E14FB1C04C4EA2E4E9D
:101A7000DBFA0EF89BFA0EF412EE90AA3AFB09FE7E
:101A80003AFB19F91EFB1C0E19FB1C09C9EA2E4E64
:101A9000D5FA4EF995FA4EF5F1E802AB3AFB02FEA3
:101AA0003AFB12F21EFB1C0E12FB1C02C2EA2E4273
:101AB0003BFB03FE3BFB13F31EFB1C0E13FB1C0343
:101AC000C3EA2E43F1E802AB3AFB04FE3AFB14F4FE
:101AD0001EFB1C0E14FB1C04C4EA2E443BFB05FE3B
:101AE0003BFB15F51EFB1C0E15FB1C05C5EA2E4520
:101AF000F1E802AB3AFB06FE3AFB16F61EFB1C0EA3
:101B000016FB1C06C6EA2E463BFB07FE3BFB17F7FF
:101B10001EFB1C0E17FB1C07C7EA2E47F1E802ABA1
:101B20003AFB08FE3AFB18F81EFB1C0E18FB1C08BB
:101B3000C8EA2E483BFB09FE3BFB19F91EFB1C0EB5
:101B400019FB1C09C9EA2E4913EE100AC0F80061FE
:101B5000C0F84071C0F88081C0F8C091C0F8403032
:101B6000C0F88040C0F8C05040F8042B00F13C0E93
:101B700007EE10EA03EE100AD0F80020D0F840304B
:101B8000D0F88040D0F8C050D0F80061D0F8407153
:101B9000D0F88081D0F8C09146F2200051F804AB13
:101BA0003AFB03FE3AFB13F31EFB1C0E13FB1C0354
:101BB000C3EA2E4ED2FA4EF392FA4EF23AFB05FEEB
:101BC0003AFB15F51EFB1C0E15FB1C05C5EA2E4E37
:101BD000D4FA4EF594FA4EF43AFB07FE3AFB17F7A7
:101BE0001EFB1C0E17FB1C07C7EA2E4ED6FA4EF73B
:101BF00096FA4EF63AFB09FE3AFB19F91EFB1C0E4B
:101C000019FB1C09C9EA2E4ED8FA4EF998FA4EF87B
:101C1000F1E802AB3AFB04FE3AFB14F41EFB1C0E87
:101C200014FB1C04C4EA2E4ED2FA4EF492FA4EF281
:101C30003BFB05FE3BFB15F51EFB1C0E15FB1C05B7
:101C4000C5EA2E4ED3FA4EF593FA4EF33AFB08FE50
:101C50003AFB18F81EFB1C0E18FB1C08C8EA2E4E97
:101C6000D6FA4EF896FA4EF63BFB09FE3BFB19F905
:101C70001EFB1C0E19FB1C09C9EA2E4ED7FA4EF9A1
:101C800097FA4EF7F1E802AB3AFB06FE3AFB16F67E
:101C90001EFB1C0E16FB1C06C6EA2E4ED2FA4EF692
:101CA00092FA4EF23BFB07FE3BFB17F71EFB1C0EA6
:101CB00017FB1C07C7EA2E4ED3FA4EF793FA4EF3E2
:101CC000F1E802AB3AFB08FE3AFB18F81EFB1C0ECB
:101CD00018FB1C08C8EA2E4ED4FA4EF894FA4EF4BB
:101CE0003BFB09FE3BFB19F91EFB1C0E19FB1C09F3
:101CF000C9EA2E4ED5FA4EF995FA4EF5F1E802AB47
:101D00003AFB02FE3AFB12F21EFB1C0E12FB1C02F7
:101D1000C2EA2E423BFB03FE3BFB13F31EFB1C0EF1
:101D200013FB1C03C3EA2E43F1E802AB3AFB04FEAB
:101D30003AFB14F41EFB1C0E14FB1C04C4EA2E44D4
:101D40003BFB05FE3BFB15F51EFB1C0E15FB1C05A6
:101D5000C5EA2E45F1E802AB3AFB06FE3AFB16F661
:101D60001EFB1C0E16FB1C06C6EA2E463BFB07FE9E
:101D70003BFB17F71EFB1C0E17FB1C07C7EA2E4781
:101D8000F1E802AB3AFB08FE3AFB18F81EFB1C0E0A
:101D900018FB1C08C8EA2E483BFB09FE3BFB19F95F
:101DA0001EFB1C0E19FB1C09C9EA2E4913EE100A72
:101DB000C0F80061C0F84071C0F88081C0F8C091DF
:101DC000C0F84030C0F88040C0F8C05040F8042B44
:101DD00017EE10EAB0EB0E0F7FF4CCAEBDEC088A24
:101DE000BDE8F08F2DE9F04F46F2200EC0F2013C25
:101DF00002F58073D1F80870D1F80C80D2F8049005
:101E0000D1F8045051F8104B52F8086B36FB14FA15
:101E10001AFB1CEAC4EA0A04C6F1000636FB15FAEE
:101E20001AFB1CEAC5EA0A05C0F8045040F8084B42
:101E300039FB17FA1AFB1CEAC7EA0A07C9F10009BD
:101E400039FB18FA1AFB1CEAC8EA0A08C0F8048031
:101E500040F8087BB2EB030F7FF4CCAFBDE8F08F06
:101E60002DE9F04F46F2200EC0F2013C4FF6015B27
:101E7000CEF2085B00F5007AD1F8047051F8084BF7
:101E8000D2F8048052F8085BD3F8049053F8086B3A
:101E900024FB06F606FB0BF616FB3CE624FB15F5C9
:101EA00005FB0BF515FB3CE5C5EA264540F8045B50
:101EB00027FB09F606FB0BF616FB3CE627FB18F89A
:101EC00008FB0BF818FB3CE8C8EA264840F8048BEE
:101ED000B0EB0A0F7FF4D0AFBDE8F08F2DE9F0072B
:101EE0004EF2010CC0F27F0C40F2200AD0F8001034
:101EF000D0F80420D0F80830D0F80C40D0F81050BA
:101F0000D0F81460D0F81870D0F81C8001F5800962
:101F10005FEAE95909FB1C1102F580095FEAE959FA
:101F200009FB1C2203F580095FEAE95909FB1C3310
:101F300004F580095FEAE95909FB1C4405F58009AD
:101F40005FEAE95909FB1C5506F580095FEAE95982
:101F500009FB1C6607F580095FEAE95909FB1C7754
:101F600008F580095FEAE95909FB1C88C0F80420DC
:101F7000C0F80830C0F80C40C0F81050C0F8146029
:101F8000C0F81870C0F81C8040F8201BBAF1010A94
:101F90007FF4ACAFBDE8F007704700BF2DE9F05FFC
:101FA00043F6ED09C0F2550940F2013A40F2200C27
:101FB000D0F80010D0F80420D0F80830D0F80C4049
:101FC000D0F81050D0F81460D0F81870D0F81C80F9
:101FD00051FB19FB0BFB1A1152FB19FB0BFB1A22CD
:101FE00053FB19FB0BFB1A3354FB19FB0BFB1A4475
:101FF00055FB19FB0BFB1A5556FB19FB0BFB1A661D
:1020000057FB19FB0BFB1A7758FB19FB0BFB1A88C4
:10201000C0F80420C0F80830C0F80C40C0F81050D8
:10202000C0F81460C0F81870C0F81C8040F8201B7D
:10203000BCF1010C7FF4BCAFBDE8F09F2DE9F007C7
:102040004EF2010CC0F27F0C40F2200AD0F80010D2
:10205000D0F80420D0F80830D0F80C40D0F8105058
:10206000D0F81460D0F81870D0F81C800CEAE17930
:1020700049440CEAE2794A440CEAE3794B440CEA1D
:10208000E4794C440CEAE5794D440CEAE6794E4497
:102090000CEAE7794F440CEAE879C844C0F8042018
:1020A000C0F80830C0F80C40C0F81050C0F81460F8
:1020B000C0F81870C0F81C8040F8201BBAF1010A63
:1020C0007FF4C4AFBDE8F007704700BF2DE9700092
:1020D0004DF8041D4EF2000CC0F27F0C00EB81069F
:1020E00002EB0303A3F10203B3EB020F40F30A80F8
:1020F00052F8035BC5F316056545D8BF40F8045B8D
:10210000B042F1D15DF8045BA6EB0000A5EB9000B6
:10211000BDE87000704700BF000000000000000034
:1021200000000000000000000000000000000000AF
:10213000000000000000000000000000000000009F
:10214000000000000000000000000000000000008F
:10215000000000000000000000000000000000007F
:10216000000000000000000000000000000000006F
:10217000000000000000000000000000000000005F
:10218000000000000000000000000000000000004F
:10219000000000000000000000000000000000003F
:1021A000000000000000000000000000000000002F
:1021B000000000000000000000000000000000001F
:1021C000000000000000000000000000000000000F
:1021D00000000000000000000000000000000000FF
:1021E00000000000000000000000000000000000EF
:1021F00000000000000000000000000000000000DF
:10220000704700BFAFF30080AFF30080AFF30080F2
:10221000AFF30080AFF30080AFF30080AFF3008036
:10222000AFF30080AFF30080AFF30080AFF3008026
:10223000AFF30080AFF30080AFF30080AFF3008016
:10224000AFF30080AFF30080AFF30080AFF3008006
:10225000AFF30080AFF30080AFF30080AFF30080F6
:10226000AFF30080AFF30080AFF30080AFF30080E6
:10227000AFF30080AFF30080AFF30080AFF30080D6
:10228000AFF30080AFF30080AFF30080AFF30080C6
:10229000AFF30080AFF30080AFF30080AFF30080B6
:1022A000AFF30080AFF30080AFF30080AFF30080A6
:1022B000AFF30080AFF30080AFF30080AFF3008096
:1022C000AFF30080AFF30080AFF30080AFF3008086
:1022D000AFF30080AFF30080AFF30080AFF3008076
:1022E000AFF30080AFF30080AFF30080AFF3008066
:1022F000AFF30080AFF30080AFF30080AFF3008056
:1023000003B32DE9F04122F00704001912F007028F
:102310000BD01C00C2F10805AC4200DD2C00A3EB81
:102320000408230000F0ECF84346DA0804D098468D
:1023300000F066F808F0070313B1002200F0E0F89F
:10234000BDE8F081704700BFAFF30080AFF30080BD
:10235000AFF30080AFF30080AFF30080AFF30080F5
:10236000AFF30080AFF30080AFF30080AFF30080E5
:10237000AFF30080AFF30080AFF30080AFF30080D5
:10238000AFF30080AFF30080AFF30080AFF30080C5
:10239000AFF30080AFF30080AFF30080AFF30080B5
:1023A000AFF30080AFF30080AFF30080AFF30080A5
:1023B000AFF30080AFF30080AFF30080AFF3008095
:1023C000AFF30080AFF30080AFF30080AFF3008085
:1023D000AFF30080AFF30080AFF30080AFF3008075
:1023E000AFF30080AFF30080AFF30080AFF3008065
:1023F000AFF30080AFF30080AFF30080AFF3008055
:1024000051F8044B51F8045BD0E9006704F05533F0
:1024100043EA530303F0333343EA930303F00F33E8
:1024200043EA131303F0FF1363F30F2386EA132623
:1024300005F0553343EA530303F0333343EA930380
:1024400003F00F3343EA131303F0FF1343EA13239C
:1024500086EA034604F0AA3343EA430303F0CC338D
:1024600043EA830303F0F03343EA031303F0FF234B
:1024700043EA032387EA134705F0AA3343EA4303F9
:1024800003F0CC3343EA830303F0F03343EA03134E
:1024900003F0FF2343EA03236FF30F035F40E0E8F9
:1024A0000267013AACD17047AFF30080AFF3008010
:1024B000AFF30080AFF30080AFF30080AFF3008094
:1024C000AFF30080AFF30080AFF30080AFF3008084
:1024D000AFF30080AFF30080AFF30080AFF3008074
:1024E000AFF30080AFF30080AFF30080AFF3008064
:1024F000AFF30080AFF30080AFF30080AFF3008054
:102500000024002530B46A4411F8015B02F8015B35
:10251000013BF9D130BCD0E9006704F0553343EA00
:10252000530303F0333343EA930303F00F3343EAD7
:10253000131303F0FF1363F30F2386EA132605F04A
:10254000553343EA530303F0333343EA930303F071
:102550000F3343EA131303F0FF1343EA132386EA0E
:10256000034604F0AA3343EA430303F0CC3343EABF
:10257000830303F0F03343EA031303F0FF2343EA3A
:10258000032387EA134705F0AA3343EA430303F022
:10259000CC3343EA830303F0F03343EA031303F03D
:1025A000FF2343EA03236FF30F035F40E0E8026772
:1025B000704700BFAFF30080AFF30080AFF300803F
:1025C000AFF30080AFF30080AFF30080AFF3008083
:1025D000AFF30080AFF30080AFF30080AFF3008073
:1025E000AFF30080AFF30080AFF30080AFF3008063
:1025F000AFF30080AFF30080AFF30080AFF3008053
:1026000003B32DE9F04122F00704001912F007028C
:102610000BD01C00C2F10805AC4200DD2C00A3EB7E
:102620000408230000F0ECF84346DA0804D098468A
:1026300000F066F808F0070313B1002200F0E0F89C
:10264000BDE8F081704700BFAFF30080AFF30080BA
:10265000AFF30080AFF30080AFF30080AFF30080F2
:10266000AFF30080AFF30080AFF30080AFF30080E2
:10267000AFF30080AFF30080AFF30080AFF30080D2
:10268000AFF30080AFF30080AFF30080AFF30080C2
:10269000AFF30080AFF30080AFF30080AFF30080B2
:1026A000AFF30080AFF30080AFF30080AFF30080A2
:1026B000AFF30080AFF30080AFF30080AFF3008092
:1026C000AFF30080AFF30080AFF30080AFF3008082
:1026D000AFF30080AFF30080AFF30080AFF3008072
:1026E000AFF30080AFF30080AFF30080AFF3008062
:1026F000AFF30080AFF30080AFF30080AFF3008052
:10270000F0E80245230065F31F446FF30F0545EA27
:10271000134584EA142303F47F435C4084EA0324D2
:1027200084EA141303F0F0135C4084EA031484EA8F
:10273000940303F00C335C4084EA830484EA54037A
:1027400003F022335C4084EA430485EA152303F452
:102750007F435D4085EA032585EA151303F0F013F6
:102760005D4085EA031585EA950303F00C335D406F
:1027700085EA830585EA550303F022335D4085EA47
:10278000430541F8044B013A41F8045BB8D1704766
:10279000AFF30080AFF30080AFF30080AFF30080B1
:1027A000AFF30080AFF30080AFF30080AFF30080A1
:1027B000AFF30080AFF30080AFF30080AFF3008091
:1027C000AFF30080AFF30080AFF30080AFF3008081
:1027D000AFF30080AFF30080AFF30080AFF3008071
:1027E000AFF30080AFF30080AFF30080AFF3008061
:1027F000AFF30080AFF30080AFF30080AFF3008051
:10280000F0E80245260065F31F446FF30F0545EA23
:10281000164584EA142606F47F46744084EA0624AA
:1028200084EA141606F0F016744084EA061484EA6A
:10283000940606F00C36744084EA860484EA540652
:1028400006F02236744084EA460485EA152606F42A
:102850007F46754085EA062585EA151606F0F016CE
:10286000754085EA061585EA950606F00C36754032
:1028700085EA860585EA550606F02236754085EA22
:10288000460530B46A4412F8014B013B01F8014B94
:10289000F9D102B0704700BFAFF30080AFF3008002
:1028A000AFF30080AFF30080AFF30080AFF30080A0
:1028B000AFF30080AFF30080AFF30080AFF3008090
:1028C000AFF30080AFF30080AFF30080AFF3008080
:1028D000AFF30080AFF30080AFF30080AFF3008070
:1028E000AFF30080AFF30080AFF30080AFF3008060
:1028F000AFF30080AFF30080AFF30080AFF3008050
:10290000010000000000000000000000890000003D
:10291000000000008B00008000000000808000802C
:10292000010000008B00000001000000008000009A
:10293000010000008880008001000000820000800B
:10294000000000000B000000000000000A00000072
:1029500001000000828000000000000003800000F1
:10296000010000008B800000010000000B000080CF
:10297000010000008A00008001000000810000804A
:1029800000000000810000800000000008000080BE
:1029900000000000830000000000000003800080B1
:1029A0000100000088800080000000008800008096
:1029B0000100000000800000000000008280008014
:1029C000FF000000AFF30080AFF30080AFF30080A2
:1029D000AFF30080AFF30080AFF30080AFF300806F
:1029E000AFF30080AFF30080AFF30080AFF300805F
:1029F000AFF30080AFF30080AFF30080AFF300804F
:102A0000AFF204112DE9F05F86B00591D0F82030C7
:102A1000D0F84810D0F87050D0F898B0D0F8C0C0B6
:102A200083EA010383EA050383EA0B0383EA0C03C9
:102A3000D0F80C70D0F83410D0F85C50D0F884B0D6
:102A4000D0F8ACC087EA010787EA050787EA0B07D9
:102A500087EA0C0783EAF776D0F81440D0F83C10E8
:102A6000D0F86450D0F88CB0D0F8B4C0CDF8006085
:102A700084EA010484EA050484EA0B0484EA0C0471
:102A800083EA0406D0F81830D0F84010D0F8685027
:102A9000D0F890B0D0F8B8C0CDF80C6083EA01034C
:102AA00083EA050383EA0B0383EA0C0387EA030244
:102AB000D0F80070D0F82810D0F85050D0F878B086
:102AC000D0F8A0C087EA010787EA050787EA0B0765
:102AD00087EA0C0787EAF47AD0F81C40D0F8441053
:102AE000D0F86C50D0F894B0D0F8BCC084EA01049F
:102AF00084EA050484EA0B0484EA0C0484EA070EE1
:102B0000D0F80870D0F83010D0F85850D0F880B015
:102B1000D0F8A8C087EA010787EA050787EA0B070C
:102B200087EA0C0787EAF476D0F82440D0F84C10F6
:102B3000D0F87450D0F89CB0D0F8C4C0CDF8106074
:102B400084EA010484EA050484EA0B0484EA0C04A0
:102B500084EA0708D0F81070D0F83810D0F8605028
:102B6000D0F888B0D0F8B0C0CDF8048087EA01076B
:102B700087EA050787EA0B0787EA0C0787EAF479F3
:102B8000D0F80440D0F82C10D0F85450D0F87CB0D5
:102B9000D0F8A4C0CDF8089084EA010484EA0504C2
:102BA00084EA0B0484EA0C0484EA070B83EAF47CCD
:102BB000D0F81830D0F84840D0F85450D0F884609D
:102BC000D0F8B470C0F8541089EA03038CEA040406
:102BD00088EA05058BEA060682EA070725EA3461DA
:102BE00081EA3351C0F8541026EA755181EA7431F4
:102BF000C0F8841027EA362181EA7571C0F8B41054
:102C000023EAF73181EAF651C0F8181024EA33714B
:102C100081EAF721D0F80830D0F83C40D0F868506D
:102C2000D0F89C60D0F8A470C0F848108AEA03037A
:102C300082EA040489EA05058EEA060688EA07079F
:102C400025EA742181EA3331C0F8A41026EA3561FF
:102C500081EA7401C0F8081027EA761181EA7571DB
:102C6000C0F83C1023EAF75181EA3671C0F86810C9
:102C700024EAF30181EAB761DDF80080D0F824305E
:102C8000D0F82840D0F85850D0F88C60D0F8B87000
:102C9000C0F89C108EEA030388EA04048AEA05055A
:102CA00082EA060689EA070725EAF44181EAF35138
:102CB000C0F8281026EAF50181EAB451C0F858108E
:102CC00027EA365181EAF551C0F88C1023EAB74162
:102CD00081EAB611C0F8B81024EA331181EAB7517D
:102CE000D0F81430D0F84040D0F87050D0F8786068
:102CF000D0F8AC70C0F8241082EA030389EA040417
:102D00008CEA050588EA06068BEA070725EA34619E
:102D100081EA3351C0F8781026EA750181EA7461BE
:102D2000C0F8AC1027EA763181EAB531C0F814104A
:102D300023EAB77181EAF621C0F8401024EA337122
:102D400081EAB761DDF80C90D0F80030046B456E75
:102D5000D0F89460D0F8C070C0F8701088EA03030F
:102D60008AEA040482EA050589EA06068CEA07076E
:102D700026EA755181EA7451C0F8301027EA36719D
:102D800081EA7541C0F8641023EA776181EA7651DF
:102D9000C0F8941024EAB35181EAF731C0F8C010AA
:102DA00025EA040505990C6883EAB52384EA030142
:102DB000DDF81020D0F81C30D0F84C40D0F850503E
:102DC000D0F88060D0F8B070C0F8001089EA030332
:102DD0008EEA040488EA05058AEA060682EA0707FD
:102DE00025EAF45181EAF341C0F8501026EA755102
:102DF00081EA3431C0F8801027EA362181EA757102
:102E0000C0F8B01023EA374181EA3661C0F81C10DF
:102E100024EA337181EA3731D0F80C30D0F83840E9
:102E2000D0F86C50D0F89860D0F8A070C0F84C1072
:102E30008BEA030382EA040489EA05058CEA0606A4
:102E400088EA070725EAB42181EA3331C0F8A010E7
:102E500026EAF55181EA7401C0F80C1027EA7611D0
:102E600081EA3571C0F8381023EA376181EA76715A
:102E7000C0F86C1024EAB30181EAB761DDF8048080
:102E8000D0F82030D0F82C40D0F85C50D0F88860D2
:102E9000D0F8BC70C0F898108CEA030388EA0404E8
:102EA0008BEA050582EA060689EA070725EAF44166
:102EB00081EA3361C0F82C1026EAB50181EA745129
:102EC000C0F85C1027EA765181EAF551C0F8881005
:102ED00023EA774181EAB611C0F8BC1024EA7311E5
:102EE00081EAB751D0F81030D0F84440D0F874508F
:102EF000D0F87C60D0F8A870C0F8201082EA0303F4
:102F000089EA04048EEA050588EA06068AEA0707C4
:102F100025EA346181EA7351C0F87C1026EA750114
:102F200081EA7461C0F8A81027EA363181EA753168
:102F3000C0F8101023EAB77181EAB621C0F8441036
:102F400024EA737181EAF761DDF80890D0F8043063
:102F5000446B056ED0F89060D0F8C470C0F874105F
:102F600088EA03038BEA040482EA050589EA060677
:102F70008EEA070726EA755181EA3451C0F8341009
:102F800027EA767181EAB541C0F8601023EA7761DB
:102F900081EAB651C0F8901024EAB35181EAF731C2
:102FA000C0F8C41025EAF47505994C6883EAF52346
:102FB00084EA030ED0F8C030D0F84810D0F898500A
:102FC000D0F824B0D0F874C0C0F804E083EA3133FC
:102FD00083EAF54383EA3B1383EABC63D0F8347099
:102FE000D0F88010D0F80850D0F85CB0D0F8ACC061
:102FF00087EA315787EAB51787EAFB0787EABC57A4
:103000004FEAB32383EA7756D0F86040D0F8B01087
:10301000D0F83C50D0F888B0D0F814C0CDF800609B
:1030200084EA712484EAB57484EAFB2484EABC143B
:1030300083EA7466D0F89430D0F81810D0F86C5049
:10304000D0F8B8B0D0F844C0CDF80C6083EAB143F2
:1030500083EAF57383EABB4383EA7C0383EAB752CE
:10306000D0F80070D0F85410D0F8A050D0F828B0A4
:10307000D0F87CC087EAB17787EAF54787EAFB6733
:1030800087EA3C3787EA346AD0F89040D0F81C10C1
:10309000D0F86850D0F8BCB0D0F840C084EAB14451
:1030A00084EA050484EAFB4484EA7C0484EA070E8B
:1030B000D0F83070D0F88410D0F80C50D0F858B058
:1030C000D0F8A8C087EA315787EAF51787EAFB07E7
:1030D00087EABC574FEA775787EAF476D0F8C440BE
:1030E000D0F84C10D0F89C50D0F820B0D0F870C078
:1030F000CDF8106084EA313484EAF54484EA3B1464
:1031000084EAFC6487EAB428D0F86470D0F8B4107C
:10311000D0F83850D0F88CB0D0F810C0CDF804807A
:1031200087EA312787EAB57787EAFB2787EABC1762
:103130004FEA776787EA7429D0F80440D0F8501036
:10314000D0F8A450D0F82CB0D0F878C0CDF80890C2
:1031500084EAF17484EA355484EAFB6484EA7C34BA
:1031600084EA070B83EAF47CD0F89430D0F8484026
:10317000D0F8A450D0F85C60D0F81470C0F8A41057
:1031800089EA03038CEAB45488EA35558BEA7666FB
:1031900082EAF77725EA346181EA3351C0F8A41056
:1031A00026EA755181EA7431C0F85C1027EA3621AD
:1031B00081EA7571C0F8141023EAF73181EAF651FB
:1031C000C0F8941024EA337181EAF721D0F8303046
:1031D000D0F8B040D0F86C50D0F82060D0F87870BB
:1031E000C0F848108AEA735382EAB40489EAF57594
:1031F0008EEAB63688EA773725EA742181EA3331D8
:10320000C0F8781026EA356181EA7401C0F8301000
:1032100027EA761181EA7571C0F8B01023EAF751F8
:1032200081EA3671C0F86C1024EAF30181EAB761D3
:10323000DDF80080D0F8C430D0F85440D0F80C50FD
:10324000D0F88860D0F84470C0F820108EEAB3231C
:1032500088EAB4748AEA357582EA361689EA77070D
:1032600025EAF44181EAF351C0F8541026EAF50149
:1032700081EAB451C0F80C1027EA365181EAF551C1
:10328000C0F8881023EAB74181EAB611C0F84410AB
:1032900024EA331181EAB751D0F86030D0F81840F1
:1032A000D0F89850D0F82860D0F8AC70C0F8C410AE
:1032B00082EA736389EAB4448CEA757588EAF66633
:1032C0008BEA373725EA346181EA3351C0F8281098
:1032D00026EA750181EA7461C0F8AC1027EA7631FC
:1032E00081EAB531C0F8601023EAB77181EAF621AE
:1032F000C0F8181024EA337181EAB761DDF80C9048
:10330000D0F80030D0F88440C56BD0F8BC60476F6F
:10331000C0F8981088EA03038AEA742482EAF55513
:1033200089EAF6468CEA371726EA755181EA745124
:10333000C0F8841027EA367181EA7541C0F83C1064
:1033400023EA776181EA7651C0F8BC1024EAB351D0
:1033500081EAF731C0F8741025EA040505998C68F4
:1033600083EAB52384EA0301DDF81020D0F8903019
:10337000D0F84C40D0F8A050D0F85860D0F8107079
:10338000C0F8001089EA03038EEAB45488EAF545D0
:103390008AEA366682EAF77725EAF45181EAF34150
:1033A000C0F8A01026EA755181EA3431C0F85810EF
:1033B00027EA362181EA7571C0F8101023EA3741F7
:1033C00081EA3661C0F8901024EA337181EA37311E
:1033D000D0F83430D0F8B440D0F86850D0F8246039
:1033E000D0F87C70C0F84C108BEAB35382EA7404B6
:1033F00089EA05058CEAB63688EA373725EAB4212A
:1034000081EA3331C0F87C1026EAF55181EA740173
:10341000C0F8341027EA761181EA3571C0F8B4108B
:1034200023EA376181EA7671C0F8681024EAB301B3
:1034300081EAB761DDF80480D0F8C030D0F85040A0
:10344000D0F80850D0F88C60D0F84070C0F8241044
:103450008CEAB32388EAF4748BEA357582EA36166F
:1034600089EA770725EAF44181EA3361C0F8501010
:1034700026EAB50181EA7451C0F8081027EA7651AE
:1034800081EAF551C0F88C1023EA774181EAB61140
:10349000C0F8401024EA731181EAB751D0F86430C3
:1034A000D0F81C40D0F89C50D0F82C60D0F8A87010
:1034B000C0F8C01082EA736389EAB4448EEA757575
:1034C00088EAF6668AEAF72725EA346181EA7351C9
:1034D000C0F82C1026EA750181EA7461C0F8A810C2
:1034E00027EA363181EA7531C0F8641023EAB771F2
:1034F00081EAB621C0F81C1024EA737181EAF761F1
:10350000DDF80890D0F80430D0F88040856BD0F812
:10351000B860076FC0F89C1088EA03038BEAB424F4
:1035200082EAF55589EAB6468EEA771726EA75519A
:1035300081EA3451C0F8801027EA767181EAB541FA
:10354000C0F8381023EA776181EAB651C0F8B810A4
:1035500024EAB35181EAF731C0F8701025EAF47516
:103560000599CC6883EAF52384EA030ED0F8743019
:10357000D0F84810D0F82450D0F8C4B0D0F89CC08F
:10358000C0F804E083EA313383EAF54383EA3B136E
:1035900083EABC63D0F88070D0F85810D0F830506F
:1035A000D0F808B0D0F8ACC087EA315787EAB51731
:1035B00087EAFB0787EABC574FEAB32383EA7756CB
:1035C000D0F83840D0F81010D0F8B050D0F88CB007
:1035D000D0F860C0CDF8006084EA712484EAB57444
:1035E00084EAFB2484EABC1483EA7466D0F8BC3015
:1035F000D0F89410D0F86850D0F844B0D0F81CC07F
:10360000CDF80C6083EAB14383EAF57383EABB43E8
:1036100083EA7C0383EAB752D0F80070D0F8A41094
:10362000D0F87C50D0F854B0D0F82CC087EAB177ED
:1036300087EAF54787EAFB6787EA3C3787EA346A17
:10364000D0F8B840D0F89010D0F86C50D0F840B016
:10365000D0F818C084EAB14484EA050484EAFB4443
:1036600084EA7C0484EA070ED0F88470D0F85C10F9
:10367000D0F83450D0F80CB0D0F8A8C087EA315751
:1036800087EAF51787EAFB0787EABC574FEA7757BF
:1036900087EAF476D0F87040D0F84C10D0F820507B
:1036A000D0F8C0B0D0F898C0CDF8106084EA3134BA
:1036B00084EAF54484EA3B1484EAFC6487EAB4288B
:1036C000D0F83C70D0F81410D0F8B450D0F888B0CE
:1036D000D0F864C0CDF8048087EA312787EAB5774F
:1036E00087EAFB2787EABC174FEA776787EA7429DE
:1036F000D0F80440D0F8A010D0F87850D0F850B0EE
:10370000D0F828C0CDF8089084EAF17484EA3554E2
:1037100084EAFB6484EA7C3484EA070B83EAF47C61
:10372000D0F8BC30D0F84840D0F87850D0F80860D5
:10373000D0F86070C0F8781089EA03038CEAB454BA
:1037400088EA35558BEA766682EAF77725EA3461AE
:1037500081EA3351C0F8781026EA755181EA743154
:10376000C0F8081027EA362181EA7571C0F86010A8
:1037700023EAF73181EAF651C0F8BC1024EA33712C
:1037800081EAF721D0F88430D0F81040D0F86850A2
:10379000D0F8C060D0F82870C0F848108AEA735397
:1037A00082EAB40489EAF5758EEAB63688EA773794
:1037B00025EA742181EA3331C0F8281026EA356100
:1037C00081EA7401C0F8841027EA761181EA7571E4
:1037D000C0F8101023EAF75181EA3671C0F868107A
:1037E00024EAF30181EAB761DDF80080D0F8703097
:1037F000D0F8A440D0F83450D0F88C60D0F81C70C9
:10380000C0F8C0108EEAB32388EAB4748AEA35752A
:1038100082EA361689EA770725EAF44181EAF3510C
:10382000C0F8A41026EAF50181EAB451C0F83410BA
:1038300027EA365181EAF551C0F88C1023EAB741E6
:1038400081EAB611C0F81C1024EA331181EAB7519D
:10385000D0F83830D0F89440D0F82450D0F85460E4
:10386000D0F8AC70C0F8701082EA736389EAB4448F
:103870008CEA757588EAF6668BEA373725EA346193
:1038800081EA3351C0F8541026EA750181EA746167
:10389000C0F8AC1027EA763181EAB531C0F83810AB
:1038A00023EAB77181EAF621C0F8941024EA337153
:1038B00081EAB761DDF80C90D0F80030C46DD0F823
:1038C000B050066CD0F89C70C0F8241088EA03034E
:1038D0008AEA742482EAF55589EAF6468CEA3717B3
:1038E00026EA755181EA7451C0F85C1027EA3671F6
:1038F00081EA7541C0F8B01023EA776181EA765118
:10390000C0F8401024EAB35181EAF731C0F89C10A6
:1039100025EA040505990C6983EAB52384EA0301C5
:10392000DDF81020D0F8B830D0F84C40D0F87C50FA
:10393000D0F80C60D0F86470C0F8001089EA030376
:103940008EEAB45488EAF5458AEA366682EAF77761
:1039500025EAF45181EAF341C0F87C1026EA75515A
:1039600081EA3431C0F80C1027EA362181EA7571FA
:10397000C0F8641023EA374181EA3661C0F8B81014
:1039800024EA337181EA3731D0F88030D0F814401E
:10399000D0F86C50D0F8C460D0F82C70C0F84C103F
:1039A0008BEAB35382EA740489EA05058CEAB636D9
:1039B00088EA373725EAB42181EA3331C0F82C1080
:1039C00026EAF55181EA7401C0F8801027EA7611E1
:1039D00081EA3571C0F8141023EA376181EA767103
:1039E000C0F86C1024EAB30181EAB761DDF8048005
:1039F000D0F87430D0F8A040D0F83050D0F88860BB
:103A0000D0F81870C0F8C4108CEAB32388EAF474B4
:103A10008BEA357582EA361689EA770725EAF4419A
:103A200081EA3361C0F8A01026EAB50181EA745139
:103A3000C0F8301027EA765181EAF551C0F88810B5
:103A400023EA774181EAB611C0F8181024EA73110D
:103A500081EAB751D0F83C30D0F89040D0F82050EF
:103A6000D0F85060D0F8A870C0F8741082EA736380
:103A700089EAB4448EEA757588EAF6668AEAF72719
:103A800025EA346181EA7351C0F8501026EA7501C5
:103A900081EA7461C0F8A81027EA363181EA7531ED
:103AA000C0F83C1023EAB77181EAB621C0F8901043
:103AB00024EA737181EAF761DDF80890D0F80430E8
:103AC000846DD0F8B450466CD0F89870C0F82010CF
:103AD00088EA03038BEAB42482EAF55589EAB646FC
:103AE0008EEA771726EA755181EA3451C0F85810EA
:103AF00027EA767181EAB541C0F8B41023EA77610C
:103B000081EAB651C0F8441024EAB35181EAF73192
:103B1000C0F8981025EAF47505994C6983EAF523F5
:103B200084EA030ED0F89C30D0F84810D0F8C45086
:103B3000D0F870B0D0F820C0C0F804E083EA313388
:103B400083EAF54383EA3B1383EABC63D0F85870F9
:103B5000D0F80C10D0F88450D0F830B0D0F8ACC009
:103B600087EA315787EAB51787EAFB0787EABC5728
:103B70004FEAB32383EA7756D0F8B440D0F8641004
:103B8000D0F81050D0F888B0D0F838C0CDF8006028
:103B900084EA712484EAB57484EAFB2484EABC14C0
:103BA00083EA7466D0F84030D0F8BC10D0F86C507E
:103BB000D0F81CB0D0F890C0CDF80C6083EAB143C7
:103BC00083EAF57383EABB4383EA7C0383EAB75253
:103BD000D0F80070D0F87810D0F82C50D0F8A4B0FD
:103BE000D0F850C087EAB17787EAF54787EAFB67E4
:103BF00087EA3C3787EA346AD0F84440D0F8B810F6
:103C0000D0F86850D0F818B0D0F894C084EAB14425
:103C100084EA050484EAFB4484EA7C0484EA070E0F
:103C2000D0F85C70D0F80810D0F88050D0F834B0DC
:103C3000D0F8A8C087EA315787EAF51787EAFB076B
:103C400087EABC574FEA775787EAF476D0F898406E
:103C5000D0F84C10D0F8C050D0F874B0D0F824C0D0
:103C6000CDF8106084EA313484EAF54484EA3B14E8
:103C700084EAFC6487EAB428D0F8B070D0F8601009
:103C8000D0F81450D0F88CB0D0F83CC0CDF80480F7
:103C900087EA312787EAB57787EAFB2787EABC17E7
:103CA0004FEA776787EA7429D0F80440D0F87C108F
:103CB000D0F82850D0F8A0B0D0F854C0CDF8089073
:103CC00084EAF17484EA355484EAFB6484EA7C343F
:103CD00084EA070B83EAF47CD0F84030D0F84840FF
:103CE000D0F82850D0F83060D0F83870C0F82810DC
:103CF00089EA03038CEAB45488EA35558BEA766680
:103D000082EAF77725EA346181EA33514FEAB171EB
:103D1000C0F8281026EA755181EA74314FEA712102
:103D2000C0F8301027EA362181EA75714FEA710137
:103D3000C0F8381023EAF73181EAF6514FEAB14171
:103D4000C0F8401024EA337181EAF7214FEAB151FB
:103D5000D0F85C30D0F86440D0F86C50D0F8746083
:103D6000D0F85470C0F848108AEA735382EAB40459
:103D700089EAF5758EEAB63688EA773725EA74213E
:103D800081EA33314FEA3151C0F8541026EA3561E7
:103D900081EA74014FEA3171C0F85C1027EA7611AC
:103DA00081EA75714FEAF151C0F8641023EAF751C6
:103DB00081EA3671C0F86C1024EAF30181EAB76138
:103DC0004FEA7171DDF80080D0F89830D0F8784073
:103DD000D0F88050D0F88860D0F89070C0F8741097
:103DE0008EEAB32388EAB4748AEA357582EA361615
:103DF00089EA770725EAF44181EAF3514FEAF16154
:103E0000C0F8781026EAF50181EAB4514FEA316131
:103E1000C0F8801027EA365181EAF5514FEA311196
:103E2000C0F8881023EAB74181EAB6114FEAB141E0
:103E3000C0F8901024EA331181EAB7514FEAB1314A
:103E4000D0F8B430D0F8BC40D0F8C450D0F8A4605A
:103E5000D0F8AC70C0F8981082EA736389EAB44471
:103E60008CEA757588EAF6668BEA373725EA34619D
:103E700081EA33514FEA7131C0F8A41026EA750186
:103E800081EA74614FEA3131C0F8AC1027EA76312B
:103E900081EAB5314FEAF171C0F8B41023EAB77185
:103EA00081EAF6214FEA7101C0F8BC1024EA3371AF
:103EB00081EAB7614FEA7111DDF80C90D0F800305B
:103EC000846805698669076AC0F8C41088EA030334
:103ED0008AEA742482EAF55589EAF6468CEA3717AD
:103EE00026EA755181EA74514FEA7151C0F8081001
:103EF00027EA367181EA75414FEA7161C0F8101006
:103F000023EA776181EA7651C0F8181024EAB351A8
:103F100081EAF7314FEAB121C0F8201025EA040503
:103F200005998C6983EAB52384EA0301DDF8102042
:103F3000D0F84430D0F84C40D0F82C50D0F8346051
:103F4000D0F83C70C0F8001089EA03038EEAB4543C
:103F500088EAF5458AEA366682EAF77725EAF45177
:103F600081EAF3414FEAF171C0F82C1026EA75514D
:103F700081EA34314FEAB121C0F8341027EA362102
:103F800081EA75714FEAB101C0F83C1023EA37416C
:103F900081EA36614FEAB141C0F8441024EA337136
:103FA00081EA37314FEAB151D0F85830D0F860404B
:103FB000D0F86850D0F87060D0F85070C0F84C104D
:103FC0008BEAB35382EA740489EA05058CEAB636B3
:103FD00088EA373725EAB42181EA33314FEAF141E3
:103FE000C0F8501026EAF55181EA74014FEA3171A8
:103FF000C0F8581027EA761181EA35714FEAF1517D
:10400000C0F8601023EA376181EA76714FEAF171F6
:10401000C0F8681024EAB30181EAB7614FEA717110
:10402000DDF80480D0F89C30D0F87C40D0F8845083
:10403000D0F88C60D0F89470C0F870108CEAB3237C
:1040400088EAF4748BEA357582EA361689EA7707CE
:1040500025EAF44181EA33614FEAF161C0F87C104E
:1040600026EAB50181EA74514FEA7161C0F8841003
:1040700027EA765181EAF5514FEA3111C0F88C10E8
:1040800023EA774181EAB6114FEAF141C0F8941072
:1040900024EA731181EAB7514FEAB131D0F8B03058
:1040A000D0F8B840D0F8C050D0F8A060D0F8A870D0
:1040B000C0F89C1082EA736389EAB4448EEA75758D
:1040C00088EAF6668AEAF72725EA346181EA7351BD
:1040D0004FEA3131C0F8A01026EA750181EA746117
:1040E0004FEAF121C0F8A81027EA363181EA75318C
:1040F0004FEAF171C0F8B01023EAB77181EAB62136
:104100004FEA7101C0F8B81024EA737181EAF761CF
:104110004FEA3111DDF80890D0F80430C4684569E1
:10412000C669476AC0F8C01088EA03038BEAB42462
:1041300082EAF55589EAB6468EEA771726EA75517E
:1041400081EA34514FEAB151C0F80C1027EA767178
:1041500081EAB5414FEA7161C0F8141023EA776132
:1041600081EAB651C0F81C1024EAB35181EAF73154
:104170004FEAB121C0F8241025EAF4750599CC69FD
:1041800051F8207F0591FF2F83EAF52384EA03018C
:10419000C0F804107EF43AAC06B0BDE8F09F00BF52
:1041A00070B505463648374E00F0A0FC364B374810
:1041B0001C6800F09BFC2046354C00F0A5FC3548FF
:1041C00000F094FCB44207D2334A02E00434B44213
:1041D00002D223689342F9D0304800F087FC301BAC
:1041E00000F092FC2B4800F081FC2D4800F07EFC92
:1041F0002C4B2D48C01A00F087FC264800F076FCB6
:104200003DB3012D25D0022D23D0042D20D0072D24
:1042100028D0082D28D00A2D28D0052D28D0092DEA
:1042200028D00D2D28D00E2D28D0112D08BF0B25FC
:104230000FD000241D4800F059FC204600F064FC1B
:10424000144800F053FCBDE87040194800F04EBC23
:104250000325184B05EB450503EB8503D3E9013432
:10426000E41AE7E70425F4E70525F2E70625F0E779
:104270000725EEE70825ECE70925EAE70A25E8E740
:10428000BC4701080000022000000020CC470108C4
:10429000D86B0020DC470108EFBEADDEE047010827
:1042A000F047010800000020D42B0020004801083E
:1042B00010480108704B0108074A13682BB10748E2
:1042C000074A03600021116070470649064B074802
:1042D00013600860F3E700BF0C000020040000201A
:1042E0000000002008000020D82B0020D86B002000
:1042F000094A13681BB1094A1068C01A704710B404
:1043000007491160074A0848044C1160074A2060B9
:104310001360401A10BC70470C00002008000020F9
:10432000D82B002004000020D86B002000000020C3
:10433000084B094A93420BD2013AD21A22F00302E7
:10434000043206481A441946043393420860FAD1ED
:10435000704700BFD86B002000000220EFBEADDE2A
:10436000014B0248C01A704700000020D42B0020E7
:10437000014B0248C01A7047D86B00200000022091
:104380002DE9F04F87B06B4605930599B84B9942DC
:1043900005D9B84C1A46043399421460FAD8B64B82
:1043A0001968002900F0E280DFF80C93B34DDFF8C4
:1043B0000C830023C9F800302B78C8F80010834222
:1043C00009D0AF4D2B78834205D0AE4807B0BDE889
:1043D000F04F00F08BBB082800F0EC80072800F0BD
:1043E0002281012800F02181022800F02081052887
:1043F00000F01F81092800F01E81A34BD3F800A014
:1044000001F5A467574500F2C480C8F800704FF466
:1044100020664FF4A46C40F6781E3A460B46002402
:1044200003F8014B9A42FBD1BC195445C9F800C0AE
:10443000224600F2AA80C8F80040002E00F09C80BE
:104440000E463B464FF0000B03F801BB9A42FBD1EE
:10445000631A634502D9C9F800309C4604EB0E028A
:10446000524593467CD8C8F80020BEF1000F06D014
:1044700023464FF0000E03F801EB9342FBD1ABEB68
:104480000101614501D9C9F80010002E68D0002F44
:1044900066D07E4A002380467D48CDE9033200F095
:1044A00025FB686800F022FB7A4800F01FFB00F053
:1044B00051FCAB68394681463046984700F04AFCCB
:1044C000814584BF00F1FF1000F57F40A0EB090992
:1044D000714800F00BFB484600F016FB6F4800F0F7
:1044E00005FB00F037FC009704AA03A90423EF683A
:1044F00081462046B84700F02DFC814584BF00F17D
:10450000FF1000F57F40A0EB0909654800F0EEFAC6
:10451000484600F0F9FA614800F0E8FA00F01AFCA9
:10452000009603992D6904AA042307462046A8474C
:1045300000F010FC874284BF00F1FF1000F57F40BF
:10454000C71B584800F0D2FA384600F0DDFA53484D
:1045500000F0CCFA4046FFF723FE07B0BDE8F08F2D
:10456000514807B0BDE8F04F00F0C0BA464A4F4985
:104570004F4C1960146017E77B1A634517D9C9F8C7
:1045800000309C460E463C4668E73C460E460027F7
:1045900064E701F52064A2454FD34FF0000CC8F842
:1045A00000400F46664640F6781E224649E70E4612
:1045B0003C4653E700223F4B03EBC203324AB3F8B9
:1045C00002C0D2F800A0B3F806E09E880CF1070CF8
:1045D0002CF0070C01EB0C070EF1070E07365745C0
:1045E0002EF0070E26F007063A4610D8C8F80070DD
:1045F000BCF1000F7FF412AF8C19A2452AD3C8F882
:1046000000400F46002ED2D00E46224619E78C19E4
:10461000544523D8C8F800402EB34FF0000C0F4685
:10462000664622460DE70122C5E70222C3E70322C0
:10463000C1E70422BFE70522BDE701F6781BD34599
:104640008ED84FF0000CC8F800B00C46664667469E
:104650005A460DE70E460C466746FFE600260C4616
:10466000B4463746FAE60F46B4463C46F6E600BF87
:10467000D86B0020EFBEADDE0C0000206002000809
:104680002C0400081448010808000020010203045B
:10469000644801086848010878480108844801080E
:1046A0008C480108984801083C480108D82B002094
:1046B000D86B0020404B01080000002004000020BF
:1046C0002DE9F04F8BB06B4609930999C14B994284
:1046D00005D9C14C1A46043399421460FAD8BF4C2C
:1046E000D4F800C0BCF1000F00F09A81BC4BDFF899
:1046F0002CA3BC4900221A609AF80020C1F800C01F
:10470000824205D0B8480BB0BDE8F04F00F0EEB9DA
:10471000DAF814200490002A00F08B8190470028DA
:1047200040F08A81D4F800C0DAF80800AC4BAD49FB
:10473000BCF1000F00F03181AC4AD1F80080D2F812
:1047400000E0073020F0070008EB0002724500F29D
:1047500037810A6028B14046002400F8014B90429E
:10476000FBD11868A2EB0C04844200F21481DAF841
:104770000C00073020F007001418A645C0F0648133
:104780001F680C6028B11046002500F8015BA042AC
:10479000FBD1A4EB0C00B84200D918609346224626
:1047A00002F14004744500F25A81D3F800900C6085
:1047B000A4EB0C071046002500F8015BA042FBD1DA
:1047C0004F4500D91F6004F11007774500F2428180
:1047D0000025186825706570A570E57025716571F4
:1047E000A571E57125726572A572E5722573657311
:1047F000A573E573A7EB0C058542DAF810000F608E
:1048000088BF1D60473020F007003D18754500F255
:104810001E810D60002800F0258138464FF0000908
:1048200000F8019BA842FBD11E68A5EB0C00B0422A
:1048300000D9186005F14000704500F2038108605E
:104840004FF0000E294601F801EB8142FBD11868B8
:10485000A1EB0C01814200D91960B8F1000F00F002
:10486000B380BBF1000F00F0AF80002A00F0AC80F5
:10487000002C00F0A980002F00F0A680002D00F091
:10488000A380511E002301F8013F0133402BFAD1D0
:10489000574B236003F10433636003F10433A360D7
:1048A00003F10433E3605348059200F01FF9DAF88E
:1048B000040000F01BF9504800F018F90023CDE97E
:1048C000073300F047FADAF8183059468146404677
:1048D000984700F03FFA814584BF00F1FF1000F5D2
:1048E0007F40059A0592A0EB0909444800F0FEF8C4
:1048F000484600F009F9424800F0F8F800F02AFABA
:104900001023059A009407A981460193CDE902B8C6
:104910004023DAF81C603846B04700F01BFA8145A6
:1049200084BF00F1FF1000F57F40A0EB0909354876
:1049300000F0DCF8484600F0E7F8314800F0D6F81F
:1049400000F008FA102381463A4608A90094284648
:10495000DAF820400193CDE902B8079BA04705464D
:1049600000F0F8F90446284800F0C0F8A14584BFDB
:1049700004F1FF1404F57F44A4EB090000F0C4F82F
:10498000002D54D0214800F0B1F80498FFF708FC3E
:104990000BB0BDE8F08F1C60E9E61D4A2260C3F849
:1049A00000C0124C0A60944607301A4A2260E04662
:1049B00020F00700964608EB000272457FF6C9AE6C
:1049C00042464FF00008D2E613480BB0BDE8F04F66
:1049D00000F08CB8D86B0020EFBEADDE0C000020DC
:1049E0000000002004000020C0480108080000204A
:1049F000A0A1A2A364480108684801082049010851
:104A0000844801083049010840490108B0480108BC
:104A1000D82B0020D86B0020FC48010800010008BA
:104A2000144B154A1549236011609C465EE61448F4
:104A3000A9E7DAF808007FE612480BB0BDE8F04FAE
:104A400000F054B8002508E74FF0000BA8E63D46FB
:104A50000027EFE62746DAF810000024D2E61446D5
:104A60000022B0E61E68A7EB0C008642FFF4E1AE20
:104A70003D46DFE6D82B002008000020D86B002040
:104A8000A4480108E448010808B50A4800F02EF8D7
:104A9000094B1878FFF774FC084B1878FFF770FC87
:104AA000074800F023F8074B1878BDE80840FFF7E7
:104AB00007BE00BF50490108600200082C0400082E
:104AC0006C490108000100080649074A0A2001F163
:104AD0001F0C13681B06FCD5506011F8010F6145CF
:104AE000F7D1FEE7C049010800100140017841B14B
:104AF000044A13681B06FCD5516010F8011F0029F9
:104B0000F7D170470010014000B585B000238DF843
:104B10000E30002800F0A380624BA3FB0012D208E5
:104B200002EB8201A0EB41013031C9B209288DF8B6
:104B30000D1040F29F80A3FB021C4FEADC0C0CEB33
:104B40008C01A2EB41023032D1B263288DF80C10F7
:104B500040F29380A3FB0C2E4FEADE0E0EEB8E028A
:104B6000ACEB42023032D1B2B0F57A7F8DF80B1047
:104B7000C0F08680A3FB0E2C4FEADC0C0CEB8C0201
:104B8000AEEB42023032D1B242F20F7290428DF857
:104B90000A1078D9A3FB0C2E4FEADE0E0EEB8E0224
:104BA000ACEB4202DFF808C13032D1B260458DF87B
:104BB00009105CD9A3FB0E2C4FEADC0C0CEB8C0229
:104BC000AEEB4202DFF8ECE03032D1B270458DF846
:104BD00008105BD9A3FB0C2E4FEADE0E0EEB8E0203
:104BE000ACEB4202DFF8D0C03032D1B260458DF874
:104BF00007104ED3A3FB0E2C4FEADC0C0CEB8C02FF
:104C0000AEEB4202DFF8B4E03032D1B270458DF83D
:104C1000061041D9A3FB0C23DB0803EB8303224AD4
:104C2000ACEB43033033D9B290428DF8051036D93E
:104C30001C4BA3FB0C23DB0803F130014FF0000EEB
:104C40008DF8041001A8194A704413681B06FCD59E
:104C5000516010F8011F0029F7D105B000BD134ABB
:104C600013681906FCD53023536005B000BD4FF022
:104C7000050EE7E74FF0090EE4E74FF0080EE1E715
:104C80004FF0070EDEE74FF0060EDBE74FF0040EA5
:104C9000D8E74FF0030ED5E74FF0020ED2E74FF002
:104CA000010ECFE7CDCCCCCCFFC99A3B0010014020
:104CB0009F8601003F420F0080969800FFE0F505B7
:104CC000224B010FC0F3036200B513F801E09A5CB8
:104CD00000216EF30701C0F3035C62F30F21C0F300
:104CE000034213F80CE013F802C000F00F0285B085
:104CF0009A5C8DF80D206EF31741C0F303226CF31C
:104D00001F61C0F3031CC0F303309A5C13F80CC09E
:104D10008DF80B201B5C0E4ACDF8061047F63000CC
:104D20004FF0000EADF804008DF80EE08DF80CC0C9
:104D30008DF80A30302101A813681B06FCD551609C
:104D400010F8011F0029F7D105B000BD004C010883
:104D5000001001404FF0E0239869C04320F07F40ED
:104D6000704700BF08B54FF0E0239049D3F8882D75
:104D70008F4C42F47002C3F8882DD1F8442842F0D9
:104D80001002C1F8442842F2080000226FF07F416F
:104D900040F28365A560E0601A61596105219A615E
:104DA0001961FFF789FAFFF7C3FA824A0A2102F173
:104DB0002B0023681B06FCD5616012F8011F82429C
:104DC000F7D17D497A4A202001F12B0413681E0691
:104DD000FCD5506011F8010FA142F7D17749744A10
:104DE0003D2001F12B0413681D06FCD5506011F81D
:104DF000010FA142F7D1FFF77BFA0546FFF7B8FA9A
:104E00000446FFF7ADFA6E49694A064601F10D0CFA
:104E10005B2013681B06FCD5506011F8010F61453B
:104E2000F7D16849624A202001F10A0C13681B0679
:104E3000FCD5506011F8010F6145F7D14FF00060CB
:104E4000FFF73EFF60495A4A202001F1160C136813
:104E50001B06FCD5506011F8010F6145F7D15B4985
:104E6000534A202001F10A0C13681B06FCD5506040
:104E700011F8010F6145F7D14FF00050FFF720FF07
:104E800053494B4A202001F1150C13681B06FCD531
:104E9000506011F8010F6145F7D14E49444A202076
:104EA00001F1140C13681B06FCD5506011F8010FBA
:104EB0006145F7D13046FFF727FE47493C4A20209D
:104EC000CE1C13681B06FCD5506011F8010FB142CF
:104ED000F7D14249364A202001F10A0613681B0621
:104EE000FCD5506011F8010FB142F7D13C48FFF7F3
:104EF000E7FE3C492E4A2020CE1C13681B06FCD539
:104F0000506011F8010FB142F7D12846FFF7FCFDC0
:104F10003549274A202001F1140513681B06FCD5EA
:104F2000506011F8010FA942F7D13049204A2020E2
:104F300001F10A0513681B06FCD5506011F8010F3A
:104F4000A942F7D12A48FFF7BBFE2649184A20207C
:104F500013681B06FCD5506011F8010FB142F7D160
:104F60002046FFF7D1FD2349114A202001F1140406
:104F700013681D06FCD5506011F8010FA142F7D14E
:104F80000B4A13681906FCD50A235360FFF77CFD12
:104F90001949074A532001F1100413681B06FCD578
:104FA000506011F8010FA142F7D1FEE70030024036
:104FB00000100140E04901080C4A0108384A010884
:104FC000644A0108744A0108804A0108984A0108A5
:104FD000A44A0108BC4A0108DC470108D44A010878
:104FE000D82B0020E04A0108E44A0108FC4A0108E5
:104FF000D86B0020084B0108204B010838B5244C21
:10500000244B9C4221D2013B1B1B032B22463BD944
:105010009B08214D03F1010C4FEA5C0E2B4605EB7A
:10502000CE0ED3E9000108339E45C2E9000102F12A
:105030000802F6D11CF0010F07D02CF0010C04EB94
:105040008C0405EB8C052B682360144C14498C42AE
:1050500018D20139091B0329234617D989080131C0
:10506000480804EBC0000022C3E900220833834251
:10507000FAD1CB0706D521F0010104EB810C002306
:10508000CCF80030FFF76EFE034DDCE7A446F6E7F0
:105090000000002000000020B8D50108000000201A
:1050A000D42B002030B5044612B3501E0228C9B2DA
:1050B00020D94FF0000C61F3070C61F30F2C61F362
:1050C000174C22F0030561F31F6C234604EB050E19
:1050D00043F804CB9E45FBD1AA4209D0401B8EF871
:1050E000001028B101288EF8011018BF8EF80210A8
:1050F000204630BDA646F2E772B3F0B5541E052C2B
:10510000164620D9451A013D022D84460B461AD970
:1051100022F0030597086A1853F804EB4CF804EBE7
:105120009342F9D1AE420DD011F8272000F8272084
:10513000641B00EB050205D059785170012C01D099
:105140009B789370F0BD441E8B1911F8012B04F865
:10515000012F8B42F9D1F0BD704700BF8842F0B5F6
:10516000044627D222B3531E052B1E462ED9844651
:10517000401A013802280B4628D922F003000746BE
:105180009508084453F804EB4CF804EB8342F9D13A
:10519000BA420DD011F8252004F82520F21B04EBAB
:1051A000070105D058784870012A01D09B788B7090
:1051B0002046F0BD002AFBD08B18024413F801CD25
:1051C00002F801CD9942F9D12046F0BD631E0A4490
:1051D00011F8010B03F8010F8A42F9D1E8E700BF8B
:1051E0007AB1013A431E0139104401E0834208D0EC
:1051F00013F8012F11F801CF6245F7D0A2EB0C0094
:1052000070470020704700BF0649C31D0A6823F09D
:1052100007031344B3F5005F9DBF03480B6080187C
:1052200000207047CC0B0020D00B0020704700BF3F
:1052300000286FD0F0B50746ADF5037D17F8232B96
:10524000014600240123154611F8012FAA4214BF7C
:105250000125002503F1010318BF00232B441E2B59
:10526000C8BF44F001048F42EDD100210191019BA0
:10527000019FDB4303F0240307F4007702AD0646E9
:105280001F434FF400722846FFF70CFF67B1781EEA
:10529000721E304412F8011F35F81130904203F1AC
:1052A000010325F81130F5D10DF106030DF20621A9
:1052B000002033F8022FB2F5A27F88BF40F0010032
:1052C0009942F6D1232F1BD807F1FF3CF71BB444BA
:1052D0002337013E16F8011F1CF8012F35F8113055
:1052E000013B25F8113035F8123001339BB2B3F58C
:1052F000A27F88BF40F00100B74225F81230E9D103
:1053000034B9A04218BF6FF493700DF5037DF0BD62
:105310000248FAE76FF0AC00704700BFDAFEFFFF0B
:105320002DE9F041A6B000238DF80230002871D09D
:1053300090460123394A01920E468DF8033002252A
:10534000372705E00AA801F051FA012D49D00125BF
:105350000AA801F013FA0446002842D101220DF1F7
:1053600003010AA801F038F804460028EAD19DF8A4
:105370000330042201330DEB02010AA88DF803303B
:1053800001F02AF804460028DCD19DF80230042BF5
:1053900008D001220DF102010AA801F01DF804460F
:1053A0000028CFD1372241460AA801F015F804465B
:1053B0000028C7D102A90AA801F0EAF804460AA801
:1053C00001F014FA002CC0D1202F02A91DD93046BB
:1053D0002022FFF791FE012DA7F1200706F12006FC
:1053E000B5D100220023BFF35B8FCDE90223CDE9C5
:1053F0000423CDE90623CDE90823201E18BF012090
:10540000BFF35B8F26B0BDE8F0813A463046FFF728
:1054100073FE9AE7012026B0BDE8F081000001B8D4
:105420002DE9F043A7B00E4604218DF802100028A4
:1054300000F08E809946484B0193012390468DF8E9
:1054400003300225372705E00AA801F0CFF9012D26
:1054500052D001250AA801F091F9044600284BD149
:1054600001220DF103010AA800F0B6FF044600284E
:10547000EAD19DF80330042201330DEB02010AA8A2
:105480008DF8033000F0A8FF04460028DCD19DF819
:105490000230042B08D001220DF102010AA800F00D
:1054A0009BFF04460028CFD14A4641460AA800F097
:1054B00093FF04460028C7D12E9B0BB12F9B7BBBCB
:1054C000309B13B1319B002B38D102A90AA801F0FF
:1054D0005FF804460AA801F089F9002CB7D1202F03
:1054E00002A926D930462022FFF706FE012DA7F19A
:1054F000200706F12006ACD100220023BFF35B8F0A
:10550000CDE90223CDE90423CDE90623CDE9082323
:10551000201E18BF0120BFF35B8F27B0BDE8F083CA
:105520002E991A460AA800F057FF044600288BD18E
:10553000C6E73A463046FFF7DFFD88E730991A465E
:105540000AA800F049FF044600287FF47DAFBCE7BD
:10555000012027B0BDE8F083000001B82DE9F04339
:10556000A7B001248DF80240002800F08F809946F2
:10557000484B01930E4690468DF80340022537278D
:1055800005E00AA801F032F9012D53D001250AA83F
:1055900001F0F4F8044600284CD101220DF103017A
:1055A0000AA800F019FF04460028EAD19DF803304C
:1055B000042201330DEB02010AA88DF8033000F03C
:1055C0000BFF04460028DCD19DF80230042B08D0E4
:1055D00001220DF102010AA800F0FEFE0446002897
:1055E000CFD1372241460AA800F0F6FE0446002833
:1055F000C7D1B9F1000F01D02E9B7BBB2F9B13B1FC
:10560000309B002B38D102A90AA800F0C1FF044644
:105610000AA801F0EBF8002CB6D1202F02A926D958
:1056200030462022FFF768FD012DA7F1200706F183
:105630002006ABD100220023BFF35B8FCDE902230C
:10564000CDE90423CDE90623CDE90823201E18BFA8
:105650000120BFF35B8F27B0BDE8F0831A464946AF
:105660000AA800F0B9FE044600288AD1C6E73A46E7
:105670003046FFF741FD87E72F991A460AA800F048
:10568000ABFE044600287FF47CAFBCE7204627B081
:10569000BDE8F083000001B830B595B0044605912F
:1056A00015460021372206A8FFF7FCFC0022CDE9B1
:1056B0000122059B009504F1080206A92046FFF788
:1056C0004DFFD0B1012000220023BFF35B8FCDE955
:1056D0000623CDE90823CDE90A23CDE90C23CDE942
:1056E0000E23CDE9102300231293ADF84C308DF832
:1056F0004E30BFF35B8F15B030BD372206A904F1E1
:105700000800FFF7F9FC04F1080204F13F0120460C
:10571000FFF706FE0028D5D101220023C4E90023AB
:10572000D1E700BF2DE9F04FDBB0002800F0DE80AC
:10573000C24CD0F804B00F46016800918C424FF083
:10574000000171EB0B01C0F0D6801E460323154605
:1057500004468DF80F301EB1649B002B40F0A680EC
:1057600004F1080A012D38BF012515F01F0818BFE4
:105770004FF001080DF1500908EB5518372251463A
:105780004846FFF7B9FCB8F1000F07D000263EA845
:1057900000F0F4FF70B33EA801F028F8BFF35B8F70
:1057A00000230022CDE91423CDE91623CDE91823E7
:1057B000CDE91A23CDE91C23CDE91E230023C9F826
:1057C0003030A9F8343089F836300125BFF35B8FCB
:1057D00000220023BFF35B8FCDE90423CDE906232C
:1057E000CDE90823CDE90A232846BFF35B8F5BB0E0
:1057F000BDE8F08F372249463EA800F0EDFD0028B5
:10580000C9D10CA93EA800F0C3FE01903EA800F04B
:10581000EDFF019B002BC1D147B135B11F2D32D80F
:105820002A460CA93846FFF767FC00250136B0452B
:10583000ADD10023BFF35B8F0022C9F83030A9F847
:10584000343089F836300023CDE91423CDE916230E
:10585000CDE91823CDE91A23CDE91C23CDE91E2378
:1058600022A8BFF35B8F00F089FF002848D022A850
:1058700000F0BCFF0125D4E90032013342F10002FF
:10588000C4E90032A4E7202238460CA9FFF734FC13
:10589000203D20370DF1870212F8013D0133DBB2C4
:1058A0001370002BC2D14A45F6D1BFE7022322A8CC
:1058B0008DF8F83000F062FFC0B901223EA922A89D
:1058C00000F08AFD002800F0BB8022A800F08EFFC7
:1058D000BFF35B8F00220023CDE90423CDE906232B
:1058E000CDE90823CDE90A23BFF35B8F01252846C4
:1058F0005BB0BDE8F08F022528465BB0BDE8F08FB5
:105900000DF10F01012222A800F066FD0028AED1A2
:105910003722514622A800F05FFD0028A7D104A934
:1059200022A800F035FE054622A800F05FFF002DFA
:10593000A0D104F13F020DF12F06104629460DF1CA
:105940000F0C10F8017D16F801393B440B44B445A7
:1059500003704FEA1321F4D104F11F0010F8013D48
:105960000B449BB2504503704FEA1321F6D100233C
:1059700012F8011D92F8370001440B449245137050
:105980004FEA1323F4D1009B94F83D001ABA94F81F
:105990003E3003EB126384F83E30C3F30723C2F3B7
:1059A0000746034494F83C003344C2F307263044CE
:1059B00084F83D3000EB132394F83B0094F83960F1
:1059C0009BB250FA82F202EB132284F83C3094F836
:1059D0003A3084F83B209BFA8BF103EB116303EB25
:1059E0001223C3F3072094F8382030449EB2C1F349
:1059F00007431844C1F307231A4494F8373002EBE5
:105A0000102253FA81F1C2F307230B44002192B212
:105A100063F3070162F30F2160F31741224666F337
:105A20001F6142F8371F1B0A12F8011D0B449BB27D
:105A3000924513704FEA1323F6D11CE73F420F0043
:105A400004F1080A3722514622A800F0C5FC0028BC
:105A50007FF43BAF649A314622A800F0BDFC0028D9
:105A60007FF433AF04A922A800F092FD064622A8D5
:105A700000F0BCFE002E7FF42BAF314604F13F0056
:105A80000DF12F020DF10F0C10F8016D12F8013914
:105A900033440B44944503704FEA1321F4D104F1CD
:105AA0001F0212F8013D0B449BB2924513704FEA5E
:105AB0001321F6D156E600BFF0B585B015460A9C15
:105AC0000F9A002C54D00E9C002C51D000294CD1A0
:105AD000802A7AD104460F4600211E46FFF7E2FADB
